:020000040800F2
:100000008826002055010008FF450008A14100088E
:10001000FD45000805190008696A00080000000095
:10002000000000000000000000000000F958000877
:10003000551E000800000000414B00082F59000821
:100040006F0100086F0100086F010008E54D00080E
:100050006F0100086F010008591E00085F1E0008AC
:100060006F0100086F010008651E00086F0100089D
:100070006F0100086F010008C91C00086F0100082B
:100080006F0100086F0100086F0100086F01000890
:100090006F0100086F0100086F0100086F01000880
:1000A0006F0100086F0100086F0100086F01000870
:1000B0006F0100086F0100086F0100086F01000860
:1000C0006F0100086F0100086F0100086F01000850
:1000D0005D670008A54300086F0100086F01000874
:1000E0006F0100086F0100086F0100086F01000830
:1000F000A5410008A9410008FF3A00086F01000867
:100100006F0100086F0100086F0100086F0100080F
:100110006F0100086F0100086F0100086F010008FF
:100120006F0100086F010008D51C00086F0100086E
:100130006F0100086F0100086F010008DFF810D0A0
:1001400000F0DEFA00480047D17D0008AFF30080E0
:10015000882600200648804706480047FEE7FEE75D
:10016000FEE7FEE7FEE7FEE7FEE7FEE7FEE7FEE767
:10017000B55900083D0100082DE9F05F0546002053
:1001800092469B4688460646814640241BE0284608
:1001900041464746224600F0FFF853465A46C01AE9
:1001A000914110D311461846224600F0E6F82D1A68
:1001B00067EB01084F4622460120002100F0DDF8E0
:1001C00017EB00094E41201EA4F10104DFDC484674
:1001D00031462A464346BDE8F09F10B540EA010487
:1001E0000346A40703D009E010C9121F10C3042A54
:1001F000FAD203E011F8014B03F8014B521EF9D279
:1002000010BDD2B201E000F8012B491EFBD27047AD
:100210000022F6E710B513460A4604461946FFF7D2
:10022000F0FF204610BD421C10F8011B0029FBD135
:10023000801A704710B5002200E0521C835C8C5C71
:10024000A34201D1002BF8D1D8B2E1B2401A10BDBF
:100250002DE9FE4F81EA030404F0004421F000413F
:1002600000944FF0000B23F0004350EA01045ED0ED
:1002700052EA03045BD0C3F30A54C1F30A552C4479
:10028000A4F2F3340194A0FB0254C1F3130141F42E
:100290008011C3F3130343F4801301FB024400FBFA
:1002A000034E840A970A44EA815447EA8357A4FB21
:1002B000076802958D0A05FB07854FEA932C04FB1E
:1002C0000C542705029D4FEA065847EA1637B5EB4E
:1002D00008056EEB070C870E920E47EA811742EA7B
:1002E0008312A7FB0201B6EB0B0164EB00042B0D9C
:1002F00043EA0C335E1844EB1C50DA465146E7FBE8
:100300000201C5F313044FEA0B3343EA14534FEAD7
:100310000432019C43EA0603A4F10C040294009CFD
:10032000CDE900B400F057F803B0BDE8F08F00202D
:100330000146F9E70EB540F2334102910021CDE9C3
:1003400000110A460B4600F046F803B000BD30B578
:100350000B46014600202022012409E021FA02F583
:100360009D4205D303FA02F5491B04FA02F528441D
:10037000151EA2F10102F1DC30BD202A04DB203A77
:1003800000FA02F1002070479140C2F1200320FAE8
:1003900003F3194390407047202A04DB203A21FAE6
:1003A00002F00021704721FA02F3D040C2F120028E
:1003B000914008431946704710B5141E73F10004AC
:1003C00008DA401C41F1000192185B411A4301D147
:1003D00020F0010010BD2DE9F04D92469B4611B171
:1003E000B1FA81F202E0B0FA80F220329046FFF7D3
:1003F000C4FF04460F4640EA0A0041EA0B01534697
:100400005A46084313D0114653EA010019D0C8F1E7
:1004100040025046FFF7C0FF05460E46504659467B
:100420004246FFF7AAFF084305D0012004E020461A
:100430003946BDE8F08D0020054346EAE0762C43BE
:1004400037430A986305E40AA0EB08000022FD0A7E
:1004500044EA47540A3002D500200146E9E7010585
:1004600010196941DDE9084500196941BDE8F04D01
:10047000A2E72DE9FE4F804681EA0300C00F0C463B
:10048000009021F0004123F00045B8EB0200A941A3
:1004900005D24046214690461C460B46024623F0B4
:1004A0000040104347D0270DC7F30A00C3F30A5199
:1004B0000290401A019040286BDAC3F3130040F415
:1004C000801B0098924620B10023D2EB030A63EB15
:1004D0000B0B01985946C0F140025046FFF74DFF03
:1004E00006460D4650465946019A00F01BF910EB9E
:1004F00008006141002487EA115284EAE7731A4335
:1005000040D0009A62B3019A012A4FEA075215DCE3
:10051000001B61EB02014FF0004202EA0752CDE9F5
:100520000042001C41F5801132462B46FFF753FF75
:1005300003B0BDE8F08F40462146F9E7001B61EBB0
:100540000201001C41F5801300185B412018A2F540
:10055000001747EB030140EAD570B6196D4111E071
:100560006D084FEA360645EAC0754FEA0752001B90
:1005700061EB0201001C41F5801149084FEA30008F
:100580000019514132462B4603B0BDE8F04FFFF74A
:1005900013BF0098012240000023D0EB020263EB5E
:1005A000E073009821464FEAE074B8EB000061EB7D
:1005B0000401E9E783F000435BE781F0004158E77D
:1005C0002DE9F04D81EA030404F0004B21F00045D1
:1005D00014464FF0000A23F0004150EA050220D0F3
:1005E00054EA01021DD0C5F30A570246C5F31303AE
:1005F000C1F31300C1F30A5640F4801543F480138D
:10060000A7EB0608101BD64608F2FD3873EB050071
:1006100002D308F1010801E092185B41B8F1000F24
:1006200003DA00200146BDE8F08D00204FF4801170
:10063000064684460EE0171B73EB050705D3121B15
:1006400063EB050306434CEA010C49084FEA30000E
:1006500092185B4150EA0107EDD152EA030012D033
:1006600082EA040083EA0501084305D0101BAB4170
:1006700006D20122002306E000224FF0004302E0F0
:100680006FF0010253101AEB06004CEB085110EB0F
:100690000A0041EB0B01BDE8F04DFFF78DBEC1F341
:1006A0000A52C1F3130140F2FF3341F480119A4220
:1006B00002DA00200146704740F233439A42A2F228
:1006C000334202DC5242FFF767BEFFF756BE00001E
:1006D00030B5041E71F1000404DB4FF000444042C9
:1006E00064EB0101141E73F1000405DB1C464FF09E
:1006F0000043524263EB0403994208BF904230BD6D
:10070000064C074D06E0E06840F0010394E807005E
:1007100098471034AC42F6D3FFF714FDEC8700087D
:100720002C880008202A06DBCB17203A41FA02F079
:1007300043EAE07306E041FA02F3D040C2F120023E
:10074000914008431946704770B58C1810F8015B4A
:1007500015F0070301D110F8013B2A1106D110F85A
:10076000012B03E010F8016B01F8016B5B1EF9D15E
:100770002B0705D40023521E0DD401F8013BFAE7E4
:1007800010F8013BCB1A921C03E013F8015B01F84F
:10079000015B521EF9D5A142D8D3002070BD0000E4
:1007A00000B587B01C2205496846FFF716FD05F025
:1007B000E7F9684604F067FC07B000BD0C8100084B
:1007C00010B501F053FB01F059FB0548016841F4F5
:1007D0008031016001F0E0FABDE8104000F002B89D
:1007E00090080058F0B585B014216846FFF710FD59
:1007F0000024324B324A2646254621464FF0904788
:100800004FF4806C02EBC10090F806E0BEF1000FDF
:100810000AD0D0F800E0BE4549D01EEB030E49D007
:10082000E64501D180880543491CC9B22629E9D390
:100830000020029001200190032003907CB1012050
:10084000009403F0E8FC012003F014FD69463846EB
:1008500001F0FEFC00222146384601F0C1FD8EB1B8
:100860000220009603F0D7FC022003F003FD134C96
:1008700069466442204601F0EBFC002231462046E6
:1008800001F0AEFD002D10D00420009503F0C3FC54
:10089000042003F0EFFC0B4C6946204601F0D8FC25
:1008A00000222946204601F09BFD05B0F0BD80885E
:1008B0000443B9E780880643B6E7000000FCFFB7B1
:1008C000DC7F00080008004810B5446806A0617B82
:1008D00006F0CCF8607B20B10FA0BDE8104006F018
:1008E000C5B81BA0F9E700003E3E3D3D20534843FC
:1008F000495F5355425F4556545F4552524F525FD0
:100900004E4F544946205749544820524541534F71
:100910004E202578200A0D003E3E3D3D20534843A1
:10092000495F5355425F4556545F4552524F525F9F
:100930004E4F544946205749544820524541534F41
:100940004E202D20424C45204552524F52200A0045
:100950003E3E3D3D20534843495F5355425F455617
:10096000545F4552524F525F4E4F544946205749AB
:10097000544820524541534F4E202D204552525F3E
:10098000424C455F494E4954200A00007FB500247F
:10099000009401940294039441680546497B29B16F
:1009A00001292AD017A006F061F87FBD22A006F029
:1009B0005DF8FFF7F5FE0F208DF80000254D7F2034
:1009C0008DF802002868040C214623A006F04EF89A
:1009D000ADF80C402868C0F30B04214627A006F0B0
:1009E00045F8ADF80E40684604F041FB00F088F988
:1009F0000021012005F0C0FE7FBD28A006F036F8DA
:100A00002C707FBD3E3E3D3D20534843495F5355CA
:100A1000425F4556545F434F44455F5245414459F8
:100A2000202D20554E4558504543544544204341C0
:100A30005345200A0D0000003E3E3D3D20574952DF
:100A4000454C4553535F46575F52554E4E494E47AE
:100A5000200A0000002004E03E3E3D3D2044424785
:100A60004D43555F4765745265766973696F6E498A
:100A7000443D20256C78200A0D0000003E3E3D3D9F
:100A8000204442474D43555F47657444657669632A
:100A90006549443D20256C78200A0D003E3E3D3DD1
:100AA00020534843495F5355425F4556545F434F77
:100AB00044455F5245414459202D204655535F46D9
:100AC000575F52554E4E494E47200A0D0000000018
:100AD000704700007FB54468054634F80B0FA0F559
:100AE0001240082825D2DFE800F004252C24373BEB
:100AF0003D43684604F0D4FA9DF802309DF8012089
:100B00009DF800101CA005F0B1FF9DF8041023A073
:100B100005F0ACFF9DF80C309DF80B209DF80A10F5
:100B200025A005F0A3FF2AA005F0A0FF2846FFF7A7
:100B30002DFF7FBD2EA005F099FF2846FFF7C4FECC
:100B40007FBD344805F092FFD4F80620D4F8021097
:100B500031A005F08BFF7FBDD4F8021038A004E06F
:100B600046A006E0D4F802104DA005F07FFF7FBD3F
:100B70005AA005F07BFF7FBD576972656C65737382
:100B8000204669726D776172652076657273696F50
:100B90006E2025642E25642E25640A00576972652F
:100BA0006C657373204669726D776172652062753A
:100BB000696C642025640A0046555320766572737B
:100BC000696F6E2025642E25642E25640A000000BE
:100BD0003E3E3D3D20534843495F5355425F455695
:100BE000545F434F44455F52454144590A0D00004C
:100BF0003E3E3D3D20534843495F5355425F455675
:100C0000545F4552524F525F4E4F544946200A0D91
:100C100000000000A882000820202020202D205362
:100C20007461727441646472657373203D20256C35
:100C300078202C2053697A65203D20256C640A00B9
:100C40003D3D3E3E20534843495F5355425F455624
:100C5000545F4E564D5F53544152545F575249545E
:100C600045203A204E756D6265724F66576F72640B
:100C700073203D20256C640A000000003E3E3D3D8F
:100C800020534843495F5355425F4556545F4E5683
:100C90004D5F454E445F57524954450A0D000000D0
:100CA0003D3D3E3E534843495F5355425F45565490
:100CB0005F4E564D5F53544152545F455241534528
:100CC000203A204E756D6265724F66536563746F8E
:100CD0007273203D20256C640A0000003E3E3D3DBD
:100CE00020534843495F5355425F4556545F4E5623
:100CF0004D5F454E445F45524153450A0D0000008B
:100D000070B592B03C2231496846FFF766FA304828
:100D10000F90304810900FA92F4806F0B7FE012120
:100D2000022005F029FD2D4A0021042005F04AFD8E
:100D3000684604F08FF9010005D029A005F096FE61
:100D400001F093F802E034A005F090FE00F018FBEB
:100D500004F06AFD3A4E00254FF6FF7086F8805089
:100D6000F082384A2946012005F02CFD364A002140
:100D7000022005F027FD062006F0C8FD010003D083
:100D8000324805F073FE02E031A005F06FFE3E4CE4
:100D900001202570607003F05DFC294900223B4B67
:100DA0008131104603F002F825490022384B823188
:100DB000104602F0FBFF7576357680206080A0201B
:100DC000A080012000F0B2F812B070BD5881000878
:100DD00028000320F91100080D120008B57C000856
:100DE00020204661696C2020203A20534843495F07
:100DF00043325F424C455F496E697420636F6D6D8D
:100E0000616E642C20726573756C743A203078259D
:100E10003032780A0D00000020205375636365733B
:100E2000733A20534843495F43325F424C455F4920
:100E30006E697420636F6D6D616E640A0D00000051
:100E400014050020A50E0008A91C0008F086000863
:100E50002020537563636573733A206163695F682B
:100E6000616C5F7365745F726164696F5F61637405
:100E700069766974795F6D61736B20636F6D6D6105
:100E80006E640A0D000000003C000020250F0008E1
:100E90002959000803F012BC0021022005F024BDEE
:100EA0007047000010B5012000F0E4F90A4C94F8F6
:100EB000800005280FD006F0D3FB002184F88010B5
:100EC00008B106A003E00EA005F0D0FD0EA0BDE81D
:100ED000104005F0CBBD10BD140500202A2A205378
:100EE000544F50204144564552544953494E47208F
:100EF0002A2A20204661696C6564200D0A0D0000D5
:100F000020200D0A0D0000002A2A2053544F5020A3
:100F10004144564552544953494E47202A2A2020DD
:100F20000D0A0D000021012005F0DEBCF0B587B0F0
:100F3000044601280BD04FF4C8674FF47A652F4E52
:100F400096F8810003F086F8022C04D014E02C48B7
:100F500047888588F3E796F88000012801D00228A9
:100F60000AD106F07DFB010003D0264805F07EFD86
:100F700002E0254805F07AFD86F88040327E0020A8
:100F80001E4903921931CDE9041008220690CDE9DB
:100F900000021E49029103462A46394606F0EBFA42
:100FA000010003D01AA005F061FD02E026A005F0C3
:100FB0005DFD13490E20183106F072FB010009D0C7
:100FC000012C05D02BA007B0BDE8F04005F04EBDC8
:100FD00036A0F8E7012C05D007B041A0BDE8F040ED
:100FE00005F044BD4AA005F041FD96F8810007B028
:100FF0005149BDE8F04002F0EFBF000014050020A9
:101000003C000020F8820008448300082E8100087C
:101010003D3D3E3E206163695F6761705F7365744B
:101020005F646973636F76657261626C65202D2001
:101030006661696C2C20726573756C743A20307827
:101040002578200A000000003D3D3E3E2061636996
:101050005F6761705F7365745F646973636F766502
:101060007261626C65202D20537563636573730A2A
:10107000000000003D3D3E3E205374617274204CE0
:101080006F7720506F77657220416476657274695E
:1010900073696E67204661696C6564202C207265F7
:1010A00073756C743A202564200A0D003D3D3E3E68
:1010B00020537461727420466173742041647665B4
:1010C00072746973696E67204661696C6564202C6F
:1010D00020726573756C743A202564200A0D000037
:1010E0003D3D3E3E20537563636573733A205374F0
:1010F000617274204C6F7720506F77657220416465
:10110000766572746973696E67200A0D00000000CD
:101110003D3D3E3E20537563636573733A205374BF
:1011200061727420466173742041647665727469DB
:1011300073696E67200A0D0046E0010070470000E9
:10114000154908B54878012824D100234B700A7846
:10115000B7EE040A90430870103101EB8000D0ED27
:10116000000A80EE801ABDEEC10A10EE100A81B2AC
:1011700010EE100A82B24FF4FA7000900748C08A4D
:1011800006F041FC08B106A000E00FA0BDE8084051
:1011900005F06CBC08BD00003C00002014050020D8
:1011A000424C455F5356435F4C324341505F436F5F
:1011B0006E6E5F55706461746528292C20466169E4
:1011C0006C6564200D0A0D00424C455F5356435F29
:1011D0004C324341505F436F6E6E5F557064617473
:1011E0006528292C205375636365737366756C6C71
:1011F00079200D0A0D00000020B1012805D13F2003
:1012000005F0F0BA3F2005F0CFBA704710B504469C
:101210004068083004F046FB00B10120207010BD8A
:101220007047000070B586B0044614216846FEF78A
:10123000EFFF022003F003F80C4E0D4D694636F81F
:1012400014000090012001900020029002200390E1
:1012500055F8240000F0FCFF36F8141055F824006F
:10126000002201F0BDF806B070BD000096810008B4
:10127000700000200449054A31F8101052F820008F
:10128000002201F0ADB80000968100087000002037
:101290000449054A31F8101052F82000012201F0EB
:1012A0009FB80000968100087000002030B585B01E
:1012B0000D46044614216846FEF7AAFF24B1012C0E
:1012C00004D0022C02D004E0042000E0082002F048
:1012D000B6FF1748174A0121CDB1012D15D130F8BD
:1012E000140000904FF40410CDE9010152F82400DD
:1012F000694600F0ADFF0E4D00220A3D0F21285730
:1013000001F060F9285701F042F905B030BD30F81E
:10131000140000900020CDE901010220039052F852
:101320002400694600F094FF012000F04FFFECE735
:101330009C8100087C000020704700000D4810B51B
:101340000068411C0FD00B490B4A091D0B68107037
:10135000000A5070190A9370D170080A1071080CB5
:101360005071104610BD002003F05AF90028F9D141
:10137000024810BD8075FF1F46000020288100082C
:1013800070B58AB0002571A0089505F06FFB06F0D6
:1013900011FC010003D078A005F068FB02E082A0F8
:1013A00005F064FBFFF7CAFF044602460621002051
:1013B00006F0F9FA010003D0834805F057FB0DE071
:1013C000824805F053FBA078227861788DE8070009
:1013D000E378227961797EA005F048FB8B4861793A
:1013E0008B4A017221794172E1788172A178C172D0
:1013F00061780173217841731021182006F0D3FA27
:10140000010003D0834805F031FB02E0824805F07B
:101410002DFB7F4A10211032082006F0C4FA01008B
:1014200003D07E4805F022FB02E07D4805F01EFB5C
:101430001821012006F08FFA010003D079A005F0F1
:1014400015FB02E087A005F011FB06F009FA010088
:1014500003D090A005F00AFB02E09BA005F006FB7C
:1014600005AA07A9CDE900120120A0A406AB072216
:10147000002105F0B5FF010003D09EA005F0F6FAAB
:1014800002E0A8A005F0F2FA2046FEF7CCFEC3B2B7
:1014900000220094BDF81C10BDF8180006F001FAF7
:1014A00008A8009002230022BDF81410BDF818000F
:1014B00006F0F7F902221146002006F043FB010076
:1014C00003D0A1A005F0D2FA02E0AEA005F0CEFA5A
:1014D000B74C01263046267006F09DF8010003D077
:1014E000B4A005F0C3FA02E0C2A005F0BFFA66702E
:1014F0000822227110236371E570CA49A160A670A9
:10150000CDE90251CDE900233046049500230122A4
:10151000014605F0F7FF010003D0C34805F0A6FA25
:1015200002E0C2A005F0A2FAA07850B105F038FFA1
:10153000010003D0CCA005F099FA02E0DAA005F092
:1015400095FAE5A005F092FA0AB070BD3D3D3E3E29
:1015500020537461727420426C655F4863695F4711
:1015600061705F476174745F496E69742066756E5F
:101570006374696F6E0A000020204661696C202048
:10158000203A206863695F726573657420636F6DCC
:101590006D616E642C20726573756C743A203078BE
:1015A0002578200A000000002020537563636573CE
:1015B000733A206863695F726573657420636F6D49
:1015C0006D616E640A000000D48300082C85000859
:1015D00020205075626C696320426C7565746F6F72
:1015E000746820416464726573733A2025303278E0
:1015F0003A253032783A253032783A253032783A06
:10160000253032783A253032780A00005400002024
:101610003681000888840008C085000830840008EE
:101620007885000820204661696C2020203A2061DE
:1016300063695F68616C5F7365745F74785F706F16
:101640007765725F6C6576656C20636F6D6D616E3A
:10165000642C20726573756C743A2030782578207C
:101660000A0000002020537563636573733A20619C
:1016700063695F68616C5F7365745F74785F706FD6
:101680007765725F6C6576656C20636F6D6D616EFA
:10169000640A000020204661696C2020203A206105
:1016A00063695F676174745F696E697420636F6DED
:1016B0006D616E642C20726573756C743A2030789D
:1016C0002578200A000000002020537563636573AD
:1016D000733A206163695F676174745F696E6974EE
:1016E00020636F6D6D616E640A00000050325053CC
:1016F0005256310020204661696C2020203A20613A
:1017000063695F6761705F696E697420636F6D6D97
:10171000616E642C20726573756C743A2030782584
:1017200078200A002020537563636573733A206143
:1017300063695F6761705F696E697420636F6D6D67
:10174000616E640A0000000020204661696C202060
:10175000203A206863695F6C655F7365745F6465D8
:101760006661756C745F70687920636F6D6D616E12
:10177000642C20726573756C743A2030782578205B
:101780000A0000002020537563636573733A206874
:1017900063695F6C655F7365745F64656661756CD2
:1017A000745F70687920636F6D6D616E640A00000C
:1017B0001405002020204661696C2020203A206119
:1017C00063695F6761705F7365745F696F5F6361B1
:1017D000706162696C69747920636F6D6D616E64AC
:1017E0002C20726573756C743A2030782578200A45
:1017F000000000002020537563636573733A206115
:1018000063695F6761705F7365745F696F5F636170
:10181000706162696C69747920636F6D6D616E646B
:101820000A00000007B20100E08400082020537580
:1018300063636573733A206163695F6761705F73A7
:1018400065745F61757468656E7469636174696FEE
:101850006E5F726571756972656D656E7420636F18
:101860006D6D616E640A000020204661696C202065
:10187000203A206163695F6761705F636F6E6669BC
:10188000677572655F77686974656C6973742063E6
:101890006F6D6D616E642C20726573756C743A2087
:1018A00030782578200A0000202053756363657323
:1018B000733A206163695F6761705F636F6E666929
:1018C000677572655F77686974656C6973742063A6
:1018D0006F6D6D616E640A003D3D3E3E20456E6455
:1018E00020426C655F4863695F4761705F47617460
:1018F000745F496E69742066756E6374696F6E0AF1
:101900000D000000FEE770472DE9FF4F8B464FF0BA
:101910000008018981B016460446C146454689B192
:1019200000208246D4E904031BB169B10A461FFABC
:1019300082F801B10E46E168884217D362684044DC
:10194000101A14E00220ECE72768626800F1010831
:1019500017F800C0904502D3821A521C00E042469C
:10196000BA5C022707EB02226244E0E7002006EBA4
:101970000A01049A00915143814201D2002004E0FF
:101980000099B0FBF1F201FB1200C1B2514501D93F
:10199000012000E0002010B1227FD20700D12946AB
:1019A00018B1207F800700D55146002E66D0049ADA
:1019B000009800FB02300844616888425ED8002726
:1019C0008FE001EB08006168884200D3401A206173
:1019D000218989B921680E546168401C814200D870
:1019E000401A2268310A11546168401C814200D8B3
:1019F000401A6169891C616161680D1AB54200D3A2
:101A00003546B54209D001D2217F31B18DB3217F56
:101A1000CA072FD0218991B118E0226807FB06B1CF
:101A200010442A46FEF7D9FB6069A9462844606144
:101A300000990020A6EB09051FFA81F840E0236811
:101A4000821EFF2199542268401E115460694FF094
:101A500000092844606121893546484651BB206809
:101A600005702168280A487061690220891C61613B
:101A700020E032E089071DD5218919B1002005B089
:101A8000BDE8F08F2268811E55542368411E2A0A42
:101A90005A54226807FB06B110442A46FEF79DFB04
:101AA0006069A94628446061A069A6EB0905401C4D
:101AB000A061D4E705EB0A011FFA81F8002121613A
:101AC0005DB122680BEB090107FB061110442A46A1
:101AD000FEF783FB606928446061A069401C7F1C9D
:101AE000A061049821698742FFF46BAF01EB0A0003
:101AF0006168884200D3401A21680844BFE710B5E6
:101B0000029C01600021C16001614161426081610C
:101B100003810477A00702D50BB1481E10BD002039
:101B200010BDF0B50289002612B3002544690023D8
:101B300084B3FAB11346067F9BB2F70737D0B607D6
:101B400035D4A3F57F46FF3E00D142B1D0E903670B
:101B5000BE422CD95AB34768BE1B964227D2C668EC
:101B600043689E1BA41B44610024C4609AB11DE01D
:101B70000225DBE70668C368D0F804C003F1010E54
:101B8000F75CE64501D3A3EB0C035B1CF35C07EBAE
:101B90000323D0E722E00268012B147802D8C3F1B6
:101BA000010300E00123D25C04EB022293B2C76878
:101BB00042687C19944200D3A41A0668D0F814C075
:101BC00026445C19BCEB0405456104D03C449442B6
:101BD00000D3A41AC4608269521E826101B10B80D5
:101BE0003046F0BDF0B502890023E2B10025466918
:101BF000002486B3C368C2B11446067FA4B2F707B7
:101C000030D0B6072ED4A4F57F46FF3E00D13AB1BE
:101C10000769BB4226D92AB34768FE1A964221D2E9
:101C200000238AB11DE00225E1E70668446803F15C
:101C3000010CF75CA44501D31C1B00E01C46641C8E
:101C4000345D07EB0424D8E7D0E90024012C03D845
:101C5000C4F1010401E00CE00124145D127802EBF0
:101C6000042294B25A1943689A4200D3D21A0068E7
:101C7000131801B10C801846F0BD000010B50949D9
:101C8000074C496830B101202070002907D0BDE819
:101C90001040084709B1002088470020207010BD7F
:101CA00018010020C8000020054991F88000012893
:101CB00004D0002802D0C88AFFF742BA704700005B
:101CC0001405002070470000014800F07AB90000B8
:101CD000C4020020014800F074B900002403002071
:101CE0000D4B416C026821F003019A4201D20B4B6B
:101CF00001E00A4B1C3319448164D1B21422083923
:101D0000B1FBF2F1054A8032C26401F01F020121E9
:101D1000914001657047000008040240000802403D
:101D20000179084A01F03F0102EB81024265054A50
:101D30004432491E826501F0030201219140C165D0
:101D400070470000FC08024030B5D0E913456560DB
:101D5000446D14B1D0E91645656090F8444004F034
:101D60001C050124AC40056C6C60046863608368EA
:101D7000102B036803D099600068C26030BD9A6080
:101D80000068C16030BD02F011BC13460A4601462E
:101D9000002002F0D5B9000008B5FFF7F4FF0220DB
:101DA0000449C20200900023A1F12000FFF7A7FE22
:101DB00008BD0000B805002070B514460026EFF3FA
:101DC0001085421C1CD0012803D0022801D0761EA9
:101DD00016E0ACB1264672B6A2B201230948FFF75D
:101DE00093FD58B108490A7842B100220A7085F380
:101DF0001088A1B2054AFFF7C8FF01E085F31088FB
:101E0000304670BD98050020B4000020111E000867
:101E100038B5EFF3108472B669460B48FFF781FEC0
:101E200069460948FFF7DEFE38B184F31088074A97
:101E3000BDF80010FFF7A9FF38BD05490120087063
:101E400084F3108838BD000098050020111E00089A
:101E5000B400002070477047012000F0EDB9022067
:101E600000F0EAB9102000F0E7B970470248416875
:101E700041F0010141607047002004E002484168E0
:101E800041F0020141607047002004E010B590F875
:101E90002520012A01D0012010BD90F82420012A1C
:101EA0001AD0012200F8242FD1E900231A438B898C
:101EB0000A4C04EBC3430C7A497A43EA04431A43BD
:101EC00042EA4122416A0B68054C23401A430A60EA
:101ED00000210170084610BD022010BD0000F8FF6F
:101EE000FFFD00E010B540B190F825100022022956
:101EF00005D00421C16380F82420012010BD0168B1
:101F00000B6823F00E030B60816C0B6823F4807365
:101F10000B6001680B6823F001030B6090F844101C
:101F2000012301F01C0403FA04F1046C6160D0E9A0
:101F300013144C60416D31B10C6824F480740C6052
:101F4000D0E916144C6080F8253080F82420002059
:101F500010BD10B590F825100024022903D00421EB
:101F6000C16301242BE001680A6822F00E020A60B6
:101F700001680A6822F001020A60816C0A6822F492
:101F800080720A6090F84410012301F01C0103FAEA
:101F900001F2016C4A60D0E913124A60416D31B11F
:101FA0000A6822F480720A60D0E916124A6080F84A
:101FB0002530002180F82410816B01B1884720462C
:101FC00010BDF0B4016C0B6801680A6890F84440D9
:101FD000042504F01C0405FA04F61E4211D056072D
:101FE0000FD50A68920603D40A6822F004020A6038
:101FF00090F8441001F01C018D40016C4D60016BA4
:102000001DE0022606FA04F71F424FF0000C4FF0C5
:10201000010518D0970716D50A68920605D40A68F4
:1020200022F00A020A6080F8255090F8441001F06E
:102030001C018E40016C4E6080F824C0C16A0029EA
:102040001AD0F0BC08470826A6401E4214D012073A
:1020500012D50A6822F00E020A6090F84410026C51
:1020600001F01C0105FA01F15160C56380F82550AB
:1020700080F824C0416BE2E7F0BC704770B5040003
:102080000CD02C4A20681421904209D22A4A0244DA
:10209000B2FBF1F18900616428490AE0012070BDBA
:1020A000244A52420244B2FBF1F1890061642149A1
:1020B00008392164022184F82510016847F6F0727E
:1020C0009143D4E902231A43D4E904352B431A433C
:1020D000A3691A43E3691A43236A1A430A43026055
:1020E0002046FFF7FDFDA0680025B0F5804F00D128
:1020F00065602079A16C00F03F000860D4E913010D
:1021000041606068401E032808D82046FFF708FE9B
:10211000606D0560D4E91601416002E06565A56562
:10212000E565E563012084F8250084F8245000204B
:1021300070BD000008040240F8FFFDBF000002402F
:1021400070B5044690F82400002501280CD0012029
:1021500084F8240094F825600020012E06D084F82D
:1021600024000225284670BD022070BD022684F896
:102170002560E0632068066826F0010606602046B8
:10218000FFF7E2FD206B00282068016802D041F0D3
:102190000E0106E021F0040101602068016841F0B1
:1021A0000A010160A06C0168C90303D5016841F40C
:1021B00080710160606D18B1016841F48071016047
:1021C0002068016841F001010160CBE770B5044669
:1021D00000F00CF90646601C02D000F00DF9044432
:1021E000064D00F003F9801BA04205D2286820F0BC
:1021F0000400286030BFF4E770BD000010ED00E07F
:102200000068C0F3004100F01F0201209040024A24
:1022100002EB41110860704708080058012805D0FA
:10222000022805D0102805D1FEF734BEFEF734BED3
:10223000FEF736BE70470000044910B50A68024236
:1022400002D00860FFF7EAFF10BD00000C0800583C
:102250002DE9F04FDFF870B1DFF86C9100220BF13F
:10226000800B03274FF00F0C09F1040A0BF1040E49
:10227000A3E0012595402B406FD00C7904F00304B6
:10228000012C01D0022C15D18668540007FA04F8FD
:1022900026EA0806D1F80C8008FA04F848EA06088D
:1022A000C0F8088046680C79AE43C4F3001494402B
:1022B000344344600C79E443A40708D0C568540053
:1022C00007FA04F6B5438E68A6402E43C6600C7923
:1022D00004F00304022C11D1D40800EB8406356A03
:1022E0005407E40E0CFA04F825EA0805D1F810802A
:1022F00008FA04F848EA0508C6F820800568540082
:1023000007FA04F6B5430E7906F00306A6402E43FD
:1023100006604C6814F4403F4ED02C4C22F003056C
:1023200005EB0408D8F808509407260F0CFA06F4B9
:10233000A543B0F1904F04D0254CA04203D1012415
:1023400012E0002410E0234CA04201D102240BE053
:10235000214CA04202D1032406E02DE01F4CA042F4
:1023600001D1042400E00724B4402C43C8F80840FD
:10237000D9F800404D464E689C43F60200D51C43F8
:102380002C60DAF8004055464E689C43B60200D5F2
:102390001C432C60DBF800405D464E689C43F6030E
:1023A00000D51C432C60DEF8004075464E689C4307
:1023B000B60300D51C432C60521C0B6833FA02F4A0
:1023C0007FF457AFBDE8F08F0008005800000140CF
:1023D0000004004800080048000C004800100048B5
:1023E0000AB18161704781627047000001488068CE
:1023F000704700008C000020014800787047000002
:102400008C00002001484068704700008C000020CC
:1024100070470000064810B5006805490C390A6885
:1024200082430A60091D0860FFF7F2FF10BD00003B
:102430000C15005870B504004FF0000616D00D4D75
:1024400094F8380010B9204600F016F8284601F03C
:10245000ADFE286840F001102860204601F0AEFE75
:1024600000206063012084F8380000E00126304637
:1024700070BD0000000C005810B500680C4988427F
:1024800015D14FF4801001F0E4FE002211462C20FB
:1024900000F098F82C2000F07AF8002211462D2048
:1024A00000F090F8BDE810402D2000F070B810BD8D
:1024B000000C005870477047024881680278114448
:1024C000816070478C000020094810B50168002425
:1024D00041F480710160032000F094F8002000F0C6
:1024E00009F808B1012401E000F024F8204610BDED
:1024F0000040005870B50E4E054600243078A0B15B
:1025000000F0AAFA31784FF47A72B2FBF1F1B0FB25
:10251000F1F000F063FF40B9102D06D200222946E9
:10252000501E00F04FF8756000E00124204670BD99
:102530008C00002010B54FF4002001F08AFE00222C
:1025400011462E2000F03EF8BDE810402E2000F08D
:102550001EB8002809DB00F01F020121914040094C
:10256000800000F1E020C0F88012704700280DDBE9
:1025700000F01F02012191404009800000F1E0209D
:10258000C0F88011BFF34F8FBFF36F8F70470028E3
:1025900009DB00F01F02012191404009800000F199
:1025A000E020C0F800117047002809DB00F01F028E
:1025B000012191404009800000F1E020C0F80012A4
:1025C00070470000F0B40E4B1B68C3F30223C3F145
:1025D0000704042C00D904241D1D072D01D200235B
:1025E00000E0DB1E012606FA04F56D1E0D409D403D
:1025F0009E40761E164045EA0601F0BC04F046BA3D
:102600000CED00E0064A00F0070110684FF6FF03EA
:10261000184040EA01200349084310607047000059
:102620000CED00E00000FA050248006800F4C0600C
:1026300070470000000400580248016841F48071AE
:1026400001607047000400582DE9F0410446002560
:1026500000782E4640064FF0B04717D5206B78B172
:10266000B0F5800F07D0B0F5000F3BD0B0F5400FAC
:1026700038D0012509E0F86840F48030F86031E096
:10268000201D02F073FA05002CD02E46208800058C
:1026900046D5D7F8900000F44076206CB0423ED08A
:1026A000FFF7CAFF3EB3D7F89000D7F8901041F477
:1026B0008031C7F89010D7F8901021F48031C7F816
:1026C0009010216C20F440700843C7F89000D7F8B0
:1026D0009000C0F3000010B3FFF788FE064641F2F9
:1026E000883818E0206BD7F8881021F440010143A6
:1026F000C7F88810CAE7206CD7F8901021F4407111
:102700000143C7F890100AE0FFF770FE811B4145B6
:1027100001D9032503E001F0D0FD0128F4D12E46B4
:102720002078C00707D0A069D7F8881021F00301EE
:102730000143C7F888102078800707D5E069D7F8EB
:10274000881021F440610143C7F888102078C00642
:1027500002D5A06A01F011FE2078800602D5E06A59
:1027600001F00BFE2078400702D5206A01F0F6FD4B
:102770002078000702D5606A01F0F0FD2088C005CE
:1027800013D5606B01F0E1FD606BB0F1006F03D118
:10279000F86840F08070F860606BB0F1806F04D131
:1027A000201D02F01FFA00B10646208880051BD5C7
:1027B000A06BB0F1804F10D0B0F1004F0DD060B1E0
:1027C00020F08055002001F0E3FD284601F0BDFD1A
:1027D000A06BB0F1C05F03D006E001F0D9FDF7E7D0
:1027E000F86840F08070F8602088400518D5E06BEC
:1027F000D7F8881021F040510143C7F88810E06BEA
:10280000B0F1005F03D1F86840F48030F860E06B0D
:10281000B0F1805F04D1201D02F020FA00B106461D
:102820002088C00407D5606CD7F8941021F440418B
:102830000143C7F89410208880040BD5E06C796AB6
:1028400021F0300101437962A06C796A21F0030123
:10285000014379623046BDE8F08100002DE9F04186
:102860000D46040078D0DFF8E881D8F8000000F0C9
:102870000700A84215D2D8F80000464620F007000D
:102880002843C8F80000FFF7B1FD074604E0FFF752
:10289000ADFDC01B022878D8306800F00700A842C0
:1028A000F5D120784FF0B046800713D5A068B16805
:1028B00021F0F0010143B160FFF798FD074604E005
:1028C000FFF794FDC01B02285FD8B068C0F300403A
:1028D0000028F5D02078800616D56069D6F8081152
:1028E00021F0F0010143C6F80811FFF77FFD07460C
:1028F00004E0FFF77BFDC01B022846D8D6F808018C
:10290000C0F340400028F4D02078400617D5A069D5
:10291000D6F8081121F00F0141EA1010C6F808019D
:10292000FFF764FD074604E0FFF760FDC01B0228C7
:102930007DD8D6F80801C0F300400028F4D02078F4
:10294000400714D5E068B16821F4E0610143B1604B
:10295000FFF74CFD074605E046E0FFF747FDC01BCB
:10296000022864D8B068C0F340400028F5D0207831
:10297000000715D52069B16821F4605141EAC00112
:10298000B160FFF733FD074605E050E0FFF72EFD8D
:10299000C01B02284BD8B068C0F380400028F5D097
:1029A0002078C0072ED06068022806D0032808D0FF
:1029B000B8B13068C0F3802006E03068C0F3404012
:1029C00002E03068C0F3406070B16068B16821F027
:1029D00003010143B160FFF709FD064641F2883764
:1029E0000AE001F081FCEFE70120BDE8F081FFF78C
:1029F000FDFC801BB8421AD801F050FC6168B0EBB6
:102A0000810FF4D1D8F80000464600F00700A84234
:102A100014D9306820F0070028433060FFF7E6FC47
:102A2000044606E0FFF7E2FC001B022801D9032060
:102A3000DBE7306800F00700A842F3D100F00CF8A3
:102A400004490860FFF7DEFCBDE8F041FFF752BD26
:102A5000004000588800002010B500F033F84FF017
:102A6000B0418968044A01F0F00102EB9101096864
:102A7000B0FBF1F010BD0000A481000810B5FFF715
:102A8000EBFF4FF0B0418968044A01F4E06102EBCA
:102A90009111097801F01F01C84010BD248200087F
:102AA00010B5FFF7D9FF4FF0B0418968044A01F42F
:102AB000605102EB5121097801F01F01C84010BD9F
:102AC000248200082DE9F04101F0E8FB204F38B3E3
:102AD000204C04282CD066004FF0B045082829D09F
:102AE00001F02DFC022808D003282AD001F0F3FBC6
:102AF00000F0F00007EB90000468E868E968C0F3B4
:102B00000620604301F07002012101EB1212B0FBBC
:102B1000F2F2E86801EB5070B2FBF0F0BDE8F08132
:102B200001F0D9FB00F0F00007EB90000068F5E73A
:102B30002046F3E72868C0F300500028F8D130465B
:102B4000ECE72868C0F300500028D6D13446D4E71B
:102B5000E48100080024F4002DE9F04104007DD058
:102B600020784FF0B04580065DD501F097FB064612
:102B700001F0E5FB76B10C2E01D101280AD0E06905
:102B8000002828683FD040F001002860FFF72EFCA5
:102B900006462DE0E0690028E1D001F09CFB0146EB
:102BA000606A81420AD202F0DBF8002856D1606ADE
:102BB00001F0A9FB206A01F09DFB09E001F0A3FBF5
:102BC000206A01F097FB606A02F0CAF80028EDD194
:102BD000FFF742FFFE490860FE480068FFF78AFCE5
:102BE0000028E3D11FE0FFF701FC801B022871D809
:102BF00001F07AFB0028F6D0606A01F084FB206ABD
:102C000001F078FB0FE020F001002860FFF7EEFBF9
:102C1000064604E0FFF7EAFB801B0228E7D801F034
:102C200063FB0028F6D12078C0073AD001F036FBCC
:102C3000064601F084FB082E13D00C2E01D1032888
:102C40000FD06068B0F5803F28680ED020F4803047
:102C500028606068B8B1FFF7C9FB00E007E20646EC
:102C60000BE06068002897D01BE040F48030EFE76D
:102C7000FFF7BCFB801B6428B9D82868C0F340402C
:102C80000028F5D00DE0FFF7B1FB064604E0FFF7A2
:102C9000ADFB801B6428AAD82868C0F340400028F8
:102CA000F5D12078800739D501F0F8FA064601F011
:102CB00046FB042E0FD00C2E01D102280BD0E06869
:102CC0000028286819D040F480702860FFF78EFB38
:102CD00006460CE026E1E0680028C4D0206901F037
:102CE000E3FA1BE0FFF782FB801B022896D82868D6
:102CF000C0F380200028F5D0F0E720F48070286031
:102D0000FFF774FB064604E0FFF770FB801B022808
:102D100084D82868C0F380200028F5D120680107F6
:102D200001D4C1064CD56169F1B3C00649D501F0A3
:102D3000CBFA90B9D5F8940040F00100C5F89400A2
:102D4000FFF754FB064604E0FFF750FB801B022808
:102D500092D801F0B9FA0028F6D0D5F8940040F0E6
:102D60000400C5F89400FFF741FB064604E0FFF7B6
:102D70003DFB801B03288ED8D5F89400C0F3C0001B
:102D80000028F4D0A069D5F8941021F4706141EACC
:102D90000020C5F89400D5F8940020F00100C5F893
:102DA0009400FFF723FB00E031E0064604E0FFF764
:102DB0001DFB801B022899D801F086FA0028F6D165
:102DC0004DE0D5F8940040F00100C5F89400FFF7FD
:102DD0000DFB064604E0FFF709FB801B022885D89F
:102DE00001F072FA0028F6D0D5F8940020F0040023
:102DF000C5F8940004E0FFF7F9FA801B032887D890
:102E0000D5F89400C0F3C0000028F4D127E0D5F82D
:102E1000940020F00400C5F89400FFF7E7FA064696
:102E200004E0FFF7E3FA801B03287BD8D5F8940071
:102E3000C0F3C0000028F4D1D5F8940020F00100C0
:102E4000C5F89400FFF7D2FA064604E0FFF7CEFA81
:102E5000801B022866D801F037FA0028F6D12078C6
:102E600040074FD55C4F3868C0050DD4FFF7E4FB31
:102E7000FFF7BCFA064604E0FFF7B8FA801B022809
:102E800050D83868C005F7D5A068012815D00528A6
:102E9000D5F8900016D020F00100C5F89000D5F8C4
:102EA000900020F00400C5F89000A06841F2883737
:102EB000C8B1FFF79BFA06460EE0D5F8900040F047
:102EC0000100F0E740F00400C5F89000F5E7FFF7D7
:102ED0008DFA801BB84225D8D5F89000C0F3400089
:102EE0000028F4D00EE0FFF781FA064604E0FFF771
:102EF0007DFA801BB84215D8D5F89000C0F3400089
:102F00000028F4D1207840062CD5A06A0028D5F8F6
:102F1000980014D040F00100C5F89800FFF766FA59
:102F2000064605E082E0FFF761FA801B02287DD8A3
:102F3000D5F89800C0F340000028F4D012E020F04B
:102F40000100C5F89800FFF751FA064604E0FFF7C4
:102F50004DFA801B022869D8D5F89800C0F34000CC
:102F60000028F4D1E06AC8B301F098F90146E86896
:102F7000E26A022A09D00C2979D0286820F08070F2
:102F80002860FFF733FA044683E0236B00F0030266
:102F90009A4218D1636B00F070029A4213D1A26B6F
:102FA000C0F306239A420ED1E36B00F478129A42E2
:102FB00009D1236C00F060629A4204D1626C00F087
:102FC0006040904244D00C296CD02868400106E053
:102FD00088000020900000200004005850E061D4D8
:102FE000286820F080702860FFF700FA064604E0A9
:102FF000FFF7FCF9801B022848D828688001F7D425
:10300000D4E90C010843D4E90E2141EA0221084326
:10301000216C0843616C0843E968234A1140084366
:10302000E860286840F08070286000E02EE0E868E2
:1030300040F08050E860FFF7D9F9044604E0FFF75C
:10304000D5F9001B022821D828688001F7D527E090
:103050002868800124D4286840F080702860E868DF
:1030600040F08050E860FFF7C1F9044605E019E040
:10307000FFF7BCF9001B022808D828688001F7D5A3
:103080000EE0FFF7B3F9001B022802D90320BDE8C8
:10309000F08128688001F4D4E86804490840E860B9
:1030A0000020F4E70120F2E78C80C111FCFFFEEE66
:1030B00070B5040003D0607A002510B105E001204E
:1030C00070BD2572204600F013F80220607220685F
:1030D0000168626821F020011143016020680168E5
:1030E00041F00401016001206072E560002070BDC4
:1030F00010B594B0044650216846FDF789F80A4996
:10310000206888420ED14FF400700090C0040E90E9
:103110006846FFF799FA08B1FEF7A7FE4FF4802042
:1031200001F097F814B010BD0010005890F820106E
:1031300001291AD0012280F82020022180F82110D4
:103140000368CA21596203685321596201688B6878
:1031500043F020038B600368FF21596280F821202F
:10316000002180F8201008467047022070470000B8
:103170002DE9F74F044690F820008B4601281CD01B
:103180004FF0010884F82080022084F82100216893
:10319000CA204862216853204862206880684FF046
:1031A000000640054FF0FF074FF0030A4FF47A790D
:1031B0000FD5FFF71BF9054607E00220BDE8FE8F9B
:1031C000FFF714F9401B484518D82068C06840072D
:1031D000F6D42068816821F4806181602068C1682C
:1031E00001F0800161F49061C160FFF7FFF80546CE
:1031F0000CE0FFF7FBF8401B484507D92068476201
:1032000084F821A084F820600320D7E72068C068F4
:103210004007EED52168C1F814B02068816821F01C
:103220000701816020688168029A114381600E481D
:10323000016841F4002101600B488038016841F4C5
:10324000002101602068816841F48041816020682C
:10325000816841F4806181602068476284F8218040
:1032600084F820600020A9E7800800582DE9F0418B
:10327000040057D094F82100002620B984F820607B
:10328000204600F05DF8022084F821002A480068FA
:10329000C043C0064BD52168CA204862216853202C
:1032A0004862204601F082FDFF250427002820689F
:1032B00003D0456284F8217034E081681F4A1140D0
:1032C0008160206881686268A369114322691A439A
:1032D000114381602168E0680861206801692289E2
:1032E00041EA024101612068C16821F08001C160AA
:1032F0002068C16C21F00301C164E1696069014388
:103300002068C26C1143C1642068806880060CD4B8
:10331000204600F049F840B12068456284F82170E9
:1033200084F820600120BDE8F0812068456200201B
:10333000012184F82110F6E70C280040BFFF8FFF21
:1033400010B596B0044650216846FCF761FF154958
:103350002068884224D1C0140090C01010906846A4
:10336000FFF772F908B1FEF780FD4FF0B04050F85A
:10337000901F41F4004140F83819016841F4806120
:1033800001600068002200F4806014901146032060
:10339000FFF718F90320FFF7FAF82046FFF7C6FEFB
:1033A00016B010BD0028004070B505460068C16821
:1033B00021F0A001C160FFF719F804464FF47A76B6
:1033C00006E0FFF713F8001BB04201D9032070BDDF
:1033D0002868C0688006F4D5002070BD10B5401E76
:1033E000B0F1807F01D3012010BD4FF0E024606177
:1033F0000F21601703F04AFB0020A0610720206125
:10340000002010BD90F88410012918D0012180F807
:1034100084102421C0F8881001680A680B6823F022
:1034200001030B6022F0005100224266036819601C
:103430002021C0F8881080F88420104670470220B0
:1034400070477047704770B5044690F884000128B3
:103450001DD0012084F884002420C4F8880020684E
:103460000568026822F0010202602068826822F08A
:1034700060620A438260204602F0C0FB206805605B
:103480002020C4F88800002084F8840070BD022049
:1034900070BD70B5044690F8840001281DD001204D
:1034A00084F884002420C4F8880020680568026835
:1034B00022F0010202602068826822F060420A4322
:1034C0008260204602F09AFB206805602020C4F844
:1034D0008800002084F8840070BD022070BD704711
:1034E000704770472DE9F04103680446D8691968B0
:1034F0009A6840F60F0528424FF000054FF002068B
:103500000AD187067ED501F0200702F0805C57EAD9
:103510000C0777D0616F3AE1B24FDFF8CCC21740A9
:1035200001EA0C0C57EA0C0C6CD05FEAC07C0CD0A2
:103530005FEAC15C09D54FF0010CC3F820C0D4F894
:10354000903043F00103C4F89030830709D5D307C6
:1035500007D023681E62D4F8903043F00403C4F807
:10356000903043070AD5D30708D026680423336276
:10357000D4F8903043F00203C4F8903003070CD520
:1035800001F020033B4308D0266808233362D4F8B7
:10359000903043F00803C4F8903003050BD54B017D
:1035A00009D526684FF400633362D4F8903043F0B5
:1035B0002003C4F89030D4F89030002B3DD0800622
:1035C00009D501F0200002F08051084303D0616F5B
:1035D00009B120468847D4F89000216889684906D7
:1035E00002D410F0280F2AD0204602F03BFC2068BD
:1035F000806840061ED52068083050E8001F21F082
:10360000400100E021E040E80012002AF3D1D4F8A4
:10361000800078B175498163D4F88000FEF799FC89
:1036200000280AD0D4F88000816B00E02046BDE875
:10363000F04108472046FFF754FFBDE8F0812046DF
:10364000FFF74FFFC4F89050F7E7D4F86CC020277D
:10365000BCF1010F7ED15FEAC06C7BD55FEAC16C23
:1036600078D51020186220688068400645D5D4F8C7
:103670008010086840680004000CDED0B4F85C20BC
:103680008242DAD9A4F85E000868006880062CD46B
:10369000206850E8001F21F4807140E80012002AE1
:1036A000F6D12068083050E8001F21F0010140E801
:1036B0000012002AF5D12068083050E8001F21F0E0
:1036C000400140E80012002AF5D1C4F88C70E5668C
:1036D000206850E8001F21F0100140E80012002A85
:1036E000F6D1D4F88000FEF7FDFB2667B4F85C0045
:1036F000B4F85E10401A81B230E0B4F85C00B4F85F
:103700005E10401A81B2B4F85E00002895D00029FE
:1037100093D0206850E8002F22F4907240E80023F4
:10372000002BF6D12F4BDB432068083050E8002FE8
:103730001A4040E8002CBCF1000FF5D1C4F88C70A1
:10374000E5666567206850E8002F22F0100240E827
:10375000002300E006E0002BF4D126672046FFF7A7
:1037600070FE6AE7C60209D5560207D54FF48010ED
:1037700018622046BDE8F041FFF7B2BE03060AD545
:1037800001F0800302F40002134304D0A16F00296A
:103790007FF44CAF51E7420611D54A060FD52046BB
:1037A000016851E8002F22F0400241E80023002B7D
:1037B000F6D1C0F88870856700F08AF93DE702020B
:1037C00006D54A0004D52046BDE8F041FFF787BE84
:1037D000C001C6D50029C4DA2046BDE8F041FFF794
:1037E00031BE00000100001020010004B55D00089A
:1037F00010B5040003D0D4F8880010B107E0012010
:1038000010BD002084F88400204600F027F8242012
:10381000C4F888002068016821F001010160A06AF5
:1038200010B1204602F00CFA204602F0C1FD01283A
:10383000E6D02068416821F49041416020688168A9
:1038400021F02A0181602068016841F001010160D6
:103850002046BDE8104002F057BA00002DE9F04FB5
:103860009FB00446142114A8FCF7D2FC50216846EE
:10387000FCF7CEFC4F49206800254FF0B0464FF0D2
:1038800003094FF0100B4FF002084FF0010A884275
:103890004DD147466846CDF800800795FEF7D4FE27
:1038A00008B1FEF7E2FAF06D40F00100F065F06D4E
:1038B00000F001001D90012000F0B7FC0C20CDE9C4
:1038C000140716950820CDE9179014A94FF09040E1
:1038D000FEF7BEFC394E384830601120C6E9010BB6
:1038E0008020C6E903507561B561F56130463562E7
:1038F000FEF7C4FB08B1FEF7B8FA4FF08850CDE9E7
:1039000019058DF86C508DF86D5019A92B48CDF81C
:1039100070A0FEF7BBFA08B1FEF7A7FAE66700222F
:1039200011462520B462FEF74DFE25203DE02449D6
:1039300088423CD157466846CDF800A00695FEF770
:1039400083FE08B1FEF791FA306E40F48040306695
:10395000306E00F480401D90022000F066FCC02014
:10396000CDE9140816970720CDE9179014A915483A
:10397000FEF76EFC154E144830600F20C6E9010BAF
:103980008020C6E903507561B561F5613046356246
:10399000FEF774FB08B1FEF768FAE66700221146ED
:1039A0002420B462FEF70EFE2420FEF7F0FD1FB0C7
:1039B000BDE8F08F0080004044000240C4020020B7
:1039C0000038014000040048440402402403002061
:1039D00030B4D0F88C30202B02D0022030BC70479D
:1039E000A9B1A2B10023C3660A4C0368A3420BD05D
:1039F0005B681B0208D5036853E8004F44F08064FD
:103A000043E80045002DF6D130BC02F0D5BD0120C1
:103A1000E4E70000008000400068074940180749BB
:103A200004D0B0F5384F05D1086800E08868002858
:103A300000D00047704700000080FFBF2C0000202E
:103A400070B50446D0F88800202801D0022070BD4F
:103A500039B332B32165A4F85420A4F856200021CC
:103A6000C4F890102120C4F88800E06FD8B1154B3D
:103A7000C362E36F14481863E36F14485863E06F40
:103A8000134681632068E56F00F128022846216D06
:103A9000FEF756FB38B11020C4F890002020C4F87F
:103AA0008800012070BD216840200862206808302D
:103AB00050E8001F41F0800140E80012002AF5D1D3
:103AC000002070BD195E00085B5E0008C95D00083B
:103AD000006807494018074904D0B0F5384F05D1B0
:103AE000486800E0C868002800D000477047000020
:103AF0000080FFBF2C000020704770477047FEF722
:103B000089BC704701488068004700009800002089
:103B10000248416821F0010141607047000C0058E3
:103B200038B50D4C0FE069460C4800F068FC009970
:103B3000487A0F280DD00E280BD0032000F088FD06
:103B4000616800988847054800F04DFC0028EAD0DD
:103B500038BD0220F2E70000980000206001032039
:103B600002494FF48030886070470000000C005814
:103B700008B54FF0B040D0F8501141F48011C0F8B2
:103B80005011D0F8500100F48010009009480168ED
:103B900041F4007101600748B430016841F40071DC
:103BA000016040BF20BF0448016841F4004101604A
:103BB00008BD0000200800580C04005808B54FF05C
:103BC000B040016D41F480110165006D00F480107A
:103BD00000900848016841F001010160016841F46A
:103BE000803101602C20FEF7D2FCBDE808402D207A
:103BF000FEF7CDBC000C005870B5094D04460821F5
:103C0000284600F030FB30B106480460686820F4B4
:103C10000020686070BDA0474FF40020A86070BD10
:103C2000000C00586C00002070B5154D022128468C
:103C300000F02DFB2C1D38B12068C043800703D550
:103C400000F032F802210BE00121284600F01FFBB2
:103C500040B12068C043C00704D0FFF761FF0121D5
:103C6000A96070BD0821284600F011FB0028F8D09B
:103C70002068C0430007F4D500F042F80821EFE7C0
:103C8000000C005810B5064CE0680168052000F0F3
:103C9000DFFCE06803490068C968BDE810400847D8
:103CA000000003209800002038B5094C0AE069465E
:103CB000084800F0A4FB0620009900F0C9FC216927
:103CC00000988847034800F08EFB0028EFD038BDED
:103CD00098000020680103200248416821F0020199
:103CE00041607047000C005804484FF40031816077
:103CF000416821F40031416070470000000C005819
:103D000008B506E06946064800F079FB009801F026
:103D100035FF034800F067FB0028F3D008BD000022
:103D2000580103200248416821F0080141607047B2
:103D3000000C005870B51B4C0221204600F093FA8D
:103D4000251D50B92868C043800306D5606840F43B
:103D500000306060FFF796FF70BD0821204600F03C
:103D600082FA70B92868C04300030AD5606840F43D
:103D7000002060600C48006880474FF40020A0607D
:103D800070BD2021204600F06EFA0028F8D1286886
:103D9000C0438002F4D5606840F400106060FFF713
:103DA000B1FE70BD000C00586C000020F0B500247E
:103DB000EFF3108572B6124E03E0641CE4B2062CD9
:103DC00006D204EB440706EBC7073F7B002FF4D174
:103DD000062C10D004EB440C06EBCC074FF0010E80
:103DE00087F80CE085F3108838617A7346F83C3028
:103DF0000C700020F0BD85F310880120F0BD00009C
:103E0000840400202DE9F0413D4CCA2221684A6219
:103E100053224A623B4A136843F02003136012683E
:103E2000394D384F02F00702C2F104030837EB7036
:103E30003A684FF4FE0696FAA6F602F4FE02B6FAC7
:103E400086F6F240521CD6B22E713A68C2F30E02C8
:103E5000521CEA80521E7243A2F5A072DA404FF65D
:103E6000FF739A4201D32B8100E02A81274A4FF445
:103E70000026136843F400231360244A8032136839
:103E800043F40023136090B1C868400502D50320B5
:103E9000FEF78AFB2168FF204862032100220846C2
:103EA000FEF790FBBDE8F0410320FEF770BB012058
:103EB000A870801EE8600020154B024600EB40070A
:103EC00003EBC7073A73401CC0B20628F6D306209E
:103ED0002870886820F4806088602068C16801F0DC
:103EE000800161F49061C16008480C3006600320D5
:103EF000FEF72FFB2068816841F480418160C9E7AB
:103F0000A0020020082800401C00002000080058E3
:103F100084040020104700002DE9F05FEFF31084C7
:103F200072B6CA27284E306847624FF05308C0F86F
:103F30002480816821F480618160244A92F8009095
:103F4000234909EB490001EBC0052B7B022B14D060
:103F50003068C1684907FCD5C16801F0800161F48F
:103F60009061C1601B494FF40020086084F3108801
:103F70003168FF204862BDE8F09F51F830B0D5F8B5
:103F800010A09078E0B1687B01280ED084F31088EF
:103F9000484600F05FF830684762C0F824805A460F
:103FA00049465046FFF7B6FFE2E70121484602F0D6
:103FB0002DFD84F310886968484600F00DF8EAE7A3
:103FC00000F01EFFD2E70000A00200201C0000202D
:103FD000840400200C0800582DE9F0410E4680466C
:103FE00000EB4801184800EBC104207B022802D1F5
:103FF000404600F02FF8EFF3108572B60320FEF76D
:10400000B5FA124FCA213868416253214162022039
:104010002073A6606660404603F082FE0C4A117869
:1040200052788A4202D000F0EBFE02E0A168081A42
:10403000A0603968FF2048620320FEF7A8FA85F3E4
:104040001088BDE8F081000084040020A002002058
:104050001C00002070B50646EFF3108572B60320F1
:10406000FEF784FA214CCA20216848625320486236
:104070001F4906EB460001EBC000007B02280CD173
:104080000021304602F0C2FC1A49087806280DD0FB
:104090004978814201D000F0B3FE2168FF204862D8
:1040A0000320FEF774FA85F3108870BD124800688B
:1040B000C043400503D42068C1684907FCD4206888
:1040C000816821F4806181602068C1684907FCD55E
:1040D000C16801F0800161F49061C16007494FF44B
:1040E000002008600320FEF734FAD6E7A002002083
:1040F000840400201C000020082800400C08005800
:1041000030B40A4C48B102280DD1A360094B0848CD
:104110001860184630BCFFF75BBC2360074B0648AD
:1041200018601846F6E730BC704700002C000020ED
:10413000008000406401002000380140F8010020A8
:1041400070B505004FF00000104E044602D0022D5D
:104150000DD105E073600F4B0D481860184604E060
:10416000F3600E4B0C4818601846FFF769FC58B115
:10417000012804D0022804D0032805D103E001243B
:1041800002E0022400E00324204670BD2C00002041
:1041900000380140F8010020008000406401002048
:1041A000FEE77047FFF740BDFFF7C4BD0021016087
:1041B0004FF03F1141603F218160704710B5054BC2
:1041C000054C002100EB8102491CD4615360062993
:1041D000F8D310BDB5240008B724000802480168D0
:1041E00041F050010160704790080058704708B5D1
:1041F0004FF0B0418A6C02438A64896C014000919F
:1042000008BD08B54FF0B041CA6C0243CA64C96C1E
:104210000140009108BD08B54FF0B041CA6C02439F
:10422000CA64C96C0140009108BD08B54FF0B041A7
:10423000CA6C0243CA64C96C0140009108BD08B54C
:104240004FF0B041CA6C0243CA64C96C014000918E
:1042500008BD08B54FF0B0410A6D02430A65096D0B
:104260000140009108BDC068814301D00020704723
:104270000120704708B54FF0B041D1F84C210243FE
:10428000C1F84C21D1F84C110140009108BDC06922
:10429000814301D000207047012070474FF0B040AB
:1042A000806800F00C0070474FF0B0414A6822F07F
:1042B000FE4242EA0060486070474FF0B040D0F8DC
:1042C0009000C0F3400070474FF0B040D0F8940029
:1042D000C0F3400070474FF0B040006800F0F000BD
:1042E000B02800D9B02070474FF0B0400068C0F34C
:1042F000400070474FF0B0414A6822F47F4242EAE2
:104300000020486070474FF0B0410A6822F0F00288
:1043100002430A6070474FF0B040016821F08061AD
:10432000016070474FF0B040016841F0806101606A
:1043300070474FF0B0400068C0F3C06070474FF066
:10434000B040C06800F0030070474FF0B04151F832
:10435000882F22F0406202430A60704710B54FF088
:10436000B04353F8882F4FF47F2101EA1014A24381
:1043700001EA001002431A6010BD4FF0B04151F83D
:10438000882F030C1B049A4342EA004008607047E0
:104390004FF0B04151F8882F22F0404202430A60AA
:1043A000704700000148FFF79DB80000640100203D
:1043B000006040607047EFF3108272B603680B60D4
:1043C000486001600868416082F310887047EFF32D
:1043D000108272B6086043684B60416048680160B3
:1043E00082F310887047EFF3108172B60268824240
:1043F00001D1012000E0002081F31088704710B542
:10440000EFF3108472B602680A60006800F003F8E7
:1044100084F3108810BDEFF3108172B60268436810
:104420001A6042680068426081F31088704700009B
:1044300070B50C4A14780C4D01EB410205EBC20338
:1044400000EB400205EBC202A14208D01C7D04EB48
:10445000440605EBC60568755175147500E0517585
:10446000187570BD1C000020840400207047704740
:104470000C4910B54FF40040086100F009FD002020
:1044800000F0CEF800280BD081794FF0B040064AFA
:1044900040F89C2F026822F47C5242EA012101601C
:1044A00010BD000000400058FECAFECA00B589B029
:1044B000FFF794FE3148CA2141625321416281686D
:1044C00021F007018160FF2141624FF0B040816817
:1044D00041F40041816002F047F92948016821F068
:1044E000070141F00401016026490020FFF78AFC22
:1044F000FCF766F90121084602F03EF90020FCF7BE
:1045000091FE0120FCF78EFE0220FCF78BFE0120BD
:10451000FCF7BEFE01210020FCF7C8FE0121084681
:10452000FCF7C4FE01210220FCF7C0FE164B01225D
:1045300016490020FFF7E4FD01F0A2FA144A002119
:10454000402002F03FF9134806901348079006A94F
:10455000124803F09FFC12480090A0F5867001906D
:10456000A0F5C960029040F23C500390684601F00B
:10457000B7FA01F083FA09B000BD0000002800403E
:1045800080040058A0020020B94F00081400002049
:10459000717F000834070320D10A0008D50A0008FB
:1045A0004C0903204FF0FF3002F028B9124810B533
:1045B000104901604FF4E1314160002181600C221B
:1045C000C160C0E904124FF40042C0E90612016262
:1045D00041628162FFF70CF900210748FEF759FF9D
:1045E00000210548FEF72FFFBDE810400248FEF706
:1045F00009BF000000380140F8010020FEE77047C5
:104600000549496818B1002905D00120084700294B
:1046100001D00020FAE77047B80000207047000082
:1046200001460748074A00E00838C3798B4201D0A9
:104630009042F9D1DAB28A4200D0002070470000DF
:10464000F873FF1F0070FF1FFBF7C7BDFBF7E2BD4C
:104650007047000010B5064A0021082002F0B2F8A9
:10466000044900200870BDE8104000F005B80000C3
:10467000294A00086200002010B50020FCF7FAFD6E
:1046800005A002F0F3F90848012100224170827070
:10469000C170027110BD00004C454420424C55458C
:1046A000204F46460A0000006200002000780028E3
:1046B00003D0012801D1FFF7DFBF70470021082098
:1046C00002F012B92DE9F04104460078284D012688
:1046D00040B10027012808D0032847D1606801783D
:1046E00061B125E02E7023A001E02F702EA002F012
:1046F000BDF9BDE8F04139A002F0B8B94078012811
:1047000009D10020FCF7C4FD35A002F0AFF933A0B9
:1047100002F0ACF9AE706068407848B90020FCF750
:10472000A9FD39A002F0A2F92CA002F09FF9AF7008
:1047300060680178012919D14078012809D1002049
:10474000FCF7A6FD3AA002F091F924A002F08EF940
:10475000AE7060684078002808D1FCF78BFD3EA061
:1047600002F084F91DA002F081F9AF70BDE8F0817C
:10477000620000202D2D20503250204150504C49D5
:10478000434154494F4E20534552564552203A20FA
:104790004E4F54494649434154494F4E20454E419E
:1047A000424C45440A0000002D2D2050325020413B
:1047B00050504C49434154494F4E20534552564561
:1047C00052203A204E4F54494649434154494F4E96
:1047D0002044495341424C45440A0000200A0D0040
:1047E0002D2D20503250204150504C4943415449C6
:1047F0004F4E2053455256455220203A204C4544B6
:1048000031204F4E0A0000002D2D20503250204103
:1048100050504C49434154494F4E20534552564500
:104820005220203A204C454431204F46460A000091
:104830002D2D20503250204150504C494341544975
:104840004F4E205345525645522031203A204C4578
:104850004431204F4E0A00002D2D2050325020416F
:1048600050504C49434154494F4E205345525645B0
:10487000522031203A204C454431204F46460A0010
:10488000024608B5922002F5DF72B2F5803F07D1EB
:1048900004480091022381880088002203F001F877
:1048A00008BD0000000100202DE9F04F8BB05C48EE
:1048B00000F0C8FF8F208DF81800E5208DF8190052
:1048C000B3208DF81A00D5208DF81B002E208DF80E
:1048D0001C007F208DF81D004A208DF81E009820B6
:1048E0008DF81F002A208DF8200048208DF8210027
:1048F0007A208DF82200CC208DF8230040208DF8FE
:104900002400FE278DF8257000248DF82640DFF85E
:1049100014818DF827400623012206A90220CDF834
:10492000008002F048FF4FF0190AED258DF818A01D
:104930008DF8195082208DF81A008DF81C50212016
:104940008DF81D004FF041094C208DF81E009D2070
:104950008DF81F008DF8209045208DF82100222031
:104960008DF822008E208DF8230001268DF82490EA
:104970008DF825708DF826408DF8274008F102004B
:10498000CDE904604FF0AE0B0A218DF81BB0CDE9E4
:1049900002610620CDE900040223B8F8000006AA4F
:1049A000194602F0A9FE8DF818A08DF81950822042
:1049B0008DF81A008DF81C5021208DF81D004C2018
:1049C0008DF81E009D208DF81F008DF82090452049
:1049D0008DF8210022208DF822008E208DF82300F2
:1049E00042208DF824008DF825708DF826408DF832
:1049F000274008F10400CDE904600A218DF81BB0BE
:104A0000CDE902611020CDE900040223B8F80000CE
:104A100006AA194602F070FE0BB0BDE8F08F000048
:104A2000AD4A00080001002010B50D4C207980B17E
:104A300000202071207870B10AA002F017F819A0A8
:104A400002F014F8E11CBDE810404FF64260FFF799
:104A500017BF0120EDE7BDE81040134802F006B88B
:104A6000620000202D2D20503250204150504C49E2
:104A7000434154494F4E2053455256455220203A07
:104A800020494E464F524D20434C49454E542042FA
:104A90005554544F4E203120505553484544200A18
:104AA00020000000200A0D00A08700087FB510F844
:104AB000011F0025FF2929D130F8021FA1F540610F
:104AC000013923D11349841C80888A88921C904222
:104AD0000CD1207A0125C00701D0002000E0012080
:104AE0008DF800006846FFF7EDFD0FE04988491C8E
:104AF00088420BD108A001F0B9FF03208DF8000017
:104B0000A07908348DF808000194EBE704B028463A
:104B100070BD0000000100202D2D2047415454207D
:104B20003A204C454420434F4E4649475552415444
:104B3000494F4E2052454345495645440A0000001E
:104B4000704700B595B050216846FBF761FB4FF404
:104B5000405000904FF4804011900220129010209D
:104B600013906846FDF770FD15B000BD2DE9F041CA
:104B700005460024FFF7CFFBFDF738FC064604E0AE
:104B8000FDF734FC801B02281ED8FFF7D2FB00285B
:104B9000F6D124BB4FF0B0473869296820F4FE40B5
:104BA00040EA012038613869696820F478100843C8
:104BB0003861FFF7B7FBFDF719FC064606E0FDF785
:104BC00015FC801B022801D9032408E0FFF7B1FB84
:104BD0000128F4D11CB93869296908433861204695
:104BE000BDE8F0812DE9F04105460024FFF793FB75
:104BF000FDF7FCFB064604E0FDF7F8FB801B0228EE
:104C00001ED8FFF796FB0028F6D124BB4FF0B04723
:104C10003869296820F4FE4040EA0120386138698B
:104C2000A96820F0606008433861FFF77BFBFDF75F
:104C3000DDFB064606E0FDF7D9FB801B022801D903
:104C4000032408E0FFF775FB0128F4D11CB938698B
:104C50002969084338612046BDE8F0812DE9F0411B
:104C600005460024FFF757FBFDF7C0FB064604E0AE
:104C7000FDF7BCFB801B02281ED8FFF75AFB00285B
:104C8000F6D124BB4FF0B0473869296820F4FE40C4
:104C900040EA012038613869E96820F06040084343
:104CA0003861FFF73FFBFDF7A1FB064606E0FDF785
:104CB0009DFB801B022801D9032408E0FFF739FB84
:104CC0000128F4D11CB938692969084338612046A4
:104CD000BDE8F08170B5204A8CB078CA8DE87800C4
:104CE00038CA08AE86E838003CCA04AE86E83C0004
:104CF0000024B1F5007F04AA214607D008AB53F881
:104D0000215085420BD352F821400BE06B4653F8FB
:104D100021508542F7D2491C0429F8D302E0491CEE
:104D20000329ECD30D4E306820F00700204330609B
:104D3000FDF75CFB054607E0FDF758FB401B02282A
:104D400002D903200CB070BD306800F00700A0420B
:104D5000F2D10020F6E700006C8200080040005805
:104D600010B50F49B02801D9C86A03E03C2202EA15
:104D7000900008584FF0B041D1F80811094A01F0ED
:104D80000F0152F82110B0FBF1F4FDF74DFC014684
:104D90000548B4FBF0F0BDE81040FFF79BBF0000F2
:104DA000E4810008A481000840420F0070B5054668
:104DB0000068C168490613D44FF0FF31C160FDF7A8
:104DC00015FB04464FF47A7606E0FDF70FFB001B57
:104DD000B04201D9032070BD2868C0684006F4D5F0
:104DE000002070BDFFF798B8044A106881B21068BF
:104DF00080B2814201D00146F9E77047282800407F
:104E00002DE9F0411E480068C04341051D48006877
:104E100002D4C1684907FCD4816821F480618160B3
:104E2000194F3C78194E04EB440006EBC00085682E
:104E300000F0A8F801210022854201D2002308E0F9
:104E40003B890344AB4202D23B89BA7010E02B1A73
:104E50009BB2B9700CE004EB440106EBC1018C6815
:104E6000844201D28A6002E08C68241A8C604C7DF6
:104E7000062CF0D1BDE8F041184600F045B800001E
:104E800008280040A00200201C000020840400200C
:104E900038B54FF0B044D4F89400C0F38060A0B1AE
:104EA000D4F89400C0F3007078B9FDF7C5FBFDF7A6
:104EB000C3FBD4F8900040F48030C4F89000D4F8DC
:104EC000900020F48030C4F89000206D40F48010F1
:104ED0002065206D3F2100F480100090094881601A
:104EE0008161416841F47C114160416941F47C1168
:104EF0004161416841F03F014160416941F03F013A
:104F0000416138BD000C005870B51A4D040029D01D
:104F1000012C02D8E878012801D0641EA4B2164EF4
:104F20003068C1684907FCD5C16801F0800161F4AF
:104F30009061C16011494FF4002008600320FDF723
:104F400008FB0F4801686FF30F0121430160FFF771
:104F50004BFFE8603068816841F480618160AFF3A5
:104F6000008070BDFFF740FFE860BDE8704003209F
:104F7000FDF71ABB1C000020A00200200C080058FE
:104F80001428004010B50B4CE068401C0FD0FFF710
:104F90002BFFE168814202D3E168081A03E0E1884F
:104FA000081AE168084421794843E178C84080B292
:104FB00010BD00001C00002010B5124C2088FF28F6
:104FC00008D804F10C0109780D290CD00E4A1154AF
:104FD000401C20800B4901220C31BDE810400B4BD6
:104FE0000020FFF78DB8084909A001F03FFD01F04E
:104FF000B7FC002020804FF480710348FBF708F9CC
:10500000E8E700000800002084030020B94F0008F2
:1050100072656365697665642025730A0000000087
:105020000021020C01D110210004020E01D1000266
:105030000831020F01D10001091D054A02EB107071
:1050400000780844C0B2C0F11F00C0B27047000031
:10505000988200081FB500F10C026B462E214FF616
:10506000664002F051FF9DF80E0004B010BD1FB560
:1050700002466B4610214FF6754002F045FF9DF841
:105080000E0004B010BD1FB500F10C026B460F21DD
:105090004FF6684002F038FF9DF80E0004B010BDD6
:1050A00070B51C49C96B1C4BC1F30D021B4D53F865
:1050B00022100C68AC4205D1D1E906354A69D1E924
:1050C000034106E053F822100A694B698D694C6868
:1050D0008968160E0670160C4670160A8670C2F3A2
:1050E0000316C67002F00F0202711A0E42711A0CFA
:1050F00082711A0AC27103724572220E8272220CE8
:10510000C272220A02730A0E42730A0C8273C173BE
:10511000002070BD0040005800000320B95646A989
:105120002DE9F0412DED028B441C4078002601272B
:10513000DFF83C828F4D86B0052804D03E281DD074
:10514000FF283ED19EE0B4F80300E98AA41C8842FF
:105150000BD1EE8285F8806087A001F087FCE278B1
:10516000B4F801108FA001F081FC0120FBF7DEFEF6
:1051700088F80070E98AA8F802107DE014F8020FA0
:105180009FED978B012840D0032802D00C28D8D15E
:1051900018E095A001F06AFCA088FBF7CBF853EC6F
:1051A000182BFBF755F841EC100B2089E18800EB38
:1051B00080004000CDE9001053EC102B974801F01F
:1051C00055FCEAE296A001F051FC607850B1A0A035
:1051D00001F04CFCE88A03AA04A902F07FFC18B194
:1051E0009FA0B6E0A6A0F3E7A8A001F03FFC9DF8C1
:1051F0001010022903D19DF80C20022A01D09DF83D
:105200000C20ABA001F032FCC7E295F88100FEF75C
:1052100021FF6188AF4801F029FC207AA279E17969
:105220008DE80700637AA27AE17AAB4801F01EFCB0
:10523000A089FBF77FF853EC182BFBF709F841EC3A
:10524000100B208AE18900EB80004000CDE90010BE
:1052500053EC102B7148641C01F008FC95F8800099
:1052600004280DD0052085F88000B4F80100E882FC
:1052700088F80060A8F802003D48FFF717FA8CE2B2
:105280000620F0E734F8020F40F20542A0F2054193
:10529000904238D015DC40F20242A0F20241904226
:1052A00020D009DC04285FD0B0F5806F18D0A0F5BD
:1052B0008060013885D14FE0012920D00229A3D197
:1052C0001FE004292FD004DC02294ED003299BD1F2
:1052D00025E0052925D0A1F54071FB3994D14FE295
:1052E0007EA036E089A001F0C1FBE88A914902F076
:1052F000E1F8010001D090A027E09CA029E0A5A042
:1053000027E0AFA025E0BCA001F0B0FBE88A02F0E6
:1053100022F8010001D0C1A017E0CCA019E0D5A06F
:1053200017E0DFA015E0EAA001F0A0FB6168F5A09E
:1053300001F09CFB6168FAA001F098FBE88A01216A
:1053400002F090F8010003D0FB4801F08FFB24E24B
:10535000FA4801F08BFB20E2F9A0A41C01F086FBC7
:10536000A17819B1E27801E20FE20CE204E2000058
:1053700042000020140500203E3E3D3D20484349A8
:105380005F444953434F4E4E454354494F4E5F434C
:105390004F4D504C4554455F4556545F434F44452F
:1053A0000A00000020202020202D20436F6E6E6513
:1053B0006374696F6E2048616E646C653A202020CA
:1053C000307825780A20202020202D205265617316
:1053D0006F6E3A20202020307825780A0D000000DA
:1053E000000000000000F43F3E3E3D3D20484349A0
:1053F0005F4C455F434F4E4E454354494F4E5F55BA
:1054000050444154455F434F4D504C4554455F53C4
:1054100055424556545F434F44450A0034870008BF
:105420003D3D3E3E204843495F4C455F5048595FF3
:105430005550444154455F434F4D504C4554455F92
:105440005355424556545F434F4445202D2000009C
:10545000737461747573206E6F6B200A0000000016
:105460003D3D3E3E206863695F6C655F72656164C7
:105470005F706879203A206661696C0A0D0000004F
:10548000737461747573206F6B200A003D3D3E3E5E
:10549000206863695F6C655F726561645F706879DD
:1054A000202D2053756363657373200A000000008C
:1054B0003D3D3E3E2050485920506172616D202094
:1054C00054583D2025642C2052583D202564200A44
:1054D0000D00000008860008A08600083E3E3D3D05
:1054E000204143495F4741505F4C494D4954454431
:1054F0005F444953434F56455241424C455F5653D2
:105500004556545F434F4445200A00003E3E3D3D12
:10551000204143495F4741505F504153535F4B45E2
:10552000595F5245515F56534556545F434F44456A
:10553000200A000040E201003D3D3E3E20616369DB
:105540005F6761705F706173735F6B65795F7265D0
:105550007370203A204661696C2C20726561736F0C
:105560006E3A20307825780A000000003D3D3E3E2E
:10557000206163695F6761705F706173735F6B6502
:10558000795F72657370203A205375636365737336
:10559000200A00003E3E3D3D204143495F474150C7
:1055A0005F415554484F52495A4154494F4E5F52FA
:1055B00045515F56534556545F434F44450A0000DA
:1055C0003D3D3E3E204143495F4741505F5045527B
:1055D0004950484552414C5F5345435552495459EF
:1055E0005F494E495449415445445F5653455654CA
:1055F0005F434F4445200A003D3D3E3E2041434924
:105600005F4741505F424F4E445F4C4F53545F568B
:10561000534556545F434F4445200A003D3D3E3EAE
:10562000206163695F6761705F616C6C6F775F7247
:1056300065626F6E64203A204661696C2C20726549
:1056400061736F6E3A20307825780A003D3D3E3E0A
:10565000206163695F6761705F616C6C6F775F7217
:1056600065626F6E64203A205375636365737320BF
:105670000A0000003E3E3D3D204143495F47415006
:105680005F414444525F4E4F545F5245534F4C5616
:1056900045445F56534556545F434F4445200A00E6
:1056A0003E3E3D3D204143495F4741505F4B455998
:1056B00050524553535F4E4F544946494341544914
:1056C0004F4E5F56534556545F434F44450A0000C2
:1056D0003E3E3D3D204143495F4741505F4E554D61
:1056E000455249435F434F4D50415249534F4E5FDE
:1056F00056414C55455F56534556545F434F4445BC
:105700000A00000020202020202D206E756D65727B
:1057100069635F76616C7565203D20256C640A00C5
:1057200020202020202D204865785F76616C7565EB
:10573000203D20256C780A00508600088C830008E4
:105740003E3E3D3D204143495F4741505F50414906
:1057500052494E475F434F4D504C4554455F565359
:105760004556545F434F44450A0000000EA001F027
:105770007DF9AFF2D430ECE51AA001F077F9F8E743
:105780001E48477009E01EA0E3E50120FBF780FDFD
:1057900095F882000A21FEF71FFC06B00120BDEC3F
:1057A000028BBDE8F081000020202020202D205019
:1057B000616972696E67204B4F200A2020202020EB
:1057C0002D205374617475733A20307825780A203F
:1057D000202020202D20526561736F6E3A20307892
:1057E00025780A0020202020202D20506169726930
:1057F0006E6720537563636573730A003C00002075
:105800003E3E3D3D204143495F4741505F50524F2E
:10581000435F434F4D504C4554455F565345565496
:105820005F434F4445200D00044910B50020087126
:10583000091F087000F010F810BD0000F8000020EB
:105840007047000003490A7941F822000879401C9A
:1058500008717047F800002010B5FBF76FFCFBF7EC
:10586000DFFCFCF750F8FCF72DFAFCF7F4FAFEF732
:1058700044F9FEF743F9FEF744F9FEF792FCFEF710
:10588000B5FC00F08DF9FEF7F2FDFFF70DF801F021
:10589000ECF8FEF7C3FEFBF74FFDFEF7E7FDFFF761
:1058A000CFFF10BD70B5411C06460A780020FF2AC4
:1058B00012D1498801F47F41B1F5406F0CD1002429
:1058C0000C4D06E055F824103046884720B9641C7A
:1058D000E4B22979A142F5D828B1012802D00228E2
:1058E00006D0012070BD3046BDE87040FFF718BCFF
:1058F000002070BDF80000207047000038B5084C4B
:1059000008E069460748FEF77AFD206900990069BA
:10591000FEF75DFD0348FEF766FD0028F1D038BDB7
:1059200000000320AC0000200120FBF7A3BCFCF723
:10593000C3BD000010B59AB048216846FAF768FC6C
:105940001C2112A8FAF764FCFCF776FE4FF0B04079
:1059500050F8901F21F0180101601548016821F4EA
:10596000C06141F4007101600068002400F4C0606F
:105970001990472000904FF48030019001200102DF
:10598000CDE902010A90402004900B946846FDF78F
:10599000E3F86F2012900220CDE9130415941694B9
:1059A0001794012112A81894FCF758FF1AB010BDE3
:1059B0000004005815480022026014488030016835
:1059C00041F4700101604FF0B040016841F0010105
:1059D00001604FF4E021816001680D4B19400160C6
:1059E000D0F8941021F00501C0F89410D0F8981068
:1059F00021F00101C0F898100649C16001610168F9
:105A000021F48021016082617047000008ED00E010
:105A1000FBFEF6FA0010042210B504460A48FEF711
:105A2000C7FC0A484168A0680860E068C860084888
:105A3000486005488860FEF76BF8064821684160B9
:105A400061688160002010BD600103200000032018
:105A5000580A032098000020074810B54268012129
:105A600012681172406801680120FEF7F1FDFEF72F
:105A700077F8002010BD000000000320FEF778B882
:105A80000C480B4901602031416010318160683958
:105A90000162083141620831C160683101617C39BD
:105AA0004161983181610C31C161FEF787B8000016
:105AB000700103200000032010B50446014606488B
:105AC000FEF785FC21460020FEF7C2FDBDE8104030
:105AD0000248FEF791B80000AC000020FD58000815
