:020000040800F2
:100000000000032091A100084D4B00085D4B000843
:10001000754B00087B4B0008814B00080000000076
:10002000000000000000000000000000874B0008F6
:10003000954B000800000000A34B0008B14B0008DE
:10004000E5A10008E5A10008E5A10008BD4B0008F6
:10005000E5A10008E5A100084B4C0008594C000838
:10006000674C0008E5A100083D4C0008E5A1000828
:10007000E5A10008E5A10008C94B0008E5A10008BA
:10008000E5A10008E5A10008E5A10008E5A1000838
:10009000E5A10008E5A10008E5A10008E5A1000828
:1000A000E5A10008E5A10008E5A10008E5A1000818
:1000B000E5A10008E5A10008E5A10008E5A1000808
:1000C000E5A10008E5A10008E5A10008E5A10008F8
:1000D000DD4B0008F14B0008E5A10008E5A1000890
:1000E000E5A10008E5A10008E5A10008E5A10008D8
:1000F000054C0008114C00081D4C0008E5A1000843
:10010000E5A10008E5A10008E5A10008E5A10008B7
:10011000E5A10008E5A10008E5A10008E5A10008A7
:10012000E5A10008E5A10008294C0008E5A10008A8
:0C013000E5A10008E5A10008E5A1000819
:1001400010B5054C237833B9044B13B10448AFF311
:1001500000800123237010BD3C030020000000003C
:100160007C64030808B5034B1BB103490348AFF394
:10017000008008BD00000000400300207C640308EC
:1001800001F0FF01102A2BDB10F0070F08D010F848
:10019000013B013A8B422DD010F0070F42B3F6D14C
:1001A000F0B441EA012141EA014122F007047FF065
:1001B00000070023F0E80256083C85EA010586EABC
:1001C000010685FA47F5A3FA87F586FA47F6A5FAF8
:1001D00087F68EB9EED1F0BC01F0FF0102F0070204
:1001E00032B110F8013B013A83EA010313B1F8D1AF
:1001F0000020704701387047002D06BF3546033890
:10020000073815F0010F07D1013015F4807F02BFC8
:10021000013015F4C03F0130F0BC0138704700BF19
:10022000034613F8012B002AFBD1181A0138704736
:1002300081F0004102E000BF83F0004330B54FEA97
:1002400041044FEA430594EA050F08BF90EA020F04
:100250001FBF54EA000C55EA020C7FEA645C7FEA97
:10026000655C00F0E2804FEA5454D4EB5555B8BFBA
:100270006D420CDD2C4480EA020281EA030382EA2B
:10028000000083EA010180EA020281EA0303362DBD
:1002900088BF30BD11F0004F4FEA01314FF4801C90
:1002A0004CEA113102D0404261EB410113F0004FA2
:1002B0004FEA03334CEA133302D0524263EB430359
:1002C00094EA050F00F0A780A4F10104D5F1200EF7
:1002D0000DDB02FA0EFC22FA05F2801841F1000152
:1002E00003FA0EF2801843FA05F359410EE0A5F126
:1002F00020050EF1200E012A03FA0EFC28BF4CF057
:10030000020C43FA05F3C01851EBE37101F000450C
:1003100007D54FF0000EDCF1000C7EEB00006EEB19
:100320000101B1F5801F1BD3B1F5001F0CD34908A3
:100330005FEA30004FEA3C0C04F101044FEA4452FA
:1003400012F5800F80F09A80BCF1004F08BF5FEA81
:10035000500C50F1000041EB045141EA050130BD61
:100360005FEA4C0C404141EB0101013C28BFB1F573
:10037000801FE9D291F0000F04BF01460020B1FABE
:1003800081F308BF2033A3F10B03B3F120020CDA91
:100390000C3208DD02F1140CC2F10C0201FA0CF06F
:1003A00021FA02F10CE002F11402D8BFC2F1200CD4
:1003B00001FA02F120FA0CFCDCBF41EA0C0190408A
:1003C000E41AA2BF01EB0451294330BD6FEA0404D3
:1003D0001F3C1CDA0C340EDC04F11404C4F12002BE
:1003E00020FA04F001FA02F340EA030021FA04F3D0
:1003F00045EA030130BDC4F10C04C4F1200220FA27
:1004000002F001FA04F340EA0300294630BD21FA64
:1004100004F0294630BD94F0000F83F4801306BF2A
:1004200081F480110134013D4EE77FEA645C18BF1E
:100430007FEA655C29D094EA050F08BF90EA020FB5
:1004400005D054EA000C04BF1946104630BD91EAAD
:10045000030F1EBF0021002030BD5FEA545C05D1B0
:100460004000494128BF41F0004130BD14F58004EF
:100470003CBF01F5801130BD01F0004545F0FE4163
:1004800041F470014FF0000030BD7FEA645C1ABF98
:10049000194610467FEA655C1CBF0B46024650EACF
:1004A000013406BF52EA033591EA030F41F40021FB
:1004B00030BD00BF90F0000F04BF0021704730B581
:1004C0004FF4806404F132044FF000054FF0000156
:1004D00050E700BF90F0000F04BF0021704730B517
:1004E0004FF4806404F1320410F0004548BF4042EC
:1004F0004FF000013EE700BF42004FEAE2014FEA41
:1005000031014FEA02701FBF12F07F4393F07F4F1B
:1005100081F06051704732F07F4208BF704793F01E
:100520007F4F04BF41F40021704730B54FF4607431
:1005300001F0004521F000411CE700BF50EA010234
:1005400008BF704730B54FF000050AE050EA0102DD
:1005500008BF704730B511F0004502D5404261EB4D
:1005600041014FF4806404F132045FEA915C3FF48E
:10057000D8AE4FF003025FEADC0C18BF03325FEA2B
:10058000DC0C18BF033202EBDC02C2F1200300FADC
:1005900003FC20FA02F001FA03FE40EA0E0021FA01
:1005A00002F11444BDE600BF70B54FF0FF0C4CF4EF
:1005B000E06C1CEA11541DBF1CEA135594EA0C0FA1
:1005C00095EA0C0F00F0DEF82C4481EA030621EADC
:1005D0004C5123EA4C5350EA013518BF52EA033517
:1005E00041F4801143F4801338D0A0FB02CE4FF0C9
:1005F0000005E1FB02E506F00042E0FB03E54FF0F9
:100600000006E1FB03569CF0000F18BF4EF0010EF0
:10061000A4F1FF04B6F5007F64F5407404D25FEAEC
:100620004E0E6D4146EB060642EAC62141EA55519F
:100630004FEAC52040EA5E504FEACE2EB4F1FD0CE1
:1006400088BFBCF5E06F1ED8BEF1004F08BF5FEA5F
:10065000500E50F1000041EB045170BD06F0004611
:1006600046EA010140EA020081EA0301B4EB5C04BE
:10067000C2BFD4EB0C0541EA045170BD41F48011B6
:100680004FF0000E013C00F3AB8014F1360FDEBFDB
:10069000002001F0004170BDC4F10004203C35DAB7
:1006A0000C341BDC04F11404C4F1200500FA05F33A
:1006B00020FA04F001FA05F240EA020001F00042DB
:1006C00021F0004110EBD37021FA04F642EB060151
:1006D0005EEA430E08BF20EAD37070BDC4F10C047B
:1006E000C4F1200500FA04F320FA05F001FA04F23F
:1006F00040EA020001F0004110EBD37041F100012B
:100700005EEA430E08BF20EAD37070BDC4F1200535
:1007100000FA05F24EEA020E20FA04F301FA05F29D
:1007200043EA020321FA04F001F0004121FA04F245
:1007300020EA020000EBD3705EEA430E08BF20EA15
:10074000D37070BD94F0000F0FD101F0004640004F
:1007500041EB010111F4801F08BF013CF7D041EAD1
:10076000060195F0000F18BF704703F000465200D5
:1007700043EB030313F4801F08BF013DF7D043EAA6
:100780000603704794EA0C0F0CEA135518BF95EA5C
:100790000C0F0CD050EA410618BF52EA4306D1D1E3
:1007A00081EA030101F000414FF0000070BD50EA02
:1007B000410606BF1046194652EA430619D094EA8C
:1007C0000C0F02D150EA013613D195EA0C0F05D176
:1007D00052EA03361CBF104619460AD181EA0301CA
:1007E00001F0004141F0FE4141F470014FF0000082
:1007F00070BD41F0FE4141F4780170BD70B54FF01D
:10080000FF0C4CF4E06C1CEA11541DBF1CEA13559C
:1008100094EA0C0F95EA0C0F00F0A7F8A4EB05047E
:1008200081EA030E52EA03354FEA013100F0888075
:100830004FEA03334FF0805545EA131343EA12633E
:100840004FEA022245EA111545EA10654FEA0026F3
:100850000EF000419D4208BF964244F1FD0404F5AC
:10086000407402D25B084FEA3202B61A65EB030508
:100870005B084FEA32024FF480104FF4002CB6EBC5
:10088000020E75EB030E22BFB61A754640EA0C0045
:100890005B084FEA3202B6EB020E75EB030E22BF85
:1008A000B61A754640EA5C005B084FEA3202B6EBC6
:1008B000020E75EB030E22BFB61A754640EA9C0085
:1008C0005B084FEA3202B6EB020E75EB030E22BF55
:1008D000B61A754640EADC0055EA060E18D04FEA13
:1008E000051545EA16754FEA06164FEAC30343EAB3
:1008F00052734FEAC2025FEA1C1CC0D111F4801F80
:100900000BD141EA00014FF000004FF0004CB6E778
:1009100011F4801F04BF01430020B4F1FD0C88BF17
:10092000BCF5E06F3FF6AFAEB5EB030C04BFB6EB22
:10093000020C5FEA500C50F1000041EB045170BD15
:100940000EF0004E4EEA113114EB5C04C2BFD4EB42
:100950000C0541EA045170BD41F480114FF0000EC6
:10096000013C90E645EA060E8DE60CEA135594EA42
:100970000C0F08BF95EA0C0F3FF43BAF94EA0C0F45
:100980000AD150EA01347FF434AF95EA0C0F7FF4BA
:1009900025AF104619462CE795EA0C0F06D152EA0E
:1009A00003353FF4FDAE1046194622E750EA4106F2
:1009B00018BF52EA43067FF4C5AE50EA41047FF403
:1009C0000DAF52EA43057FF4EBAE12E74FF0FF3C68
:1009D00006E000BF4FF0010C02E000BF4FF0010C39
:1009E0004DF804CD4FEA410C7FEA6C5C4FEA430CB2
:1009F00018BF7FEA6C5C1BD001B050EA410C0CBF01
:100A000052EA430C91EA030F02BF90EA020F002062
:100A1000704710F1000F91EA030F58BF994208BFC9
:100A200090422CBFD8176FEAE37040F00100704786
:100A30004FEA410C7FEA6C5C02D150EA013C07D1DD
:100A40004FEA430C7FEA6C5CD6D152EA033CD3D028
:100A50005DF8040B704700BF8446104662468C4622
:100A60001946634600E000BF01B5FFF7B7FF002855
:100A700048BF10F1000F01BD4DF808EDFFF7F4FF7E
:100A80000CBF012000205DF808FB00BF4DF808ED09
:100A9000FFF7EAFF34BF012000205DF808FB00BF2C
:100AA0004DF808EDFFF7E0FF94BF012000205DF84E
:100AB00008FB00BF4DF808EDFFF7CEFF94BF012003
:100AC00000205DF808FB00BF4DF808EDFFF7C4FFFC
:100AD00034BF012000205DF808FB00BF4FEA410C45
:100AE0007FEA6C5C02D150EA013C0AD14FEA430C28
:100AF0007FEA6C5C02D152EA033C02D14FF0000065
:100B000070474FF0010070474FEA410212F50012A2
:100B100015D211D56FF47873B3EB625212D94FEA44
:100B2000C12343F0004343EA505311F0004F23FA2E
:100B300002F018BF404270474FF00000704750EA83
:100B4000013005D111F0004008BF6FF00040704740
:100B50004FF00000704700BF4FEA4102B2F1E0439E
:100B600024BFB3F5001CDCF1FE5C0DD901F0004C94
:100B70004FEAC0024CEA5070B2F1004F40EB8300E4
:100B800008BF20F00100704711F0804F21D113F110
:100B90003872BCBF01F00040704741F480114FEA49
:100BA0005252C2F11802C2F1200C10FA0CF320FAD2
:100BB00002F018BF40F001004FEAC1234FEAD323EF
:100BC00003FA0CFC40EA0C0023FA02F34FEA430359
:100BD000CCE77FEA625307D150EA01331EBF4FF0E2
:100BE000FE4040F44000704701F0004040F0FE40FD
:100BF00040F40000704700BF53B94AB9002908BF4C
:100C000000281CBF4FF0FF314FF0FF3000F074B9E7
:100C1000ADF1080C6DE904CE00F006F8DDF804E053
:100C2000DDE9022304B070472DE9F047089D044632
:100C30008E46002B4DD18A42944669D9B2FA82F28F
:100C400052B101FA02F3C2F1200120FA01F10CFACB
:100C500002FC41EA030E94404FEA1C48210CBEFB03
:100C6000F8F61FFA8CF708FB16E341EA034306FB8C
:100C700007F199420AD91CEB030306F1FF3080F01B
:100C80001F81994240F21C81023E63445B1AA4B268
:100C9000B3FBF8F008FB103344EA034400FB07F70A
:100CA000A7420AD91CEB040400F1FF3380F00A814B
:100CB000A74240F207816444023840EA0640E41B40
:100CC00000261DB1D4400023C5E900433146BDE8EC
:100CD000F0878B4209D9002D00F0EF800026C5E98E
:100CE000000130463146BDE8F087B3FA83F6002EA6
:100CF0004AD18B4202D3824200F2F980841A61EB1E
:100D0000030301209E46002DE0D0C5E9004EDDE73B
:100D100002B9FFDEB2FA82F2002A40F09280A1EB23
:100D20000C014FEA1C471FFA8CFE0126200CB1FB78
:100D3000F7F307FB131140EA01410EFB03F0884271
:100D400008D91CEB010103F1FF3802D2884200F2FE
:100D5000CB804346091AA4B2B1FBF7F007FB101190
:100D600044EA01440EFB00FEA64508D91CEB04042E
:100D700000F1FF3102D2A64500F2BB800846A4EB89
:100D80000E0440EA03409CE7C6F12007B34022FA74
:100D900007FC4CEA030C20FA07F401FA06F31C43A3
:100DA000F9404FEA1C4900FA06F3B1FBF9F8200CB0
:100DB0001FFA8CFE09FB181140EA014108FB0EF0F6
:100DC000884202FA06F20BD91CEB010108F1FF3A46
:100DD00080F08880884240F28580A8F10208614452
:100DE000091AA4B2B1FBF9F009FB101144EA014160
:100DF00000FB0EFE8E4508D91CEB010100F1FF340B
:100E00006CD28E456AD90238614440EA0840A0FBA2
:100E10000294A1EB0E01A142C846A64656D353D078
:100E20005DB1B3EB080261EB0E0101FA07F722FA9C
:100E300006F3F1401F43C5E9007100263146BDE8C5
:100E4000F087C2F12003D8400CFA02FC21FA03F328
:100E5000914001434FEA1C471FFA8CFEB3FBF7F0A9
:100E600007FB10360B0C43EA064300FB0EF69E42CE
:100E700004FA02F408D91CEB030300F1FF382FD267
:100E80009E422DD9023863449B1B89B2B3FBF7F60F
:100E900007FB163341EA034106FB0EF38B4208D9E8
:100EA0001CEB010106F1FF3816D28B4214D9023E29
:100EB0006144C91A46EA004638E72E46284605E747
:100EC0000646E3E61846F8E64B45A9D2B9EB020818
:100ED00064EB0C0E0138A3E74646EAE7204694E7A8
:100EE0004046D1E7D0467BE7023B614432E73046DB
:100EF00009E76444023842E7704700BF80B586B016
:100F000002AFF860B9607A603B60BB68002BC0F24A
:100F1000BB80BB68072B00F3B7807B68002BC0F257
:100F2000B3807B68072B00F3AF805A49BB68DA00B7
:100F30007B68134451F82330002B40F0A780BB6836
:100F40005B01FA6813447A6853F82230B3F5FA7FEC
:100F500040F39C804F49BB68DA007B681344012250
:100F600041F82320BB691B685A1CBB691A603B68A7
:100F700093ED007ABB6807EE903AF8EEE77A77EEE9
:100F8000277A3B68C3ED007A3B6893ED017A7B6872
:100F900007EE903AF8EEE77A77EE277A3B68C3EDF2
:100FA000017ABB685B01FA6813447A6853F822300F
:100FB00003F16302BB6803F10063013B5B01F96865
:100FC0000B44796853F821309A4208DBBB68591EFC
:100FD000BB6900933B687A68F868FFF78FFFBB68CE
:100FE0005B01FA6813447A6853F8223003F1630214
:100FF000BB6801335B01F9680B44796853F8213011
:101000009A4208DBBB68591CBB6900933B687A684D
:10101000F868FFF773FFBB685B01FA6813447A68EE
:1010200053F8223003F16302BB685B01F9680B449B
:101030007968013953F821309A4208DB7B685A1EDF
:10104000BB6900933B68B968F868FFF757FFBB6856
:101050005B01FA6813447A6853F8223003F16302A3
:10106000BB685B01F9680B447968013153F82130A2
:101070009A420CDB7B685A1CBB6900933B68B968D9
:10108000F868FFF73BFF02E000BF00E000BF103749
:10109000BD4680BD2841002080B590B002AF786089
:1010A000396000237B6313E000233B630AE054496B
:1010B0007B6BDA003B6B1344002241F823203B6B2F
:1010C00001333B633B6B072BF1DD7B6B01337B63B0
:1010D0007B6B072BE8DD0023FB62012387F82B30B5
:1010E00083E04FF0FF337B620023BB6143E00023CA
:1010F0007B613AE0BB695B017A6813447A6953F813
:1011000022307A6A9A421FDABB695B017A6813441B
:101110007A6953F82230B3F5FA7F15DD3849BB6997
:10112000DA007B69134451F82330002B0CD1BB69E2
:101130005B017A6813447A6953F822307B62BB6999
:101140003B627B69FB610DE0BA697B699A4209D118
:10115000BB69072B06D17B6AB3F1FF3F02D10023A5
:1011600087F82B307B6901337B617B69072BC1DDFD
:10117000BB690133BB61BB69072BB8DD4FF00003CE
:10118000FB604FF000033B610023BB6007F10C02E2
:1011900007F1080300931346FA69396A7868FFF784
:1011A000ADFEBB68042B20DDD7ED036ABB6807EEFC
:1011B000903AB8EEE77AFB6ADB003A681344C6EE71
:1011C000877AC3ED007AD7ED046ABB6807EE903AE0
:1011D000B8EEE77AFB6ADB003A681344C6EE877A1A
:1011E000C3ED017AFB6A0133FB6297F82B30002BC9
:1011F0007FF477AFFB6A18463837BD4680BD00BF25
:101200002841002080B48DB000AFF860B0EE407A85
:10121000F0EE607A87ED017AC7ED027AD7ED017AB8
:10122000FDEEE77A17EE903AFB61D7ED027AFDEE1C
:10123000E77A17EE903ABB614FF00003FB624FF084
:101240000003BB6200237B6276E000233B626DE01B
:10125000FA697B6A1344002B65DBFA697B6A1344E5
:10126000072B60DCBA693B6A1344002B5BDBBA696D
:101270003B6A1344072B56DCFA697B6A13445B0113
:10128000FA681344B9693A6A0A4453F82230B3F54C
:10129000FA7F48DB7B6A002B11D1BA693B6A1344A1
:1012A00007EE903AB8EEE77AD7ED027A77EE677AF2
:1012B000F0EEE77AB7EE007A77EE677A10E0FA6937
:1012C0007B6A134407EE903AB8EEE77AD7ED017ADD
:1012D00077EE677AF0EEE77AB7EE007A77EE677A24
:1012E000C7ED057AFA697B6A13445B01FA68134417
:1012F000B9693A6A0A4453F8223007EE903AB8EED8
:10130000E77AD7ED057A67EE277A97ED0B7A77EED5
:10131000277AC7ED0B7A97ED0A7AD7ED057A77EE43
:10132000277AC7ED0A7A3B6A01333B623B6A012B9D
:101330008EDD7B6A01337B627B6A012B85DD97ED55
:101340000B7AD7ED0A7AC7EE276AF0EE667AB0EE2E
:10135000670A3437BD465DF8047B704790B5E9B045
:1013600000AF07F5D073A3F5CA73186007F5D07303
:10137000A3F5CC73196007F5D073A3F5CE7383ED95
:10138000000A07F5D073A3F5D073C3ED000A07F187
:10139000100207F5D073A3F5CC7311461868FFF758
:1013A0007BFE024607F5D073A3F59873C3F820219E
:1013B00007F5D073A3F5987307F5D072A2F5CE7236
:1013C0001268C3F8242107F5D073A3F5987307F5C5
:1013D000D072A2F5D0721268C3F828210023C7F892
:1013E0009C3164E007F5D073A3F59871D7F89C2180
:1013F00013465B001344DB00194407F5D073A3F5D3
:10140000C872D7F89C310C46DB00134493E8030004
:1014100084E8030007F5D073A3F5C873D7F89C21BF
:10142000D100194491ED007AD20013440433D3ED76
:10143000007A07F5D073A3F5CC73B0EE470AF0EE4F
:10144000670A1868FFF7DEFEF0EE407A07F5D07302
:10145000A3F59871D7F89C2113465B001344DB0079
:101460000B440833C3ED007A07F5D073A3F59871E8
:10147000D7F89C2113465B001344DB000B44103368
:101480004FF000021A6007F5D073A3F59871D7F8F2
:101490009C2113465B001344DB000B4414334FF0D4
:1014A00000021A60D7F89C310133C7F89C3107F568
:1014B000D073A3F59873D3F82031D7F89C219A42C2
:1014C00090DB07F5D073A3F5CA731A6807F5D073DC
:1014D000A3F59873104619464FF496731A4630F0E8
:1014E00086FA07F5D073A3F5CA73186807F5D277A3
:1014F000BD4690BD80B487B000AF786039607A682F
:101500003B689A4201D100234AE03B68043B7B617F
:1015100002E07B69043B7B617A697B689A4206D969
:101520007B69043B1A687B691B689A42F1DA7A6925
:101530007B689A4201D1002332E03B68043B3B6167
:1015400002E03B69043B3B613B691A687B69043BF1
:101550001B689A42F5DD7B6953F8043CFB607B69AC
:10156000043B3A6912681A603B69FA681A603B6882
:10157000043B3B610FE07B691B68FB603B691A68B9
:101580007B691A603B69FA681A607B6904337B6186
:101590003B69043B3B617A693B699A42EBD3012387
:1015A00018461C37BD465DF8047B70472DE9F04FA7
:1015B00099B000AFF860FB6803F50053D3F8E83E3C
:1015C000002B00F0CB81FB6803F50053D3F8E43E19
:1015D0004FF4967202FB03F3FA6813447B63FB68D3
:1015E00003F50053D3F8E83E012B25D100237B649B
:1015F0001BE0FB6803F50053D3F8EC3E0133FA68B7
:1016000002F50052C2F8EC3EFB6803F50053D3F834
:10161000EC1E786B7A6C13465B001344DB000344CA
:101620000C3319607B6C01337B647B6BD3F8203106
:101630007A6C9A42DDDB92E10023BB64FB6803F520
:101640000053D3F8E43E03F12702AC4B83FB0213B3
:101650001911D317C91A0B469B000B44DB00D31A90
:10166000FB6400233B653BE16B46BB60BB6C013315
:10167000BB64FB6C03F12702A04B83FB021319111F
:10168000D317C91A0B469B000B44DB00D31AFB642B
:10169000FB6C4FF4967202FB03F3FA6813443B634E
:1016A0007B6BD3F82031FB623B6BD3F82031BB62FC
:1016B0004FF0FF437B65F96A4B1E7B620A460023AD
:1016C00014461D464FF000024FF000036B0143EA41
:1016D000D46362010A460023904699464FF0000207
:1016E0004FF000034FEA491343EAD8634FEA481228
:1016F0000B469B000733DB08DB00ADEB030D6B46AD
:1017000003339B089B003B62FE6A731EFB613246FB
:10171000002392469B464FF000024FF000034FEA31
:101720004B1343EADA634FEA4A12324600233A6027
:101730007B604FF000024FF0000379684B0139687D
:1017400043EAD16339684A0133469B000733DB081B
:10175000DB00ADEB030D6B4603339B089B00BB61C5
:101760000023BB6507E0BB69BA6DB96D43F8221071
:10177000BB6D0133BB65BA6DFB6A9A42F3DB4FF078
:101780000003FB6500233B6453E0BB693A6C53F8EC
:101790002230BA6A9A4249DD796B3A6C13465B0093
:1017A0001344DB000B4493ED007ABB693A6C53F8A9
:1017B0002220396B13465B001344DB000B44D3ED4E
:1017C000007A77EE677AC7ED057A796B3A6C134643
:1017D0005B001344DB000B44043393ED007ABB69D8
:1017E0003A6C53F82220396B13465B001344DB003C
:1017F0000B440433D3ED007A77EE677AC7ED047AB1
:10180000D7ED057A27EEA77AD7ED047A67EEA77AA7
:1018100077EE277AB0EE670A33F0E8FDB0EE407A53
:10182000D7ED177A77EE877AC7ED177A3B6C0133DD
:101830003B643A6CFB6A9A42A7DB97ED177AD7EDC7
:10184000157AB4EEE77AF1EE10FA08D5FB6D7B65F8
:1018500033469B001A46B969386A30F0C8F8FB6A0B
:101860009B00BA6913441946B869FFF743FE034663
:10187000002B84D10023FB632CE03B6AFA6B53F806
:101880002230BA6A9A4222DD796BFA6B13465B000A
:101890001344DB000B440C331B68002B17D13B6A4D
:1018A000FA6B53F82220396B13465B001344DB00BC
:1018B0000B440C331968786BFA6B13465B001344C6
:1018C000DB0003440C3319603B6D01333B65FB6B5C
:1018D0000133FB63FA6BFB6A9A42CEDBD7F808D080
:1018E000BB6C022B06DC7B6BD3F820313A6D9A423D
:1018F000FFF6BAAE0023BB6329E000BF67666666E9
:10190000796BBA6B13465B001344DB000B440C335A
:101910001B68002B18D1FB6803F50053D3F8EC3E8D
:101920000133FA6802F50052C2F8EC3EFB6803F599
:101930000053D3F8EC1E786BBA6B13465B0013446C
:10194000DB0003440C331960BB6B0133BB637B6B5F
:10195000D3F82031BA6B9A42D2DB00E000BF643783
:10196000BD46BDE8F08F00BFB0B590B000AF786065
:101970007B6803F50053D3F8E83E012B40F3678101
:101980007B6803F50053D3F8E43E4FF4967202FBF4
:1019900003F37A6813447B627B6803F50053D3F842
:1019A000E43E03F12702B04B83FB02131911D31756
:1019B000C91A0B469B000B44DB00D31A3B623B6AFF
:1019C0004FF4967202FB03F37A681344FB61002321
:1019D000FB6334E1796AFA6B13465B001344DB0066
:1019E0000B440C331B68BB614FF00003BB634FF02B
:1019F00000037B634FF07E533B630023FB6283E075
:101A0000F969FA6A13465B001344DB000B440C339C
:101A10001B68BA699A4274D1796AFA6B13465B0003
:101A20001344DB000B4493ED007AF969FA6A13461C
:101A30005B001344DB000B44D3ED007A77EE677A4A
:101A4000C7ED057A796AFA6B13465B001344DB0035
:101A50000B44043393ED007AF969FA6A13465B008C
:101A60001344DB000B440433D3ED007A77EE677A3E
:101A7000C7ED047AD7ED057A27EEA77AD7ED047A79
:101A800067EEA77A77EE277AB0EE670A33F0AEFCFE
:101A900087ED030AD7ED050A97ED040A33F0A4FC9D
:101AA00087ED020A97ED0E7AD7ED037A77EE277A63
:101AB000C7ED0E7A786BFEF71FFD04460D46D7ED95
:101AC000027A9FED6A7A67EE877AB0EE007AC7EE07
:101AD000876A16EE900AFEF70FFD5FA3D3E9002395
:101AE000FEF78CFE02460B4620462946FEF7A6FB73
:101AF00002460B4610461946FFF72EF803467B6355
:101B000009E0FB6A0133FB62FB69D3F82031FA6A12
:101B10009A42FFF675AF0023BB6267E0F969BA6AC3
:101B200013465B001344DB000B440C331B68BA699B
:101B30009A4258D1B86BFEF7DFFC04460D46F969AE
:101B4000BA6A13465B001344DB000B4414331B6872
:101B50001846FEF7D1FC42A3D3E90023FEF724FD8B
:101B600002460B4620462946FEF768FB02460B4616
:101B700010461946FEF7F0FF0346BB63786BFEF78D
:101B8000BBFC04460D46F969BA6A13465B00134470
:101B9000DB000B4410331B681846FEF7ADFC30A386
:101BA000D3E90023FEF700FD02460B4620462946F6
:101BB000FEF744FB02460B4610461946FEF7CCFFE3
:101BC00003467B63386BFEF797FC25A3D3E900231C
:101BD000FEF734FB02460B4610461946FEF7BCFFE3
:101BE00003463B6308E0BB6A0133BB62FB69D3F881
:101BF0002031BA6A9A4291DBD7ED0E6A97ED0C7AE2
:101C0000C6EE877A796AFA6B13465B001344DB00F1
:101C10000B441433C3ED007AD7ED0D6A97ED0C7ABF
:101C2000C6EE877A796AFA6B13465B001344DB00D1
:101C30000B441033C3ED007AFB6B0133FB637B6A0B
:101C4000D3F82031FA6B9A42FFF6C4AE00E000BF31
:101C50004037BD46B0BD00BF182D4454FB2109409C
:101C60009A9999999999D93F676666660000B44335
:101C700080B483B000AF78607B6803F500531A46E8
:101C80000023C2F8E03E7B6803F500531A464FF08C
:101C9000FF33C2F8E43E7B6803F500531A46002385
:101CA000C2F8E83E7B6803F500531A460023C2F8E9
:101CB000EC3E00BF0C37BD465DF8047B704780B436
:101CC00083B000AF78607B6803F50053D3F8E83E3B
:101CD000282B0CBF01230023DBB218460C37BD466E
:101CE0005DF8047B704780B483B000AF78607B6898
:101CF00003F50053D3F8E83E002B0CBF012300236B
:101D0000DBB218460C37BD465DF8047B7047000017
:101D100080B582B000AF78607868FFF7E4FF0346D3
:101D200083F00103DBB2002B20D07B6803F5005366
:101D3000D3F8E03E591C0F4B83FB01231A11CB173C
:101D4000D21A13469B001344DB00CA1A7B6803F5C2
:101D50000053C3F8E02E7B6803F50053D3F8E83E48
:101D6000013B7A6802F50052C2F8E83E00BF08372E
:101D7000BD4680BD6766666684B080B582B000AF40
:101D8000786007F1140080E80E007868FFF797FF8D
:101D90000346002B02D07868FFF7BAFF7B6803F593
:101DA0000053D3F8E43E591C1D4B83FB01231A1149
:101DB000CB17D21A13469B001344DB00CA1A7B6868
:101DC00003F50053C3F8E42E7B6803F50053D3F802
:101DD000E43E7A684FF4967101FB03F3134418460E
:101DE00007F114034FF4967219462FF000FE7B683A
:101DF00003F50053D3F8E83E01337A6802F5005248
:101E0000C2F8E83E7868FFF7D1FB7868FFF7ACFDD1
:101E100000BF0837BD46BDE8804004B0704700BF32
:101E20006766666680B584B000AF78601E4830F0A3
:101E30004FFD0023FB602FE00023BB6023E0FB6825
:101E40005B017A681344BA6853F82230B3F5FA7F1D
:101E50000BDBFB685B017A681344BA6853F82230E5
:101E60001946124830F098FC0AE0FB685B017A687A
:101E70001344BA6853F8223019460D4830F08CFCF0
:101E8000BB680133BB60BB68072BD8DD094830F065
:101E90001FFDFB680133FB60FB68072BCCDD00BF37
:101EA00000BF1037BD4680BD346503084065030898
:101EB000546503086865030884B02DE9F04F93B0BA
:101EC00008AF07F1500484E80F00D7F87061D7F825
:101ED00074311846FEF710FB04460D46D7F87831EA
:101EE0001846FEF709FB02460B46CDE900232246C1
:101EF0002B4631463E4830F04FFC00237B626AE0BF
:101F00007A6A13465B001344DB00483307F108028A
:101F10009A1807F10C0392E8030083E803007A6A39
:101F200013465B001344DB00483307F108021344F7
:101F300008331B683B627A6A13465B001344DB007C
:101F4000483307F1080213440C331B68FB617A6ABB
:101F500013465B001344DB00483307F108021344C7
:101F600014331B68BB617A6A13465B001344DB00C1
:101F7000483307F10802134410331B687B61FB6888
:101F80001846FEF7B9FAC7E900013B691846FEF7A3
:101F9000B3FA04460D46386AFEF7AEFA8046894623
:101FA000B869FEF7A9FA82468B467869FEF7A4FA6B
:101FB00002460B46CDE90623CDE904ABCDE9028903
:101FC000CDE90045D7E90023F9690A4830F0E4FB80
:101FD0007B6A01337B62D7F870317A6A9A428FDB71
:101FE00000BF00BF2C37BD46BDE8F04F04B07047BE
:101FF000446603086066030880B487B000AFF860E9
:10200000B9607A6000237B6121E000233B6118E026
:102010007B695B01BA6813443A6953F822107B6903
:102020005B017A6813443A6953F822207B695B01AB
:10203000F8680344891A3A6943F822103B6901336E
:102040003B613B69072BE3DD7B6901337B617B6986
:10205000072BDADD00BF00BF1C37BD465DF8047BEF
:102060007047000080B483B000AF7860064BD3F8AF
:10207000902005497B681343C1F8903000BF0C37AE
:10208000BD465DF8047B70470008005880B485B0F9
:1020900000AF78604FF0B043DA6C4FF0B0417B682E
:1020A0001343CB644FF0B043DA6C7B681340FB60A2
:1020B000FB6800BF1437BD465DF8047B704780B4F1
:1020C00085B000AF78604FF0B043D3F84C214FF0AB
:1020D000B0417B681343C1F84C314FF0B043D3F8A3
:1020E0004C217B681340FB60FB6800BF1437BD4682
:1020F0005DF8047B704780B500AF0CF0DBF80CF0A6
:10210000DFF84FF48030FFF7ADFF1EF09DF800F0D0
:1021100021F800F0C3F800BF80BD0000B0B588B062
:1021200000AF0B4B3C1D1D460FCD0FC495E80700BB
:1021300003C422800234130C23701DF0C1FF3B1D29
:1021400018461DF043FA00BF2037BD46B0BD00BFA2
:102150008C66030880B588B000AF3B1D00221A6072
:102160005A609A60DA601A610023BB8300237B8384
:1021700000233B830023FB7738E0FB7F444ADB00EE
:1021800013449B79002B2BD0FB7F414A52F833300C
:10219000404A93421BD03F4A934223D8B3F1904F19
:1021A00003D03D4A934209D01CE0FB7F384ADB0054
:1021B00013449A88BB8B1343BB8314E0FB7F344AE0
:1021C000DB0013449A887B8B13437B830BE0FB7FFC
:1021D0002F4ADB0013449A883B8B13433B8302E076
:1021E00000BF00E000BFFB7F0133FB77FB7F252BA7
:1021F000C3D90023FB600123BB6003233B61BB8B7E
:10220000002B14D0BB8B7B600120FFF73FFF012028
:10221000FFF755FF3B1D19464FF090400CF03CFF77
:10222000BB8B002219464FF090400DF09BF97B8B41
:10223000002B12D07B8B7B600220FFF727FF022050
:10224000FFF73DFF3B1D194613480CF025FF7B8B24
:102250000022194610480DF085F93B8B002B13D056
:102260003B8B7B600420FFF711FF0420FFF727FF63
:102270003B1D194607480CF00FFF3B8B0022194607
:1022800004480DF06FF900BF00BF2037BD4680BD88
:10229000B4BF0308000800480004004880B400AF41
:1022A00000BFBD465DF8047B704780B500AF0020DD
:1022B00001F0B3FF00BF80BD80B584B000AFF8600F
:1022C0000B467A607B817A897B68F968002001F08F
:1022D000D9FF00BF1037BD4680BD000080B483B079
:1022E00000AF7860064BD3F8902005497B68134314
:1022F000C1F8903000BF0C37BD465DF8047B7047D5
:102300000008005880B483B000AF7860074BD3F862
:10231000803023F0070205497B681343C1F8803001
:1023200000BF0C37BD465DF8047B704700040058C1
:1023300080B483B000AF78604FF0B0430A4AC3F86E
:102340009C204FF0B043D3F89C3023F47C527B6840
:102350001B024FF0B0411343C1F89C3000BF0C3753
:10236000BD465DF8047B7047FECAFECA80B483B0E8
:1023700000AF78604FF0B0439B6823F400424FF009
:10238000B0417B6813438B6000BF0C37BD465DF8DE
:10239000047B704780B400AF4FF0B043D3F8903067
:1023A0004FF0B04243F48033C2F8903000BFBD46D6
:1023B0005DF8047B704780B400AF4FF0B043D3F8B2
:1023C00090304FF0B04223F48033C2F8903000BF19
:1023D000BD465DF8047B704780B400AF4FF0B0435A
:1023E000D3F8943003F08063B3F1806F01D10123FF
:1023F00000E000231846BD465DF8047B704780B4BA
:1024000000AF4FF0B043D3F8943003F08053B3F1F2
:10241000805F01D1012300E000231846BD465DF82E
:10242000047B704780B485B000AF78604FF0B04354
:102430001A6D4FF0B0417B6813430B654FF0B0430A
:102440001A6D7B681340FB60FB6800BF1437BD4604
:102450005DF8047B7047000080B400AF044B1B683C
:10246000C3F30B031846BD465DF8047B704700BFFD
:10247000002004E080B400AF044B1B681B0C9BB22F
:102480001846BD465DF8047B704700BF002004E09D
:1024900080B483B000AF786039607B685A683B686D
:1024A0001B041A437B685A6000BF0C37BD465DF8B9
:1024B000047B704780B483B000AF786039607B687C
:1024C0005A683B681A437B685A6000BF0C37BD46A8
:1024D0005DF8047B704780B483B000AF78603960EA
:1024E0007B685A693B681B041A437B685A6100BFCA
:1024F0000C37BD465DF8047B704780B483B000AFF5
:10250000786039607B685A693B681A437B685A6116
:1025100000BF0C37BD465DF8047B704780B483B0C4
:1025200000AF786039607B683A689A6000BF0C370A
:10253000BD465DF8047B704780B483B000AF78601F
:1025400039607B683A689A6100BF0C37BD465DF818
:10255000047B704780B400AF054B1B69044A23F02D
:102560000403136100BFBD465DF8047B704700BFE4
:1025700000ED00E080B483B000AF78607B68FF229C
:102580005A6200BF0C37BD465DF8047B704780B4CB
:1025900083B000AF78607B68CA225A627B6853229E
:1025A0005A6200BF0C37BD465DF8047B704780B4AB
:1025B00083B000AF786039607B689B6823F00702C6
:1025C0003B681A437B689A6000BF0C37BD465DF8D4
:1025D000047B704780B500AF044B4FF400421A6192
:1025E00000F054F800F094F800BF80BD004000589F
:1025F00080B582B000AF194BD3F880301B0303F4D1
:102600007F2303F100637B6000F096F800F0AEF8E2
:102610001349002001F096FBFFF76DFD0121012019
:102620001DF0FAFE00F004FA00F00FFA7B68A3F543
:1026300000531A460B4B1A607B68A3F540531A46A9
:10264000094B1A607B68A3F580431A46074B1A6052
:1026500000F09AF800BF0837BD4680BD0040005822
:102660000C4F0020145A0020185A00201C5A002039
:1026700080B400AF00BFBD465DF8047B704780B5F5
:1026800000AF5020FFF72AFE00BF80BD80B500AF2D
:1026900000F004F800F01AF800BF80BD80B500AF6C
:1026A000FFF79AFE0346002B0DD0FFF7A8FE034666
:1026B000002B08D10DF0B4FE0DF0B2FEFFF76AFE5C
:1026C000FFF779FE00BF00BF80BD000080B500AFFE
:1026D0004FF48010FFF7A6FE3F210C48FFF71EFFC6
:1026E0003F210A48FFF728FF3F210848FFF7D0FEA7
:1026F0003F210648FFF7EFFE3F210448FFF7DAFECF
:102700003F210248FFF7F9FE00BF80BD000C0058D2
:1027100080B582B000AF00201DF014FE78607B68A9
:10272000002B05D07B689B791846FFF701FE00BFA0
:1027300000BF0837BD4680BD80B500AFFFF798FFEA
:10274000FFF79DFF00F002F800BF80BD80B500AF2D
:102750000548FFF71CFF00210348FFF728FF024848
:10276000FFF708FF00BF80BD0028004080B500AF24
:102770004FF40040FFF7FAFD1DF00CFE0420FFF7B8
:10278000C1FD00BF80BD000080B588B000AF1DF066
:10279000E1FA114A00214FF400501DF069FF0F4B80
:1027A0003B600F4B7B603B4619460E481DF098F985
:1027B0000D4BBB600D4BFB600D4B3B6140F23C533E
:1027C0007B6107F1080318461DF006FC1DF0BCFAFA
:1027D00000BF2037BD4680BD19FB01083407032028
:1027E000F52700080D2800084C09032040080320A5
:1027F000F801032080B483B000AF0346FB7100BF33
:102800000C37BD465DF8047B7047000080B588B08A
:1028100000AF78607B685B680B33FB61FB691B88EA
:102820009BB2A3F51243072B60D801A252F823F004
:102830005128000893280008A1280008ED28000866
:10284000BD280008CD280008D5280008E528000884
:1028500007F10C0318461CF0FFFE3B7B19467B7BFF
:102860001A46BB7B24482FF097FF3B7C1946234830
:102870002FF092FFBB7D1946FB7D1A463B7E204818
:102880002FF08AFF1F482FF087FF786800F070F85C
:102890002DE01D482FF080FF786800F043F826E017
:1028A0001A4830F015F8FB6902331968FB690233E6
:1028B0005B681A4616482FF06FFF18E0FB69023379
:1028C0001B68194613482FF067FF10E012482FF0DD
:1028D00063FF0CE0FB6902331B6819460F482FF0B9
:1028E0005BFF04E00E482FF057FF00E000BF00BF81
:1028F0002037BD4680BD00BFA8660308CC6603082C
:10290000E8660308006703082067030844670308B4
:1029100094670308BC670308F86703081C6803088A
:102920005868030880B584B000AF78607B685B6846
:102930000B33FB60FB680233BB60BB681B78194636
:1029400008482FF029FFBB681B78002B03D10648ED
:102950002FF0BEFF03E005482FF0BAFF00BF10378D
:10296000BD4680BD7C680308AC680308E8680308BE
:1029700080B58AB000AF786007F1080300221A60C2
:102980005A609A60DA6000237B6200233B627B68B6
:102990005B680B33FB61FB690233BB61BB691B786E
:1029A000002B28D11D482FF093FFFFF7B7FB0F2313
:1029B0003B727F23BB72FFF75DFD7862796A18482E
:1029C0002FF0EAFE7B6A9BB2BB82FFF745FD3862BF
:1029D000396A14482FF0E0FE3B6A9BB2FB8207F194
:1029E000080318461CF022FE02F048FC00210120DA
:1029F0001DF012FD0EE0BB691B78012B06D10A48C1
:102A00002FF0CAFE7B6800221A7003E007482FF0FF
:102A1000C3FE00BF2837BD4680BD00BF2069030844
:102A20003C6903086069030880690308B469030806
:102A300080B500AF002007F01BFC012007F018FC58
:102A4000022007F015FC00BF80BD80B500AF01215A
:102A5000002007F095FC0121012007F091FC0121E5
:102A6000022007F08DFC0121032007F089FC00BF44
:102A700080BD80B584B000AF78600BF0F7FBB86024
:102A80007B68FB60FB68B3F1FF3F0AD00BF006FCEC
:102A900003461A46FB681344FB6002E0FFF75AFD49
:102AA00030BF0BF0E3FB0246BB68D31AFA689A42C8
:102AB000F4D800BF00BF1037BD4680BD80B500AF61
:102AC0004FF0FF301DF0D8FC00BF80BD80B400AFD8
:102AD00000BFBD465DF8047B704780B582B000AF93
:102AE000786039604FF0FF301DF0C6FC00BF08373A
:102AF000BD4680BD80B582B000AF786000214FF444
:102B000000501DF0D7FD00BF0837BD4680BD80B521
:102B100082B000AF786002201DF038FE00BF083799
:102B2000BD4680BD80B582B000AF786002201DF048
:102B30004DFE00BF0837BD4680BD80B582B000AFF6
:102B40000346FB80FB88102B06D0102B14DC012BD6
:102B500007D0042B0AD00FE0002140201DF0AAFD71
:102B60000BE0002180201DF0A5FD06E000214FF4C0
:102B700000701DF09FFD00E000BF00BF0837BD469C
:102B800080BD000080B582B000AF0021134811F075
:102B900041FF13482FF000FE00F038F83B1D1946A6
:102BA000002000F085F90F49002000F0ABF90E4B32
:102BB00003221A600C4B05225A600B4B14229A60B8
:102BC000094B0022DA60084B00221A6106490020F6
:102BD00000F0C2F900BF0837BD4680BDE4C003085D
:102BE000E8690308284200203842002080B500AF81
:102BF0000121002000F004FA00BF80BD80B500AFC5
:102C0000002000F029FA00BF80BD000080B500AFB1
:102C1000002007F03FFC002000F024F90346084A9A
:102C20001360074B1B68002B07D00021054811F0EB
:102C3000F1FE05482FF0B0FDFEE700BF80BD00BFEC
:102C40004C420020F0C00308046A030880B485B039
:102C500000AF786039600023FB731EE00023BB7374
:102C600015E0FB7BDA00BB7B1A44796813469B00B6
:102C700013449B000B4408331968FB7B5B013A68E3
:102C80001344BA7B43F82210BB7B0133BB73BB7B7D
:102C9000072BE6D9FB7B0133FB73FB7B072BDDD9CD
:102CA00000BF1437BD465DF8047B704780B584B023
:102CB00000AF7860634B1B68042B03D0614B1B682B
:102CC000032B01D1082300E00423FB725E482FF0A0
:102CD00063FD0023BB7396E00023FB7308E05B48B1
:102CE0002FF05AFD97F90F30DBB20133DBB2FB73E3
:102CF00097F90F20FB7A9A42F1DB53482FF04CFDF5
:102D000000233B7376E0FB7A013BDBB27B7364E02C
:102D100097F90E2097F90D301A44796813469B00F5
:102D200013449B000B4404331B68002B45D097F9D8
:102D30000E2097F90D301A4497F90C007968134664
:102D40009B00134403449B000B449B68B3F5FA7F3C
:102D500019DA97F90E2097F90D301A4497F90C00FB
:102D6000796813469B00134403449B000B449B6803
:102D7000194697F90E2097F90D3013441A46344836
:102D80002FF00AFD23E097F90E2097F90D301A4431
:102D900097F90C00796813469B00134403449B0089
:102DA0000B449B68194697F90E2097F90D30134490
:102DB0001A4628482FF0F0FC09E097F90E2097F901
:102DC0000D3013441A46244924482FF0E5FC97F9A6
:102DD0000D30DBB2013BDBB27B7397F90D30002B7A
:102DE00096DA1F482FF0D8FC97F90C30DBB201338C
:102DF000DBB23B7397F90C30002B84D0BA7BFB7AA3
:102E00001344DBB2BB7397F90E207B681B689A42B0
:102E1000FFF462AF0023FB7308E00C482FF0BCFC0A
:102E200097F90F30DBB20133DBB2FB7397F90F2058
:102E3000FB7A9A42F1DB04482FF0AEFC00BF10375A
:102E4000BD4680BD38420020346A0308386A030852
:102E5000446A0308606A03087C6A0308806A0308FE
:102E6000886A030880B584B000AF78607B68002B67
:102E700003D06FF00103FB6015E000F095F97B686B
:102E8000002B0CD1786800F00FF90346002B03D01B
:102E90004FF0FF33FB6006E00023FB6003E06FF0C0
:102EA0000603FB6000BFFB6818461037BD4680BDB7
:102EB00080B584B000AF786039607B68002B03D0A8
:102EC0006FF00103FB6014E00C4A7B6852F823307A
:102ED0009B680B497A6851F8222039681046984758
:102EE0000346002B03DA6FF00403FB6001E00023CC
:102EF000FB60FB6818461037BD4680BD5442002079
:102F00005042002080B584B000AF786039607B68A3
:102F1000002B03D06FF00103FB6014E00C4A7B68C8
:102F200052F82330DB680B497A6851F8222039685F
:102F3000104698470346002B03DA6FF00403FB604A
:102F400001E00023FB60FB6818461037BD4680BDDA
:102F5000544200205042002080B584B000AF786019
:102F600039607B68002B03D06FF00103FB6014E035
:102F70000C4A7B6852F823301B690B497A6851F878
:102F800022203968104698470346002B03DA6FF079
:102F90000403FB6001E00023FB60FB681846103768
:102FA000BD4680BD544200205042002080B584B010
:102FB00000AF786039607B68002B03D06FF00103AD
:102FC000FB6014E00C4A7B6852F82330DB690B4944
:102FD0007A6851F822203968104698470346002B3A
:102FE00003DA6FF00403FB6001E00023FB60FB6881
:102FF00018461037BD4680BD544200205042002084
:1030000080B584B000AF78600B46FB707B68002B06
:1030100003D06FF00103FB6014E00D4A7B6852F8A7
:1030200023301B6A0B497A6851F82220F978104640
:1030300098470346002B03DA6FF00403FB6001E0BE
:103040000023FB60FB6818461037BD4680BD00BFFB
:10305000544200205042002080B584B000AF786018
:103060007B68002B03D06FF00103FB6013E00C4A78
:103070007B6852F823305B6A0A497A6851F822204B
:10308000104698470346002B03DA6FF00403FB60F9
:1030900001E00023FB60FB6818461037BD4680BD89
:1030A000544200205042002080B58AB000AF7860C2
:1030B0005223BB82324BFB60324B3B61324BBB61D4
:1030C000324BFB61324B3B6207F10C03194631482E
:1030D0000AF0BBFA0346002B03D06FF004037B62B7
:1030E00049E02D4A7B682D4942F823102C4A7B6821
:1030F000284942F8231007F10803194625480AF029
:1031000054FB0346002B03D06FF004037B6232E0D4
:10311000BB684FF20C02934203D06FF006037B6250
:1031200029E01D4A7B6852F823301B681C497A68E5
:1031300051F82220104698470346002B03D06FF029
:1031400004037B6217E0144A7B6852F82330DB6883
:1031500013497A6851F822007A68120111490A4429
:10316000114698470346002B03D06FF004037B629F
:1031700001E000237B627B6A18462837BD4680BD8C
:10318000254D0008A14D0008B94E00081D4F00084C
:10319000814F00086842002054420020A000002017
:1031A000504200205842002080B500AF002201218B
:1031B0004FF090400CF0D6F90220FFF75AFC0122A4
:1031C00001214FF090400CF0CDF90220FFF751FCA7
:1031D00000BF80BD80B400AF074B1B6903F4002320
:1031E000B3F5002F01D1012300E000231846BD46AE
:1031F0005DF8047B704700BF0040005880B483B086
:1032000000AF786039607B683A68203253F822302A
:10321000054A934201D0012300E0002318460C37F1
:10322000BD465DF8047B70470004008080B485B023
:1032300000AFF860B9607A607B6843F48061FB6836
:10324000BA6843F8221000BF1437BD465DF8047B0E
:10325000704780B483B000AF786039607B683A68AB
:1032600053F82230002B01D0012300E00023184640
:103270000C37BD465DF8047B7047000080B586B012
:1032800000AF786039600023FB7300BF02211D4846
:10329000FFF7B4FF0346002BF8D10BF067FD0120C8
:1032A0001CF0ABF900237B610AE07A687B69134468
:1032B000184600F071F80346FB737B6901337B61AC
:1032C0007A693B689A4202D2FB7B002BEDD0FB7BF4
:1032D000002B05D03A687B69D31A01333B610BE0C0
:1032E00000201CF08AF90BF063FD00220221054842
:1032F000FFF79CFF00233B613B6918461837BD462A
:1033000080BD00BF0014005880B588B000AFF860E1
:10331000B9607A600023FB7500BF02211D48FFF7EA
:103320006DFF0346002BF8D10BF020FD0023FB615D
:1033300011E0FB69DA00FB68D118FB69DB00BA68B1
:103340001344D3E90023084600F039F80346FB751F
:10335000FB690133FB61FA697B689A4202D2FB7D0B
:10336000002BE6D0FB7D002B05D07A68FB69D31AD1
:103370000133BB6108E00BF01BFD00220221054870
:10338000FFF754FF0023BB61BB6918462037BD46D9
:1033900080BD00BF0014005880B584B000AF7860D5
:1033A0004FF000024FF000037968002000F01AF897
:1033B0000346FB73FB7B18461037BD4680BD80B5C6
:1033C00086B000AFF860C7E90023D7E90023F968A9
:1033D000012000F007F80346FB75FB7D18461837FF
:1033E000BD4680BD80B58EB000AFB960C7E900238F
:1033F0000346FB73012387F8363002237B610123E8
:10340000FB61BB68BB6100BFFFF7E4FE0346002B16
:10341000FAD1EFF31083BB62BB6A3B6372B600BFA5
:1034200006213648FFF715FF034687F82F3097F837
:103430002F30002B21D107213048FFF7DFFE034654
:1034400087F8373097F83730002B16D1FB7B002BED
:1034500008D107F1200207F11403114618460BF0BA
:1034600057FD05E0D7E90023B96801200BF03AFCCD
:10347000002207212148FFF7D9FE3B6B7B627B6A64
:1034800083F3108800BF97F82F30002B06D0002060
:1034900000F038F8034687F8363009E097F83730FF
:1034A000002B05D0012000F02DF8034687F83630B8
:1034B00097F83730002B03D197F82F30002B03D02B
:1034C00097F83630002B9ED100BF0D4B1B6903F4DB
:1034D0008023B3F5802FF8D097F83630002B03D037
:1034E000002387F8353002E0012387F8353097F85C
:1034F000353018463837BD4680BD00BF001400582F
:103500000040005880B483B000AF0346FB71002335
:1035100018460C37BD465DF8047B704780B483B015
:1035200000AF7860064BD3F8802005497B681343D1
:10353000C1F8803000BF0C37BD465DF8047B704792
:103540000008005880B483B000AF7860054B1A685B
:1035500004497B6813430B6000BF0C37BD465DF820
:10356000047B70470008005880B483B000AF0D4B57
:103570009B6A9BB27B600B4B9B6A9BB23B6005E0F6
:103580003B687B60074B9B6A9BB23B607A683B68F9
:103590009A42F5D13B6818460C37BD465DF8047B6E
:1035A000704700BF0028004080B485B000AF0346DC
:1035B0000A46FB711346BB71BA791D4913465B007D
:1035C0001344DB000B4415331B78FB73FB7B062B8A
:1035D00009D0FA7B164913465B001344DB000B4409
:1035E0001433FA791A70FA79114913465B001344BF
:1035F000DB000B441533FA7B1A70FA790C49134639
:103600005B001344DB000B441433BA791A70BA79A7
:10361000074913465B001344DB000B441533FA796A
:103620001A7000BF1437BD465DF8047B704700BFB9
:10363000BC4B002080B485B000AF03460A46FB7146
:103640001346BB71294B1B78DBB2BA799A4232D050
:10365000BA79274913465B001344DB000B4414334B
:103660001B78FB73FA7B224913465B001344DB0093
:103670000B441533FA791A70FA791D4913465B0029
:103680001344DB000B441533BA791A70FA791849E0
:1036900013465B001344DB000B441433FA7B1A70AF
:1036A000BA79134913465B001344DB000B4414330F
:1036B000FA791A7014E0FA790D4913465B00134445
:1036C000DB000B441533BA791A70BA7908491346EE
:1036D0005B001344DB000B441433FA791A7000BF0B
:1036E0001437BD465DF8047B704700BF4C4C00208A
:1036F000BC4B002080B584B000AF0346FB714E4B3D
:103700001B78DBB2062B18D14B4B1B78DAB24B4B34
:103710001A70494AFB791370FA79494913465B00DC
:103720001344DB000B44153306221A70454B4FF04F
:10373000FF321A600023FB8178E000F009F90346AC
:10374000FB81FA793E4913465B001344DB000B44CE
:1037500008331968FB89FA791944394813465B0024
:103760001344DB00034408331960FA7934491346E3
:103770005B001344DB000B4408331B68BB602E4B1B
:103780001B78DBB219462E4A0B465B000B44DB006C
:10379000134408331B68BA689A4237D3264B1B7808
:1037A0007B737A7B264913465B001344DB000B4492
:1037B00015331B783B7313E07A7B214913465B007A
:1037C0001344DB000B4415331B787B737A7B1C4955
:1037D00013465B001344DB000B4415331B783B732B
:1037E0003B7B062B0BD03A7B154913465B001344F9
:1037F000DB000B4408331B68BA689A42DCD27A7B40
:10380000FB7911461846FFF7CFFE0FE00A4B1B78F5
:10381000DAB2FB7911461846FFF70CFF064B1B780E
:10382000DAB2064B1A70044AFB791370FB8918460A
:103830001037BD4680BD00BF4C4C00204D4C0020D1
:10384000BC4B0020504C002080B485B000AF034634
:103850000A46FB711346BB71394B1B78DBB2FA7910
:103860009A4211D1364B1B78DAB2364B1A70FA797C
:10387000354913465B001344DB000B4415331B78BA
:10388000DAB22F4B1A703EE0FA792F4913465B00EB
:103890001344DB000B4414331B78FB73FA792A4979
:1038A00013465B001344DB000B4415331B78BB73DA
:1038B000F979FA7B24480B465B000B44DB00034498
:1038C00015331B78D8B2204913465B001344DB0044
:1038D0000B44153302461A70BB7B062B13D0F979C3
:1038E000BA7B19480B465B000B44DB0003441433DE
:1038F0001B78D8B2144913465B001344DB000B4419
:10390000143302461A70FA790F4913465B001344C8
:10391000DB000B440C3301221A70094B1B78DBB21D
:10392000062B07D1BB79002B04D1084B4FF0FF3297
:103930001A6000BF00BF1437BD465DF8047B7047B6
:103940004C4C00204D4C0020BC4B0020504C002023
:1039500080B582B000AF1A4B1B68B3F1FF3F26D091
:10396000FFF702FE7860164B1B687A689A4205D80A
:10397000134B1A687B68D31A7B600AE0114B1B88D3
:103980001A467B68D31A3B600D4B1B683A68134498
:103990007B600D4B1B781A467B6802FB03F37B6050
:1039A0000A4B1B781A467B68D3407B6001E00023FA
:1039B0007B607B689BB218460837BD4680BD00BF60
:1039C000504C0020584C0020564C0020554C0020F4
:1039D00080B582B000AF0346FB80FB88002B08D186
:1039E000FFF7C2FD0346214A136003200AF0EBFDF6
:1039F00039E0FB88012B03D81D4B1B78012B02D02B
:103A0000FB88013BFB8000BF1A4B1B68DB6803F09F
:103A10000403002BF8D0174B1B68DB68DAB2154B98
:103A20001B6862F49062DA60134B4FF40022DA6094
:103A300003200AF0D6FD114B5B691B0C1B04FA88AE
:103A40000E4913434B61FFF78FFD0346074A13608E
:103A5000084B1B689A68074B1B6842F480629A60A7
:103A6000AFF3008000BF0837BD4680BD504C00203A
:103A7000554C00200C4F0020000800580028004042
:103A800080B584B000AF454B9B6803F48063B3F509
:103A9000806F07D100BF424B1B68DB6803F0040353
:103AA000002BF8D13E4B1B689A683D4B1B6822F4F3
:103AB00080629A603B4B1B78FB73FA7B3A49134652
:103AC0005B001344DB000B4408331B68BB60FFF74B
:103AD0003FFF0346FB80FB88BA689A4205D2002369
:103AE000BB81324B01221A704DE0FB88304A1288AC
:103AF00092B213441A46BB68934206D92C4B1B88DA
:103B0000BB812A4B00221A703DE0BB689AB2FB8849
:103B1000D31ABB81254B01221A7034E0FA7B22496B
:103B200013465B001344DB000B4408331A68FB8820
:103B30009A420AD2FA7B1C4913465B001344DB000D
:103B40000B44083300221A6013E0FA7B164913462F
:103B50005B001344DB000B4408331968FB88FA7BD5
:103B6000C91A114813465B001344DB0003440833B1
:103B70001960FA7B0C4913465B001344DB000B44CD
:103B800015331B78FB73FB7B062BC7D1BB8918460B
:103B9000FFF71EFF00BF1037BD4680BD0028004064
:103BA0000C4F00204C4C0020BC4B0020544C0020FB
:103BB0005A4C002080B58AB000AFEFF310837B61D0
:103BC0007B697B6272B600BF594B1B68CA225A627E
:103BD000574B1B6853225A62554B1B689A68544BCB
:103BE0001B6822F480629A60524B1B7887F823305E
:103BF00097F82320504913465B001344DB000B4425
:103C00000C331B78DBB2022B6ED197F823204A4984
:103C100013465B001344DB000B441B68FB6197F801
:103C20002320454913465B001344DB000B4410334B
:103C30001B68BB61414B1B78DBB2002B4CD097F863
:103C400023203D4913465B001344DB000B440D3336
:103C50001B78DBB2012B24D197F8233001211846C1
:103C6000FFF7F2FD7B6A3B613B6983F3108800BF7D
:103C700097F82320304913465B001344DB000B44C4
:103C800004331A6897F823301146184600F032FAC8
:103C9000274B1B68CA225A62254B1B6853225A6263
:103CA00012E07B6AFB60FB6883F3108800BF97F823
:103CB0002330184600F09AF91D4B1B68CA225A623D
:103CC0001B4B1B6853225A6297F82330FA69194636
:103CD000B86900F095FA22E0FFF7D2FE7B6ABB607C
:103CE000BB6883F310881AE000BF114B1B68DB68C8
:103CF00003F00403002BF8D00D4B1B68DB68DAB22D
:103D00000B4B1B6862F49062DA600D4B4FF400229B
:103D1000DA607B6A7B607B6883F3108800BF044BAA
:103D20001B68FF225A6200BF2837BD4680BD00BF16
:103D30000C4F00204C4C0020BC4B0020544C002069
:103D40000008005880B588B000AF03463960FB71A9
:103D50005E4B1B68CA225A625C4B1B6853225A6234
:103D60005B4B9B685A4A43F020039360584B9B6817
:103D7000DBB203F00703DBB2C3F10403DAB2554B45
:103D80001A70534B1B6903F4FE034FF4FE023A61B1
:103D90003A6992FAA2F2FA60FA687A617A69002ABC
:103DA00001D1202203E07A69B2FA82F2D2B2D34082
:103DB000DBB20133DAB2484B1A70454B1B699BB238
:103DC000C3F30E039BB201339AB2444B1A80434BA8
:103DD0001B88013B404A127802FB03F3A3F5A07352
:103DE0003C4A1278D340BB61BB694FF6FE729342E6
:103DF00004D93B4B4FF6FF721A8003E0BB699AB2BD
:103E0000374B1A804FF40020FFF79CFB4FF4002043
:103E1000FFF784FBFB79002B3DD1324B01221A7056
:103E2000314B4FF0FF321A600023FB770CE0FA7F32
:103E30002E4913465B001344DB000B440C33002275
:103E40001A70FB7F0133FB77FB7F052BEFD9284BE3
:103E500006221A701D4B1B689A681C4B1B6822F4C3
:103E600080629A60194B1B68DB68DAB2174B1B68DB
:103E700062F49062DA601F4B4FF40022DA60032094
:103E80000AF0AFFB114B1B689A68104B1B6842F499
:103E900080429A6009E00D4B1B68DB6803F4806385
:103EA000002B02D003200AF08EFB084B1B68FF2278
:103EB0005A620022032103200AF043FB03200AF088
:103EC0005AFB00BF2037BD4680BD00BF0C4F00200D
:103ED00000280040554C0020564C0020584C002033
:103EE0005A4C0020544C0020504C0020BC4B002069
:103EF0004C4C00200008005880B48BB000AFF86034
:103F0000B9603B601346FB71002387F82630EFF35E
:103F10001083FB61FB693B6272B600BF04E097F857
:103F20002630013387F8263097F82630052B0CD839
:103F300097F826202C4913465B001344DB000B4402
:103F40000C331B78DBB2002BE9D197F82630062B17
:103F500038D097F82620244913465B001344DB0031
:103F60000B440C3301221A703B6ABB61BB6983F3BB
:103F7000108800BF97F826201B4913465B001344A6
:103F8000DB000B441033FA681A6097F826201649B4
:103F900013465B001344DB000B440D33FA791A70AF
:103FA00097F82620104913465B001344DB000B44AE
:103FB0003A681A60BB6897F826201A70002387F8C1
:103FC000273008E03B6A7B617B6983F3108800BF80
:103FD000012387F8273097F8273018462C37BD463D
:103FE0005DF8047B704700BFBC4B002080B586B0F5
:103FF00000AF0346FB71EFF31083FB60FB687B614E
:1040000072B600BF03200AF0C4FA344B1B68CA2200
:104010005A62324B1B6853225A62FA79304913466E
:104020005B001344DB000B440C331B78DBB2022B28
:1040300042D1FB7900211846FFF706FC294B1B787B
:10404000FB74FB7C062B2FD1274B9B6803F480630A
:10405000B3F5806F07D100BF204B1B68DB6803F00E
:104060000403002BF8D11D4B1B689A681B4B1B687F
:1040700022F480629A6000BF184B1B68DB6803F073
:104080000403002BF8D0154B1B68DB68DAB2134B26
:104090001B6862F49062DA60144B4FF40022DA601D
:1040A00003200AF09EFA07E0114B1B78DBB2FA7C82
:1040B0009A4201D0FFF7E4FC084B1B68FF225A62CA
:1040C00003200AF058FA7B69BB60BB6883F3108851
:1040D00000BF00BF1837BD4680BD00BF0C4F002099
:1040E000BC4B00204C4C0020002800400008005829
:1040F0004D4C002080B586B000AF03463960FB719F
:10410000FA793B4913465B001344DB000B440C3344
:104110001B78DBB2022B03D1FB791846FFF766FF51
:10412000EFF31083FB60FB687B6172B600BF032076
:104130000AF02FFA2F4B1B68CA225A622D4B1B68BC
:1041400053225A62FA792A4913465B001344DB0072
:104150000B440C3302221A70FA79254913465B008E
:104160001344DB000B4408333A681A60FA7920499B
:1041700013465B001344DB000B4404333A681A60B7
:10418000FB791846FFF7B6FA03467B821A4B1B7879
:104190007B741A4B1B78DBB27A7C9A4202D0FFF711
:1041A0006FFC13E0FA79124913465B001344DB00FD
:1041B0000B44083319687B8AFA79C91A0C481346EC
:1041C0005B001344DB00034408331960094B1B6890
:1041D000FF225A6203200AF0CEF97B69BB60BB68FC
:1041E00083F3108800BF00BF1837BD4680BD00BFF5
:1041F000BC4B00200C4F00204C4C00204D4C0020AC
:1042000080B584B000AFF8600B467A60FB727B68C3
:10421000984700BF1037BD4680BD80B582B000AF63
:104220000346FB71FB79002B02D100F0A7F900E0F7
:1042300000BF00BF0837BD4680BD000080B584B018
:1042400000AFB9607B600346FB731346BB81FB7B09
:10425000002B0CD1084A7B681360084B084A1A608F
:10426000BB891A46B96805480EF0D2F900E000BFD4
:1042700000BF1037BD4680BD5C4C00206C4D002057
:104280000038014080B586B000AFB9607B6003465E
:10429000FB731346BB810023FB750023BB75FB7BBF
:1042A000002B0ED1174A7B681360174B174A1A6010
:1042B000BB891A46B96814480EF0F6F90346FB7537
:1042C00000E000BFFB7D032B16D801A252F823F0BB
:1042D000E1420008E7420008ED420008F34200080E
:1042E0000023BB7509E00123BB7506E00223BB7503
:1042F00003E00323BB7500E000BFBB7D1846183701
:10430000BD4680BD604C00206C4D0020003801404F
:1043100080B582B000AF78607B681B681A46094B95
:104320009A4207D1084B1B68002B05D0064B1B682F
:10433000984701E000BF00E000BF00BF0837BD465E
:1043400080BD00BF003801405C4C002080B582B0C9
:1043500000AF78607B681B681A46094B9A4207D108
:10436000084B1B68002B05D0064B1B68984701E0E3
:1043700000BF00E000BF00BF0837BD4680BD00BFE2
:1043800000380140604C002080B483B000AF7860FA
:104390004FF0B043D3F8903023F018024FF0B04103
:1043A0007B681343C1F8903000BF0C37BD465DF801
:1043B000047B704780B485B000AF78604FF0B043A5
:1043C0009A6C4FF0B0417B6813438B644FF0B0435D
:1043D0009A6C7B681340FB60FB6800BF1437BD46D6
:1043E0005DF8047B704780B485B000AF78604FF013
:1043F000B043DA6C4FF0B0417B681343CB644FF0AD
:10440000B043DA6C7B681340FB60FB6800BF143775
:10441000BD465DF8047B704780B500AF09F0B8FE7B
:10442000FEF7D8F800F018F800F074F800F092F8F1
:1044300000F061F900F042F900F0EEF800F00AF93E
:1044400000F0F2F84FF48050FFF7B4FFFEF7D0F819
:10445000FEF734FBFCE7000080B59AB000AF07F12F
:1044600020034822002118462DF0E9FA3B1D0022C6
:104470001A605A609A60DA601A615A619A610BF0A8
:10448000CFFF0020FFF780FF214B1B6823F4C063A0
:104490001F4A43F4007313601D4B1B6803F4C06391
:1044A0003B603B6847233B624FF480337B620123D0
:1044B000BB624FF48073FB620123BB6440233B6308
:1044C0000023FB6407F1200318460CF03DFB034674
:1044D000002B01D000F01FF96F237B600223BB602B
:1044E0000023FB6000233B6100237B610023BB6151
:1044F0000023FB613B1D012118460CF099FE034689
:10450000002B01D000F007F900BF6837BD4680BD21
:104510000004005880B594B000AF3B465022002103
:1045200018462DF08CFA4FF440533B604FF4804313
:104530007B640223BB641023FB643B4618460DF0EA
:10454000B4FA0346002B01D000F0E5F800BF503765
:10455000BD4680BD80B500AF064B074A1A600548CE
:104560000BF0D8FE0346002B01D000F0D4F800BFBA
:1045700080BD00BF644C0020000C005880B500AF27
:10458000224B234A1A60214B224A5A601F4B0022B9
:104590009A601E4B0022DA601C4B00221A611B4BF2
:1045A0000C225A61194B00229A61184B4FF40042B9
:1045B000DA61164B00221A62144B00225A62134B26
:1045C00000229A6211480DF009FF0346002B01D02A
:1045D00000F0A1F800210D4810F0C7F80346002BA9
:1045E00001D000F098F80021084810F0FCF80346CC
:1045F000002B01D000F08FF8044810F07DF803463E
:10460000002B01D000F087F800BF80BD6C4D00206A
:104610000038014040420F0080B400AF00BFBD46EB
:104620005DF8047B7047000080B500AF074B084A77
:104630001A60064B00225A6004480DF0BDFC034688
:10464000002B01D000F067F800BF80BDF84E0020BD
:104650000010005880B500AF164B174A1A60154B72
:1046600000225A60134B0F229A60124B47F6FF72DA
:10467000DA60104B00221A610E4B00229A610D4B3A
:104680000022DA610B4B00225A610A480DF0CAFC85
:104690000346002B01D000F03EF80022002105481F
:1046A0000DF0C0FD0346002B01D000F034F800BF30
:1046B00080BD00BF0C4F00200028004080B500AF37
:1046C0000420FFF777FE0120FFF774FE0220FFF7BA
:1046D00071FE00220F210E2009F033FF0E2009F099
:1046E0004AFF00220F213A2009F02BFF3A2009F05F
:1046F00042FF00BF80BD80B500AF0420FFF773FE0E
:104700000120FFF770FE0220FFF76DFE0820FFF783
:104710006AFE00BF80BD80B400AF00BFBD465DF83B
:10472000047B704780B400AF4FF0B043D3F89030B3
:104730004FF0B04243F40043C2F8903000BFBD4692
:104740005DF8047B704780B485B000AF78604FF0AF
:10475000B043DA6C4FF0B0417B681343CB644FF049
:10476000B043DA6C7B681340FB60FB6800BF143712
:10477000BD465DF8047B704780B485B000AF7860BB
:104780004FF0B0431A6D4FF0B0417B6813430B6597
:104790004FF0B0431A6D7B681340FB60FB6800BFAD
:1047A0001437BD465DF8047B704780B485B000AF18
:1047B00078604FF0B0439A6D4FF0B0417B6813437F
:1047C0008B654FF0B0439A6D7B681340FB60FB68CC
:1047D00000BF1437BD465DF8047B704780B485B0D8
:1047E00000AF78604FF0B043DA6D4FF0B0417B68B6
:1047F0001343CB654FF0B043DA6D7B681340FB6029
:10480000FB6800BF1437BD465DF8047B704780B479
:1048100085B000AF78604FF0B0431A6E4FF0B041F2
:104820007B6813430B664FF0B0431A6E7B681340EE
:10483000FB60FB6800BF1437BD465DF8047B704722
:1048400080B500AF4FF40020FFF796FF0022002153
:104850002E2009F076FE2E2009F08DFE00BF80BDCF
:1048600080B582B000AF78607B681B680D4A9342C8
:1048700013D14FF48010FFF77FFF002200212C207E
:1048800009F05FFE2C2009F076FE002200212D2089
:1048900009F057FE2D2009F06EFE00BF0837BD4617
:1048A00080BD00BF000C005880B5A0B000AF78609C
:1048B00007F16C0300221A605A609A60DA601A618C
:1048C00007F10C035022002118462DF0B8F87B6840
:1048D0001B68684A93426ED10223FB600023BB62CF
:1048E00007F10C0318460DF0E0F80346002B01D049
:1048F000FFF711FF0120FFF771FF0120FFF723FFF2
:104900000C23FB6602233B6700237B670323BB6703
:104910000823FB6707F16C0319464FF090400AF03B
:10492000BBFB554B554A1A60534B11225A60524BF0
:1049300010229A60504B0022DA604F4B80221A619D
:104940004D4B00225A614C4B00229A614A4B002287
:10495000DA61494B00221A62474809F051FE0346CA
:10496000002B01D0FFF7D7FE4FF08853FB650023E3
:104970003B66002387F86430002387F86530012305
:10498000BB6607F15C0319463B480AF06BF9034626
:10499000002B01D0FFF7BFFE7B68374ADA67364A43
:1049A0007B68936200220021252009F0CAFD2520A2
:1049B00009F0E1FD5AE07B681B68314A934255D10A
:1049C0000123FB6000237B6207F10C0318460DF006
:1049D0006CF80346002B01D0FFF79DFE4FF480409A
:1049E000FFF715FF0220FFF7AEFEC023FB66022390
:1049F0003B6700237B670323BB670723FB6707F144
:104A00006C0319461F480AF047FB1F4B1F4A1A60E8
:104A10001D4B0F225A601C4B10229A601A4B002229
:104A2000DA60194B80221A61174B00225A61164B2B
:104A300000229A61144B0022DA61134B00221A62A1
:104A4000114809F0DDFD0346002B01D0FFF763FE9E
:104A50007B680D4ADA670C4A7B689362002200216A
:104A6000242009F06EFD242009F085FD00BF803769
:104A7000BD4680BD00800040384E0020440002400A
:104A80000038014000040048984E002044040240D1
:104A900080B596B000AF786007F10803502200217E
:104AA00018462CF0CCFF7B681B680D4A934213D14B
:104AB0004FF40073BB604FF080533B6407F1080371
:104AC00018460CF0F2FF0346002B01D0FFF723FE3F
:104AD0004FF48020FFF750FE00BF5837BD4680BD21
:104AE0000010005880B596B000AF786007F1080359
:104AF0005022002118462CF0A2FF7B681B68124A46
:104B000093421DD14FF40063BB604FF48073BB64CC
:104B100007F1080318460CF0C8FF0346002B01D02C
:104B2000FFF7F9FDFFF7FEFD4FF48060FFF73DFE54
:104B300000220021032009F004FD032009F01BFDE1
:104B400000BF5837BD4680BD0028004080B400AF8C
:104B500000BFBD465DF8047B7047000080B500AF24
:104B6000022005F0BFFB02482DF0B2FEFEE700BFB9
:104B7000906B030880B400AFFEE780B400AFFEE79F
:104B800080B400AFFEE780B400AF00BFBD465DF863
:104B9000047B704780B400AF00BFBD465DF8047B66
:104BA000704780B400AF00BFBD465DF8047B70471E
:104BB00080B500AF09F046FB00BF80BD80B500AFF7
:104BC000FEF7F8FF00BF80BD80B500AF024809F0D6
:104BD000F8FE00BF80BD00BF384E002080B500AF9A
:104BE00002480DF0E1FD00BF80BD00BF6C4D00200C
:104BF00080B500AF02480DF0D7FD00BF80BD00BFFB
:104C0000A04C002080B500AF05F072F900BF80BD58
:104C100080B500AF05F0A4F900BF80BD80B500AF3E
:104C20000AF0EAFC00BF80BD80B500AF024809F081
:104C3000C8FE00BF80BD00BF984E002080B500AF09
:104C400010200AF0C1FC00BF80BD80B500AF01207C
:104C50000AF0BAFC00BF80BD80B500AF02200AF0A8
:104C6000B3FC00BF80BD80B500AF04200AF0ACFCEF
:104C700000BF80BD80B485B000AF78604FF0B04316
:104C8000DA6C4FF0B0417B681343CB644FF0B04314
:104C9000DA6C7B681340FB60FB6800BF1437BD46CD
:104CA0005DF8047B704780B485B000AF78604FF04A
:104CB000B0439A6D4FF0B0417B6813438B654FF062
:104CC000B0439A6D7B681340FB60FB6800BF1437EC
:104CD000BD465DF8047B704780B483B000AF786058
:104CE0004FF0B0439A6D7B68DB434FF0B041134007
:104CF0008B6500BF0C37BD465DF8047B7047000034
:104D000080B483B000AF7860054B5A6804497B6873
:104D100013434B6000BF0C37BD465DF8047B704702
:104D20000000014080B582B000AF00237B60194BCA
:104D3000194A1A60194B1B685A1C18490A60002B43
:104D400022D114480AF07CFF0346002B1CD11148E5
:104D500000F062F97B68002B16D10E4800F018F9BC
:104D60000346002B03D06FF007037B600CE00021AB
:104D700008480BF037FA0346002B03D06FF0070307
:104D80007B6001E000237B607B6818460837BD46E6
:104D900080BD00BF304F002000540040844F0020F1
:104DA00080B582B000AF00237B600F4B1B68002BE7
:104DB00014D00D4B1B68013B0B4A13600A4B1B6858
:104DC000002B0BD1094800F073F908480AF0C7FC22
:104DD0000346002B02D06FF007037B607B68184608
:104DE0000837BD4680BD00BF844F0020304F0020F3
:104DF00080B58AB004AFBA601A460346FB810B4601
:104E0000BB811346FB8000237B61BA89F9894FF48B
:104E100080530293FB880193BB68009301230C48E5
:104E20000AF0E0FC0346002B0CD009480AF016FFFC
:104E30000346042B03D16FF065037B6102E06FF042
:104E400003037B617B6918461837BD4680BD00BFF0
:104E5000304F002080B58AB004AFBA601A460346CE
:104E6000FB810B46BB811346FB8000237B61BA8923
:104E7000F9894FF480530293FB880193BB68009338
:104E800001230C480AF0C2FD0346002B0CD0094850
:104E90000AF0E4FE0346042B03D16FF065037B6147
:104EA00002E06FF003037B617B6918461837BD464B
:104EB00080BD00BF304F002080B58AB004AFBA601B
:104EC0001A460346FB810B46BB811346FB80002339
:104ED0007B61BA89F9894FF480530293FB8801936F
:104EE000BB68009302230C480AF07CFC0346002BAD
:104EF0000CD009480AF0B2FE0346042B03D16FF030
:104F000065037B6102E06FF003037B617B691846F8
:104F10001837BD4680BD00BF304F002080B58AB035
:104F200004AFBA601A460346FB810B46BB811346A9
:104F3000FB8000237B61BA89F9894FF48053029387
:104F4000FB880193BB68009302230C480AF05EFDC6
:104F50000346002B0CD009480AF080FE0346042BC0
:104F600003D06FF065037B6102E06FF003037B61A8
:104F70007B6918461837BD4680BD00BF304F002002
:104F800080B500AF09F072F90346184680BD0000F5
:104F900080B584B000AF78600023FB737B681C4A47
:104FA0001A607B681B4A5A607B6800229A607B68A3
:104FB0000122DA607B6800221A617B6800225A6154
:104FC0007B6800229A617B680022DA617B6800229C
:104FD0001A6278680AF034FB0346002B01D00123E3
:104FE000FB73002178680BF0FDF80346002B01D01D
:104FF0000123FB73002178680BF03FF90346002B77
:1050000001D00123FB73FB7B18461037BD4680BDE2
:10501000005400401304100080B59CB000AF7860CD
:1050200007F10C035022002118462CF008FD042340
:10503000FB604FF44033FB6207F10C0318460CF0A1
:1050400034FD0220FFF716FE4FF48073FB65122338
:105050003B6600237B660323BB660423FB6607F1E4
:105060005C03194611480AF017F84FF40073FB650A
:1050700012233B6600237B660323BB660423FB6687
:1050800007F15C03194609480AF006F84FF480203E
:10509000FFF736FE4FF40020FFF732FE4FF400100A
:1050A000FFF701FE00BF7037BD4680BD0004004819
:1050B00080B582B000AF78604FF40010FFF70CFEAF
:1050C0004FF4807105480AF057F94FF40071034816
:1050D0000AF052F900BF0837BD4680BD0004004801
:1050E00080B400AF01231846BD465DF8047B7047CD
:1050F00080B582B000AF786039602CF043FA034687
:1051000016221A604FF0FF3318460837BD4680BD9F
:1051100080B582B000AF78604FF0FF317868FFF75C
:10512000E7FFFEE780B586B000AFF860B9607A604F
:1051300000237B610AE0AFF300800146BB685A1C84
:10514000BA60CAB21A707B6901337B617A697B6885
:105150009A42F0DB7B6818461837BD4680BD80B4A4
:1051600083B000AF78604FF0FF3318460C37BD4670
:105170005DF8047B704780B483B000AF786039601D
:105180003B684FF400525A60002318460C37BD4666
:105190005DF8047B704780B483B000AF7860012372
:1051A00018460C37BD465DF8047B704780B485B067
:1051B00000AFF860B9607A60002318461437BD4626
:1051C0005DF8047B7047000080B586B000AF786062
:1051D000144A154BD31A7B617B693B61134B1B68E7
:1051E000002B02D1114B124A1A60104B1A687B68CF
:1051F00013443A699A4207D22CF0C4F903460C22B0
:105200001A604FF0FF3309E0084B1B68FB60074B47
:105210001A687B681344054A1360FB681846183700
:10522000BD4680BD0000032000100000884F002014
:10523000188A002080B400AF034B1B681846BD4697
:105240005DF8047B704700BF8075FF1F80B400AF1E
:10525000034B1B68DBB21846BD465DF8047B704704
:105260008475FF1F80B400AF034B1B681B0A1846F0
:10527000BD465DF8047B70478475FF1FB0B592B0E2
:1052800000AF214B3C1D1D460FCD0FC40FCD0FC4E9
:105290000FCD0FC495E8070003C4228000F048F842
:1052A000012102201BF0B8F8012102201BF084F834
:1052B000164A00214FF400601BF0DAF93B1D184636
:1052C0001AF06DF9034687F8473097F84730002BFE
:1052D00008D097F8473019460D482DF05DFAFFF7D2
:1052E0001AFA02E00B482DF057FA00F037F838644C
:1052F0003A6C0621002019F022FD18F01BF900BFBE
:105300004837BD46B0BD00BF006C0308EDF701088B
:10531000A06B0308D86B030880B582B000AF78603B
:10532000786823F00DFB012318460837BD4680BD81
:1053300080B582B000AF064B3B60064B7B603B46BE
:10534000194605481AF036FA00BF0837BD4680BD39
:1053500028000320635400082B54000880B586B051
:1053600000AFFFF767FF38613B69B3F1FF3F23D020
:10537000FFF778FFB860FFF769FF78603B69DAB242
:10538000164B1A703B691B0ADAB2144B5A707B68D1
:10539000DAB2124B9A70BB68DAB2104BDA70BB68A3
:1053A0001B0ADAB20D4B1A71BB681B0CDAB20B4B3D
:1053B0005A710A4B7B610BE000201AF0C3FFF860C2
:1053C000FB68002B02D0FB687B6101E0044B7B6132
:1053D0007B6918461837BD4680BD00BF8C4F002042
:1053E00010C1030880B582B000AF786000214FF48F
:1053F00000601BF05FF900BF0837BD4680BD80B577
:1054000082B000AF786001201BF0C0F900BF083700
:10541000BD4680BD80B582B000AF786001201BF032
:10542000D5F900BF0837BD4680BD80B584B000AF58
:1054300078607B68FB60FB685B680833184618F08F
:10544000B1F80346FB72FB7A002B03D0FB68012204
:105450001A7003E0FB6800221A7000BF1037BD46C7
:1054600080BD80B584B000AF0346FB71FB79002B93
:1054700002D0012B07D00DE041F6FF73FB60F86806
:105480001BF044F906E041F6FF73FB60F8681BF07F
:105490005DF900BF00BF1037BD4680BD80B584B048
:1054A00000AF78607B681B8819467B685B881A466A
:1054B00016482DF071F97B685B7B194614482DF076
:1054C0006BF97B685B7B002B1CD112482DF064F9D3
:1054D0000023FB730EE07B689B681B7819460E481F
:1054E0002DF05AF97B689B685A1C7B689A60FB7B9D
:1054F0000133FB737B681B7BFA7B9A42EBD3074833
:105500002DF0E6F900BF1037BD4680BD3C6C0308A6
:105510007C6C0308906C03089C6C0308A46C030863
:1055200080B582B000AF78607B681B8819467B68C5
:105530005B881A4606482DF02FF97B685B7B19467D
:1055400004482DF029F900BF0837BD4680BD00BFD3
:10555000A86C03087C6C030880B584B000AF786049
:105560007B681B88194617482DF016F97B689B7AD3
:10557000194615482DF010F97B689B7A002B1DD138
:1055800012482DF0A5F90023FB730EE07B685B68E1
:105590001B8819460E482DF0FFF87B685B689A1C43
:1055A0007B685A60FB7B0133FB73FB7B9AB27B68A1
:1055B0001B899A42EAD307482DF08AF900BF1037B9
:1055C000BD4680BDEC6C03087C6C0308146D0308B9
:1055D0009C6C0308A46C030880B584B000AF7860AD
:1055E0007B681B8819467B685B881A4618482DF033
:1055F000D3F87B685B7B194616482DF0CDF87B68A5
:105600005B7B002B1FD114482DF0C6F80023FB73E1
:105610000EE07B689B681B78194610482DF0BCF89B
:105620007B689B685A1C7B689A60FB7B0133FB7329
:105630007B681B7BFA7B9A42EBD309482DF048F933
:1056400008482DF045F900BF1037BD4680BD00BFAA
:105650002C6D03087C6C0308706D03089C6C0308B8
:10566000A46C0308846D030880B584B000AF786033
:105670007B681B88194617482DF08EF87B685B7B8A
:10568000194615482DF088F87B685B7B002B1CD1F0
:1056900012482DF081F80023FB730EE07B685B68F5
:1056A0001B7819460E482DF077F87B685B685A1C0A
:1056B0007B685A60FB7B0133FB737B681B7BFA7B47
:1056C0009A42EBD307482DF003F900BF1037BD46CF
:1056D00080BD00BFBC6D03087C6C0308EC6D030843
:1056E0009C6C0308A46C030880B582B000AF78609E
:1056F0007B681B88194606482DF04EF87B685B7B5B
:10570000194604482DF048F800BF0837BD4680BD53
:10571000F86D03087C6C030880B584B000AF786036
:105720007B689B79194612482DF036F811482DF008
:10573000CFF80023FB730EE07B681B681B881946BB
:105740000D482DF029F87B681B689A1C7B681A604D
:10575000FB7B0133FB73FB7B9AB27B689B889A428D
:10576000EAD306482DF0B4F800BF1037BD4680BD1F
:105770007C6C0308286E03089C6C0308A46C030867
:1057800080B584B000AF78607B681B8819461848E4
:105790002DF002F87B685B7B194616482CF0FCFF65
:1057A0007B685B7B002B1FD113482CF0F5FF002397
:1057B000FB730EE07B685B681B7819460F482CF082
:1057C000EBFF7B685B685A1C7B685A60FB7B01338C
:1057D000FB737B681B7BFA7B9A42EBD308482DF066
:1057E00077F808482DF074F800BF1037BD4680BD2B
:1057F000406E03087C6C0308706E03089C6C030801
:10580000A46C0308846E030880B584B002AF78608E
:105810007B681B7819467B685A687B685B881846EA
:105820007B681B7A0093034603482CF0B5FF00BF4A
:105830000837BD4680BD00BFBC6E030880B584B08C
:1058400002AF78607B681B7819467B685A687B6872
:105850005B8818467B681B7A0093034603482CF04C
:105860009BFF00BF0837BD4680BD00BF246F030803
:1058700080B582B000AF78607B689B7A194610488B
:105880002CF08AFF7B68DB7A002B0AD07B681B78C0
:1058900019467B685A687B681B890A482CF07CFF94
:1058A00009E07B681B7819467B685A687B681B890E
:1058B00005482CF071FF00BF0837BD4680BD00BF12
:1058C0007C6C0308906F0308EC6F030880B582B00E
:1058D00000AF78607B689B7A194617482CF05CFF14
:1058E0007B68DB7A002B0AD07B681B7819467B68C3
:1058F0005A687B681B8911482CF04EFF17E07B68C3
:105900001B7B002B09D07B681B7819467B685B6882
:105910001A460B482CF040FF09E07B681B781946BB
:105920007B685A687B681B8906482CF035FF00BFEE
:105930000837BD4680BD00BF7C6C0308407003087B
:10594000A4700308EC70030880B582B000AF7860E3
:105950007B689B7A194610482CF01EFF7B68DB7A27
:10596000002B0AD07B681B7819467B685A687B68D5
:105970001B890A482CF010FF09E07B681B78194648
:105980007B685A687B681B8905482CF005FF00BFBF
:105990000837BD4680BD00BF7C6C03084471030816
:1059A000A471030880B582B000AF78607B685B6843
:1059B000B3F5885F02D1786817F0E8FB00BF0837BD
:1059C000BD4680BDF0B589B006AF78607B685B7C72
:1059D000194614482CF0E0FE7B681B7B1E467B6852
:1059E0001B789C467B685A687B685B8919467B6894
:1059F0009B7B18467B68DB7B1C467B681B7C1D46BB
:105A00007B685B7B0493039502940190009113469D
:105A10006246314604482CF0BFFE00BF0C37BD463D
:105A2000F0BD00BF7C6C0308FC71030880B584B036
:105A300000AF7860084611461A460346FB700B46D5
:105A40003B801346BB70002141480EF0E3FF414804
:105A50002CF0A2FE00213E480EF0DCFFB9787B68F6
:105A60001B889BB21A467B68B3F807309BB23A4852
:105A70002CF092FEBA787B681B8898B2374913469F
:105A80009B0013445B0013440B4402461A80BA780F
:105A90007B68B3F8073098B2304913469B00134433
:105AA0005B0013440B44023302461A807B681B8858
:105AB0009BB2002B0DD0BA787B681B8898B227491F
:105AC00013469B0013445B0013440B44023302460D
:105AD0001A80234B1A88234B1B889A4205D9204BE6
