:020000040800F2
:1000000000000320598900084137000851370008D3
:10001000693700086F3700087537000800000000D6
:100020000000000000000000000000007B37000816
:10003000893700080000000097370008A53700083E
:10004000AD890008AD890008AD890008B137000806
:10005000AD890008AD8900083F3800084D38000818
:10006000AD890008AD89000831380008AD89000865
:10007000AD890008AD890008BD370008AD890008CA
:10008000AD890008AD890008AD890008AD89000878
:10009000AD890008AD890008AD890008AD89000868
:1000A000AD890008AD890008AD890008AD89000858
:1000B000AD890008AD890008AD890008AD89000848
:1000C000AD890008AD890008AD890008AD89000838
:1000D000D1370008E5370008AD890008AD89000870
:1000E000AD890008AD890008AD890008AD89000818
:1000F000F93700080538000811380008AD890008F4
:10010000AD890008AD890008AD890008AD890008F7
:10011000AD890008AD890008AD890008AD890008E7
:10012000AD890008AD8900081D380008AD890008B8
:0C013000AD890008AD890008AD89000809
:1001400010B5054C237833B9044B13B10448AFF311
:1001500000800123237010BD380300200000000040
:100160001C45030808B5034B1BB103490348AFF313
:10017000008008BD000000003C0300201C4503086F
:1001800001F0FF01102A2BDB10F0070F08D010F848
:10019000013B013A8B422DD010F0070F42B3F6D14C
:1001A000F0B441EA012141EA014122F007047FF065
:1001B00000070023F0E80256083C85EA010586EABC
:1001C000010685FA47F5A3FA87F586FA47F6A5FAF8
:1001D00087F68EB9EED1F0BC01F0FF0102F0070204
:1001E00032B110F8013B013A83EA010313B1F8D1AF
:1001F0000020704701387047002D06BF3546033890
:10020000073815F0010F07D1013015F4807F02BFC8
:10021000013015F4C03F0130F0BC0138704700BF19
:10022000034613F8012B002AFBD1181A0138704736
:1002300081F0004102E000BF83F0004330B54FEA97
:1002400041044FEA430594EA050F08BF90EA020F04
:100250001FBF54EA000C55EA020C7FEA645C7FEA97
:10026000655C00F0E2804FEA5454D4EB5555B8BFBA
:100270006D420CDD2C4480EA020281EA030382EA2B
:10028000000083EA010180EA020281EA0303362DBD
:1002900088BF30BD11F0004F4FEA01314FF4801C90
:1002A0004CEA113102D0404261EB410113F0004FA2
:1002B0004FEA03334CEA133302D0524263EB430359
:1002C00094EA050F00F0A780A4F10104D5F1200EF7
:1002D0000DDB02FA0EFC22FA05F2801841F1000152
:1002E00003FA0EF2801843FA05F359410EE0A5F126
:1002F00020050EF1200E012A03FA0EFC28BF4CF057
:10030000020C43FA05F3C01851EBE37101F000450C
:1003100007D54FF0000EDCF1000C7EEB00006EEB19
:100320000101B1F5801F1BD3B1F5001F0CD34908A3
:100330005FEA30004FEA3C0C04F101044FEA4452FA
:1003400012F5800F80F09A80BCF1004F08BF5FEA81
:10035000500C50F1000041EB045141EA050130BD61
:100360005FEA4C0C404141EB0101013C28BFB1F573
:10037000801FE9D291F0000F04BF01460020B1FABE
:1003800081F308BF2033A3F10B03B3F120020CDA91
:100390000C3208DD02F1140CC2F10C0201FA0CF06F
:1003A00021FA02F10CE002F11402D8BFC2F1200CD4
:1003B00001FA02F120FA0CFCDCBF41EA0C0190408A
:1003C000E41AA2BF01EB0451294330BD6FEA0404D3
:1003D0001F3C1CDA0C340EDC04F11404C4F12002BE
:1003E00020FA04F001FA02F340EA030021FA04F3D0
:1003F00045EA030130BDC4F10C04C4F1200220FA27
:1004000002F001FA04F340EA0300294630BD21FA64
:1004100004F0294630BD94F0000F83F4801306BF2A
:1004200081F480110134013D4EE77FEA645C18BF1E
:100430007FEA655C29D094EA050F08BF90EA020FB5
:1004400005D054EA000C04BF1946104630BD91EAAD
:10045000030F1EBF0021002030BD5FEA545C05D1B0
:100460004000494128BF41F0004130BD14F58004EF
:100470003CBF01F5801130BD01F0004545F0FE4163
:1004800041F470014FF0000030BD7FEA645C1ABF98
:10049000194610467FEA655C1CBF0B46024650EACF
:1004A000013406BF52EA033591EA030F41F40021FB
:1004B00030BD00BF90F0000F04BF0021704730B581
:1004C0004FF4806404F132044FF000054FF0000156
:1004D00050E700BF90F0000F04BF0021704730B517
:1004E0004FF4806404F1320410F0004548BF4042EC
:1004F0004FF000013EE700BF42004FEAE2014FEA41
:1005000031014FEA02701FBF12F07F4393F07F4F1B
:1005100081F06051704732F07F4208BF704793F01E
:100520007F4F04BF41F40021704730B54FF4607431
:1005300001F0004521F000411CE700BF50EA010234
:1005400008BF704730B54FF000050AE050EA0102DD
:1005500008BF704730B511F0004502D5404261EB4D
:1005600041014FF4806404F132045FEA915C3FF48E
:10057000D8AE4FF003025FEADC0C18BF03325FEA2B
:10058000DC0C18BF033202EBDC02C2F1200300FADC
:1005900003FC20FA02F001FA03FE40EA0E0021FA01
:1005A00002F11444BDE600BF70B54FF0FF0C4CF4EF
:1005B000E06C1CEA11541DBF1CEA135594EA0C0FA1
:1005C00095EA0C0F00F0DEF82C4481EA030621EADC
:1005D0004C5123EA4C5350EA013518BF52EA033517
:1005E00041F4801143F4801338D0A0FB02CE4FF0C9
:1005F0000005E1FB02E506F00042E0FB03E54FF0F9
:100600000006E1FB03569CF0000F18BF4EF0010EF0
:10061000A4F1FF04B6F5007F64F5407404D25FEAEC
:100620004E0E6D4146EB060642EAC62141EA55519F
:100630004FEAC52040EA5E504FEACE2EB4F1FD0CE1
:1006400088BFBCF5E06F1ED8BEF1004F08BF5FEA5F
:10065000500E50F1000041EB045170BD06F0004611
:1006600046EA010140EA020081EA0301B4EB5C04BE
:10067000C2BFD4EB0C0541EA045170BD41F48011B6
:100680004FF0000E013C00F3AB8014F1360FDEBFDB
:10069000002001F0004170BDC4F10004203C35DAB7
:1006A0000C341BDC04F11404C4F1200500FA05F33A
:1006B00020FA04F001FA05F240EA020001F00042DB
:1006C00021F0004110EBD37021FA04F642EB060151
:1006D0005EEA430E08BF20EAD37070BDC4F10C047B
:1006E000C4F1200500FA04F320FA05F001FA04F23F
:1006F00040EA020001F0004110EBD37041F100012B
:100700005EEA430E08BF20EAD37070BDC4F1200535
:1007100000FA05F24EEA020E20FA04F301FA05F29D
:1007200043EA020321FA04F001F0004121FA04F245
:1007300020EA020000EBD3705EEA430E08BF20EA15
:10074000D37070BD94F0000F0FD101F0004640004F
:1007500041EB010111F4801F08BF013CF7D041EAD1
:10076000060195F0000F18BF704703F000465200D5
:1007700043EB030313F4801F08BF013DF7D043EAA6
:100780000603704794EA0C0F0CEA135518BF95EA5C
:100790000C0F0CD050EA410618BF52EA4306D1D1E3
:1007A00081EA030101F000414FF0000070BD50EA02
:1007B000410606BF1046194652EA430619D094EA8C
:1007C0000C0F02D150EA013613D195EA0C0F05D176
:1007D00052EA03361CBF104619460AD181EA0301CA
:1007E00001F0004141F0FE4141F470014FF0000082
:1007F00070BD41F0FE4141F4780170BD70B54FF01D
:10080000FF0C4CF4E06C1CEA11541DBF1CEA13559C
:1008100094EA0C0F95EA0C0F00F0A7F8A4EB05047E
:1008200081EA030E52EA03354FEA013100F0888075
:100830004FEA03334FF0805545EA131343EA12633E
:100840004FEA022245EA111545EA10654FEA0026F3
:100850000EF000419D4208BF964244F1FD0404F5AC
:10086000407402D25B084FEA3202B61A65EB030508
:100870005B084FEA32024FF480104FF4002CB6EBC5
:10088000020E75EB030E22BFB61A754640EA0C0045
:100890005B084FEA3202B6EB020E75EB030E22BF85
:1008A000B61A754640EA5C005B084FEA3202B6EBC6
:1008B000020E75EB030E22BFB61A754640EA9C0085
:1008C0005B084FEA3202B6EB020E75EB030E22BF55
:1008D000B61A754640EADC0055EA060E18D04FEA13
:1008E000051545EA16754FEA06164FEAC30343EAB3
:1008F00052734FEAC2025FEA1C1CC0D111F4801F80
:100900000BD141EA00014FF000004FF0004CB6E778
:1009100011F4801F04BF01430020B4F1FD0C88BF17
:10092000BCF5E06F3FF6AFAEB5EB030C04BFB6EB22
:10093000020C5FEA500C50F1000041EB045170BD15
:100940000EF0004E4EEA113114EB5C04C2BFD4EB42
:100950000C0541EA045170BD41F480114FF0000EC6
:10096000013C90E645EA060E8DE60CEA135594EA42
:100970000C0F08BF95EA0C0F3FF43BAF94EA0C0F45
:100980000AD150EA01347FF434AF95EA0C0F7FF4BA
:1009900025AF104619462CE795EA0C0F06D152EA0E
:1009A00003353FF4FDAE1046194622E750EA4106F2
:1009B00018BF52EA43067FF4C5AE50EA41047FF403
:1009C0000DAF52EA43057FF4EBAE12E74FF0FF3C68
:1009D00006E000BF4FF0010C02E000BF4FF0010C39
:1009E0004DF804CD4FEA410C7FEA6C5C4FEA430CB2
:1009F00018BF7FEA6C5C1BD001B050EA410C0CBF01
:100A000052EA430C91EA030F02BF90EA020F002062
:100A1000704710F1000F91EA030F58BF994208BFC9
:100A200090422CBFD8176FEAE37040F00100704786
:100A30004FEA410C7FEA6C5C02D150EA013C07D1DD
:100A40004FEA430C7FEA6C5CD6D152EA033CD3D028
:100A50005DF8040B704700BF8446104662468C4622
:100A60001946634600E000BF01B5FFF7B7FF002855
:100A700048BF10F1000F01BD4DF808EDFFF7F4FF7E
:100A80000CBF012000205DF808FB00BF4DF808ED09
:100A9000FFF7EAFF34BF012000205DF808FB00BF2C
:100AA0004DF808EDFFF7E0FF94BF012000205DF84E
:100AB00008FB00BF4DF808EDFFF7CEFF94BF012003
:100AC00000205DF808FB00BF4DF808EDFFF7C4FFFC
:100AD00034BF012000205DF808FB00BF4FEA410C45
:100AE0007FEA6C5C02D150EA013C0AD14FEA430C28
:100AF0007FEA6C5C02D152EA033C02D14FF0000065
:100B000070474FF0010070474FEA410212F50012A2
:100B100015D211D56FF47873B3EB625212D94FEA44
:100B2000C12343F0004343EA505311F0004F23FA2E
:100B300002F018BF404270474FF00000704750EA83
:100B4000013005D111F0004008BF6FF00040704740
:100B50004FF00000704700BF4FEA4102B2F1E0439E
:100B600024BFB3F5001CDCF1FE5C0DD901F0004C94
:100B70004FEAC0024CEA5070B2F1004F40EB8300E4
:100B800008BF20F00100704711F0804F21D113F110
:100B90003872BCBF01F00040704741F480114FEA49
:100BA0005252C2F11802C2F1200C10FA0CF320FAD2
:100BB00002F018BF40F001004FEAC1234FEAD323EF
:100BC00003FA0CFC40EA0C0023FA02F34FEA430359
:100BD000CCE77FEA625307D150EA01331EBF4FF0E2
:100BE000FE4040F44000704701F0004040F0FE40FD
:100BF00040F40000704700BF53B94AB9002908BF4C
:100C000000281CBF4FF0FF314FF0FF3000F074B9E7
:100C1000ADF1080C6DE904CE00F006F8DDF804E053
:100C2000DDE9022304B070472DE9F047089D044632
:100C30008E46002B4DD18A42944669D9B2FA82F28F
:100C400052B101FA02F3C2F1200120FA01F10CFACB
:100C500002FC41EA030E94404FEA1C48210CBEFB03
:100C6000F8F61FFA8CF708FB16E341EA034306FB8C
:100C700007F199420AD91CEB030306F1FF3080F01B
:100C80001F81994240F21C81023E63445B1AA4B268
:100C9000B3FBF8F008FB103344EA034400FB07F70A
:100CA000A7420AD91CEB040400F1FF3380F00A814B
:100CB000A74240F207816444023840EA0640E41B40
:100CC00000261DB1D4400023C5E900433146BDE8EC
:100CD000F0878B4209D9002D00F0EF800026C5E98E
:100CE000000130463146BDE8F087B3FA83F6002EA6
:100CF0004AD18B4202D3824200F2F980841A61EB1E
:100D0000030301209E46002DE0D0C5E9004EDDE73B
:100D100002B9FFDEB2FA82F2002A40F09280A1EB23
:100D20000C014FEA1C471FFA8CFE0126200CB1FB78
:100D3000F7F307FB131140EA01410EFB03F0884271
:100D400008D91CEB010103F1FF3802D2884200F2FE
:100D5000CB804346091AA4B2B1FBF7F007FB101190
:100D600044EA01440EFB00FEA64508D91CEB04042E
:100D700000F1FF3102D2A64500F2BB800846A4EB89
:100D80000E0440EA03409CE7C6F12007B34022FA74
:100D900007FC4CEA030C20FA07F401FA06F31C43A3
:100DA000F9404FEA1C4900FA06F3B1FBF9F8200CB0
:100DB0001FFA8CFE09FB181140EA014108FB0EF0F6
:100DC000884202FA06F20BD91CEB010108F1FF3A46
:100DD00080F08880884240F28580A8F10208614452
:100DE000091AA4B2B1FBF9F009FB101144EA014160
:100DF00000FB0EFE8E4508D91CEB010100F1FF340B
:100E00006CD28E456AD90238614440EA0840A0FBA2
:100E10000294A1EB0E01A142C846A64656D353D078
:100E20005DB1B3EB080261EB0E0101FA07F722FA9C
:100E300006F3F1401F43C5E9007100263146BDE8C5
:100E4000F087C2F12003D8400CFA02FC21FA03F328
:100E5000914001434FEA1C471FFA8CFEB3FBF7F0A9
:100E600007FB10360B0C43EA064300FB0EF69E42CE
:100E700004FA02F408D91CEB030300F1FF382FD267
:100E80009E422DD9023863449B1B89B2B3FBF7F60F
:100E900007FB163341EA034106FB0EF38B4208D9E8
:100EA0001CEB010106F1FF3816D28B4214D9023E29
:100EB0006144C91A46EA004638E72E46284605E747
:100EC0000646E3E61846F8E64B45A9D2B9EB020818
:100ED00064EB0C0E0138A3E74646EAE7204694E7A8
:100EE0004046D1E7D0467BE7023B614432E73046DB
:100EF00009E76444023842E7704700BF80B483B01A
:100F000000AF7860064BD3F8902005497B68134307
:100F1000C1F8903000BF0C37BD465DF8047B7047C8
:100F20000008005880B485B000AF78604FF0B0433F
:100F3000DA6C4FF0B0417B681343CB644FF0B043A1
:100F4000DA6C7B681340FB60FB6800BF1437BD465A
:100F50005DF8047B704780B485B000AF78604FF0D7
:100F6000B043D3F84C214FF0B0417B681343C1F834
:100F70004C314FF0B043D3F84C217B681340FB60F9
:100F8000FB6800BF1437BD465DF8047B704780B531
:100F900000AF0BF07FFB0BF083FB4FF48030FFF7CB
:100FA000ADFF1DF041FB00F021F800F0C3F800BFD9
:100FB00080BD0000B0B588B000AF0B4B3C1D1D4696
:100FC0000FCD0FC495E8070003C422800234130C30
:100FD00023701DF065FA3B1D18461CF0E7FC00BFAE
:100FE0002037BD46B0BD00BFB045030880B588B00E
:100FF00000AF3B1D00221A605A609A60DA601A61E5
:101000000023BB8300237B8300233B830023FB77E8
:1010100038E0FB7F444ADB0013449B79002B2BD044
:10102000FB7F414A52F83330404A93421BD03F4A3B
:10103000934223D8B3F1904F03D03D4A934209D055
:101040001CE0FB7F384ADB0013449A88BB8B1343B8
:10105000BB8314E0FB7F344ADB0013449A887B8B0C
:1010600013437B830BE0FB7F2F4ADB0013449A88FA
:101070003B8B13433B8302E000BF00E000BFFB7FDC
:101080000133FB77FB7F252BC3D90023FB600123B2
:10109000BB6003233B61BB8B002B14D0BB8B7B60FD
:1010A0000120FFF73FFF0120FFF755FF3B1D1946C9
:1010B0004FF090400CF0E0F9BB8B002219464FF046
:1010C00090400CF03FFC7B8B002B12D07B8B7B6025
:1010D0000220FFF727FF0220FFF73DFF3B1D1946C7
:1010E00013480CF0C9F97B8B0022194610480CF00C
:1010F00029FC3B8B002B13D03B8B7B600420FFF73C
:1011000011FF0420FFF727FF3B1D194607480CF08D
:10111000B3F93B8B0022194604480CF013FC00BFC6
:1011200000BF2037BD4680BD009D03080008004871
:101130000004004880B400AF00BFBD465DF8047BEA
:10114000704780B500AF002001F063FE00BF80BD96
:1011500080B584B000AFF8600B467A607B817A89F5
:101160007B68F968002001F089FE00BF1037BD469A
:1011700080BD000080B483B000AF7860064BD3F828
:10118000902005497B681343C1F8903000BF0C37AD
:10119000BD465DF8047B70470008005880B483B0FA
:1011A00000AF7860074BD3F8803023F00702054981
:1011B0007B681343C1F8803000BF0C37BD465DF833
:1011C000047B70470004005880B483B000AF78609F
:1011D0004FF0B0430A4AC3F89C204FF0B043D3F815
:1011E0009C3023F47C527B681B024FF0B0411343C8
:1011F000C1F89C3000BF0C37BD465DF8047B7047DA
:10120000FECAFECA80B483B000AF78604FF0B0432E
:101210009B6823F400424FF0B0417B6813438B601E
:1012200000BF0C37BD465DF8047B704780B400AF4B
:101230004FF0B043D3F890304FF0B04243F48033D6
:10124000C2F8903000BFBD465DF8047B704780B4A3
:1012500000AF4FF0B043D3F890304FF0B04223F4DA
:101260008033C2F8903000BFBD465DF8047B704704
:1012700080B400AF4FF0B043D3F8943003F08063F4
:10128000B3F1806F01D1012300E000231846BD4671
:101290005DF8047B704780B400AF4FF0B043D3F8E3
:1012A000943003F08053B3F1805F01D1012300E05B
:1012B00000231846BD465DF8047B704780B485B0B6
:1012C00000AF78604FF0B0431A6D4FF0B0417B68CB
:1012D00013430B654FF0B0431A6D7B681340FB60FE
:1012E000FB6800BF1437BD465DF8047B7047000003
:1012F00080B400AF044B1B68C3F30B031846BD4614
:101300005DF8047B704700BF002004E080B400AFAC
:10131000044B1B681B0C9BB21846BD465DF8047B52
:10132000704700BF002004E080B483B000AF786055
:1013300039607B685A683B681B041A437B685A60B3
:1013400000BF0C37BD465DF8047B704780B483B0A6
:1013500000AF786039607B685A683B681A437B68E5
:101360005A6000BF0C37BD465DF8047B704780B4FF
:1013700083B000AF786039607B685A693B681B04B2
:101380001A437B685A6100BF0C37BD465DF8047B89
:10139000704780B483B000AF786039607B685A6969
:1013A0003B681A437B685A6100BF0C37BD465DF845
:1013B000047B704780B483B000AF786039607B688D
:1013C0003A689A6000BF0C37BD465DF8047B7047F1
:1013D00080B483B000AF786039607B683A689A6106
:1013E00000BF0C37BD465DF8047B704780B400AF8A
:1013F000054B1B69044A23F00403136100BFBD467B
:101400005DF8047B704700BF00ED00E080B483B05E
:1014100000AF78607B68FF225A6200BF0C37BD4680
:101420005DF8047B704780B483B000AF78607B6860
:10143000CA225A627B6853225A6200BF0C37BD46EB
:101440005DF8047B704780B483B000AF786039608A
:101450007B689B6823F007023B681A437B689A60AD
:1014600000BF0C37BD465DF8047B704780B500AF08
:10147000044B4FF400421A6100F054F800F094F865
:1014800000BF80BD0040005880B582B000AF194B4E
:10149000D3F880301B0303F47F2303F100637B60E8
:1014A00000F096F800F0AEF81349002001F046FA7B
:1014B000FFF76DFD012101201DF09EF900F004FAF7
:1014C00000F00FFA7B68A3F500531A460B4B1A6025
:1014D0007B68A3F540531A46094B1A607B68A3F555
:1014E00080431A46074B1A6000F09AF800BF08378D
:1014F000BD4680BD00400058084E0020C04E002070
:10150000C44E0020C84E002080B400AF00BFBD46CE
:101510005DF8047B704780B500AF5020FFF72AFECE
:1015200000BF80BD80B500AF00F004F800F01AF8ED
:1015300000BF80BD80B500AFFFF79AFE0346002BC9
:101540000DD0FFF7A8FE0346002B08D10DF058F987
:101550000DF056F9FFF76AFEFFF779FE00BF00BFF6
:1015600080BD000080B500AF4FF48010FFF7A6FEED
:101570003F210C48FFF71EFF3F210A48FFF728FFD5
:101580003F210848FFF7D0FE3F210648FFF7EFFE56
:101590003F210448FFF7DAFE3F210248FFF7F9FE3A
:1015A00000BF80BD000C005880B582B000AF0020A5
:1015B0001DF0B8F878607B68002B05D07B689B79BC
:1015C0001846FFF701FE00BF00BF0837BD4680BDCB
:1015D00080B500AFFFF798FFFFF79DFF00F002F81E
:1015E00000BF80BD80B500AF0548FFF71CFF00219C
:1015F0000348FFF728FF0248FFF708FF00BF80BD40
:101600000028004080B500AF4FF40040FFF7FAFD1E
:101610001DF0B0F80420FFF7C1FD00BF80BD000041
:1016200080B588B000AF1CF085FD114A00214FF451
:1016300000601DF00DFA0F4B3B600F4B7B603B468B
:1016400019460E481CF03CFC0D4BBB600D4BFB607B
:101650000D4B3B6140F23C537B6107F10803184698
:101660001CF0AAFE1CF060FD00BF2037BD4680BD07
:10167000F9DE0108340703208D160008A5160008BE
:101680004C09032040080320F801032080B483B0F4
:1016900000AF0346FB7100BF0C37BD465DF8047B0D
:1016A0007047000080B588B000AF78607B685B68E9
:1016B0000B33FB61FB691B889BB2A3F51243072B1D
:1016C00060D801A252F823F0E91600082B17000891
:1016D0003917000885170008551700086517000816
:1016E0006D1700087D17000807F10C0318461CF061
:1016F000A3F93B7B19467B7B1A46BB7B24482FF022
:101700003BFA3B7C194623482FF036FABB7D19463D
:10171000FB7D1A463B7E20482FF02EFA1F482FF003
:101720002BFA786800F070F82DE01D482FF024FAAD
:10173000786800F043F826E01A482FF0B9FAFB6900
:1017400002331968FB6902335B681A4616482FF0AA
:1017500013FA18E0FB6902331B68194613482FF08F
:101760000BFA10E012482FF007FA0CE0FB69023385
:101770001B6819460F482FF0FFF904E00E482FF0C0
:10178000FBF900E000BF00BF2037BD4680BD00BFB1
:10179000CC450308F04503080C460308244603081B
:1017A0004446030868460308B8460308E0460308B1
:1017B0001C470308404703087C47030880B584B0F2
:1017C00000AF78607B685B680B33FB60FB680233BB
:1017D000BB60BB681B78194608482FF0CDF9BB6881
:1017E0001B78002B03D106482FF062FA03E005486E
:1017F0002FF05EFA00BF1037BD4680BDA04703083A
:10180000D04703080C48030880B58AB000AF786061
:1018100007F1080300221A605A609A60DA60002318
:101820007B6200233B627B685B680B33FB61FB6977
:101830000233BB61BB691B78002B28D11D482FF0F8
:1018400037FAFFF7B7FB0F233B727F23BB72FFF71B
:101850005DFD7862796A18482FF08EF97B6A9BB239
:10186000BB82FFF745FD3862396A14482FF084F9CE
:101870003B6A9BB2FB8207F1080318461CF0C6F8CE
:1018800002F0EEFA002101201CF0B6FF0EE0BB6969
:101890001B78012B06D10A482FF06EF97B680022D5
:1018A0001A7003E007482FF067F900BF2837BD46DC
:1018B00080BD00BF4448030860480308844803080B
:1018C000A4480308D848030880B500AF002007F0FB
:1018D000B3F8012007F0B0F8022007F0ADF800BF20
:1018E00080BD80B500AF0121002007F02DF9012156
:1018F000012007F029F90121022007F025F900BF96
:1019000080BD80B584B000AF78600AF09FFEB860FB
:101910007B68FB60FB68B3F1FF3F0AD00AF0AEFEC4
:1019200003461A46FB681344FB6002E0FFF75EFDC6
:1019300030BF0AF08BFE0246BB68D31AFA689A429F
:10194000F4D800BF00BF1037BD4680BD80B500AFE2
:101950004FF0FF301CF080FF00BF80BD80B400AFAF
:1019600000BFBD465DF8047B704780B582B000AF14
:10197000786039604FF0FF301CF06EFF00BF083711
:10198000BD4680BD80B582B000AF786000214FF4C5
:1019900000601DF07FF800BF0837BD4680BD80B5F0
:1019A00082B000AF786002201DF0E0F800BF083779
:1019B000BD4680BD80B582B000AF786002201DF0CA
:1019C000F5F800BF0837BD4680BD80B582B000AFD6
:1019D0000346FB80FB88102B04D1002140201DF022
:1019E00059F800E000BF00BF0837BD4680BD0000C9
:1019F00080B582B000AF0021174811F0FBF91748FD
:101A00002FF0BAF800F032F83B1D1946002000F024
:101A100073F81349002000F099F8124B03221A6062
:101A2000104B1E225A600F4B14229A600D4B00225D
:101A3000DA600C4B00221A610A49002000F0B0F86D
:101A40000121002000F000F90346074A136000BF9F
:101A50000837BD4680BD00BF309E03080C4903080F
:101A600024410020344100204841002080B500AFCF
:101A7000002007F0F3F8002000F018F80346084AA9
:101A80001360074B1B68002B07D00021054811F09D
:101A9000B1F905482FF070F8FEE700BF80BD00BF28
:101AA000484100203C9E03082849030880B584B0C3
:101AB00000AF78607B68002B03D06FF00103FB6000
:101AC00015E000F06DF97B68002B0CD1786800F010
:101AD000E7F80346002B03D04FF0FF33FB6006E02E
:101AE0000023FB6003E06FF00603FB6000BFFB68B0
:101AF00018461037BD4680BD80B584B000AF786011
:101B000039607B68002B03D06FF00103FB6014E0A9
:101B10000C4A7B6852F823309B680B497A6851F86D
:101B200022203968104698470346002B03DA6FF0ED
:101B30000403FB6001E00023FB60FB6818461037DC
:101B4000BD4680BD504100204C41002080B584B08E
:101B500000AF786039607B68002B03D06FF0010321
:101B6000FB6014E00C4A7B6852F82330DB680B49B9
:101B70007A6851F822203968104698470346002BAE
:101B800003DA6FF00403FB6001E00023FB60FB68F5
:101B900018461037BD4680BD504100204C41002002
:101BA00080B584B000AF786039607B68002B03D0CB
:101BB0006FF00103FB6014E00C4A7B6852F823309D
:101BC0001B690B497A6851F82220396810469847FA
:101BD0000346002B03DA6FF00403FB6001E00023EF
:101BE000FB60FB6818461037BD4680BD50410020A1
:101BF0004C41002080B584B000AF786039607B68CC
:101C0000002B03D06FF00103FB6014E00C4A7B68EB
:101C100052F82330DB690B497A6851F82220396881
:101C2000104698470346002B03DA6FF00403FB606D
:101C300001E00023FB60FB6818461037BD4680BDFD
:101C4000504100204C41002080B584B000AF786046
:101C50000B46FB707B68002B03D06FF00103FB6029
:101C600014E00D4A7B6852F823301B6A0B497A68EE
:101C700051F82220F978104698470346002B03DAE2
:101C80006FF00403FB6001E00023FB60FB68184673
:101C90001037BD4680BD00BF504100204C410020A0
:101CA00080B58AB000AF78605223BB82324BFB60B4
:101CB000324B3B61324BBB61324BFB61324B3B627F
:101CC00007F10C031946314809F0AFFE0346002B1B
:101CD00003D06FF004037B6249E02D4A7B682D49F5
:101CE00042F823102C4A7B68284942F8231007F158
:101CF00008031946254809F048FF0346002B03D086
:101D00006FF004037B6232E0BB684FF20C02934237
:101D100003D06FF006037B6229E01D4A7B6852F80E
:101D200023301B681C497A6851F8222010469847D6
:101D30000346002B03D06FF004037B6217E0144AC4
:101D40007B6852F82330DB6813497A6851F8220027
:101D50007A68120111490A44114698470346002B3C
:101D600003D06FF004037B6201E000237B627B6A97
:101D700018462837BD4680BD093900088539000856
:101D80009D3A0008013B0008653B000864410020C3
:101D9000504100209C0000204C4100205441002074
:101DA00080B500AF002201214FF090400BF0CAFD3A
:101DB0000220FFF7A6FD012201214FF090400BF019
:101DC000C1FD0220FFF79DFD00BF80BD80B400AFC4
:101DD000074B1B6903F40023B3F5002F01D1012346
:101DE00000E000231846BD465DF8047B704700BF45
:101DF0000040005880B483B000AF786039607B68E1
:101E00003A68203253F82230054A934201D0012328
:101E100000E0002318460C37BD465DF8047B704790
:101E20000004008080B485B000AFF860B9607A60CB
:101E30007B6843F48061FB68BA6843F8221000BFF6
:101E40001437BD465DF8047B704780B483B000AFA3
:101E5000786039607B683A6853F82230002B01D0F3
:101E6000012300E0002318460C37BD465DF8047BD3
:101E70007047000080B586B000AF786039600023FD
:101E8000FB7300BF02211D48FFF7B4FF0346002B80
:101E9000F8D10BF05BF901201BF09FFD00237B6163
:101EA0000AE07A687B691344184600F071F803462B
:101EB000FB737B6901337B617A693B689A4202D28A
:101EC000FB7B002BEDD0FB7B002B05D03A687B69B8
:101ED000D31A01333B610BE000201BF07EFD0BF0B9
:101EE00057F9002202210548FFF79CFF00233B61C0
:101EF0003B6918461837BD4680BD00BF0014005826
:101F000080B588B000AFF860B9607A600023FB75D7
:101F100000BF02211D48FFF76DFF0346002BF8D1DB
:101F20000BF014F90023FB6111E0FB69DA00FB6898
:101F3000D118FB69DB00BA681344D3E900230846D3
:101F400000F039F80346FB75FB690133FB61FA6960
:101F50007B689A4202D2FB7D002BE6D0FB7D002BF2
:101F600005D07A68FB69D31A0133BB6108E00BF036
:101F70000FF9002202210548FFF754FF0023BB613F
:101F8000BB6918462037BD4680BD00BF001400580D
:101F900080B584B000AF78604FF000024FF00003CE
:101FA0007968002000F01AF80346FB73FB7B1846A3
:101FB0001037BD4680BD80B586B000AFF860C7E978
:101FC0000023D7E90023F968012000F007F8034651
:101FD000FB75FB7D18461837BD4680BD80B58EB0B9
:101FE00000AFB960C7E900230346FB73012387F8FC
:101FF000363002237B610123FB61BB68BB6100BFFC
:10200000FFF7E4FE0346002BFAD1EFF31083BB6227
:10201000BB6A3B6372B600BF06213648FFF715FF67
:10202000034687F82F3097F82F30002B21D1072156
:102030003048FFF7DFFE034687F8373097F8373030
:10204000002B16D1FB7B002B08D107F1200207F1F2
:102050001403114618460BF04BF905E0D7E90023AD
:10206000B96801200BF02EF8002207212148FFF764
:10207000D9FE3B6B7B627B6A83F3108800BF97F8C5
:102080002F30002B06D0002000F038F8034687F8E8
:10209000363009E097F83730002B05D0012000F0EA
:1020A0002DF8034687F8363097F83730002B03D1E8
:1020B00097F82F30002B03D097F83630002B9ED1A5
:1020C00000BF0D4B1B6903F48023B3F5802FF8D0BC
:1020D00097F83630002B03D0002387F8353002E024
:1020E000012387F8353097F8353018463837BD4624
:1020F00080BD00BF001400580040005880B483B079
:1021000000AF0346FB71002318460C37BD465DF84F
:10211000047B704780B483B000AF7860064BD3F87F
:10212000802005497B681343C1F8803000BF0C371D
:10213000BD465DF8047B70470008005880B483B04A
:1021400000AF7860054B1A6804497B6813430B6045
:1021500000BF0C37BD465DF8047B7047000800588F
:1021600080B483B000AF0D4B9B6A9BB27B600B4B7E
:102170009B6A9BB23B6005E03B687B60074B9B6AB8
:102180009BB23B607A683B689A42F5D13B6818463F
:102190000C37BD465DF8047B704700BF0028004047
:1021A00080B485B000AF03460A46FB711346BB718D
:1021B000BA791D4913465B001344DB000B44153309
:1021C0001B78FB73FB7B062B09D0FA7B1649134661
:1021D0005B001344DB000B441433FA791A70FA796C
:1021E000114913465B001344DB000B441533FA7BA3
:1021F0001A70FA790C4913465B001344DB000B4458
:102200001433BA791A70BA79074913465B0013443C
:10221000DB000B441533FA791A7000BF1437BD4642
:102220005DF8047B704700BFB84A002080B485B0D9
:1022300000AF03460A46FB711346BB71294B1B785E
:10224000DBB2BA799A4232D0BA79274913465B0099
:102250001344DB000B4414331B78FB73FA7B2249D5
:1022600013465B001344DB000B441533FA791A70F4
:10227000FA791D4913465B001344DB000B44153308
:10228000BA791A70FA79184913465B001344DB00D7
:102290000B441433FA7B1A70BA79134913465B0066
:1022A0001344DB000B441433FA791A7014E0FA7902
:1022B0000D4913465B001344DB000B441533BA7918
:1022C0001A70BA79084913465B001344DB000B44CB
:1022D0001433FA791A7000BF1437BD465DF8047BD9
:1022E000704700BF484B0020B84A002080B584B03A
:1022F00000AF0346FB714E4B1B78DBB2062B18D1A7
:102300004B4B1B78DAB24B4B1A70494AFB7913706E
:10231000FA79494913465B001344DB000B4415333B
:1023200006221A70454B4FF0FF321A600023FB81E2
:1023300078E000F009F90346FB81FA793E4913463B
:102340005B001344DB000B4408331968FB89FA79FE
:102350001944394813465B001344DB000344083337
:102360001960FA79344913465B001344DB000B44CF
:1023700008331B68BB602E4B1B78DBB219462E4A14
:102380000B465B000B44DB00134408331B68BA6840
:102390009A4237D3264B1B787B737A7B26491346A8
:1023A0005B001344DB000B4415331B783B7313E0D5
:1023B0007A7B214913465B001344DB000B44153341
:1023C0001B787B737A7B1C4913465B001344DB004C
:1023D0000B4415331B783B733B7B062B0BD03A7BAE
:1023E000154913465B001344DB000B4408331B689C
:1023F000BA689A42DCD27A7BFB7911461846FFF71D
:10240000CFFE0FE00A4B1B78DAB2FB791146184673
:10241000FFF70CFF064B1B78DAB2064B1A70044A22
:10242000FB791370FB8918461037BD4680BD00BF8D
:10243000484B0020494B0020B84A00204C4B00205C
:1024400080B485B000AF03460A46FB711346BB71EA
:10245000394B1B78DBB2FA799A4211D1364B1B7893
:10246000DAB2364B1A70FA79354913465B001344D9
:10247000DB000B4415331B78DAB22F4B1A703EE0A9
:10248000FA792F4913465B001344DB000B441433E5
:102490001B78FB73FA792A4913465B001344DB006F
:1024A0000B4415331B78BB73F979FA7B24480B4630
:1024B0005B000B44DB00034415331B78D8B2204982
:1024C00013465B001344DB000B44153302461A70BD
:1024D000BB7B062B13D0F979BA7B19480B465B00FE
:1024E0000B44DB00034414331B78D8B21449134661
:1024F0005B001344DB000B44143302461A70FA7974
:102500000F4913465B001344DB000B440C330122DC
:102510001A70094B1B78DBB2062B07D1BB79002B55
:1025200004D1084B4FF0FF321A6000BF00BF1437D0
:10253000BD465DF8047B7047484B0020494B0020A6
:10254000B84A00204C4B002080B582B000AF1A4B37
:102550001B68B3F1FF3F26D0FFF702FE7860164BF1
:102560001B687A689A4205D8134B1A687B68D31A9D
:102570007B600AE0114B1B881A467B68D31A3B60CC
:102580000D4B1B683A6813447B600D4B1B781A4651
:102590007B6802FB03F37B600A4B1B781A467B685F
:1025A000D3407B6001E000237B607B689BB21846D0
:1025B0000837BD4680BD00BF4C4B0020544B002067
:1025C000524B0020514B002080B582B000AF034633
:1025D000FB80FB88002B08D1FFF7C2FD0346214A90
:1025E000136003200AF0DFF939E0FB88012B03D8E0
:1025F0001D4B1B78012B02D0FB88013BFB8000BFE9
:102600001A4B1B68DB6803F00403002BF8D0174B50
:102610001B68DB68DAB2154B1B6862F49062DA6003
:10262000134B4FF40022DA6003200AF0CAF9114B71
:102630005B691B0C1B04FA880E4913434B61FFF7BF
:102640008FFD0346074A1360084B1B689A68074BC7
:102650001B6842F480629A60AFF3008000BF0837C5
:10266000BD4680BD4C4B0020514B0020084E002041
:10267000000800580028004080B584B000AF454BEA
:102680009B6803F48063B3F5806F07D100BF424BB2
:102690001B68DB6803F00403002BF8D13E4B1B687A
:1026A0009A683D4B1B6822F480629A603B4B1B7812
:1026B000FB73FA7B3A4913465B001344DB000B447F
:1026C00008331B68BB60FFF73FFF0346FB80FB88B6
:1026D000BA689A4205D20023BB81324B01221A709C
:1026E0004DE0FB88304A128892B213441A46BB6808
:1026F000934206D92C4B1B88BB812A4B00221A70AF
:102700003DE0BB689AB2FB88D31ABB81254B0122FE
:102710001A7034E0FA7B224913465B001344DB0055
:102720000B4408331A68FB889A420AD2FA7B1C4988
:1027300013465B001344DB000B44083300221A608D
:1027400013E0FA7B164913465B001344DB000B448D
:1027500008331968FB88FA7BC91A114813465B00D5
:102760001344DB00034408331960FA7B0C49134619
:102770005B001344DB000B4415331B78FB73FB7BBE
:10278000062BC7D1BB891846FFF71EFF00BF1037C5
:10279000BD4680BD00280040084E0020484B002068
:1027A000B84A0020504B0020564B002080B58AB01C
:1027B00000AFEFF310837B617B697B6272B600BF71
:1027C000594B1B68CA225A62574B1B6853225A62E4
:1027D000554B1B689A68544B1B6822F480629A60C0
:1027E000524B1B7887F8233097F823205049134623
:1027F0005B001344DB000B440C331B78DBB2022B71
:102800006ED197F823204A4913465B001344DB003E
:102810000B441B68FB6197F82320454913465B0076
:102820001344DB000B4410331B68BB61414B1B7826
:10283000DBB2002B4CD097F823203D4913465B00B8
:102840001344DB000B440D331B78DBB2012B24D186
:1028500097F8233001211846FFF7F2FD7B6A3B61B0
:102860003B6983F3108800BF97F823203049134653
:102870005B001344DB000B4404331A6897F82330E1
:102880001146184600F032FA274B1B68CA225A62DA
:10289000254B1B6853225A6212E07B6AFB60FB687F
:1028A00083F3108800BF97F82330184600F09AF998
:1028B0001D4B1B68CA225A621B4B1B6853225A626B
:1028C00097F82330FA691946B86900F095FA22E0C2
:1028D000FFF7D2FE7B6ABB60BB6883F310881AE007
:1028E00000BF114B1B68DB6803F00403002BF8D01A
:1028F0000D4B1B68DB68DAB20B4B1B6862F490620D
:10290000DA600D4B4FF40022DA607B6A7B607B68F3
:1029100083F3108800BF044B1B68FF225A6200BF7C
:102920002837BD4680BD00BF084E0020484B002020
:10293000B84A0020504B00200008005880B588B0ED
:1029400000AF03463960FB715E4B1B68CA225A62B6
:102950005C4B1B6853225A625B4B9B685A4A43F09C
:1029600020039360584B9B68DBB203F00703DBB294
:10297000C3F10403DAB2554B1A70534B1B6903F4CD
:10298000FE034FF4FE023A613A6992FAA2F2FA604B
:10299000FA687A617A69002A01D1202203E07A6913
:1029A000B2FA82F2D2B2D340DBB20133DAB2484B90
:1029B0001A70454B1B699BB2C3F30E039BB20133E4
:1029C0009AB2444B1A80434B1B88013B404A127811
:1029D00002FB03F3A3F5A0733C4A1278D340BB611A
:1029E000BB694FF6FE72934204D93B4B4FF6FF7220
:1029F0001A8003E0BB699AB2374B1A804FF400206B
:102A0000FFF79CFB4FF40020FFF784FBFB79002BC2
:102A10003DD1324B01221A70314B4FF0FF321A6018
:102A20000023FB770CE0FA7F2E4913465B0013442A
:102A3000DB000B440C3300221A70FB7F0133FB7761
:102A4000FB7F052BEFD9284B06221A701D4B1B6804
:102A50009A681C4B1B6822F480629A60194B1B68B1
:102A6000DB68DAB2174B1B6862F49062DA601F4BC6
:102A70004FF40022DA60032009F0A3FF114B1B681A
:102A80009A68104B1B6842F480429A6009E00D4B33
:102A90001B68DB6803F48063002B02D0032009F07D
:102AA00082FF084B1B68FF225A6200220321032089
:102AB00009F037FF032009F04EFF00BF2037BD4665
:102AC00080BD00BF084E002000280040514B002070
:102AD000524B0020544B0020564B0020504B0020FE
:102AE0004C4B0020B84A0020484B002000080058FA
:102AF00080B48BB000AFF860B9603B601346FB71E7
:102B0000002387F82630EFF31083FB61FB693B62FB
:102B100072B600BF04E097F82630013387F82630FC
:102B200097F82630052B0CD897F826202C49134609
:102B30005B001344DB000B440C331B78DBB2002B2F
:102B4000E9D197F82630062B38D097F8262024496B
:102B500013465B001344DB000B440C3301221A7054
:102B60003B6ABB61BB6983F3108800BF97F82620DE
:102B70001B4913465B001344DB000B441033FA6817
:102B80001A6097F82620164913465B001344DB00B1
:102B90000B440D33FA791A7097F826201049134622
:102BA0005B001344DB000B443A681A60BB6897F87B
:102BB00026201A70002387F8273008E03B6A7B61E3
:102BC0007B6983F3108800BF012387F8273097F8CB
:102BD000273018462C37BD465DF8047B704700BF90
:102BE000B84A002080B586B000AF0346FB71EFF312
:102BF0001083FB60FB687B6172B600BF032009F0A5
:102C0000B8FE344B1B68CA225A62324B1B685322EF
:102C10005A62FA79304913465B001344DB000B44D7
:102C20000C331B78DBB2022B42D1FB790021184612
:102C3000FFF706FC294B1B78FB74FB7C062B2FD17E
:102C4000274B9B6803F48063B3F5806F07D100BF07
:102C5000204B1B68DB6803F00403002BF8D11D4BED
:102C60001B689A681B4B1B6822F480629A6000BF45
:102C7000184B1B68DB6803F00403002BF8D0154BDE
:102C80001B68DB68DAB2134B1B6862F49062DA608F
:102C9000144B4FF40022DA60032009F092FE07E0A3
:102CA000114B1B78DBB2FA7C9A4201D0FFF7E4FCAF
:102CB000084B1B68FF225A62032009F04CFE7B6917
:102CC000BB60BB6883F3108800BF00BF1837BD46E8
:102CD00080BD00BF084E0020B84A0020484B0020AD
:102CE0000028004000080058494B002080B586B0FD
:102CF00000AF03463960FB71FA793B4913465B002C
:102D00001344DB000B440C331B78DBB2022B03D1E2
:102D1000FB791846FFF766FFEFF31083FB60FB6853
:102D20007B6172B600BF032009F023FE2F4B1B68A6
:102D3000CA225A622D4B1B6853225A62FA792A49D9
:102D400013465B001344DB000B440C3302221A7061
:102D5000FA79254913465B001344DB000B44083322
:102D60003A681A60FA79204913465B001344DB0085
:102D70000B4404333A681A60FB791846FFF7B6FA39
:102D800003467B821A4B1B787B741A4B1B78DBB291
:102D90007A7C9A4202D0FFF76FFC13E0FA7912496D
:102DA00013465B001344DB000B44083319687B8A2D
:102DB000FA79C91A0C4813465B001344DB0003443C
:102DC00008331960094B1B68FF225A62032009F07F
:102DD000C2FD7B69BB60BB6883F3108800BF00BF86
:102DE0001837BD4680BD00BFB84A0020084E0020FD
:102DF000484B0020494B002080B584B000AFF860FC
:102E00000B467A60FB727B68984700BF1037BD465F
:102E100080BD80B582B000AF0346FB71FB79002B0B
:102E200002D100F0A7F900E000BF00BF0837BD469F
:102E300080BD000080B584B000AFB9607B60034600
:102E4000FB731346BB81FB7B002B0CD1084A7B68CC
:102E50001360084B084A1A60BB891A46B9680548CE
:102E60000DF0C6FD00E000BF00BF1037BD4680BDBD
:102E7000584B0020684C00200038014080B586B0D7
:102E800000AFB9607B600346FB731346BB81002330
:102E9000FB750023BB75FB7B002B0ED1174A7B68AB
:102EA0001360174B174A1A60BB891A46B968144851
:102EB0000DF0EAFD0346FB7500E000BFFB7D032B30
:102EC00016D801A252F823F0D92E0008DF2E0008F0
:102ED000E52E0008EB2E00080023BB7509E0012356
:102EE000BB7506E00223BB7503E00323BB7500E05E
:102EF00000BFBB7D18461837BD4680BD5C4B002027
:102F0000684C00200038014080B582B000AF786086
:102F10007B681B681A46094B9A4207D1084B1B680D
:102F2000002B05D0064B1B68984701E000BF00E06E
:102F300000BF00BF0837BD4680BD00BF003801405C
:102F4000584B002080B582B000AF78607B681B686A
:102F50001A46094B9A4207D1084B1B68002B05D033
:102F6000064B1B68984701E000BF00E000BF00BFB0
:102F70000837BD4680BD00BF003801405C4B0020D3
:102F800080B483B000AF78604FF0B043D3F8903096
:102F900023F018024FF0B0417B681343C1F8903022
:102FA00000BF0C37BD465DF8047B704780B485B028
:102FB00000AF78604FF0B0439A6C4FF0B0417B683F
:102FC00013438B644FF0B0439A6C7B681340FB60F3
:102FD000FB6800BF1437BD465DF8047B704780B4C2
:102FE00085B000AF78604FF0B043DA6C4FF0B0417D
:102FF0007B681343CB644FF0B043DA6C7B681340BB
:10300000FB60FB6800BF1437BD465DF8047B70476A
:1030100080B500AF09F0ACFAFEF728FA00F018F816
:1030200000F074F800F092F800F061F900F042F955
:1030300000F0EEF800F00AF900F0F2F84FF48050DA
:10304000FFF7B4FFFEF720FAFEF780FCFCE7000074
:1030500080B59AB000AF07F120034822002118463E
:103060002CF0DDFE3B1D00221A605A609A60DA6087
:103070001A615A619A610BF0C3FB0020FFF780FFD1
:10308000214B1B6823F4C0631F4A43F40073136091
:103090001D4B1B6803F4C0633B603B6847233B62E6
:1030A0004FF480337B620123BB624FF48073FB6279
:1030B0000123BB6440233B630023FB6407F120032F
:1030C00018460BF031FF0346002B01D000F01CF92D
:1030D0006F237B600223BB600023FB6000233B6106
:1030E00000237B610023BB610023FB613B1D0121A9
:1030F00018460CF08DFA0346002B01D000F004F9BD
:1031000000BF6837BD4680BD0004005880B594B04C
:1031100000AF3B465022002118462CF080FE4FF4B1
:1031200040533B604FF480437B640223BB64102315
:10313000FB643B4618460CF0A8FE0346002B01D06A
:1031400000F0E2F800BF5037BD4680BD80B500AF4B
:10315000064B074A1A6005480BF0CCFA0346002BD1
:1031600001D000F0D1F800BF80BD00BF604B00204F
:10317000000C005880B500AF234B244A1A60224B44
:103180004FF4E1325A60204B00229A601E4B00221D
:10319000DA601D4B00221A611B4B0C225A611A4B3C
:1031A00000229A61184B4FF40042DA61164B00225C
:1031B0001A62154B00225A62134B00229A6212487F
:1031C0000DF0FCFA0346002B01D000F09DF8002121
:1031D0000D480FF0BAFC0346002B01D000F094F824
:1031E000002109480FF0EFFC0346002B01D000F04E
:1031F0008BF805480FF070FC0346002B01D000F05F
:1032000083F800BF80BD00BF684C0020003801403B
:1032100080B400AF00BFBD465DF8047B704700007E
:1032200080B500AF074B084A1A60064B00225A606F
:1032300004480DF0B1F80346002B01D000F064F80B
:1032400000BF80BDF44D00200010005880B500AFD5
:10325000164B174A1A60154B00225A60134B0F2267
:103260009A60124B47F6FF72DA60104B00221A6127
:103270000E4B00229A610D4B0022DA610B4B0022AB
:103280005A610A480DF0BEF80346002B01D000F049
:103290003BF80022002105480DF0B4F90346002B4D
:1032A00001D000F031F800BF80BD00BF084E002003
:1032B0000028004080B500AF0420FFF777FE012012
:1032C000FFF774FE0220FFF771FE00220F210E208F
:1032D00009F027FB0E2009F03EFB00220F213A20C7
:1032E00009F01FFB3A2009F036FB00BF80BD80B516
:1032F00000AF0420FFF773FE0120FFF770FE0220ED
:10330000FFF76DFE00BF80BD80B400AF00BFBD46BB
:103310005DF8047B704780B400AF4FF0B043D3F842
:1033200090304FF0B04243F40043C2F8903000BFF9
:10333000BD465DF8047B704780B485B000AF78600F
:103340004FF0B043DA6C4FF0B0417B681343CB646D
:103350004FF0B043DA6C7B681340FB60FB6800BF42
:103360001437BD465DF8047B704780B485B000AF6C
:1033700078604FF0B0431A6D4FF0B0417B68134353
:103380000B654FF0B0431A6D7B681340FB60FB6820
:1033900000BF1437BD465DF8047B704780B485B02C
:1033A00000AF78604FF0B0439A6D4FF0B0417B684A
:1033B00013438B654FF0B0439A6D7B681340FB60FD
:1033C000FB6800BF1437BD465DF8047B704780B4CE
:1033D00085B000AF78604FF0B043DA6D4FF0B04188
:1033E0007B681343CB654FF0B043DA6D7B681340C5
:1033F000FB60FB6800BF1437BD465DF8047B704777
:1034000080B485B000AF78604FF0B0431A6E4FF0D3
:10341000B0417B6813430B664FF0B0431A6E7B6874
:103420001340FB60FB6800BF1437BD465DF8047BAA
:10343000704780B500AF4FF40020FFF796FF0022E1
:1034400000212E2009F06DFA2E2009F084FA00BF29
:1034500080BD000080B582B000AF78607B681B68DB
:103460000D4A934213D14FF48010FFF77EFF0022E4
:1034700000212C2009F055FA2C2009F06CFA0022CA
:1034800000212D2009F04DFA2D2009F064FA00BF2B
:103490000837BD4680BD00BF000C005880B5A0B005
:1034A00000AF786007F16C0300221A605A609A60DE
:1034B000DA601A6107F10C035022002118462CF043
:1034C000AEFC7B681B68684A93426ED10223FB60A6
:1034D0000023BB6207F10C0318460CF0D6FC034630
:1034E000002B01D0FFF710FF0120FFF770FF012034
:1034F000FFF722FF0C23FB6602233B6700237B6759
:103500000323BB670823FB6707F16C0319464FF0E1
:10351000904009F0B1FF554B554A1A60534B1122A8
:103520005A60524B10229A60504B0022DA604F4B87
:1035300080221A614D4B00225A614C4B00229A6145
:103540004A4B0022DA61494B00221A62474809F0CF
:1035500047FA0346002B01D0FFF7D6FE4FF0885301
:10356000FB6500233B66002387F86430002387F85F
:1035700065300123BB6607F15C0319463B4809F03F
:1035800061FD0346002B01D0FFF7BEFE7B68374A82
:10359000DA67364A7B68936200220021252009F011
:1035A000C0F9252009F0D7F95AE07B681B68314A39
:1035B000934255D10123FB6000237B6207F10C038A
:1035C00018460CF062FC0346002B01D0FFF79CFE6E
:1035D0004FF48040FFF714FF0220FFF7ADFEC02339
:1035E000FB6602233B6700237B670323BB6707233C
:1035F000FB6707F16C0319461F4809F03DFF1F4B9D
:103600001F4A1A601D4B0F225A601C4B10229A60F1
:103610001A4B0022DA60194B80221A61174B0022E4
:103620005A61164B00229A61144B0022DA61134B47
:1036300000221A62114809F0D3F90346002B01D089
:10364000FFF762FE7B680D4ADA670C4A7B6893627B
:1036500000220021242009F064F9242009F07BF9DC
:1036600000BF8037BD4680BD00800040344D002043
:10367000440002400038014000040048944D0020FE
:103680004404024080B596B000AF786007F10803AB
:103690005022002118462CF0C2FB7B681B680D4AA3
:1036A000934213D14FF40073BB604FF080533B64DF
:1036B00007F1080318460CF0E8FB0346002B01D085
:1036C000FFF722FE4FF48020FFF74FFE00BF583770
:1036D000BD4680BD0010005880B596B000AF786040
:1036E00007F108035022002118462CF098FB7B6854
:1036F0001B68124A93421DD14FF40063BB604FF424
:103700008073BB6407F1080318460CF0BEFB034648
:10371000002B01D0FFF7F8FDFFF7FDFD4FF48060AF
:10372000FFF73CFE00220021032009F0FAF80320F5
:1037300009F011F900BF5837BD4680BD0028004090
:1037400080B400AF00BFBD465DF8047B7047000049
:1037500080B500AF022005F0A9F902482DF0A8FAC3
:10376000FEE700BF644A030880B400AFFEE780B400
:1037700000AFFEE780B400AFFEE780B400AF00BF4B
:10378000BD465DF8047B704780B400AF00BFBD4606
:103790005DF8047B704780B400AF00BFBD465DF8A4
:1037A000047B704780B500AF08F03CFF00BF80BDD0
:1037B00080B500AFFEF7FAFF00BF80BD80B500AF57
:1037C000024809F0EEFA00BF80BD00BF344D002072
:1037D00080B500AF02480DF0D7F900BF80BD00BF33
:1037E000684C002080B500AF02480DF0CDF900BF55
:1037F00080BD00BF9C4B002080B500AF04F05CFF93
:1038000000BF80BD80B500AF04F08EFF00BF80BD5B
:1038100080B500AF0AF0E0F800BF80BD80B500AF12
:10382000024809F0BEFA00BF80BD00BF944D0020E1
:1038300080B500AF10200AF0B7F800BF80BD80B59A
:1038400000AF01200AF0B0F800BF80BD80B500AF26
:1038500002200AF0A9F800BF80BD80B485B000AF97
:1038600078604FF0B043DA6C4FF0B0417B6813439F
:10387000CB644FF0B043DA6C7B681340FB60FB68AD
:1038800000BF1437BD465DF8047B704780B485B037
:1038900000AF78604FF0B0439A6D4FF0B0417B6855
:1038A00013438B654FF0B0439A6D7B681340FB6008
:1038B000FB6800BF1437BD465DF8047B704780B4D9
:1038C00083B000AF78604FF0B0439A6D7B68DB4304
:1038D0004FF0B04113408B6500BF0C37BD465DF81B
:1038E000047B704780B483B000AF7860054B5A68A2
:1038F00004497B6813434B6000BF0C37BD465DF83D
:10390000047B70470000014080B582B000AF002307
:103910007B60194B194A1A60194B1B685A1C1849CD
:103920000A60002B22D114480AF07AFB0346002BD0
:103930001CD1114800F062F97B68002B16D10E48AB
:1039400000F018F90346002B03D06FF007037B60EB
:103950000CE0002108480AF035FE0346002B03D096
:103960006FF007037B6001E000237B607B681846F3
:103970000837BD4680BD00BF2C4E002000540040DB
:10398000804E002080B582B000AF00237B600F4BDB
:103990001B68002B14D00D4B1B68013B0B4A1360B6
:1039A0000A4B1B68002B0BD1094800F073F908483B
:1039B0000AF0C5F80346002B02D06FF007037B60C6
:1039C0007B6818460837BD4680BD00BF804E00208A
:1039D0002C4E002080B58AB004AFBA601A46034668
:1039E000FB810B46BB811346FB8000237B61BA89B8
:1039F000F9894FF480530293FB880193BB680093CD
:103A000001230C480AF0DEF80346002B0CD00948CD
:103A10000AF014FB0346042B03D16FF065037B61AE
:103A200002E06FF003037B617B6918461837BD46DF
:103A300080BD00BF2C4E002080B58AB004AFBA60B4
:103A40001A460346FB810B46BB811346FB800023CD
:103A50007B61BA89F9894FF480530293FB88019303
:103A6000BB68009301230C480AF0C0F90346002B01
:103A70000CD009480AF0E2FA0346042B03D16FF098
:103A800065037B6102E06FF003037B617B6918468D
:103A90001837BD4680BD00BF2C4E002080B58AB0CF
:103AA00004AFBA601A460346FB810B46BB8113463E
:103AB000FB8000237B61BA89F9894FF4805302931C
:103AC000FB880193BB68009302230C480AF07AF844
:103AD0000346002B0CD009480AF0B0FA0346042B29
:103AE00003D16FF065037B6102E06FF003037B613C
:103AF0007B6918461837BD4680BD00BF2C4E00209C
:103B000080B58AB004AFBA601A460346FB810B4603
:103B1000BB811346FB8000237B61BA89F9894FF48E
:103B200080530293FB880193BB68009302230C48E7
:103B30000AF05CF90346002B0CD009480AF07EFA23
:103B40000346042B03D06FF065037B6102E06FF046
:103B500003037B617B6918461837BD4680BD00BFF3
:103B60002C4E002080B500AF08F070FD03461846CB
:103B700080BD000080B584B000AF78600023FB7387
:103B80007B681C4A1A607B681B4A5A607B6800226B
:103B90009A607B680122DA607B6800221A617B6888
:103BA00000225A617B6800229A617B680022DA61F8
:103BB0007B6800221A62786809F032FF0346002B06
:103BC00001D00123FB73002178680AF0FBFC034657
:103BD000002B01D00123FB73002178680AF03DFD22
:103BE0000346002B01D00123FB73FB7B18461037E3
:103BF000BD4680BD005400401304100080B59CB049
:103C000000AF786007F10C035022002118462CF019
:103C100006F90423FB604FF44033FB6207F10C0309
:103C200018460CF032F90220FFF717FE4FF48073AC
:103C3000FB6512233B6600237B660323BB660423DC
:103C4000FB6607F15C031946114809F015FC4FF4B7
:103C50000073FB6512233B6600237B660323BB6670
:103C60000423FB6607F15C031946094809F004FCCC
:103C70004FF48020FFF736FE4FF40020FFF732FEAE
:103C80004FF40010FFF702FE00BF7037BD4680BD45
:103C90000004004880B582B000AF78604FF4001097
:103CA000FFF70DFE4FF48071054809F055FD4FF404
:103CB0000071034809F050FD00BF0837BD4680BDC4
:103CC0000004004880B400AF01231846BD465DF8EB
:103CD000047B704780B582B000AF786039602BF00C
:103CE00041FE034616221A604FF0FF33184608378C
:103CF000BD4680BD80B582B000AF78604FF0FF3127
:103D00007868FFF7E7FFFEE780B586B000AFF860A0
:103D1000B9607A6000237B610AE0AFF3008001465E
:103D2000BB685A1CBA60CAB21A707B6901337B61E6
:103D30007A697B689A42F0DB7B6818461837BD4683
:103D400080BD80B483B000AF78604FF0FF33184679
:103D50000C37BD465DF8047B704780B483B000AF7C
:103D6000786039603B684FF400525A60002318466F
:103D70000C37BD465DF8047B704780B483B000AF5C
:103D80007860012318460C37BD465DF8047B704708
:103D900080B485B000AFF860B9607A60002318463F
:103DA0001437BD465DF8047B7047000080B586B0CF
:103DB00000AF7860144A154BD31A7B617B693B6175
:103DC000134B1B68002B02D1114B124A1A60104B87
:103DD0001A687B6813443A699A4207D22BF0C2FDF5
:103DE00003460C221A604FF0FF3309E0084B1B68B2
:103DF000FB60074B1A687B681344054A1360FB6835
:103E000018461837BD4680BD000003200010000092
:103E1000844E0020B87E002080B400AF034B1B68A6
:103E20001846BD465DF8047B704700BF8075FF1FD4
:103E300080B400AF034B1B68DBB21846BD465DF88B
:103E4000047B70478475FF1F80B400AF034B1B6871
:103E50001B0A1846BD465DF8047B70478475FF1F3A
:103E6000B0B592B000AF214B3C1D1D460FCD0FC425
:103E70000FCD0FC40FCD0FC495E8070003C42280F7
:103E800000F048F8012102201AF0B6FC01210220BE
:103E90001AF082FC164A00214FF400701AF0D8FD87
:103EA0003B1D184619F06BFD034687F8473097F81D
:103EB0004730002B08D097F8473019460D482CF0B2
:103EC0005BFEFFF721FA02E00B482CF055FE00F0F4
:103ED00037F838643A6C0621002019F020F917F001
:103EE00019FD00BF4837BD46B0BD00BFD44A030826
:103EF000CDDB0108744A0308AC4A030880B582B0E0
:103F000000AF7860786822F00BFF0123184608376D
:103F1000BD4680BD80B582B000AF064B3B60064B0E
:103F20007B603B461946054819F034FE00BF083750
:103F3000BD4680BD28000320474000080F40000810
:103F400080B586B000AFFFF767FF38613B69B3F11A
:103F5000FF3F23D0FFF778FFB860FFF769FF786075
:103F60003B69DAB2164B1A703B691B0ADAB2144B82
:103F70005A707B68DAB2124B9A70BB68DAB2104B97
:103F8000DA70BB681B0ADAB20D4B1A71BB681B0CE6
:103F9000DAB20B4B5A710A4B7B610BE000201AF02E
:103FA000C1FBF860FB68002B02D0FB687B6101E07D
:103FB000044B7B617B6918461837BD4680BD00BF46
:103FC000884E00205C9E030880B582B000AF786008
:103FD00000214FF400701AF05DFD00BF0837BD46A8
:103FE00080BD80B582B000AF786001201AF0BEFDC0
:103FF00000BF0837BD4680BD80B582B000AF786095
:1040000001201AF0D3FD00BF0837BD4680BD80B542
:1040100084B000AF78607B68FB60FB685B68083346
:10402000184617F0AFFC0346FB72FB7A002B03D057
:10403000FB6801221A7003E0FB6800221A7000BFBF
:104040001037BD4680BD80B584B000AF0346FB711C
:10405000FB79002B02D0012B07D00DE040F2FF735B
:10406000FB60F8681AF042FD06E040F2FF73FB6067
:10407000F8681AF05BFD00BF00BF1037BD4680BD79
:1040800080B584B000AF78607B681B8819467B6878
:104090005B881A4616482CF06FFD7B685B7B1946DF
:1040A00014482CF069FD7B685B7B002B1CD1124807
:1040B0002CF062FD0023FB730EE07B689B681B788D
:1040C00019460E482CF058FD7B689B685A1C7B688B
:1040D0009A60FB7B0133FB737B681B7BFA7B9A4204
:1040E000EBD307482CF0E4FD00BF1037BD4680BD80
:1040F000104B0308504B0308644B0308704B030834
:10410000784B030880B582B000AF78607B681B886D
:1041100019467B685B881A4606482CF02DFD7B68A3
:104120005B7B194604482CF027FD00BF0837BD46CD
:1041300080BD00BF7C4B0308504B030880B584B0A2
:1041400000AF78607B681B88194617482CF014FD77
:104150007B689B7A194615482CF00EFD7B689B7A8C
:10416000002B1DD112482CF0A3FD0023FB730EE0A1
:104170007B685B681B8819460E482CF0FDFC7B6849
:104180005B689A1C7B685A60FB7B0133FB73FB7B8B
:104190009AB27B681B899A42EAD307482CF088FDC3
:1041A00000BF1037BD4680BDC04B0308504B03080D
:1041B000E84B0308704B0308784B030880B584B0C4
:1041C00000AF78607B681B8819467B685B881A465D
:1041D00018482CF0D1FC7B685B7B194616482CF004
:1041E000CBFC7B685B7B002B1FD114482CF0C4FCFC
:1041F0000023FB730EE07B689B681B781946104810
:104200002CF0BAFC7B689B685A1C7B689A60FB7B2D
:104210000133FB737B681B7BFA7B9A42EBD3094823
:104220002CF046FD08482CF043FD00BF1037BD467A
:1042300080BD00BF004C0308504B0308444C0308EA
:10424000704B0308784B0308584C030880B584B0C2
:1042500000AF78607B681B88194617482CF08CFCEF
:104260007B685B7B194615482CF086FC7B685B7B82
:10427000002B1CD112482CF07FFC0023FB730EE0B6
:104280007B685B681B7819460E482CF075FC7B68D0
:104290005B685A1C7B685A60FB7B0133FB737B684D
:1042A0001B7BFA7B9A42EBD307482CF001FD00BF41
:1042B0001037BD4680BD00BF904C0308504B03082B
:1042C000C04C0308704B0308784B030880B582B0DC
:1042D00000AF78607B681B88194606482CF04CFCC0
:1042E0007B685B7B194604482CF046FC00BF08370E
:1042F000BD4680BDCC4C0308504B030880B584B04C
:1043000000AF78607B689B79194612482CF034FC2A
:1043100011482CF0CDFC0023FB730EE07B681B687A
:104320001B8819460D482CF027FC7B681B689A1CDB
:104330007B681A60FB7B0133FB73FB7B9AB27B6863
:104340009B889A42EAD306482CF0B2FC00BF103793
:10435000BD4680BD504B0308FC4C0308704B03085E
:10436000784B030880B584B000AF78607B681B8809
:10437000194618482CF000FC7B685B7B19461648F0
:104380002CF0FAFB7B685B7B002B1FD113482CF0D1
:10439000F3FB0023FB730EE07B685B681B78194618
:1043A0000F482CF0E9FB7B685B685A1C7B685A60FD
:1043B000FB7B0133FB737B681B7BFA7B9A42EBD35D
:1043C00008482CF075FC08482CF072FC00BF103730
:1043D000BD4680BD144D0308504B0308444D0308EF
:1043E000704B0308784B0308584D030880B584B020
:1043F00002AF78607B681B7819467B685A687B68D7
:104400005B8818467B681B7A0093034603482CF0B0
:10441000B3FB00BF0837BD4680BD00BF904D030809
:1044200080B584B002AF78607B681B7819467B68E2
:104430005A687B685B8818467B681B7A0093034642
:1044400003482CF099FB00BF0837BD4680BD00BF74
:10445000F84D030880B582B000AF78607B689B7A26
:10446000194610482CF088FB7B68DB7A002B0AD0B9
:104470007B681B7819467B685A687B681B890A48E9
:104480002CF07AFB09E07B681B7819467B685A6838
:104490007B681B8905482CF06FFB00BF0837BD46C1
:1044A00080BD00BF504B0308644E0308C04E030894
:1044B00080B582B000AF78607B689B7A1946174858
:1044C0002CF05AFB7B68DB7A002B0AD07B681B78C8
:1044D00019467B685A687B681B8911482CF04CFB95
:1044E00017E07B681B7B002B09D07B681B78194683
:1044F0007B685B681A460B482CF03EFB09E07B6842
:104500001B7819467B685A687B681B8906482CF023
:1045100033FB00BF0837BD4680BD00BF504B0308CA
:10452000144F0308784F0308C04F030880B582B0CA
:1045300000AF78607B689B7A194610482CF01CFB12
:104540007B68DB7A002B0AD07B681B7819467B6876
:104550005A687B681B890A482CF00EFB09E07B68CF
:104560001B7819467B685A687B681B8905482CF0C4
:1045700003FB00BF0837BD4680BD00BF504B03089A
:10458000185003087850030880B582B000AF7860F7
:104590007B685B68B3F5885F02D1786816F0E6FF48
:1045A00000BF0837BD4680BDF0B589B006AF786062
:1045B0007B685B7C194614482CF0DEFA7B681B7B19
:1045C0001E467B681B789C467B685A687B685B89C3
:1045D00019467B689B7B18467B68DB7B1C467B68A7
:1045E0001B7C1D467B685B7B0493039502940190C2
:1045F000009113466246314604482CF0BDFA00BFD4
:104600000C37BD46F0BD00BF504B0308D050030827
:1046100080B584B000AF7860084611461A4603465C
:10462000FB700B463B801346BB70002141480EF0E7
:10463000E1FB41482CF0A0FA00213E480EF0DAFBE5
:10464000B9787B681B889BB21A467B68B3F8073041
:104650009BB23A482CF090FABA787B681B8898B2E3
:10466000374913469B0013445B0013440B44024636
:104670001A80BA787B68B3F8073098B2304913468D
:104680009B0013445B0013440B44023302461A8020
:104690007B681B889BB2002B0DD0BA787B681B8887
:1046A00098B2274913469B0013445B0013440B4404
:1046B000023302461A80234B1A88234B1B889A42E6
:1046C00005D9204B1B8847F6F542934203D91D4B71
:1046D0001B88002B03D11D4B00221A7002E01B4BDC
:1046E00001221A70174B1A88174B1A80BA7814498E
:1046F00013469B0013445B0013440B441B889BB27E
:1047000000224FF6FF71184601F0D6FF0346FB81E9
:104710000F4AFB8913800E4B0ECB042000F07AFA6F
:10472000BB78194603200EF048FD002318461037C9
:10473000BD4680BD649E0308D4510308E0510308C0
:1047400074000020A44E0020A04E0020A64E0020A1
:10475000944E002080B582B000AF786008461146C4
:104760001A460346FB700B463B801346BB70BB7872
:104770007A68528891B20C4A22F8131000210B4833
:104780000EF038FBBB78194609482CF0F5F90021EA
:1047900006480EF02FFB07482CF0EEF900231846D0
:1047A0000837BD4680BD00BF904E0020809E0308A4
:1047B000105203085452030880B582B000AF7860ED
:1047C000084611461A460346FB700B463B801346CB
:1047D000BB707B681B889BB2002B03D0002004F0C9
:1047E00065F902E0002004F07BF9BA787B681B8849
:1047F00098B2124913469B0013445B0013440B44C8
:10480000043302461A8000210D480EF0F3FA0D48D9
:104810002CF04EFA00210A480EF0ECFABB7819464B
:1048200009482CF0A9F9BB78194603200EF0C5FC05
:10483000002318460837BD4680BD00BF7400002025
:10484000A49E0308605203086C52030880B582B02E
:1048500000AF78600B46FB70FA787B68B3F80730DE
:1048600098B2144913469B0013445B0013440B4455
:10487000023302461A8000210F480EF0BBFA0F489F
:104880002CF07AF900210C480EF0B4FAFA780949B4
:1048900013469B0013445B0013440B4402331B88F4
:1048A0009BB2194606482CF067F9002318460837D2
:1048B000BD4680BD74000020C89E0308B85203089E
:1048C000C452030880B582B000AF78600846114634
:1048D0001A460346FB700B463B801346BB70BA7802
:1048E0007B6818781E4913469B0013445B001344F1
:1048F0000B44063302461A70BA787B68B3F801306D
:1049000098B2174913469B0013445B0013440B44B1
:104910000246A3F80720BA787B68B3F8033098B250
:104920000F4913469B0013445B0013440B440833A8
:104930000246A3F8012000210A480EF05BFA0A485B
:104940002CF01AF9002107480EF054FABB781946EA
:1049500006482CF011F9002318460837BD4680BDE3
:1049600074000020E89E0308005303080C5303085A
:1049700080B483B000AF78600B467B8013467B70B9
:104980007A78214913469B0013445B0013440B447F
:104990001B889BB2DAB27B681A707A781A49134680
:1049A0009B0013445B0013440B441B889BB21B0AFF
:1049B0009AB27B680133D2B21A707A7812491346E0
:1049C0009B0013445B0013440B4402331B889AB2D0
:1049D0007B680233D2B21A707A780B4913469B0077
:1049E00013445B0013440B4402331B889BB21B0A25
:1049F0009AB27B680333D2B21A70002318460C3780
:104A0000BD465DF8047B70477400002080B483B01D
:104A100000AF78600B467B8013467B707B781B4A27
:104A200032F81330DAB27B681A707B78174A32F8A2
:104A300013301B0A9AB27B680133D2B21A707A78AB
:104A4000134913469B0013445B0013440B44023389
:104A50001B889AB27B680233D2B21A707A780C49FA
:104A600013469B0013445B0013440B4402331B8822
:104A70009BB21B0A9AB27B680333D2B21A7000232E
:104A800018460C37BD465DF8047B7047904E0020F9
:104A90007400002080B483B000AF78600B467B8048
:104AA00013467B707A78124913469B0013445B00CF
:104AB00013440B4404331B889BB2DAB27B681A7030
:104AC0007A780B4913469B0013445B0013440B4454
:104AD00004331B889BB21B0A9AB27B680133D2B2A3
:104AE0001A70002318460C37BD465DF8047B7047EA
:104AF0007400002080B483B000AF78600B467B80E8
:104B000013467B707A78124913469B0013445B006E
:104B100013440B4402331B889BB2DAB27B681A70D1
:104B20007A780B4913469B0013445B0013440B44F3
:104B300002331B889BB21B0A9AB27B680133D2B244
:104B40001A70002318460C37BD465DF8047B704789
:104B50007400002080B483B000AF78600B467B8087
:104B600013467B707A782A4913469B0013445B00F6
:104B700013440B4406331A787B681A707A782449F8
:104B800013469B0013445B0013440B44B3F80730F7
:104B90009AB27B680133D2B21A707A781C491346F4
:104BA0009B0013445B0013440B44B3F807309BB2E3
:104BB0001B0A9AB27B680233D2B21A707A7814490F
:104BC00013469B0013445B0013440B440833B3F8B3
:104BD00001309AB27B680333D2B21A707A780C49EA
:104BE00013469B0013445B0013440B440833B3F893
:104BF00001309BB21B0A9AB27B680433D2B21A709E
:104C0000002318460C37BD465DF8047B704700BF93
:104C10007400002090B484B000AF0446384680E8A9
:104C20000E002346FB7300BF1037BD4690BC704793
:104C300080B586B000AFF860B96011461A460B46E1
:104C4000FB8013467B7100237B8200213A480EF0E3
:104C5000D1F87B79194639482BF08EFF0021364870
:104C60000EF0C8F836482CF023F800237B615AE098
:104C70007B69002B02D07B69022B05D1FA687B6926
:104C800013441B787B824BE07B69012B18D10021F8
:104C900029480EF0AFF87A8AF9687B690B441B78D3
:104CA0001B0242EA03007A8AF9687B690B441B788D
:104CB0001B0213431A46014622482BF05DFF2FE0EA
:104CC0007B69032B18D100211B480EF093F87A8AD8
:104CD000F9687B690B441B781B0242EA03007A8A5D
:104CE000F9687B690B441B781B0213431A46014683
:104CF00015482BF041FF13E07B69042B10D10021F4
:104D00000D480EF077F8FA687B6913441B78194652
:104D1000FA687B6913441B781A460C482BF02CFF69
:104D20007B6901337B617A69BB689A42A0D3002317
:104D300018461837BD4680BD089F03087453030802
:104D4000B0530308B8530308D8530308F8530308B3
:104D500080B586B000AFF860B96011461A460B46C0
:104D6000FB8013467B7100237B8200213A480EF0C2
:104D700041F87B79194639482BF0FEFE0021364870
:104D80000EF038F836482BF093FF00237B615AE091
:104D90007B69002B02D07B69022B05D1FA687B6905
:104DA00013441B787B824BE07B69012B18D10021D7
:104DB00029480EF01FF87A8AF9687B690B441B7842
:104DC0001B0242EA03007A8AF9687B690B441B786C
:104DD0001B0213431A46014622482BF0CDFE2FE05A
:104DE0007B69032B18D100211B480EF003F87A8A47
:104DF000F9687B690B441B781B0242EA03007A8A3C
:104E0000F9687B690B441B781B0213431A46014661
:104E100015482BF0B1FE13E07B69042B10D1002163
:104E20000D480DF0E7FFFA687B6913441B781946BB
:104E3000FA687B6913441B781A460C482BF09CFED9
:104E40007B6901337B617A69BB689A42A0D30023F6
:104E500018461837BD4680BD289F03081454030820
:104E600058540308B8530308D8530308F8530308E9
:104E700080B586B000AFF860B96011461A460B469F
:104E8000FB8013467B71002120480DF0B3FF7B7936
:104E900019461F482BF070FE00211C480DF0AAFF98
:104EA0001C482BF005FF00237B6126E07B69002B6B
:104EB00005D1FA687B6913441B787B821AE07B6911
:104EC000012B17D1002111480DF094FF7A8AF9685F
:104ED0007B690B441B781B0242EA03007A8AF9685B
:104EE0007B690B441B781B0213431A4601460A4890
:104EF0002BF042FE7B6901337B617A69BB689A4281
:104F0000D4D3002318461837BD4680BD4C9F0308F4
:104F100060540308A0540308A854030880B586B061
:104F200000AFF860B96011461A460B46FB80134685
:104F30007B71002120480DF05DFF7B7919461F48E9
:104F40002BF01AFE00211C480DF054FF1C482BF0DA
:104F5000AFFE00237B6126E07B69002B05D1FA6858
:104F60007B6913441B787B821AE07B69012B17D184
:104F7000002111480DF03EFF7A8AF9687B690B44E5
:104F80001B781B0242EA03007A8AF9687B690B44AA
:104F90001B781B0213431A4601460A482BF0ECFD0E
:104FA0007B6901337B617A69BB689A42D4D3002361
:104FB00018461837BD4680BD709F0308C4540308C7
:104FC000A05403080855030880B586B000AFF86008
:104FD000B96011461A460B46FB8013467B710021CF
:104FE0003A480DF007FF7B79194639482BF0C4FD8C
:104FF000002136480DF0FEFE36482BF059FE002306
:105000007B615AE07B69002B11D100212F480DF004
:10501000F1FEFA687B6913441B781946FA687B69CC
:1050200013441B781A462C482BF0A6FD42E07B69FE
:10503000012B02D07B69032B05D1FA687B691344ED
:105040001B787B8236E07B69022B18D100211F4838
:105050000DF0D0FE7A8AF9687B690B441B781B023D
:1050600042EA03007A8AF9687B690B441B781B02C9
:1050700013431A46014619482BF07EFD1AE07B695E
:10508000042B17D1002111480DF0B4FE7A8AF9687B
:105090007B690B441B781B0242EA03007A8AF96899
:1050A0007B690B441B781B0213431A4601460C48CC
:1050B0002BF062FD7B6901337B617A69BB689A42A0
:1050C000A0D3002318461837BD4680BD989F03081B
:1050D000285503086C5503087455030890550308B8
:1050E000A855030880B586B000AFF860B9601146D6
:1050F0001A460B46FB8013467B7100237B820021FE
:105100005A480DF077FE7B79194659482BF034FD4B
:10511000002156480DF06EFE56482BF0C9FD0023C5
:105120007B6198E07B69002B08D07B69022B05D05E
:105130007B69042B02D07B69062B05D1FA687B6959
:1051400013441B787B8283E07B69012B18D10021FB
:1051500046480DF04FFE7A8AF9687B690B441B784C
:105160001B0242EA03007A8AF9687B690B441B78C8
:105170001B0213431A4601463F482BF0FDFC67E033
:105180007B69032B18D1002138480DF033FE7A8A51
:10519000F9687B690B441B781B0242EA03007A8A98
:1051A000F9687B690B441B781B0213431A460146BE
:1051B00032482BF0E1FC4BE07B69052B18D1002134
:1051C0002A480DF017FE7A8AF9687B690B441B7830
:1051D0001B0242EA03007A8AF9687B690B441B7858
:1051E0001B0213431A46014625482BF0C5FC2FE04D
:1051F0007B69072B18D100211C480DF0FBFD7A8A32
:10520000F9687B690B441B781B0242EA03007A8A27
:10521000F9687B690B441B781B0213431A4601464D
:1052200018482BF0A9FC13E07B69082B10D1002152
:105230000E480DF0DFFDFA687B6913441B781946B0
:10524000FA687B6913441B781A460F482BF094FCCC
:105250007B6901337B617A69BB689A42FFF462AF74
:10526000002318461837BD4680BD00BFBC9F030809
:10527000C0550308F85503080056030824560308D0
:105280004C560308705603089456030880B586B040
:1052900000AFF860B96011461A460B46FB80134612
:1052A0007B7100237B8200215A480DF0A3FD7B799E
:1052B000194659482BF060FC002156480DF09AFD24
:1052C00056482BF0F5FC00237B6198E07B69002BAE
:1052D00008D07B69022B05D07B69042B02D07B6947
:1052E000062B05D1FA687B6913441B787B8283E027
:1052F0007B69012B18D1002146480DF07BFD7A8A8D
:10530000F9687B690B441B781B0242EA03007A8A26
:10531000F9687B690B441B781B0213431A4601464C
:105320003F482BF029FC67E07B69032B18D1002153
:1053300038480DF05FFD7A8AF9687B690B441B7869
:105340001B0242EA03007A8AF9687B690B441B78E6
:105350001B0213431A46014632482BF00DFC4BE06A
:105360007B69052B18D100212A480DF043FD7A8A6C
:10537000F9687B690B441B781B0242EA03007A8AB6
:10538000F9687B690B441B781B0213431A460146DC
:1053900025482BF0F1FB2FE07B69072B18D100216A
:1053A0001C480DF027FD7A8AF9687B690B441B784D
:1053B0001B0242EA03007A8AF9687B690B441B7876
:1053C0001B0213431A46014618482BF0D5FB13E085
:1053D0007B69082B10D100210E480DF00BFDFA68F7
:1053E0007B6913441B781946FA687B6913441B7860
:1053F0001A460F482BF0C0FB7B6901337B617A6949
:10540000BB689A42FFF462AF002318461837BD46C6
:1054100080BD00BFD49F0308B0560308F0560308B0
:1054200024560308F8560308705603081C5703084F
:10543000F853030880B586B000AFF860B960114634
:105440001A460B46FB8013467B7100213A480DF04B
:10545000D1FC7B79194639482BF08EFB0021364868
:105460000DF0C8FC36482BF023FC00237B615AE08A
:105470007B69002B11D100212F480DF0BBFCFA688D
:105480007B6913441B781946FA687B6913441B78BF
:105490001A462C482BF070FB42E07B69012B02D0AE
:1054A0007B69032B05D1FA687B6913441B787B82E7
:1054B00036E07B69022B18D100211F480DF09AFCC1
:1054C0007A8AF9687B690B441B781B0242EA030065
:1054D0007A8AF9687B690B441B781B0213431A46CE
:1054E000014619482BF048FB1AE07B69042B17D1C1
:1054F000002111480DF07EFC7A8AF9687B690B4423
:105500001B781B0242EA03007A8AF9687B690B4424
:105510001B781B0213431A4601460C482BF02CFB48
:105520007B6901337B617A69BB689A42A0D300230F
:1055300018461837BD4680BDF89F0308405703083A
:10554000885703087455030890550308A8550308A5
:1055500080B586B000AFF860B96011461A460B46B8
:10556000FB8013467B7100237B8200213F480DF0B6
:1055700041FC7B7919463E482BF0FEFA00213B485E
:105580000DF038FC3B482BF093FB00237B6164E07B
:105590007B69002B05D07B69022B02D07B69042B31
:1055A00005D1FA687B6913441B787B8252E07B69E2
:1055B000012B18D100212D480DF01CFC7A8AF968C6
:1055C0007B690B441B781B0242EA03007A8AF96864
:1055D0007B690B441B781B0213431A46014626487D
:1055E0002BF0CAFA36E07B69032B18D100211F4843
:1055F0000DF000FC7A8AF9687B690B441B781B026A
:1056000042EA03007A8AF9687B690B441B781B0223
:1056100013431A46014619482BF0AEFA1AE07B698B
:10562000052B17D1002111480DF0E4FB7A8AF968A7
:105630007B690B441B781B0242EA03007A8AF968F3
:105640007B690B441B781B0213431A4601460C4826
:105650002BF092FA7B6901337B617A69BB689A42CD
:1056600096D3002318461837BD4680BD20A00308F6
:1056700090570308CC570308D4570308EC57030886
:105680000858030880B586B000AFF860B9601146CD
:105690001A460B46FB8013467B7100237B82002158
:1056A0004A480DF0A7FB7B79194649482BF064FA6C
:1056B000002146480DF09EFB46482BF0F9FA0023E6
:1056C0007B6179E07B69002B05D07B69022B02D0DE
:1056D0007B69042B05D1FA687B6913441B787B82B4
:1056E00067E07B69012B18D1002138480DF082FB5F
:1056F0007A8AF9687B690B441B781B0242EA030033
:105700007A8AF9687B690B441B781B0213431A469B
:10571000014631482BF030FA4BE07B69032B18D15E
:1057200000212A480DF066FB7A8AF9687B690B44F0
:105730001B781B0242EA03007A8AF9687B690B44F2
:105740001B781B0213431A46014624482BF014FA17
:105750002FE07B69052B18D100211C480DF04AFB76
:105760007A8AF9687B690B441B781B0242EA0300C2
:105770007A8AF9687B690B441B781B0213431A462B
:10578000014617482BF0F8F913E07B69062B10D17E
:1057900000210E480DF02EFBFA687B6913441B783C
:1057A0001946FA687B6913441B781A460D482BF09A
:1057B000E3F97B6901337B617A69BB689A4281D3E3
:1057C000002318461837BD4680BD00BF40A003081F
:1057D0002058030858580308605803087C580308E9
:1057E00094580308B058030880B586B000AFF8603D
:1057F000B96011461A460B46FB8013467B710023A5
:105800007B8200213A480DF0F5FA7B791946394838
:105810002BF0B2F9002136480DF0ECFA36482BF0A7
:1058200047FA00237B615AE07B69002B02D07B6939
:10583000022B05D1FA687B6913441B787B824BE00D
:105840007B69012B18D1002129480DF0D3FA7A8AFF
:10585000F9687B690B441B781B0242EA03007A8AD1
:10586000F9687B690B441B781B0213431A460146F7
:1058700022482BF081F92FE07B69032B18D10021FE
:105880001B480DF0B7FA7A8AF9687B690B441B78DC
:105890001B0242EA03007A8AF9687B690B441B7891
:1058A0001B0213431A46014615482BF065F913E015
:1058B0007B69042B10D100210D480DF09BFAFA688A
:1058C0007B6913441B781946FA687B6913441B787B
:1058D0001A460C482BF050F97B6901337B617A69D9
:1058E000BB689A42A0D3002318461837BD4680BD36
:1058F00058A00308CC580308045903080C5903089E
:1059000028590308B058030880B586B000AFF86086
:10591000B96011461A460B46FB8013467B71002383
:105920007B8200213A480DF065FA7B7919463948A7
:105930002BF022F9002136480DF05CFA36482BF0A6
:10594000B7F900237B615AE07B69002B02D07B69A9
:10595000022B05D1FA687B6913441B787B824BE0EC
:105960007B69012B18D1002129480DF043FA7A8A6E
:10597000F9687B690B441B781B0242EA03007A8AB0
:10598000F9687B690B441B781B0213431A460146D6
:1059900022482BF0F1F82FE07B69032B18D100216E
:1059A0001B480DF027FA7A8AF9687B690B441B784B
:1059B0001B0242EA03007A8AF9687B690B441B7870
:1059C0001B0213431A46014615482BF0D5F813E085
:1059D0007B69042B10D100210D480DF00BFAFA68F9
:1059E0007B6913441B781946FA687B6913441B785A
:1059F0001A460C482BF0C0F87B6901337B617A6949
:105A0000BB689A42A0D3002318461837BD4680BD14
:105A100074A00308405903088059030888590308F3
:105A2000A8590308B058030880B586B000AFF860E5
:105A3000B96011461A460B46FB8013467B71002362
:105A40007B8200213F480DF0D5F97B7919463E480D
:105A50002BF092F800213B480DF0CCF93B482BF09D
:105A600027F900237B6164E07B69002B05D07B690B
:105A7000022B02D07B69042B05D1FA687B691344A1
:105A80001B787B8252E07B69012B18D100212D48C5
:105A90000DF0B0F97A8AF9687B690B441B781B0218
:105AA00042EA03007A8AF9687B690B441B781B027F
:105AB00013431A46014626482BF05EF836E07B6910
:105AC000032B18D100211F480DF094F97A8AF96848
:105AD0007B690B441B781B0242EA03007A8AF9684F
