:020000040800F2
:10000000000003203D6C0008E1480008EF480008AC
:10001000F5480008FB4800080149000800000000FE
:100020000000000000000000000000000749000878
:100030001549000800000000234900083149000864
:10004000916C0008916C0008916C00083D49000813
:10005000916C0008916C0008CB490008D949000850
:10006000916C0008916C0008BD490008916C000873
:10007000916C0008916C000849490008916C0008D7
:10008000916C0008916C0008916C0008916C00085C
:10009000916C0008916C0008916C0008916C00084C
:1000A000916C0008916C0008916C0008916C00083C
:1000B000916C0008916C0008916C0008916C00082C
:1000C000916C0008916C0008916C0008916C00081C
:1000D0005D49000871490008916C0008916C0008A6
:1000E000916C0008916C0008916C0008916C0008FC
:1000F00085490008914900089D490008916C000855
:10010000916C0008916C0008916C0008916C0008DB
:10011000916C0008916C0008916C0008916C0008CB
:10012000916C0008916C0008A9490008916C0008C6
:0C013000916C0008916C0008916C0008B4
:1001400010B5054C237833B9044B13B10448AFF311
:1001500000800123237010BD8C02002000000000ED
:10016000846E010808B5034B1BB103490348AFF384
:10017000008008BD0000000090020020846E01088D
:1001800010F8012B11F8013B012A28BF9A42F7D041
:10019000D01A7047000000000000000000000000BE
:1001A00001F0FF01102A2BDB10F0070F08D010F828
:1001B000013B013A8B422DD010F0070F42B3F6D12C
:1001C000F0B441EA012141EA014122F007047FF045
:1001D00000070023F0E80256083C85EA010586EA9C
:1001E000010685FA47F5A3FA87F586FA47F6A5FAD8
:1001F00087F68EB9EED1F0BC01F0FF0102F00702E4
:1002000032B110F8013B013A83EA010313B1F8D18E
:100210000020704701387047002D06BF354603386F
:10022000073815F0010F07D1013015F4807F02BFA8
:10023000013015F4C03F0130F0BC0138704700BFF9
:10024000034613F8012B002AFBD1181A0138704716
:1002500081F0004102E000BF83F0004330B54FEA77
:1002600041044FEA430594EA050F08BF90EA020FE4
:100270001FBF54EA000C55EA020C7FEA645C7FEA77
:10028000655C00F0E2804FEA5454D4EB5555B8BF9A
:100290006D420CDD2C4480EA020281EA030382EA0B
:1002A000000083EA010180EA020281EA0303362D9D
:1002B00088BF30BD11F0004F4FEA01314FF4801C70
:1002C0004CEA113102D0404261EB410113F0004F82
:1002D0004FEA03334CEA133302D0524263EB430339
:1002E00094EA050F00F0A780A4F10104D5F1200ED7
:1002F0000DDB02FA0EFC22FA05F2801841F1000132
:1003000003FA0EF2801843FA05F359410EE0A5F105
:1003100020050EF1200E012A03FA0EFC28BF4CF036
:10032000020C43FA05F3C01851EBE37101F00045EC
:1003300007D54FF0000EDCF1000C7EEB00006EEBF9
:100340000101B1F5801F1BD3B1F5001F0CD3490883
:100350005FEA30004FEA3C0C04F101044FEA4452DA
:1003600012F5800F80F09A80BCF1004F08BF5FEA61
:10037000500C50F1000041EB045141EA050130BD41
:100380005FEA4C0C404141EB0101013C28BFB1F553
:10039000801FE9D291F0000F04BF01460020B1FA9E
:1003A00081F308BF2033A3F10B03B3F120020CDA71
:1003B0000C3208DD02F1140CC2F10C0201FA0CF04F
:1003C00021FA02F10CE002F11402D8BFC2F1200CB4
:1003D00001FA02F120FA0CFCDCBF41EA0C0190406A
:1003E000E41AA2BF01EB0451294330BD6FEA0404B3
:1003F0001F3C1CDA0C340EDC04F11404C4F120029E
:1004000020FA04F001FA02F340EA030021FA04F3AF
:1004100045EA030130BDC4F10C04C4F1200220FA06
:1004200002F001FA04F340EA0300294630BD21FA44
:1004300004F0294630BD94F0000F83F4801306BF0A
:1004400081F480110134013D4EE77FEA645C18BFFE
:100450007FEA655C29D094EA050F08BF90EA020F95
:1004600005D054EA000C04BF1946104630BD91EA8D
:10047000030F1EBF0021002030BD5FEA545C05D190
:100480004000494128BF41F0004130BD14F58004CF
:100490003CBF01F5801130BD01F0004545F0FE4143
:1004A00041F470014FF0000030BD7FEA645C1ABF78
:1004B000194610467FEA655C1CBF0B46024650EAAF
:1004C000013406BF52EA033591EA030F41F40021DB
:1004D00030BD00BF90F0000F04BF0021704730B561
:1004E0004FF4806404F132044FF000054FF0000136
:1004F00050E700BF90F0000F04BF0021704730B5F7
:100500004FF4806404F1320410F0004548BF4042CB
:100510004FF000013EE700BF42004FEAE2014FEA20
:1005200031014FEA02701FBF12F07F4393F07F4FFB
:1005300081F06051704732F07F4208BF704793F0FE
:100540007F4F04BF41F40021704730B54FF4607411
:1005500001F0004521F000411CE700BF50EA010214
:1005600008BF704730B54FF000050AE050EA0102BD
:1005700008BF704730B511F0004502D5404261EB2D
:1005800041014FF4806404F132045FEA915C3FF46E
:10059000D8AE4FF003025FEADC0C18BF03325FEA0B
:1005A000DC0C18BF033202EBDC02C2F1200300FABC
:1005B00003FC20FA02F001FA03FE40EA0E0021FAE1
:1005C00002F11444BDE600BF70B54FF0FF0C4CF4CF
:1005D000E06C1CEA11541DBF1CEA135594EA0C0F81
:1005E00095EA0C0F00F0DEF82C4481EA030621EABC
:1005F0004C5123EA4C5350EA013518BF52EA0335F7
:1006000041F4801143F4801338D0A0FB02CE4FF0A8
:100610000005E1FB02E506F00042E0FB03E54FF0D8
:100620000006E1FB03569CF0000F18BF4EF0010ED0
:10063000A4F1FF04B6F5007F64F5407404D25FEACC
:100640004E0E6D4146EB060642EAC62141EA55517F
:100650004FEAC52040EA5E504FEACE2EB4F1FD0CC1
:1006600088BFBCF5E06F1ED8BEF1004F08BF5FEA3F
:10067000500E50F1000041EB045170BD06F00046F1
:1006800046EA010140EA020081EA0301B4EB5C049E
:10069000C2BFD4EB0C0541EA045170BD41F4801196
:1006A0004FF0000E013C00F3AB8014F1360FDEBFBB
:1006B000002001F0004170BDC4F10004203C35DA97
:1006C0000C341BDC04F11404C4F1200500FA05F31A
:1006D00020FA04F001FA05F240EA020001F00042BB
:1006E00021F0004110EBD37021FA04F642EB060131
:1006F0005EEA430E08BF20EAD37070BDC4F10C045B
:10070000C4F1200500FA04F320FA05F001FA04F21E
:1007100040EA020001F0004110EBD37041F100010A
:100720005EEA430E08BF20EAD37070BDC4F1200515
:1007300000FA05F24EEA020E20FA04F301FA05F27D
:1007400043EA020321FA04F001F0004121FA04F225
:1007500020EA020000EBD3705EEA430E08BF20EAF5
:10076000D37070BD94F0000F0FD101F0004640002F
:1007700041EB010111F4801F08BF013CF7D041EAB1
:10078000060195F0000F18BF704703F000465200B5
:1007900043EB030313F4801F08BF013DF7D043EA86
:1007A0000603704794EA0C0F0CEA135518BF95EA3C
:1007B0000C0F0CD050EA410618BF52EA4306D1D1C3
:1007C00081EA030101F000414FF0000070BD50EAE2
:1007D000410606BF1046194652EA430619D094EA6C
:1007E0000C0F02D150EA013613D195EA0C0F05D156
:1007F00052EA03361CBF104619460AD181EA0301AA
:1008000001F0004141F0FE4141F470014FF0000061
:1008100070BD41F0FE4141F4780170BD70B54FF0FC
:10082000FF0C4CF4E06C1CEA11541DBF1CEA13557C
:1008300094EA0C0F95EA0C0F00F0A7F8A4EB05045E
:1008400081EA030E52EA03354FEA013100F0888055
:100850004FEA03334FF0805545EA131343EA12631E
:100860004FEA022245EA111545EA10654FEA0026D3
:100870000EF000419D4208BF964244F1FD0404F58C
:10088000407402D25B084FEA3202B61A65EB0305E8
:100890005B084FEA32024FF480104FF4002CB6EBA5
:1008A000020E75EB030E22BFB61A754640EA0C0025
:1008B0005B084FEA3202B6EB020E75EB030E22BF65
:1008C000B61A754640EA5C005B084FEA3202B6EBA6
:1008D000020E75EB030E22BFB61A754640EA9C0065
:1008E0005B084FEA3202B6EB020E75EB030E22BF35
:1008F000B61A754640EADC0055EA060E18D04FEAF3
:10090000051545EA16754FEA06164FEAC30343EA92
:1009100052734FEAC2025FEA1C1CC0D111F4801F5F
:100920000BD141EA00014FF000004FF0004CB6E758
:1009300011F4801F04BF01430020B4F1FD0C88BFF7
:10094000BCF5E06F3FF6AFAEB5EB030C04BFB6EB02
:10095000020C5FEA500C50F1000041EB045170BDF5
:100960000EF0004E4EEA113114EB5C04C2BFD4EB22
:100970000C0541EA045170BD41F480114FF0000EA6
:10098000013C90E645EA060E8DE60CEA135594EA22
:100990000C0F08BF95EA0C0F3FF43BAF94EA0C0F25
:1009A0000AD150EA01347FF434AF95EA0C0F7FF49A
:1009B00025AF104619462CE795EA0C0F06D152EAEE
:1009C00003353FF4FDAE1046194622E750EA4106D2
:1009D00018BF52EA43067FF4C5AE50EA41047FF4E3
:1009E0000DAF52EA43057FF4EBAE12E74FF0FF3C48
:1009F00006E000BF4FF0010C02E000BF4FF0010C19
:100A00004DF804CD4FEA410C7FEA6C5C4FEA430C91
:100A100018BF7FEA6C5C1BD001B050EA410C0CBFE0
:100A200052EA430C91EA030F02BF90EA020F002042
:100A3000704710F1000F91EA030F58BF994208BFA9
:100A400090422CBFD8176FEAE37040F00100704766
:100A50004FEA410C7FEA6C5C02D150EA013C07D1BD
:100A60004FEA430C7FEA6C5CD6D152EA033CD3D008
:100A70005DF8040B704700BF8446104662468C4602
:100A80001946634600E000BF01B5FFF7B7FF002835
:100A900048BF10F1000F01BD4DF808EDFFF7F4FF5E
:100AA0000CBF012000205DF808FB00BF4DF808EDE9
:100AB000FFF7EAFF34BF012000205DF808FB00BF0C
:100AC0004DF808EDFFF7E0FF94BF012000205DF82E
:100AD00008FB00BF4DF808EDFFF7CEFF94BF0120E3
:100AE00000205DF808FB00BF4DF808EDFFF7C4FFDC
:100AF00034BF012000205DF808FB00BF4FEA410C25
:100B00007FEA6C5C02D150EA013C0AD14FEA430C07
:100B10007FEA6C5C02D152EA033C02D14FF0000044
:100B200070474FF0010070474FEA410212F5001282
:100B300015D211D56FF47873B3EB625212D94FEA24
:100B4000C12343F0004343EA505311F0004F23FA0E
:100B500002F018BF404270474FF00000704750EA63
:100B6000013005D111F0004008BF6FF00040704720
:100B70004FF00000704700BF4FEA4102B2F1E0437E
:100B800024BFB3F5001CDCF1FE5C0DD901F0004C74
:100B90004FEAC0024CEA5070B2F1004F40EB8300C4
:100BA00008BF20F00100704711F0804F21D113F1F0
:100BB0003872BCBF01F00040704741F480114FEA29
:100BC0005252C2F11802C2F1200C10FA0CF320FAB2
:100BD00002F018BF40F001004FEAC1234FEAD323CF
:100BE00003FA0CFC40EA0C0023FA02F34FEA430339
:100BF000CCE77FEA625307D150EA01331EBF4FF0C2
:100C0000FE4040F44000704701F0004040F0FE40DC
:100C100040F40000704700BF53B94AB9002908BF2B
:100C200000281CBF4FF0FF314FF0FF3000F070B9CB
:100C3000ADF1080C6DE904CE00F006F8DDF804E033
:100C4000DDE9022304B070472DE9F047089E0D4608
:100C500004460F46002B4AD18A42944665D9B2FA1F
:100C600082F343B102FA03FCC3F120029F4020FA51
:100C700002F217439C404FEA1C4E1FFA8CF5B7FB5B
:100C8000FEF1220C0EFB117742EA074201FB05F050
:100C900090420AD91CEB020201F1FF3780F01C815F
:100CA000904240F2198102396244121AA4B2B2FB96
:100CB000FEF00EFB102244EA024400FB05F5A542BB
:100CC0000AD91CEB040400F1FF3280F00781A54231
:100CD00040F204816444023840EA0140641B002170
:100CE0001EB1DC400023C6E90043BDE8F0878B421B
:100CF00008D9002E00F0ED800021C6E90005084665
:100D0000BDE8F087B3FA83F1002949D1AB4202D3A1
:100D1000824200F2F880841A65EB03020120174634
:100D2000002EE2D0C6E90047DFE702B9FFDEB2FAE3
:100D300082F3002B40F090808A1A4FEA1C471FFA7A
:100D40008CFE0121B2FBF7F507FB1520220C42EACD
:100D500000420EFB05F0904208D91CEB020205F19F
:100D6000FF3802D2904200F2CB804546121AA4B25C
:100D7000B2FBF7F007FB102244EA02440EFB00FE30
:100D8000A64508D91CEB040400F1FF3202D2A645A7
:100D900000F2BB801046A4EB0E0440EA05409FE73A
:100DA000C1F120078B4022FA07FC4CEA030C05FA3C
:100DB00001F420FA07F3FD404FEA1C492343B5FB39
:100DC000F9F81FFA8CFE09FB18551C0C44EA05447F
:100DD00008FB0EF5A54202FA01F200FA01F00BD968
:100DE0001CEB040408F1FF3A80F08880A54240F231
:100DF0008580A8F102086444641B9DB2B4FBF9F33A
:100E000009FB134445EA044403FB0EFEA64508D93A
:100E10001CEB040403F1FF356CD2A6456AD9023BF2
:100E2000644443EA0843A3FB0295A4EB0E04AC42DE
:100E3000C846AE4656D353D056B1B0EB080264EB69
:100E40000E0404FA07F7CA40CC401743C6E9007401
:100E500018460021BDE8F087C3F1200102FA03FC27
:100E600020FA01F225FA01F19D402A434FEA1C477E
:100E70001FFA8CFEB1FBF7F007FB1015110C41EACD
:100E8000054100FB0EF58D4204FA03F408D91CEB72
:100E9000010100F1FF382FD28D422DD90238614473
:100EA000491B92B2B1FBF7F507FB151142EA01426B
:100EB00005FB0EF1914208D91CEB020205F1FF3847
:100EC00016D2914214D9023D6244521A45EA0041B9
:100ED00038E73146304608E73946E6E61046FBE695
:100EE0004845A9D2B9EB020865EB0C0E013BA3E71C
:100EF0004546EAE72B4694E74046D1E7D0467BE7F4
:100F0000023D624432E708460AE76444023842E799
:100F1000704700BF80B586B002AFF860B9607A60F4
:100F20003B60BB68002BC0F2BB80BB68072B00F3A3
:100F3000B7807B68002BC0F2B3807B68072B00F37F
:100F4000AF805A49BB68DA007B68134451F82330FC
:100F5000002B40F0A780BB685B01FA6813447A68F5
:100F600053F82230B3F5FA7F40F39C804F49BB68B9
:100F7000DA007B681344012241F82320BB691B6817
:100F80005A1CBB691A603B6893ED007ABB6807EE98
:100F9000903AF8EEE77A77EE277A3B68C3ED007A6D
:100FA0003B6893ED017A7B6807EE903AF8EEE77ABA
:100FB00077EE277A3B68C3ED017ABB685B01FA687C
:100FC00013447A6853F8223003F13102BB6803F10D
:100FD0000063013B5B01F9680B44796853F82130E9
:100FE0009A4208DBBB68591EBB6900933B687A686C
:100FF000F868FFF78FFFBB685B01FA6813447A68F3
:1010000053F8223003F13102BB6801335B01F96808
:101010000B44796853F821309A4208DBBB68591CAD
:10102000BB6900933B687A68F868FFF773FFBB6899
:101030005B01FA6813447A6853F8223003F13102F5
:10104000BB685B01F9680B447968013953F82130BA
:101050009A4208DB7B685A1EBB6900933B68B968FB
:10106000F868FFF757FFBB685B01FA6813447A68BA
:1010700053F8223003F13102BB685B01F9680B447D
:101080007968013153F821309A420CDB7B685A1C95
:10109000BB6900933B68B968F868FFF73BFF02E063
:1010A00000BF00E000BF1037BD4680BDA802002091
:1010B00080B590B002AF7860396000237B6313E0A5
:1010C00000233B630AE054497B6BDA003B6B13441B
:1010D000002241F823203B6B01333B633B6B072B22
:1010E000F1DD7B6B01337B637B6B072BE8DD00233A
:1010F000FB62012387F82B3083E04FF0FF337B62E4
:101100000023BB6143E000237B613AE0BB695B01E4
:101110007A6813447A6953F822307A6A9A421FDA5D
:10112000BB695B017A6813447A6953F82230B3F5DE
:10113000FA7F15DD3849BB69DA007B69134451F841
:101140002330002B0CD1BB695B017A6813447A69A8
:1011500053F822307B62BB693B627B69FB610DE027
:10116000BA697B699A4209D1BB69072B06D17B6AB0
:10117000B3F1FF3F02D1002387F82B307B690133A5
:101180007B617B69072BC1DDBB690133BB61BB6937
:10119000072BB8DD4FF00003FB604FF000033B610D
:1011A0000023BB6007F10C0207F10803009313460C
:1011B000FA69396A7868FFF7ADFEBB68022B20DD5B
:1011C000D7ED036ABB6807EE903AB8EEE77AFB6AA0
:1011D000DB003A681344C6EE877AC3ED007AD7ED98
:1011E000046ABB6807EE903AB8EEE77AFB6ADB0068
:1011F0003A681344C6EE877AC3ED017AFB6A01337D
:10120000FB6297F82B30002B7FF477AFFB6A184610
:101210003837BD4680BD00BFA802002080B48DB025
:1012200000AFF860B0EE407AF0EE607A87ED017AB8
:10123000C7ED027AD7ED017AFDEEE77A17EE903A24
:10124000FB61D7ED027AFDEEE77A17EE903ABB61CB
:101250004FF00003FB624FF00003BB6200237B6290
:1012600076E000233B626DE0FA697B6A1344002B51
:1012700065DBFA697B6A1344072B60DCBA693B6A59
:101280001344002B5BDBBA693B6A1344072B56DC23
:10129000FA697B6A13445B01FA681344B9693A6AD4
:1012A0000A4453F82230B3F5FA7F48DB7B6A002BFF
:1012B00011D1BA693B6A134407EE903AB8EEE77A67
:1012C000D7ED027A77EE677AF0EEE77AB7EE007A3A
:1012D00077EE677A10E0FA697B6A134407EE903A7A
:1012E000B8EEE77AD7ED017A77EE677AF0EEE77A33
:1012F000B7EE007A77EE677AC7ED057AFA697B6A0E
:1013000013445B01FA681344B9693A6A0A4453F812
:10131000223007EE903AB8EEE77AD7ED057A67EE1D
:10132000277A97ED0B7A77EE277AC7ED0B7A97ED50
:101330000A7AD7ED057A77EE277AC7ED0A7A3B6A03
:1013400001333B623B6A012B8EDD7B6A01337B629A
:101350007B6A012B85DD97ED0B7AD7ED0A7AC7EE14
:10136000276AF0EE667AB0EE670A3437BD465DF85C
:10137000047B704790B5ADF5317D00AF07F5307354
:10138000A3F52D73186007F53073A3F52E7319605C
:1013900007F53073A3F52F7383ED000A07F530735B
:1013A000A3F53073C3ED000A07F1100207F530739F
:1013B000A3F52E7311461868FFF77AFE024607F56B
:1013C0003073A3F50273C3F8F82107F53073A3F562
:1013D000027307F53072A2F52F721268C3F8FC2170
:1013E00007F53073A3F5027307F53072A2F530727A
:1013F0001268C3F800220023C7F8BC3264E007F586
:101400003073A3F50271D7F8BC2213465B00134476
:10141000DB00194407F53073A3F52C72D7F8BC3202
:101420000C46DB00134493E8030084E8030007F54F
:101430003073A3F52C73D7F8BC22D100194491ED79
:10144000007AD20013440433D3ED007A07F53073E9
:10145000A3F52E73B0EE470AF0EE670A1868FFF79F
:10146000DDFEF0EE407A07F53073A3F50271D7F890
:10147000BC2213465B001344DB000B440833C3ED6E
:10148000007A07F53073A3F50271D7F8BC22134632
:101490005B001344DB000B4410334FF000021A6072
:1014A00007F53073A3F50271D7F8BC2213465B0031
:1014B0001344DB000B4414334FF000021A60D7F8DA
:1014C000BC320133C7F8BC3207F53073A3F50273A1
:1014D000D3F8F831D7F8BC229A4290DB07F5307385
:1014E000A3F52D731A6807F53073A3F50273104640
:1014F00019464FF401731A4613F0B1FC07F5307327
:10150000A3F52D73186807F53177BD4690BD80B4FB
:1015100087B000AF786039607A683B689A4201D141
:1015200000234AE03B68043B7B6102E07B69043BAB
:101530007B617A697B689A4206D97B69043B1A68A9
:101540007B691B689A42F1DA7A697B689A4201D119
:10155000002332E03B68043B3B6102E03B69043B13
:101560003B613B691A687B69043B1B689A42F5DD65
:101570007B6953F8043CFB607B69043B3A69126861
:101580001A603B69FA681A603B68043B3B610FE0F4
:101590007B691B68FB603B691A687B691A603B6961
:1015A000FA681A607B6904337B613B69043B3B61E9
:1015B0007A693B699A42EBD3012318461C37BD4632
:1015C0005DF8047B704700002DE9F04F97B000AF45
:1015D000F860FB6803F5A043D3F8A830002B00F0B7
:1015E0008381FB6803F5A043D3F8A4201346DB01F5
:1015F00013449B00FA681344FB63FB6803F5A043A4
:10160000D3F8A43003F12702BA4B83FB021319115C
:10161000D317C91A0B469B000B44DB00D31ABB63DC
:10162000BA6B1346DB0113449B00FA6813447B63D7
:10163000FB6803F5A043D3F8A830012B25D1002384
:101640007B651BE0FB6803F5A043D3F8AC300133A6
:10165000FA6802F5A042C2F8AC30FB6803F5A0437B
:10166000D3F8AC10F86B7A6D13465B001344DB00C3
:1016700003440C3319607B6D01337B65FB6BD3F83E
:10168000F8317A6D9A42DDDB2FE16B46BB60FB6B74
:10169000D3F8F8313B637B6BD3F8F831FB624FF042
:1016A000FF433B65396B4B1EBB620A4600233A6021
:1016B0007B604FF000024FF0000378684301386808
:1016C00043EAD063386842010A46002392469B46AB
:1016D0004FF000024FF000034FEA4B1343EADA6386
:1016E0004FEA4A120B469B000733DB08DB00ADEBE9
:1016F000030D6B4603339B089B007B623E6B731E9E
:101700003B6232460023904699464FF000024FF06C
:1017100000034FEA491343EAD8634FEA48123246BE
:10172000002314461D464FF000024FF000036B01EA
:1017300043EAD463620133469B000733DB08DB00D6
:10174000ADEB030D6B4603339B089B00FB6100234D
:10175000FB6407E0FB69FA6CF96C43F82210FB6C40
:101760000133FB64FA6C3B6B9A42F3DB4FF00003EE
:10177000BB6400237B6453E0FB697A6C53F822302E
:10178000FA6A9A4249DDF96B7A6C13465B0013449E
:10179000DB000B4493ED007AFB697A6C53F822204E
:1017A000796B13465B001344DB000B44D3ED007AE6
:1017B00077EE677AC7ED067AF96B7A6C13465B00B1
:1017C0001344DB000B44043393ED007AFB697A6C1D
:1017D00053F82220796B13465B001344DB000B4463
:1017E0000433D3ED007A77EE677AC7ED057AD7ED4B
:1017F000067A27EEA77AD7ED057A67EEA77A77EE15
:10180000277AB0EE670A15F09FF9B0EE407AD7ED6F
:10181000127A77EE877AC7ED127A7B6C01337B649C
:101820007A6C3B6B9A42A7DB97ED127AD7ED147A6C
:10183000B4EEE77AF1EE10FA08D5BB6C3B6533469F
:101840009B001A46F969786A13F009FB3B6B9B0011
:10185000FA6913441946F869FFF759FE0346002B4D
:1018600084D100233B6438E07B6A3A6C53F8223021
:10187000FA6A9A4215DD7B6A3A6C53F82220796B3A
:1018800013465B001344DB000B440C331968F86B00
:101890003A6C13465B001344DB0003440C331960BD
:1018A00018E0FB6803F5A043D3F8AC300133FA68C5
:1018B00002F5A042C2F8AC30FB6803F5A043D3F8B0
:1018C000AC10F86B3A6C13465B001344DB00034426
:1018D0000C3319603B6C01333B643A6C3B6B9A42AE
:1018E000C2DBD7F808D000E000BF5C37BD46BDE8DA
:1018F000F08F00BF67666666B0B590B000AF7860E5
:101900007B6803F5A043D3F8A830012B40F367812F
:101910007B6803F5A043D3F8A4201346DB011344EE
:101920009B007A6813447B627B6803F5A043D3F87D
:10193000A43003F12702B04B83FB02131911D31714
:10194000C91A0B469B000B44DB00D31A3B623A6A70
:101950001346DB0113449B007A681344FB610023A8
:10196000FB6334E1796AFA6B13465B001344DB00D6
:101970000B440C331B68BB614FF00003BB634FF09B
:1019800000037B634FF07E533B630023FB6283E0E5
:10199000F969FA6A13465B001344DB000B440C330D
:1019A0001B68BA699A4274D1796AFA6B13465B0074
:1019B0001344DB000B4493ED007AF969FA6A13468D
:1019C0005B001344DB000B44D3ED007A77EE677ABB
:1019D000C7ED057A796AFA6B13465B001344DB00A6
:1019E0000B44043393ED007AF969FA6A13465B00FD
:1019F0001344DB000B440433D3ED007A77EE677AAF
:101A0000C7ED047AD7ED057A27EEA77AD7ED047AE9
:101A100067EEA77A77EE277AB0EE670A15F094F8AA
:101A200087ED030AD7ED050A97ED040A15F08AF849
:101A300087ED020A97ED0E7AD7ED037A77EE277AD3
:101A4000C7ED0E7A786BFEF767FD04460D46D7EDBD
:101A5000027A9FED6A7A67EE877AB0EE007AC7EE77
:101A6000876A16EE900AFEF757FD5FA3D3E90023BD
:101A7000FEF7D4FE02460B4620462946FEF7EEFB53
:101A800002460B4610461946FFF776F803467B637D
:101A900009E0FB6A0133FB62FB69D3F8F831FA6AAB
:101AA0009A42FFF675AF0023BB6267E0F969BA6A34
:101AB00013465B001344DB000B440C331B68BA690C
:101AC0009A4258D1B86BFEF727FD04460D46F969D6
:101AD000BA6A13465B001344DB000B4414331B68E3
:101AE0001846FEF719FD42A3D3E90023FEF76CFD6B
:101AF00002460B4620462946FEF7B0FB02460B463F
:101B000010461946FFF738F80346BB63786BFEF7BB
:101B100003FD04460D46F969BA6A13465B00134497
:101B2000DB000B4410331B681846FEF7F5FC30A3AE
:101B3000D3E90023FEF748FD02460B46204629461E
:101B4000FEF78CFB02460B4610461946FFF714F8C9
:101B500003467B63386BFEF7DFFC25A3D3E9002344
:101B6000FEF77CFB02460B4610461946FFF704F8C9
:101B700003463B6308E0BB6A0133BB62FB69D3F8F1
:101B8000F831BA6A9A4291DBD7ED0E6A97ED0C7A7A
:101B9000C6EE877A796AFA6B13465B001344DB0062
:101BA0000B441433C3ED007AD7ED0D6A97ED0C7A30
:101BB000C6EE877A796AFA6B13465B001344DB0042
:101BC0000B441033C3ED007AFB6B0133FB637B6A7C
:101BD000D3F8F831FA6B9A42FFF6C4AE00E000BFCA
:101BE0004037BD46B0BD00BF182D4454FB2109400D
:101BF0009A9999999999D93F676666660000B443A6
:101C000080B483B000AF78607B6803F5A0431A46C8
:101C10000023C2F8A0307B6803F5A0431A464FF0BA
:101C2000FF33C2F8A4307B6803F5A0431A460023B3
:101C3000C2F8A8307B6803F5A0431A460023C2F817
:101C4000AC3000BF0C37BD465DF8047B704780B4F4
:101C500083B000AF78607B6803F5A043D3F8A83069
:101C6000282B0CBF01230023DBB218460C37BD46DE
:101C70005DF8047B704780B483B000AF78607B6808
:101C800003F5A043D3F8A830002B0CBF0123002399
:101C9000DBB218460C37BD465DF8047B7047000088
:101CA00080B582B000AF78607868FFF7E4FF034644
:101CB00083F00103DBB2002B20D07B6803F5A04347
:101CC000D3F8A030591C0F4B83FB01231A11CB17FB
:101CD000D21A13469B001344DB00CA1A7B6803F533
:101CE000A043C3F8A0207B6803F5A043D3F8A83035
:101CF000013B7A6802F5A042C2F8A83000BF08375D
:101D0000BD4680BD6766666684B080B582B000AFB0
:101D1000786007F1140080E80E007868FFF797FFFD
:101D20000346002B02D07868FFF7BAFF7B6803F503
:101D3000A043D3F8A430591C1D4B83FB01231A1177
:101D4000CB17D21A13469B001344DB00CA1A7B68D8
:101D500003F5A043C3F8A4207B6803F5A043D3F8A0
:101D6000A42079681346DB0113449B000B441846FA
:101D700007F114034FF40172194613F070F87B68F1
:101D800003F5A043D3F8A83001337A6802F5A042E6
:101D9000C2F8A8307868FFF717FC7868FFF7ACFD49
:101DA00000BF0837BD46BDE8804004B0704700BFA3
:101DB0006766666680B584B000AF7860134812F03D
:101DC00081FE0023FB6016E00023BB600DE0FB6892
:101DD0005B017A681344BA6853F8223019460C48FC
:101DE00012F070FEBB680133BB60BB68072BEEDDF1
:101DF000FB680133FB60FB68072BE5DD0A2012F06E
:101E000073FE00BF1037BD4680BD00BFC46E010821
:101E1000D06E010884B02DE9F04F93B008AF07F100
:101E2000500484E80F00D7F84862D7F84C321846BF
:101E3000FEF772FB04460D46D7F850321846FEF7FF
:101E40006BFB02460B46CDE9002322462B4631466A
:101E50003E4812F037FE00237B626AE07A6A13463E
:101E60005B001344DB00483307F108029A1807F1BE
:101E70000C0392E8030083E803007A6A13465B00D0
:101E80001344DB00483307F10802134408331B688E
:101E90003B627A6A13465B001344DB00483307F168
:101EA000080213440C331B68FB617A6A13465B001B
:101EB0001344DB00483307F10802134414331B6852
:101EC000BB617A6A13465B001344DB00483307F1B9
:101ED0000802134410331B687B61FB681846FEF749
:101EE0001BFBC7E900013B691846FEF715FB0446DA
:101EF0000D46386AFEF710FB80468946B869FEF742
:101F00000BFB82468B467869FEF706FB02460B46C2
:101F1000CDE90623CDE904ABCDE90289CDE9004541
:101F2000D7E90023F9690A4812F0CCFD7B6A013336
:101F30007B62D7F848327A6A9A428FDB00BF00BFD3
:101F40002C37BD46BDE8F04F04B07047A46F0108C0
:101F5000C06F010880B487B000AFF860B9607A60E4
:101F600000237B6121E000233B6118E07B695B017A
:101F7000BA6813443A6953F822107B695B017A68A6
:101F800013443A6953F822207B695B01F8680344E3
:101F9000891A3A6943F822103B6901333B613B6976
:101FA000072BE3DD7B6901337B617B69072BDADD7E
:101FB00000BF00BF1C37BD465DF8047B70470000C2
:101FC00080B483B000AF7860064BD3F89020054909
:101FD0007B681343C1F8903000BF0C37BD465DF8F5
:101FE000047B70470008005880B485B000AF78606B
:101FF0004FF0B043DA6C4FF0B0417B681343CB64D1
:102000004FF0B043DA6C7B681340FB60FB6800BFA5
:102010001437BD465DF8047B704780B485B000AFCF
:1020200078604FF0B043D3F84C214FF0B0417B685B
:102030001343C1F84C314FF0B043D3F84C217B68C7
:102040001340FB60FB6800BF1437BD465DF8047B9E
:10205000704780B500AF08F0F7FC08F0FBFC4FF4C8
:102060008030FFF7ADFF0FF0A5FF00F021F800F082
:10207000C1F800BF80BD0000B0B588B000AF0B4B09
:102080003C1D1D460FCD0FC495E8070003C42280F8
:102090000234130C237011F0E1FC3B1D184610F0C4
:1020A00032FB00BF2037BD46B0BD00BFE86F01085E
:1020B00080B588B000AF3B1D00221A605A609A605C
:1020C000DA601A610023BB8300237B8300233B83F8
:1020D0000023FB7736E0FB7F434ADB0013449B7908
:1020E000002B2CD0FB7F404A52F833303F4A9342BA
:1020F0001BD03E4A934221D8B3F1904F03D03C4AC3
:10210000934209D01AE0FB7F374ADB0013449A88D8
:10211000BB8B1343BB8312E0FB7F334ADB001344CA
:102120009A887B8B13437B8309E0FB7F2E4ADB007D
:1021300013449A883B8B13433B8300E000BFFB7F33
:102140000133FB77FB7F252BC5D90023FB600123DF
:10215000BB6003233B61BB8B002B14D0BB8B7B602C
:102160000120FFF741FF0120FFF757FF3B1D1946F4
:102170004FF0904009F0A2F9BB8B002219464FF0B6
:10218000904009F001FC7B8B002B12D07B8B7B6095
:102190000220FFF729FF0220FFF73FFF3B1D1946F2
:1021A000134809F08BF97B8B00221946104809F07F
:1021B000EBFB3B8B002B13D03B8B7B600420FFF7AA
:1021C00013FF0420FFF729FF3B1D1946074809F0BC
:1021D00075F93B8B00221946044809F0D5FB00BF76
:1021E00000BF2037BD4680BD808701080008004839
:1021F0000004004880B400AF00BFBD465DF8047B1A
:10220000704780B500AF02F07FF800BF80BD80B599
:1022100084B000AFF8600B467A607B817A897B6876
:10222000F968002001F0C0FE00BF1037BD4680BD38
:1022300080B483B000AF7860074BD3F8803023F0D0
:10224000070205497B681343C1F8803000BF0C3793
:10225000BD465DF8047B70470004005880B483B02D
:1022600000AF7860064BD3F8902005497B68134394
:10227000C1F8903000BF0C37BD465DF8047B704755
:102280000008005880B483B000AF78604FF0B043CE
:102290000A4AC3F89C204FF0B043D3F89C3023F493
:1022A0007C527B681B024FF0B0411343C1F89C3055
:1022B00000BF0C37BD465DF8047B7047FECAFECAFE
:1022C00080B483B000AF78604FF0B0439B6823F4D4
:1022D00000424FF0B0417B6813438B6000BF0C3766
:1022E000BD465DF8047B704780B400AF4FF0B0434B
:1022F000D3F890304FF0B04243F48033C2F89030BE
:1023000000BFBD465DF8047B704780B400AF4FF05E
:10231000B043D3F890304FF0B04223F48033C2F88A
:10232000903000BFBD465DF8047B704780B400AFBD
:102330004FF0B043D3F8943003F08063B3F1806F73
:1023400001D1012300E000231846BD465DF8047B5F
:10235000704780B400AF4FF0B043D3F8943003F02F
:102360008053B3F1805F01D1012300E000231846C0
:10237000BD465DF8047B704780B485B000AF7860DF
:102380004FF0B0431A6D4FF0B0417B6813430B65BB
:102390004FF0B0431A6D7B681340FB60FB6800BFD1
:1023A0001437BD465DF8047B7047000080B400AF71
:1023B000044B1B68C3F30B031846BD465DF8047B52
:1023C000704700BF002004E080B400AF044B1B68DE
:1023D0001B0C9BB21846BD465DF8047B704700BFDE
:1023E000002004E080B483B000AF786039607B687F
:1023F0005A683B681B041A437B685A6000BF0C375D
:10240000BD465DF8047B704780B483B000AF786050
:1024100039607B685A683B681A437B685A6000BF22
:102420000C37BD465DF8047B704780B483B000AFC5
:10243000786039607B685A693B681B041A437B6883
:102440005A6100BF0C37BD465DF8047B704780B40D
:1024500083B000AF786039607B685A693B681A4383
:102460007B685A6100BF0C37BD465DF8047B70473E
:1024700080B483B000AF786039607B683A689A6056
:1024800000BF0C37BD465DF8047B704780B483B055
:1024900000AF786039607B683A689A6100BF0C379A
:1024A000BD465DF8047B704780B400AF054B1B69E7
:1024B000044A23F00403136100BFBD465DF8047BAA
:1024C000704700BF00ED00E080B483B000AF7860DB
:1024D0007B68FF225A6200BF0C37BD465DF8047B63
:1024E000704780B483B000AF78607B68CA225A62BC
:1024F0007B6853225A6200BF0C37BD465DF8047BEF
:10250000704780B483B000AF786039607B689B68A7
:1025100023F007023B681A437B689A6000BF0C37C0
:10252000BD465DF8047B704780B500AF044B4FF4A7
:1025300000421A6100F02EF800F06EF800BF80BD76
:102540000040005880B500AF00F07AF800F092F833
:102550000849002001F082FAFFF77BFD01210120EC
:1025600011F01AFB00F0E8F900F09EFA00F090F884
:1025700000BF80BDB811002080B400AF00BFBD46D1
:102580005DF8047B704780B500AF5020FFF766FE12
:1025900000BF80BD80B500AF00F004F800F01AF86D
:1025A00000BF80BD80B500AFFFF7C0FE0346002B23
:1025B0000DD0FFF7CEFE0346002B08D10AF042F9FA
:1025C0000AF040F9FFF790FEFFF79FFE00BF00BF43
:1025D00080BD000080B500AF4FF48010FFF7CCFE47
:1025E0003F210C48FFF744FF3F210A48FFF74EFF09
:1025F0003F210848FFF7F6FE3F210648FFF715FF89
:102600003F210448FFF700FF3F210248FFF71FFF6B
:1026100000BF80BD000C005880B582B000AF002024
:102620000FF002FF78607B68002B05D07B689B79F8
:102630001846FFF727FE00BF00BF0837BD4680BD24
:1026400080B500AFFFF798FFFFF79DFF00F002F89D
:1026500000BF80BD80B500AF0548FFF742FF0021F5
:102660000348FFF74EFF0248FFF72EFF00BF80BD73
:102670000028004080B500AF4FF40040FFF720FE77
:1026800011F078FA0420FFF7D3FD00BF80BD0000F1
:1026900080B588B000AF11F02BF8114A00214FF43B
:1026A000007011F0A5FB0F4B3B600F4B7B603B466E
:1026B00019460E4810F002F90D4BBB600D4BFB6044
:1026C0000D4B3B6140F23C537B6107F10803184618
:1026D00011F050F911F006F800BF2037BD4680BD5B
:1026E000F528010834070320FD26000815270008F7
:1026F0004C09032040080320F801032080B483B074
:1027000000AF0346FB7100BF0C37BD465DF8047B8C
:102710007047000080B588B000AF78607B685B6868
:102720000B33FB61FB691B889BB2A3F51243072B9C
:1027300060D801A252F823F0592700089B2700080F
:10274000A9270008F5270008C5270008D527000895
:10275000DD270008ED27000807F10C0318460FF0ED
:10276000FFFF3B7B19467B7B1A46BB7B244812F05C
:10277000A9F93B7C1946234812F0A4F9BB7D194600
:10278000FB7D1A463B7E204812F09CF91F4812F050
:1027900099F9786800F070F82DE01D4812F092F970
:1027A000786800F043F826E01A4812F0F9F9FB695E
:1027B00002331968FB6902335B681A46164812F047
:1027C00081F918E0FB6902331B681946134812F0BF
:1027D00079F910E0124812F075F90CE0FB69023348
:1027E0001B6819460F4812F06DF904E00E4812F00C
:1027F00069F900E000BF00BF2037BD4680BD00BFC3
:102800000470010828700108447001085C70010818
:102810007C700108A0700108F070010818710108AF
:102820005471010878710108B471010880B584B051
:1028300000AF78607B685B680B33FB60FB6802333A
:10284000BB60BB681B781946084812F03BF9BB68AF
:102850001B78002B03D1064812F0A2F903E00548CB
:1028600012F09EF900BF1037BD4680BDD871010837
:10287000087201084472010880B58AB000AF786020
:1028800007F1080300221A605A609A60DA60002398
:102890007B6200233B627B685B680B33FB61FB69F7
:1028A0000233BB61BB691B78002B28D11D4812F095
:1028B00077F9FFF7E1FB0F233B727F23BB72FFF732
:1028C00083FD7862796A184812F0FCF87B6A9BB243
:1028D000BB82FFF76BFD3862396A144812F0F2F8D8
:1028E0003B6A9BB2FB8207F1080318460FF022FFF8
:1028F00002F078FB0021012011F04EF90EE0BB69D7
:102900001B78012B06D10A4812F0DCF87B68002204
:102910001A7003E0074812F0D5F800BF2837BD460B
:1029200080BD00BF7C72010898720108BC7201086A
:10293000DC7201081073010880B500AF002004F0BC
:10294000C1F9012004F0BEF9022004F0BBF9002017
:1029500004F0F4F9012004F0F1F900BF80BD80B566
:1029600084B000AF786008F04BF8B8607B68FB601B
:10297000FB68B3F1FF3F0AD008F05AF803461A4645
:10298000FB681344FB6002E0FFF78EFD30BF08F0E8
:1029900037F80246BB68D31AFA689A42F4D800BFE7
:1029A00000BF1037BD4680BD80B500AF4FF0FF308F
:1029B00011F022F900BF80BD80B400AF00BFBD465A
:1029C0005DF8047B704780B582B000AF78603960F5
:1029D0004FF0FF3011F010F900BF0837BD4680BD41
:1029E00080B582B000AF786000214FF4007011F024
:1029F00021FA00BF0837BD4680BD80B582B000AF68
:102A00007860022011F082FA00BF0837BD4680BD11
:102A100080B582B000AF7860022011F097FA00BF55
:102A20000837BD4680BD000080B582B000AF0346C8
:102A3000FB80FB88013B0F2B30D801A252F823F01A
:102A4000872A00088D2A00089D2A0008932A00087A
:102A50009D2A00089D2A00089D2A00089D2A00083A
:102A60009D2A00089D2A00089D2A00089D2A00082A
:102A70009D2A00089D2A00089D2A0008812A000836
:102A800002F0B8FD0BE002F0BDFD08E002F0C2FD6F
:102A900005E00021402011F0CDF900E000BF00BFAB
:102AA0000837BD4680BD00BF80B500AF034B012293
:102AB0000349002001F03EFA00BF80BDC52A00088E
:102AC000B003002080B500AF154B1B88FF2B1ED82C
:102AD000144B1B780D2B0FD11349144811F0F2FF42
:102AE00000F028F80E4B00221A804FF4807200216B
:102AF0000D4812F035F90AE0094B1B885A1C91B2B7
:102B0000074A11801A46074B1978074B9954084B0E
:102B100001220449002001F00DFA00BF80BD00BF72
:102B2000B8040020B0030020B8030020447301085B
:102B3000C52A000880B500AF1C491D48FDF720FBE1
:102B40000346002B09D11B4812F02AF81A4B1B4AE6
:102B50001A60194808F090FC26E019491448FDF75E
:102B60000FFB0346002B0AD1164812F019F8124B3E
:102B70004FF0B0521A60104808F07EFC14E0124981
:102B80000B48FDF7FDFA0346002B09D10F4812F060
:102B900007F8094B0E4A1A60074808F06DFC03E07D
:102BA00003490C4811F08EFF00BF80BD547301082B
:102BB000B803002058730108A80300200400001681
:102BC00060730108647301086C7301087073010875
:102BD000010000167873010880B582B000AF00F0E4
:102BE00035F83B1D1946002000F092F90D490020F0
:102BF00000F0B8F90C4B03221A600B4B05225A6007
:102C0000094B1E229A60084B0022DA60064B002214
:102C10001A610549002000F0CFF900BF0837BD4612
:102C200080BD00BFBC040020CC04002080B500AFF4
:102C30000121002000F014FA00BF80BD80B500AF74
:102C4000002000F039FA00BF80BD000080B500AF61
:102C5000002000F037F90346044A1360034B1B6859
:102C6000002B00D0FEE700BF80BD00BFE0040020C5
:102C700080B485B000AF786039600023FB731EE03C
:102C80000023BB7315E0FB7BDA00BB7B1A44796839
:102C900013469B0013449B000B4408331968FB7BCD
:102CA0005B013A681344BA7B43F82210BB7B0133C3
:102CB000BB73BB7B072BE6D9FB7B0133FB73FB7B31
:102CC000072BDDD900BF1437BD465DF8047B704784
:102CD00080B584B000AF7860714B1B68042B03D0C3
:102CE0006F4B1B68032B01D1082300E00423FB7208
:102CF0006C4811F0E7FE0023BB73B0E00023FB73C8
:102D000008E0694811F0DEFE97F90F30DBB20133BD
:102D1000DBB2FB7397F90F20FB7A9A42F1DB614833
:102D200011F0D0FE00233B738FE0FB7A013BDBB256
:102D30007B737CE097F90E2097F90D301A4479687F
:102D400013469B0013449B000B4404331B68002B69
:102D500045D097F90E2097F90D301A4497F90C00D9
:102D6000796813469B00134403449B000B449B6803
:102D7000B3F5FA7F19DA97F90E2097F90D301A4456
:102D800097F90C00796813469B00134403449B0099
:102D90000B449B68194697F90E2097F90D301344A0
:102DA0001A46424811F08EFE23E097F90E2097F95B
:102DB0000D301A4497F90C00796813469B001344B0
:102DC00003449B000B449B68194697F90E2097F922
:102DD0000D3013441A46364811F074FE09E097F995
:102DE0000E2097F90D3013441A463249324811F03B
:102DF00069FE97F90E2097F90D301A4497F90C00E7
:102E0000796813469B00134403449B000B44996864
:102E100097F90E2097F90D30134489B2274A22F80A
:102E2000131097F90D30DBB2013BDBB27B7397F9DE
:102E30000D30002BBFF67EAF214811F043FE97F90D
:102E40000C30DBB20133DBB23B7397F90C30002B53
:102E50003FF46BAFBA7BFB7A1344DBB2BB7397F9D9
:102E60000E207B681B689A42FFF448AF0023FB7377
:102E700008E00D4811F026FE97F90F30DBB2013360
:102E8000DBB2FB7397F90F20FB7A9A42F1DB05481E
:102E900011F018FE094B18461037BD4680BD00BF23
:102EA000CC040020987301089C730108A8730108E2
:102EB000C4730108E0730108E4730108E40400200E
:102EC000EC73010880B584B000AF78607B68002B9C
:102ED00003D06FF00103FB6015E000F095F97B680B
:102EE000002B0CD1786800F00FF90346002B03D0BB
:102EF0004FF0FF33FB6006E00023FB6003E06FF060
:102F00000603FB6000BFFB6818461037BD4680BD56
:102F100080B584B000AF786039607B68002B03D047
:102F20006FF00103FB6014E00C4A7B6852F8233019
:102F30009B680B497A6851F82220396810469847F7
:102F40000346002B03DA6FF00403FB6001E000236B
:102F5000FB60FB6818461037BD4680BD6805002041
:102F60006405002080B584B000AF786039607B686C
:102F7000002B03D06FF00103FB6014E00C4A7B6868
:102F800052F82330DB680B497A6851F822203968FF
:102F9000104698470346002B03DA6FF00403FB60EA
:102FA00001E00023FB60FB6818461037BD4680BD7A
:102FB000680500206405002080B584B000AF78600B
:102FC00039607B68002B03D06FF00103FB6014E0D5
:102FD0000C4A7B6852F823301B690B497A6851F818
:102FE00022203968104698470346002B03DA6FF019
:102FF0000403FB6001E00023FB60FB681846103708
:10300000BD4680BD680500206405002080B584B001
:1030100000AF786039607B68002B03D06FF001034C
:10302000FB6014E00C4A7B6852F82330DB690B49E3
:103030007A6851F822203968104698470346002BD9
:1030400003DA6FF00403FB6001E00023FB60FB6820
:1030500018461037BD4680BD680500206405002075
:1030600080B584B000AF78600B46FB707B68002BA6
:1030700003D06FF00103FB6014E00D4A7B6852F847
:1030800023301B6A0B497A6851F82220F9781046E0
:1030900098470346002B03DA6FF00403FB6001E05E
:1030A0000023FB60FB6818461037BD4680BD00BF9B
:1030B000680500206405002080B584B000AF78600A
:1030C0007B68002B03D06FF00103FB6013E00C4A18
:1030D0007B6852F823305B6A0A497A6851F82220EB
:1030E000104698470346002B03DA6FF00403FB6099
:1030F00001E00023FB60FB6818461037BD4680BD29
:10310000680500206405002080B58AB000AF7860B3
:103110005223BB82324BFB60324B3B61324BBB6173
:10312000324BFB61324B3B6207F10C0319463148CD
:1031300006F055FE0346002B03D06FF004037B62BC
:1031400049E02D4A7B682D4942F823102C4A7B68C0
:10315000284942F8231007F108031946254806F0CC
:10316000EEFE0346002B03D06FF004037B6232E0D7
:10317000BB684FF20C02934203D06FF006037B62F0
:1031800029E01D4A7B6852F823301B681C497A6885
:1031900051F82220104698470346002B03D06FF0C9
:1031A00004037B6217E0144A7B6852F82330DB6823
:1031B00013497A6851F822007A68120111490A44C9
:1031C000114698470346002B03D06FF004037B623F
:1031D00001E000237B627B6A18462837BD4680BD2C
:1031E000954A0008114B0008294C00088D4C000836
:1031F000F14C00087C050020680500203C00002000
:10320000640500206C05002080B500AF002220215D
:103210004FF0904008F0B8FB0220FFF7A0FB01221E
:1032200020214FF0904008F0AFFB0220FFF797FB02
:1032300000BF80BD80B483B000AF7860064BD3F888
:10324000802005497B681343C1F8803000BF0C37EC
:10325000BD465DF8047B70470008005880B483B019
:1032600000AF7860054B1A6804497B6813430B6014
:1032700000BF0C37BD465DF8047B7047000800585E
:1032800080B483B000AF0D4B9B6A9BB27B600B4B4D
:103290009B6A9BB23B6005E03B687B60074B9B6A87
:1032A0009BB23B607A683B689A42F5D13B6818460E
:1032B0000C37BD465DF8047B704700BF0028004016
:1032C00080B485B000AF03460A46FB711346BB715C
:1032D000BA791D4913465B001344DB000B441533D8
:1032E0001B78FB73FB7B062B09D0FA7B1649134630
:1032F0005B001344DB000B441433FA791A70FA793B
:10330000114913465B001344DB000B441533FA7B71
:103310001A70FA790C4913465B001344DB000B4426
:103320001433BA791A70BA79074913465B0013440B
:10333000DB000B441533FA791A7000BF1437BD4611
:103340005DF8047B704700BFD00E002080B485B0CC
:1033500000AF03460A46FB711346BB71294B1B782D
:10336000DBB2BA799A4232D0BA79274913465B0068
:103370001344DB000B4414331B78FB73FA7B2249A4
:1033800013465B001344DB000B441533FA791A70C3
:10339000FA791D4913465B001344DB000B441533D7
:1033A000BA791A70FA79184913465B001344DB00A6
:1033B0000B441433FA7B1A70BA79134913465B0035
:1033C0001344DB000B441433FA791A7014E0FA79D1
:1033D0000D4913465B001344DB000B441533BA79E7
:1033E0001A70BA79084913465B001344DB000B449A
:1033F0001433FA791A7000BF1437BD465DF8047BA8
:10340000704700BF600F0020D00E002080B584B050
:1034100000AF0346FB714E4B1B78DBB2062B18D175
:103420004B4B1B78DAB24B4B1A70494AFB7913703D
:10343000FA79494913465B001344DB000B4415330A
:1034400006221A70454B4FF0FF321A600023FB81B1
:1034500078E000F009F90346FB81FA793E4913460A
:103460005B001344DB000B4408331968FB89FA79CD
:103470001944394813465B001344DB000344083306
:103480001960FA79344913465B001344DB000B449E
:1034900008331B68BB602E4B1B78DBB219462E4AE3
:1034A0000B465B000B44DB00134408331B68BA680F
:1034B0009A4237D3264B1B787B737A7B2649134677
:1034C0005B001344DB000B4415331B783B7313E0A4
:1034D0007A7B214913465B001344DB000B44153310
:1034E0001B787B737A7B1C4913465B001344DB001B
:1034F0000B4415331B783B733B7B062B0BD03A7B7D
:10350000154913465B001344DB000B4408331B686A
:10351000BA689A42DCD27A7BFB7911461846FFF7EB
:10352000CFFE0FE00A4B1B78DAB2FB791146184642
:10353000FFF70CFF064B1B78DAB2064B1A70044AF1
:10354000FB791370FB8918461037BD4680BD00BF5C
:10355000600F0020610F0020D00E0020640F0020BB
:1035600080B485B000AF03460A46FB711346BB71B9
:10357000394B1B78DBB2FA799A4211D1364B1B7862
:10358000DAB2364B1A70FA79354913465B001344A8
:10359000DB000B4415331B78DAB22F4B1A703EE078
:1035A000FA792F4913465B001344DB000B441433B4
:1035B0001B78FB73FA792A4913465B001344DB003E
:1035C0000B4415331B78BB73F979FA7B24480B46FF
:1035D0005B000B44DB00034415331B78D8B2204951
:1035E00013465B001344DB000B44153302461A708C
:1035F000BB7B062B13D0F979BA7B19480B465B00CD
:103600000B44DB00034414331B78D8B2144913462F
:103610005B001344DB000B44143302461A70FA7942
:103620000F4913465B001344DB000B440C330122AB
:103630001A70094B1B78DBB2062B07D1BB79002B24
:1036400004D1084B4FF0FF321A6000BF00BF14379F
:10365000BD465DF8047B7047600F0020610F0020BD
:10366000D00E0020640F002080B582B000AF1A4B4E
:103670001B68B3F1FF3F26D0FFF702FE7860164BC0
:103680001B687A689A4205D8134B1A687B68D31A6C
:103690007B600AE0114B1B881A467B68D31A3B609B
:1036A0000D4B1B683A6813447B600D4B1B781A4620
:1036B0007B6802FB03F37B600A4B1B781A467B682E
:1036C000D3407B6001E000237B607B689BB218469F
:1036D0000837BD4680BD00BF640F00206C0F00207E
:1036E0006A0F0020690F002080B582B000AF03464A
:1036F000FB80FB88002B08D1FFF7C2FD0346214A5F
:103700001360032007F029FB39E0FB88012B03D865
:103710001D4B1B78012B02D0FB88013BFB8000BFB7
:103720001A4B1B68DB6803F00403002BF8D0174B1F
:103730001B68DB68DAB2154B1B6862F49062DA60D2
:10374000134B4FF40022DA60032007F014FB114BF7
:103750005B691B0C1B04FA880E4913434B61FFF78E
:103760008FFD0346074A1360084B1B689A68074B96
:103770001B6842F480629A60AFF3008000BF083794
:10378000BD4680BD640F0020690F0020B8110020E5
:10379000000800580028004080B584B000AF454BB9
:1037A0009B6803F48063B3F5806F07D100BF424B81
:1037B0001B68DB6803F00403002BF8D13E4B1B6849
:1037C0009A683D4B1B6822F480629A603B4B1B78E1
:1037D000FB73FA7B3A4913465B001344DB000B444E
:1037E00008331B68BB60FFF73FFF0346FB80FB8885
:1037F000BA689A4205D20023BB81324B01221A706B
:103800004DE0FB88304A128892B213441A46BB68D6
:10381000934206D92C4B1B88BB812A4B00221A707D
:103820003DE0BB689AB2FB88D31ABB81254B0122CD
:103830001A7034E0FA7B224913465B001344DB0024
:103840000B4408331A68FB889A420AD2FA7B1C4957
:1038500013465B001344DB000B44083300221A605C
:1038600013E0FA7B164913465B001344DB000B445C
:1038700008331968FB88FA7BC91A114813465B00A4
:103880001344DB00034408331960FA7B0C491346E8
:103890005B001344DB000B4415331B78FB73FB7B8D
:1038A000062BC7D1BB891846FFF71EFF00BF103794
:1038B000BD4680BD00280040B8110020600F0020E8
:1038C000D00E0020680F00206E0F002080B58AB057
:1038D00000AFEFF310837B617B697B6272B600BF40
:1038E000594B1B68CA225A62574B1B6853225A62B3
:1038F000554B1B689A68544B1B6822F480629A608F
:10390000524B1B7887F8233097F8232050491346F1
:103910005B001344DB000B440C331B78DBB2022B3F
:103920006ED197F823204A4913465B001344DB000D
:103930000B441B68FB6197F82320454913465B0045
:103940001344DB000B4410331B68BB61414B1B78F5
:10395000DBB2002B4CD097F823203D4913465B0087
:103960001344DB000B440D331B78DBB2012B24D155
:1039700097F8233001211846FFF7F2FD7B6A3B617F
:103980003B6983F3108800BF97F823203049134622
:103990005B001344DB000B4404331A6897F82330B0
:1039A0001146184600F032FA274B1B68CA225A62A9
:1039B000254B1B6853225A6212E07B6AFB60FB684E
:1039C00083F3108800BF97F82330184600F09AF967
:1039D0001D4B1B68CA225A621B4B1B6853225A623A
:1039E00097F82330FA691946B86900F095FA22E091
:1039F000FFF7D2FE7B6ABB60BB6883F310881AE0D6
:103A000000BF114B1B68DB6803F00403002BF8D0E8
:103A10000D4B1B68DB68DAB20B4B1B6862F49062DB
:103A2000DA600D4B4FF40022DA607B6A7B607B68C2
:103A300083F3108800BF044B1B68FF225A6200BF4B
:103A40002837BD4680BD00BFB8110020600F0020A0
:103A5000D00E0020680F00200008005880B588B004
:103A600000AF03463960FB715E4B1B68CA225A6285
:103A70005C4B1B6853225A625B4B9B685A4A43F06B
:103A800020039360584B9B68DBB203F00703DBB263
:103A9000C3F10403DAB2554B1A70534B1B6903F49C
:103AA000FE034FF4FE023A613A6992FAA2F2FA601A
:103AB000FA687A617A69002A01D1202203E07A69E2
:103AC000B2FA82F2D2B2D340DBB20133DAB2484B5F
:103AD0001A70454B1B699BB2C3F30E039BB20133B3
:103AE0009AB2444B1A80434B1B88013B404A1278E0
:103AF00002FB03F3A3F5A0733C4A1278D340BB61E9
:103B0000BB694FF6FE72934204D93B4B4FF6FF72EE
:103B10001A8003E0BB699AB2374B1A804FF4002039
:103B2000FFF79CFB4FF40020FFF784FBFB79002B91
:103B30003DD1324B01221A70314B4FF0FF321A60E7
:103B40000023FB770CE0FA7F2E4913465B001344F9
:103B5000DB000B440C3300221A70FB7F0133FB7730
:103B6000FB7F052BEFD9284B06221A701D4B1B68D3
:103B70009A681C4B1B6822F480629A60194B1B6880
:103B8000DB68DAB2174B1B6862F49062DA601F4B95
:103B90004FF40022DA60032007F0EDF8114B1B68A8
:103BA0009A68104B1B6842F480429A6009E00D4B02
:103BB0001B68DB6803F48063002B02D0032007F04E
:103BC000CCF8084B1B68FF225A6200220321032015
:103BD00007F081F8032007F098F800BF2037BD46B2
:103BE00080BD00BFB811002000280040690F0020F0
:103BF0006A0F00206C0F00206E0F0020680F00205D
:103C0000640F0020D00E0020600F00200008005834
:103C100080B48BB000AFF860B9603B601346FB71B5
:103C2000002387F82630EFF31083FB61FB693B62CA
:103C300072B600BF04E097F82630013387F82630CB
:103C400097F82630052B0CD897F826202C491346D8
:103C50005B001344DB000B440C331B78DBB2002BFE
:103C6000E9D197F82630062B38D097F8262024493A
:103C700013465B001344DB000B440C3301221A7023
:103C80003B6ABB61BB6983F3108800BF97F82620AD
:103C90001B4913465B001344DB000B441033FA68E6
:103CA0001A6097F82620164913465B001344DB0080
:103CB0000B440D33FA791A7097F8262010491346F1
:103CC0005B001344DB000B443A681A60BB6897F84A
:103CD00026201A70002387F8273008E03B6A7B61B2
:103CE0007B6983F3108800BF012387F8273097F89A
:103CF000273018462C37BD465DF8047B704700BF5F
:103D0000D00E002080B586B000AF0346FB71EFF304
:103D10001083FB60FB687B6172B600BF032007F075
:103D200002F8344B1B68CA225A62324B1B6853227A
:103D30005A62FA79304913465B001344DB000B44A6
:103D40000C331B78DBB2022B42D1FB7900211846E1
:103D5000FFF706FC294B1B78FB74FB7C062B2FD14D
:103D6000274B9B6803F48063B3F5806F07D100BFD6
:103D7000204B1B68DB6803F00403002BF8D11D4BBC
:103D80001B689A681B4B1B6822F480629A6000BF14
:103D9000184B1B68DB6803F00403002BF8D0154BAD
:103DA0001B68DB68DAB2134B1B6862F49062DA605E
:103DB000144B4FF40022DA60032006F0DCFF07E02A
:103DC000114B1B78DBB2FA7C9A4201D0FFF7E4FC7E
:103DD000084B1B68FF225A62032006F096FF7B699E
:103DE000BB60BB6883F3108800BF00BF1837BD46B7
:103DF00080BD00BFB8110020D00E0020600F002051
:103E00000028004000080058610F002080B586B0EF
:103E100000AF03463960FB71FA793B4913465B00FA
:103E20001344DB000B440C331B78DBB2022B03D1B1
:103E3000FB791846FFF766FFEFF31083FB60FB6822
:103E40007B6172B600BF032006F06DFF2F4B1B682D
:103E5000CA225A622D4B1B6853225A62FA792A49A8
:103E600013465B001344DB000B440C3302221A7030
:103E7000FA79254913465B001344DB000B440833F1
:103E80003A681A60FA79204913465B001344DB0054
:103E90000B4404333A681A60FB791846FFF7B6FA08
:103EA00003467B821A4B1B787B741A4B1B78DBB260
:103EB0007A7C9A4202D0FFF76FFC13E0FA7912493C
:103EC00013465B001344DB000B44083319687B8AFC
:103ED000FA79C91A0C4813465B001344DB0003440B
:103EE00008331960094B1B68FF225A62032006F051
:103EF0000CFF7B69BB60BB6883F3108800BF00BF09
:103F00001837BD4680BD00BFD00E0020B81100207C
:103F1000600F0020610F002080B584B000AFF86012
:103F20000B467A60FB727B68984700BF1037BD462E
:103F300080BD000080B584B000AFB9607B600346EF
:103F4000FB731346BB81FB7B002B02D0022B0DD0F1
:103F500019E00F4A7B6813600E4B0F4A1A60BB8949
:103F60001A46B9680B480AF0D1FC0CE00B4A7B6892
:103F700013600B4B0B4A1A60BB891A46B968084894
:103F80000AF0C4FC00BF00BF1037BD4680BD00BFB3
:103F9000700F00205010002000380140780F0020E2
:103FA000BC0F00200080004080B586B000AFB96033
:103FB0007B600346FB731346BB810023FB75002324
:103FC000BB75FB7B002B02D0022B0FD01DE01F4ADC
:103FD0007B6813601E4B1F4A1A60BB891A46B9687A
:103FE0001B480AF0DFFC0346FB750EE01A4A7B68AB
:103FF00013601A4B1A4A1A60BB891A46B9681748E7
:104000000AF0D0FC0346FB7500BFFB7D032B17D8DD
:1040100001A252F823F000BF294000082F400008F9
:10402000354000083B4000080023BB7509E0012330
:10403000BB7506E00223BB7503E00323BB7500E0FC
:1040400000BFBB7D18461837BD4680BD740F0020E9
:1040500050100020003801407C0F0020BC0F0020D1
:104060000080004080B582B000AF78607B681B683C
:104070000F4A93420AD00F4A93420FD10E4B1B684E
:10408000002B0DD00C4B1B68984709E00B4B1B68AD
:10409000002B07D0094B1B68984703E000BF02E0E4
:1040A00000BF00E000BF00BF0837BD4680BD00BFB5
:1040B0000080004000380140700F0020780F002081
:1040C00080B582B000AF78607B681B680F4A93426E
:1040D0000AD00F4A93420FD10E4B1B68002B0DD014
:1040E0000C4B1B68984709E00B4B1B68002B07D053
:1040F000094B1B68984703E000BF02E000BF00E0E7
:1041000000BF00BF0837BD4680BD00BF0080004033
:1041100000380140740F00207C0F002080B483B071
:1041200000AF78604FF0B043D3F8903023F018021E
:104130004FF0B0417B681343C1F8903000BF0C379B
:10414000BD465DF8047B704780B485B000AF7860F1
:104150004FF0B0439A6C4FF0B0417B6813438B64CF
:104160004FF0B0439A6C7B681340FB60FB6800BF64
:104170001437BD465DF8047B704780B485B000AF4E
:1041800078604FF0B043DA6C4FF0B0417B68134376
:10419000CB644FF0B043DA6C7B681340FB60FB6884
:1041A00000BF1437BD465DF8047B704780B500AF93
:1041B00006F0B8FBFEF7B8F900F014F800F070F85C
:1041C00000F08EF800F05DF900F03EF900F008F91B
:1041D00000F0F0F800F0E6F8FEF7B4F9FEF7E4FBC3
:1041E000FCE7000080B59AB000AF07F12003482239
:1041F0000021184610F0B4FD3B1D00221A605A60E1
:104200009A60DA601A615A619A6108F01BFB00201B
:10421000FFF784FF214B1B6823F4C0631F4A43F45C
:10422000007313601D4B1B6803F4C0633B603B6865
:1042300047233B624FF480337B620123BB624FF420
:104240008073FB620123BB6440233B630023FB6458
:1042500007F12003184608F089FE0346002B01D021
:1042600000F01CF96F237B600223BB600023FB601E
:1042700000233B6100237B610023BB610023FB61C2
:104280003B1D0121184609F0E5F90346002B01D03A
:1042900000F004F900BF6837BD4680BD0004005837
:1042A00080B594B000AF3B4650220021184610F074
:1042B00057FD4FF440533B604FF480437B6402232F
:1042C000BB641023FB643B46184609F000FE03461E
:1042D000002B01D000F0E2F800BF5037BD4680BD92
:1042E00080B500AF064B074A1A60054808F024FA6B
:1042F0000346002B01D000F0D1F800BF80BD00BF05
:10430000800F0020000C005880B500AF224B234ADC
:104310001A60214B224A5A601F4B00229A601E4BA2
:104320000022DA601C4B00221A611B4B0C225A61DE
:10433000194B00229A61184B4FF40042DA61164B78
:1043400000221A62144B00225A62134B00229A6216
:1043500011480AF08BFA0346002B01D000F09EF8BA
:1043600000210D480CF0DDFA0346002B01D000F0CF
:1043700095F8002108480CF012FB0346002B01D0F1
:1043800000F08CF804480CF093FA0346002B01D09F
:1043900000F084F800BF80BD5010002000380140BC
:1043A00040420F0080B400AF00BFBD465DF8047B03
:1043B0007047000080B500AF074B084A1A60064BF3
:1043C00000225A6004480AF009F80346002B01D085
:1043D00000F064F800BF80BDA41100200010005858
:1043E00080B500AF164B174A1A60154B00225A6071
:1043F000134B0F229A60124B47F6FF72DA60104B94
:1044000000221A610E4B00229A610D4B0022DA61E4
:104410000B4B00225A610A480AF016F80346002B9B
:1044200001D000F03BF80022002105480AF00CF909
:104430000346002B01D000F031F800BF80BD00BF63
:10444000B81100200028004080B500AF0420FFF71D
:104450007BFE0120FFF778FE0220FFF775FE0022A9
:104460000F210E2006F037FC0E2006F04EFC002235
:104470000F213A2006F02FFC3A2006F046FC00BF40
:1044800080BD80B500AF0420FFF777FE0120FFF765
:1044900074FE0220FFF771FE00BF80BD80B400AF44
:1044A00000BFBD465DF8047B704780B400AF4FF09D
:1044B000B043D3F890304FF0B04243F40043C2F819
:1044C000903000BFBD465DF8047B704780B485B076
:1044D00000AF78604FF0B043DA6C4FF0B0417B68CA
:1044E0001343CB644FF0B043DA6C7B681340FB603E
:1044F000FB6800BF1437BD465DF8047B704780B48D
:1045000085B000AF78604FF0B0431A6D4FF0B04106
:104510007B6813430B654FF0B0431A6D7B68134003
:10452000FB60FB6800BF1437BD465DF8047B704735
:1045300080B485B000AF78604FF0B0439A6D4FF013
:10454000B0417B6813438B654FF0B0439A6D7B6835
:104550001340FB60FB6800BF1437BD465DF8047B69
:10456000704780B485B000AF78604FF0B043DA6D2B
:104570004FF0B0417B681343CB654FF0B043DA6D29
:104580007B681340FB60FB6800BF1437BD465DF8D5
:10459000047B704780B485B000AF78604FF0B043C3
:1045A0001A6E4FF0B0417B6813430B664FF0B04377
:1045B0001A6E7B681340FB60FB6800BF1437BD4672
:1045C0005DF8047B704780B500AF4FF40020FFF723
:1045D00096FF002200212E2006F07DFB2E2006F003
:1045E00094FB00BF80BD000080B582B000AF786052
:1045F0007B681B680D4A934213D14FF48010FFF77C
:104600007EFF002200212C2006F065FB2C2006F006
:104610007CFB002200212D2006F05DFB2D2006F002
:1046200074FB00BF0837BD4680BD00BF000C0058BA
:1046300080B5A0B000AF786007F16C0300221A606B
:104640005A609A60DA601A6107F10C035022002167
:10465000184610F085FB7B681B68694A93426ED14F
:104660000223FB600023BB6207F10C03184609F02C
:104670002EFC0346002B01D0FFF710FF0120FFF7AF
:1046800070FF0120FFF722FF0C23FB6602233B672C
:1046900000237B670323BB670823FB6707F16C03D9
:1046A00019464FF0904006F009FF564B564A1A60E3
:1046B000544B11225A60534B10229A60514B0022E6
:1046C000DA60504B80221A614E4B00225A614D4BEA
:1046D00000229A614B4B0022DA614A4B00221A6297
:1046E000484806F057FB0346002B01D0FFF7D6FEE3
:1046F0004FF08853FB6500233B66002387F8643046
:10470000002387F865300123BB6607F15C03194677
:104710003C4806F071FE0346002B01D0FFF7BEFEB9
:104720007B68384ADA67374A7B6893620022002147
:10473000252006F0D0FA252006F0E7FA5BE07B683A
:104740001B68324A934256D10123FB6000237B62EF
:1047500007F10C03184609F0BAFB0346002B01D001
:10476000FFF79CFE4FF48040FFF714FF0220FFF795
:10477000ADFE4FF4C063FB6602233B6701237B67FA
:104780000323BB670723FB6707F16C031946204827
:1047900006F094FE1F4B204A1A601E4B0F225A60EF
:1047A0001C4B10229A601B4B0022DA60194B8022AE
:1047B0001A61184B00225A61164B00229A61154B60
:1047C0000022DA61134B00221A62124806F0E2FA64
:1047D0000346002B01D0FFF761FE7B680D4ADA67C4
:1047E0000C4A7B68936200220021242006F073FAB1
:1047F000242006F08AFA00BF8037BD4680BD00BF86
:1048000000800040E41000204400024000380140D5
:1048100000040048441100204404024080B596B0D2
:1048200000AF786007F1080350220021184610F00D
:1048300097FA7B681B680D4A934213D14FF40073BB
:10484000BB604FF080533B6407F10803184609F042
:104850003EFB0346002B01D0FFF720FE4FF48020E3
:10486000FFF74DFE00BF5837BD4680BD0010005811
:1048700080B596B000AF786007F1080350220021A0
:10488000184610F06DFA7B681B68144A934220D1D9
:104890004FF40063BB604FF48073BB6407F10803FF
:1048A000184609F014FB0346002B01D0FFF7F6FD74
:1048B000FFF7FBFD4FF48060FFF73AFE0022002176
:1048C000032006F008FA032006F01FFA786809F0C2
:1048D00077FF00BF5837BD4680BD00BF00280040AD
:1048E00080B400AF00BFBD465DF8047B704780B464
:1048F00000AFFEE780B400AFFEE780B400AFFEE794
:1049000080B400AFFEE780B400AF00BFBD465DF8E5
:10491000047B704780B400AF00BFBD465DF8047BE8
:10492000704780B400AF00BFBD465DF8047B7047A0
:1049300080B500AF06F050F800BF80BD80B500AF75
:10494000FEF7C4FF00BF80BD80B500AF024806F08F
:1049500002FC00BF80BD00BFE410002080B500AFA6
:1049600002480AF09FF800BF80BD00BF5010002031
:1049700080B500AF02480AF095F800BF80BD00BFC7
:10498000BC0F002080B500AF02F00EF800BF80BD64
:1049900080B500AF02F03EF800BF80BD80B500AF2B
:1049A00007F03CF800BF80BD80B500AF024806F0BC
:1049B000D2FB00BF80BD00BF4411002080B500AF16
:1049C000102007F013F800BF80BD80B500AF0120B4
:1049D00007F00CF800BF80BD80B500AF022007F0E3
:1049E00005F800BF80BD80B485B000AF78604FF09F
:1049F000B043DA6C4FF0B0417B681343CB644FF0A7
:104A0000B043DA6C7B681340FB60FB6800BF14376F
:104A1000BD465DF8047B704780B485B000AF786018
:104A20004FF0B0439A6D4FF0B0417B6813438B65F4
:104A30004FF0B0439A6D7B681340FB60FB6800BF8A
:104A40001437BD465DF8047B704780B483B000AF77
:104A500078604FF0B0439A6D7B68DB434FF0B04114
:104A600013408B6500BF0C37BD465DF8047B704773
:104A700080B483B000AF7860054B5A6804497B6806
:104A800013434B6000BF0C37BD465DF8047B704795
:104A90000000014080B582B000AF00237B60194B5D
:104AA000194A1A60194B1B685A1C18490A60002BD6
:104AB00022D1144807F0D6FA0346002B1CD1114826
:104AC00000F062F97B68002B16D10E4800F018F94F
:104AD0000346002B03D06FF007037B600CE000213E
:104AE000084807F091FD0346002B03D06FF0070341
:104AF0007B6001E000237B607B6818460837BD4679
:104B000080BD00BFDC1100200054004030120020A6
:104B100080B582B000AF00237B600F4B1B68002B79
:104B200014D00D4B1B68013B0B4A13600A4B1B68EA
:104B3000002B0BD1094800F071F9084807F021F863
:104B40000346002B02D06FF007037B607B6818469A
:104B50000837BD4680BD00BF30120020DC110020A8
:104B600080B58AB004AFBA601A460346FB810B4693
:104B7000BB811346FB8000237B61BA89F9894FF41E
:104B800080530293FB880193BB68009301230C4878
:104B900007F03AF80346002B0CD0094807F070FAEA
:104BA0000346042B03D16FF065037B6102E06FF0D5
:104BB00003037B617B6918461837BD4680BD00BF83
:104BC000DC11002080B58AB004AFBA601A460346F3
:104BD000FB810B46BB811346FB8000237B61BA89B6
:104BE000F9894FF480530293FB880193BB680093CB
:104BF00001230C4807F01CF90346002B0CD0094890
:104C000007F03EFA0346042B03D16FF065037B6186
:104C100002E06FF003037B617B6918461837BD46DD
:104C200080BD00BFDC11002080B58AB004AFBA603F
:104C30001A460346FB810B46BB811346FB800023CB
:104C40007B61BA89F9894FF480530293FB88019301
:104C5000BB68009302230C4806F0D6FF0346002BE6
:104C60000CD0094807F00CFA0346042B03D16FF06F
:104C700065037B6102E06FF003037B617B6918468B
:104C80001837BD4680BD00BFDC11002080B58AB05A
:104C900004AFBA601A460346FB810B46BB8113463C
:104CA000FB8000237B61BA89F9894FF4805302931A
:104CB000FB880193BB68009302230C4807F0B8F807
:104CC0000346002B0CD0094807F0DAF90346042B01
:104CD00003D06FF065037B6102E06FF003037B613B
:104CE0007B6918461837BD4680BD00BFDC11002027
:104CF00080B500AF05F084FE0346184680BD000075
:104D000080B584B000AF78600023FB737B681C4AD9
:104D10001A607B681B4A5A607B6800229A607B6835
:104D20000122DA607B6800221A617B6800225A61E6
:104D30007B6800229A617B680022DA617B6800222E
:104D40001A62786806F08EFE0346002B01D001231C
:104D5000FB730021786807F057FC0346002B01D055
:104D60000123FB730021786807F099FC0346002BB0
:104D700001D00123FB73FB7B18461037BD4680BD75
:104D8000005400401304100080B59CB000AF786060
:104D900007F10C035022002118460FF0E1FF042315
:104DA000FB604FF44033FB6207F10C03184609F037
:104DB0008EF80220FFF717FE4023FB6512233B66A7
:104DC00000237B660323BB660423FB6607F15C03B9
:104DD0001946114806F072FB8023FB6512233B66DF
:104DE00000237B660323BB660423FB6607F15C0399
:104DF0001946094806F062FB4FF48030FFF738FE91
:104E00004FF40030FFF734FE4FF40010FFF704FEBC
:104E100000BF7037BD4680BD0004004880B582B039
:104E200000AF78604FF40010FFF70FFE40210548F7
:104E300006F0B4FC8021034806F0B0FC00BF083740
:104E4000BD4680BD0004004880B400AF0123184671
:104E5000BD465DF8047B704780B582B000AF7860D6
:104E600039600FF0CFFF034616221A604FF0FF3370
:104E700018460837BD4680BD80B582B000AF786067
:104E80004FF0FF317868FFF7E7FFFEE780B586B0A7
:104E900000AFF860B9607A6000237B610AE0AFF38D
:104EA00000800146BB685A1CBA60CAB21A707B699E
:104EB00001337B617A697B689A42F0DB7B68184634
:104EC0001837BD4680BD80B483B000AF78604FF026
:104ED000FF3318460C37BD465DF8047B704780B43D
:104EE00083B000AF786039603B684FF400525A607D
:104EF000002318460C37BD465DF8047B704780B42C
:104F000083B000AF7860012318460C37BD465DF8CA
:104F1000047B704780B485B000AFF860B9607A60F8
:104F2000002318461437BD465DF8047B7047000027
:104F300080B586B000AF7860144A154BD31A7B61F8
:104F40007B693B61134B1B68002B02D1114B124A4A
:104F50001A60104B1A687B6813443A699A4207D268
:104F60000FF050FF03460C221A604FF0FF3309E0A8
:104F7000084B1B68FB60074B1A687B681344054AA3
:104F80001360FB6818461837BD4680BD000003203B
:104F900000100000341200205837002080B400AF09
:104FA000034B1B681846BD465DF8047B704700BF85
:104FB0008075FF1F80B400AF034B1B68DBB218463F
:104FC000BD465DF8047B70478475FF1F80B400AF59
:104FD000034B1B681B0A1846BD465DF8047B7047EF
:104FE0008475FF1FB0B590B000AF922387F83F30B3
:104FF0003F4B3C1D1D460FCD0FC40FCD0FC40FCD31
:105000000FC495E8070003C4228000F00BFB0121C8
:1050100002200EF0C1FD374A002104200EF0E8FE08
:105020003B1D18460DF058FB034687F83E3097F8B5
:105030003E30002B08D097F83E3019462E480FF02E
:1050400041FDFFF72BFA02E02C480FF03BFD00F08A
:10505000FFFA0EF0A1FA2A4B002283F88020284B99
:105060004FF6FF72DA82274A002101200EF0C0FEBF
:10507000254A002102200EF0BBFE06200CF04FFD59
:10508000034687F83F3097F83F30002B06D097F85B
:105090003F3019461D480FF015FD02E01C480FF087
:1050A00011FD1C4B00221A701B4B01221A7000F0DC
:1050B00023FF1A4B00221A490020FEF7A9FD194BC5
:1050C000002219490020FEF7A3FD0D4B00225A765D
:1050D0000B4B00221A76154B80221A80144BA0220B
:1050E0001A80012000F064FC00BF4037BD46B0BD0F
:1050F000CC740108E9200108F07301082874010844
:1051000040120020915B0008D15C00085074010837
:1051100094740108CC120020CD120020E95B000835
:10512000C1120020F95B0008C2120020C412002046
:10513000C6120020B0B590B004AF7860922387F813
:105140002F307B680133BB62BB6A1B78FF2B00F0FA
:105150002081FF2B00F31F82052B02D03E2B2ED087
:1051600019E2BB6A0233FB60FB68B3F801309AB204
:10517000B34BDB8A9A4214D1B14B0022DA82B04B96
:10518000002283F88020AF480FF00AFDFB68B3F8D7
:1051900001309BB21946FB68DB781A46AA480FF02B
:1051A00091FC012000F004FCA84B01221A70A44BD2
:1051B000DA8AA64B5A80A54800F08AFEEEE1BB6A67
:1051C0000233FB61FB691B780C2B33D00C2B00F3F3
:1051D000DE80012B6CD0032B40F0D980FB690133BA
:1051E0007B619B480FF0DCFC7B69B3F803309BB21A
:1051F0001846FBF77FF94FF00002964BFBF7E4F9F6
:1052000002460B46104619467B69B3F805309BB23F
:105210001C467B69B3F807309BB21A4613469B00C5
:1052200013445B000193009402460B468A480FF03A
:1052300049FCADE0FB690133BB6188480FF042FCDB
:10524000BB691B78002B03D185480FF0A9FC02E055
:1052500084480FF0A5FC7A4BDB8A07F10A0207F1BC
:105260000B0118460CF0D3FC034687F82F3097F853
:105270002F30002B03D07C480FF024FC88E07B48C3
:105280000FF08EFCFB7A022B0AD1BB7A022B07D1DE
:10529000FB7A1946BB7A1A4675480FF013FC77E083
:1052A000FB7A1946BB7A1A4671480FF00BFC6FE087
:1052B000FB6901333B61624B93F881301846FEF77E
:1052C00021FD3B69B3F801309BB2194669480FF0E4
:1052D000F9FB3B699B7A18463B695B7A1C463B6944
:1052E0001B7A1D463B69DB791A463B699B79194657
:1052F0003B695B790293019100922B46224601465D
:105300005D480FF0DFFB3B69B3F80B309BB21846EA
:10531000FBF7F0F84FF000024E4BFBF755F9024651
:105320000B46104619463B69B3F80D309BB21C463C
:105330003B69B3F80F309BB21A4613469B001344E7
:105340005B000193009402460B4643480FF0BAFB02
:105350003B4B93F88030042B04D1394B062283F861
:10536000802003E0364B052283F880203B69B3F8A8
:1053700001309AB2324BDA82344B00221A70304B31
:10538000DA8A324B5A80314800F0A2FD00E000BFBB
:1053900004E1BB6A02337B627B6A1B889BB2B3F574
:1053A000006F00F0E780B3F5006F00F3F680042B88
:1053B00000F0E880042BC0F2F08040F20A429342F1
:1053C00000F3EB80B3F5806FC0F2E780A3F5806354
:1053D0000A2B00F2E28001A252F823F009540008DF
:1053E0003F55000811540008955400089D540008CA
:1053F000A55400089B5500087D550008D9540008A5
:10540000E9540008E15400081C480FF0C9FBC1E052
:105410001B480FF0C5FB0A4BDB8A1A4918460BF0F4
:1054200081FD034687F82F3097F82F30002B2DD0C1
:1054300097F82F30194614480FF044FBAAE000BF3C
:10544000401200200875010834750108C8120020B8
:10545000707501080000F43FA4750108107601087A
:10546000407601084C7601085876010878760108E4
:1054700098760108BC760108047701085477010882
:105480008477010840E20100AC77010846480FF03C
:1054900087FB7FE045480FF083FB7BE044480FF03B
:1054A0007FFB77E043480FF07BFB434BDB8A1846DA
:1054B0000BF0E2FE034687F82F3097F82F30002BD1
:1054C00006D097F82F3019463C480FF0FBFA61E000
:1054D0003B480FF065FB5DE03A480FF061FB59E097
:1054E00039480FF05DFB55E038480FF059FB7B6AF7
:1054F0000233D3F80230194635480FF0E3FA7B6ADD
:105500000233D3F80230194632480FF0DBFA2A4B47
:10551000DB8A012118460BF003FF034687F82F3082
:1055200097F82F30002B06D097F82F3019462A48CD
:105530000FF0C8FA2EE029480FF032FB2AE07B6A10
:1055400002333B6226480FF02BFB3B6A9B78002B13
:1055500003D124480FF024FB08E03B6A9B781946EE
:105560003B6ADB781A4620480FF0ACFA0A200FF0AD
:10557000BBFA0FE01D4B01221A700BE01C480FF024
:10558000A1FA07E00C4B93F882300A211846FEF787
:105590003DFC00BF01E000BF00E000BF0123184652
:1055A0003037BD46B0BD00BFE0770108087801087C
:1055B000347801086C7801084012002090780108C6
:1055C000C0780108E87801081479010844790108D5
:1055D0007879010894790108AC790108FC7901080F
:1055E000447A0108707A0108887A0108CD120020F7
:1055F000C47A010880B500AF002108200EF01AFC23
:1056000000BF80BD80B500AF002110200EF012FC5D
:1056100000BF80BD80B400AF00BFBD465DF8047B15
:105620007047000080B582B000AF064B3B60064B70
:105630007B603B46194605480CF03AFD00BF083731
:10564000BD4680BD28000320795D0008415D00084B
:10565000F0B58DB006AF00233B809223FB75A548C3
:105660000FF09EFA0CF0AFFA0346FB75FB7D002BA2
:1056700005D0FB7D1946A0480FF024FA02E09F48B0
:105680000FF08EFA00F040FA38613A6906210020E6
:105690000CF059F90346FB75FB7D002B05D0FB7D13
:1056A000194697480FF00EFA21E096480FF078FA65
:1056B0003B6905331B7818463B6904331B781C464D
:1056C0003B6903331B781D463B6902331B781A463E
:1056D0003B6901331B7819463B691B7802930191A2
:1056E00000922B462246014687480FF0EBF93B69B2
:1056F00005331A78854B1A723B6904331A78834B49
:105700005A723B6903331A78804B9A723B690233B1
:105710001A787E4BDA723B6901331A787B4B1A7325
:105720003B691A78794B5A73794A102118200CF08A
:105730000AF90346FB75FB7D002B05D0FB7D19465E
:1057400074480FF0BFF902E073480FF029FA734A6A
:10575000102108200CF0F7F80346FB75FB7D002BA9
:1057600005D0FB7D19466E480FF0ACF902E06D489C
:105770000FF016FA182101200CF06AF90346FB75A8
:10578000FB7D002B05D0FB7D194667480FF09AF989
:1057900002E066480FF004FA0BF029FE0346FB75A1
:1057A000FB7D002B05D0FB7D194661480FF08AF97F
:1057B00002E060480FF0F4F90023FB73FB7B43F039
:1057C0000103FB73FB7B002B2BD05B4BBB60BA1D33
:1057D000F87BBB1C01933B1D00931346072200215D
:1057E0000BF007FC0346FB75FB7D002B05D0FB7D12
:1057F000194652480FF066F902E051480FF0D0F90F
:10580000FC88BD88B868FAF71BFD0346DAB2BB68AE
:10581000009313460022294620460BF0EBFF034677
:10582000FB75F88879883B460093022300220BF031
:10583000E1FF0346FB750222022100200CF065FA0D
:105840000346FB75FB7D002B05D0FB7D19463D48CB
:105850000FF038F902E03C480FF0A2F93B4B01226F
:105860001A703A4B1B7818460BF044FA0346FB7546
:10587000FB7D002B05D0FB7D194635480FF022F942
:1058800002E034480FF08CF9304B01225A702F4B54
:1058900008221A712D4B10225A712C4B0022DA70FB
:1058A0002A4B2D4A9A60294B01229A70274B9C78EB
:1058B000264B5D78254B1B79244A52792349C978B8
:1058C000224880680026049603900291019200937A
:1058D00000230122294620460BF060FA0346FB759F
:1058E000FB7D002B3CD0FB7D19461C480FF0EAF8ED
:1058F00039E000BFEC7A0108187B0108487B0108F9
:10590000687B0108C47B0108107C0108100000209E
:10591000B88801084C7C0108A47C0108C8880108EB
:10592000EC7C0108447D01088C7D0108CC7D0108D8
:10593000FC7D0108307E0108547E01085C7E010870
:105940008C7E0108AC7E0108E87E01084012002030
:10595000147F0108547F010807B20100847F010809
:105960000E480FF01DF90E4B9B78002B0FD00BF05B
:105970005FFC0346FB75FB7D002B05D0FB7D1946C4
:1059800008480FF09FF802E007480FF009F90748B0
:105990000FF098F800BF1C37BD46F0BDD07F01085E
:1059A000401200200C8001084C8001087C80010816
:1059B00080B58CB008AF0346FB719223FB72FB7974
:1059C000012B06D1414B1B88FB81414B1B88BB81BE
:1059D00005E04FF4C863FB814FF47A63BB813D4B14
:1059E00093F881301846FEF78DF9FB79022B19D117
:1059F000384B93F88030012B04D0364B93F880302D
:105A0000022B0FD10BF058F80346FB72FB7A002BE8
:105A100005D0FB7A194630480FF054F802E02F48C1
:105A20000FF0BEF82B4AFB7982F88030294B1B7EA1
:105A3000BA89F98900200690002005902848049032
:105A40000393284B02930823019300230093002320
:105A500000200BF055F80346FB72FB7A002B05D0B3
:105A6000FB7A194620480FF02DF802E01F480FF08E
:105A700097F81F490E200BF069FB0346FB72FB7A77
:105A8000002B0ED0FB79012B05D1FB7A1946194862
:105A90000FF018F817E0FB7A194617480FF012F8C4
:105AA00011E0FB79012B0AD114480FF00BF8094BD8
:105AB00093F8813012491846FEF7A8F903E011481F
:105AC0000FF000F800BF1037BD4680BDC4120020A3
:105AD000C612002040120020A8800108F4800108AE
