:020000040800F2
:1000000000000320714B0008093100081731000877
:100010001D310008233100082931000800000000CC
:100020000000000000000000000000002F31000868
:100030003D310008000000004B3100085931000834
:10004000C54B0008C54B0008C54B000865310008CA
:10005000C54B0008C54B0008F33100080132000809
:10006000C54B0008C54B0008E5310008C54B00082A
:10007000C54B0008C54B000871310008C54B00088E
:10008000C54B0008C54B0008C54B0008C54B000810
:10009000C54B0008C54B0008C54B0008C54B000800
:1000A000C54B0008C54B0008C54B0008C54B0008F0
:1000B000C54B0008C54B0008C54B0008C54B0008E0
:1000C000C54B0008C54B0008C54B0008C54B0008D0
:1000D0008531000899310008C54B0008C54B000860
:1000E000C54B0008C54B0008C54B0008C54B0008B0
:1000F000AD310008B9310008C5310008C54B000812
:10010000C54B0008C54B0008C54B0008C54B00088F
:10011000C54B0008C54B0008C54B0008C54B00087F
:10012000C54B0008C54B0008D1310008C54B00087D
:0C013000C54B0008C54B0008C54B00087B
:1001400010B5054C237833B9044B13B10448AFF311
:1001500000800123237010BD500200200000000029
:100160000418010808B5034B1BB103490348AFF35A
:10017000008008BD0000000054020020041801089F
:1001800010F8012B11F8013B012A28BF9A42F7D041
:10019000D01A7047000000000000000000000000BE
:1001A00001F0FF01102A2BDB10F0070F08D010F828
:1001B000013B013A8B422DD010F0070F42B3F6D12C
:1001C000F0B441EA012141EA014122F007047FF045
:1001D00000070023F0E80256083C85EA010586EA9C
:1001E000010685FA47F5A3FA87F586FA47F6A5FAD8
:1001F00087F68EB9EED1F0BC01F0FF0102F00702E4
:1002000032B110F8013B013A83EA010313B1F8D18E
:100210000020704701387047002D06BF354603386F
:10022000073815F0010F07D1013015F4807F02BFA8
:10023000013015F4C03F0130F0BC0138704700BFF9
:10024000034613F8012B002AFBD1181A0138704716
:1002500081F0004102E000BF83F0004330B54FEA77
:1002600041044FEA430594EA050F08BF90EA020FE4
:100270001FBF54EA000C55EA020C7FEA645C7FEA77
:10028000655C00F0E2804FEA5454D4EB5555B8BF9A
:100290006D420CDD2C4480EA020281EA030382EA0B
:1002A000000083EA010180EA020281EA0303362D9D
:1002B00088BF30BD11F0004F4FEA01314FF4801C70
:1002C0004CEA113102D0404261EB410113F0004F82
:1002D0004FEA03334CEA133302D0524263EB430339
:1002E00094EA050F00F0A780A4F10104D5F1200ED7
:1002F0000DDB02FA0EFC22FA05F2801841F1000132
:1003000003FA0EF2801843FA05F359410EE0A5F105
:1003100020050EF1200E012A03FA0EFC28BF4CF036
:10032000020C43FA05F3C01851EBE37101F00045EC
:1003300007D54FF0000EDCF1000C7EEB00006EEBF9
:100340000101B1F5801F1BD3B1F5001F0CD3490883
:100350005FEA30004FEA3C0C04F101044FEA4452DA
:1003600012F5800F80F09A80BCF1004F08BF5FEA61
:10037000500C50F1000041EB045141EA050130BD41
:100380005FEA4C0C404141EB0101013C28BFB1F553
:10039000801FE9D291F0000F04BF01460020B1FA9E
:1003A00081F308BF2033A3F10B03B3F120020CDA71
:1003B0000C3208DD02F1140CC2F10C0201FA0CF04F
:1003C00021FA02F10CE002F11402D8BFC2F1200CB4
:1003D00001FA02F120FA0CFCDCBF41EA0C0190406A
:1003E000E41AA2BF01EB0451294330BD6FEA0404B3
:1003F0001F3C1CDA0C340EDC04F11404C4F120029E
:1004000020FA04F001FA02F340EA030021FA04F3AF
:1004100045EA030130BDC4F10C04C4F1200220FA06
:1004200002F001FA04F340EA0300294630BD21FA44
:1004300004F0294630BD94F0000F83F4801306BF0A
:1004400081F480110134013D4EE77FEA645C18BFFE
:100450007FEA655C29D094EA050F08BF90EA020F95
:1004600005D054EA000C04BF1946104630BD91EA8D
:10047000030F1EBF0021002030BD5FEA545C05D190
:100480004000494128BF41F0004130BD14F58004CF
:100490003CBF01F5801130BD01F0004545F0FE4143
:1004A00041F470014FF0000030BD7FEA645C1ABF78
:1004B000194610467FEA655C1CBF0B46024650EAAF
:1004C000013406BF52EA033591EA030F41F40021DB
:1004D00030BD00BF90F0000F04BF0021704730B561
:1004E0004FF4806404F132044FF000054FF0000136
:1004F00050E700BF90F0000F04BF0021704730B5F7
:100500004FF4806404F1320410F0004548BF4042CB
:100510004FF000013EE700BF42004FEAE2014FEA20
:1005200031014FEA02701FBF12F07F4393F07F4FFB
:1005300081F06051704732F07F4208BF704793F0FE
:100540007F4F04BF41F40021704730B54FF4607411
:1005500001F0004521F000411CE700BF50EA010214
:1005600008BF704730B54FF000050AE050EA0102BD
:1005700008BF704730B511F0004502D5404261EB2D
:1005800041014FF4806404F132045FEA915C3FF46E
:10059000D8AE4FF003025FEADC0C18BF03325FEA0B
:1005A000DC0C18BF033202EBDC02C2F1200300FABC
:1005B00003FC20FA02F001FA03FE40EA0E0021FAE1
:1005C00002F11444BDE600BF70B54FF0FF0C4CF4CF
:1005D000E06C1CEA11541DBF1CEA135594EA0C0F81
:1005E00095EA0C0F00F0DEF82C4481EA030621EABC
:1005F0004C5123EA4C5350EA013518BF52EA0335F7
:1006000041F4801143F4801338D0A0FB02CE4FF0A8
:100610000005E1FB02E506F00042E0FB03E54FF0D8
:100620000006E1FB03569CF0000F18BF4EF0010ED0
:10063000A4F1FF04B6F5007F64F5407404D25FEACC
:100640004E0E6D4146EB060642EAC62141EA55517F
:100650004FEAC52040EA5E504FEACE2EB4F1FD0CC1
:1006600088BFBCF5E06F1ED8BEF1004F08BF5FEA3F
:10067000500E50F1000041EB045170BD06F00046F1
:1006800046EA010140EA020081EA0301B4EB5C049E
:10069000C2BFD4EB0C0541EA045170BD41F4801196
:1006A0004FF0000E013C00F3AB8014F1360FDEBFBB
:1006B000002001F0004170BDC4F10004203C35DA97
:1006C0000C341BDC04F11404C4F1200500FA05F31A
:1006D00020FA04F001FA05F240EA020001F00042BB
:1006E00021F0004110EBD37021FA04F642EB060131
:1006F0005EEA430E08BF20EAD37070BDC4F10C045B
:10070000C4F1200500FA04F320FA05F001FA04F21E
:1007100040EA020001F0004110EBD37041F100010A
:100720005EEA430E08BF20EAD37070BDC4F1200515
:1007300000FA05F24EEA020E20FA04F301FA05F27D
:1007400043EA020321FA04F001F0004121FA04F225
:1007500020EA020000EBD3705EEA430E08BF20EAF5
:10076000D37070BD94F0000F0FD101F0004640002F
:1007700041EB010111F4801F08BF013CF7D041EAB1
:10078000060195F0000F18BF704703F000465200B5
:1007900043EB030313F4801F08BF013DF7D043EA86
:1007A0000603704794EA0C0F0CEA135518BF95EA3C
:1007B0000C0F0CD050EA410618BF52EA4306D1D1C3
:1007C00081EA030101F000414FF0000070BD50EAE2
:1007D000410606BF1046194652EA430619D094EA6C
:1007E0000C0F02D150EA013613D195EA0C0F05D156
:1007F00052EA03361CBF104619460AD181EA0301AA
:1008000001F0004141F0FE4141F470014FF0000061
:1008100070BD41F0FE4141F4780170BD70B54FF0FC
:10082000FF0C4CF4E06C1CEA11541DBF1CEA13557C
:1008300094EA0C0F95EA0C0F00F0A7F8A4EB05045E
:1008400081EA030E52EA03354FEA013100F0888055
:100850004FEA03334FF0805545EA131343EA12631E
:100860004FEA022245EA111545EA10654FEA0026D3
:100870000EF000419D4208BF964244F1FD0404F58C
:10088000407402D25B084FEA3202B61A65EB0305E8
:100890005B084FEA32024FF480104FF4002CB6EBA5
:1008A000020E75EB030E22BFB61A754640EA0C0025
:1008B0005B084FEA3202B6EB020E75EB030E22BF65
:1008C000B61A754640EA5C005B084FEA3202B6EBA6
:1008D000020E75EB030E22BFB61A754640EA9C0065
:1008E0005B084FEA3202B6EB020E75EB030E22BF35
:1008F000B61A754640EADC0055EA060E18D04FEAF3
:10090000051545EA16754FEA06164FEAC30343EA92
:1009100052734FEAC2025FEA1C1CC0D111F4801F5F
:100920000BD141EA00014FF000004FF0004CB6E758
:1009300011F4801F04BF01430020B4F1FD0C88BFF7
:10094000BCF5E06F3FF6AFAEB5EB030C04BFB6EB02
:10095000020C5FEA500C50F1000041EB045170BDF5
:100960000EF0004E4EEA113114EB5C04C2BFD4EB22
:100970000C0541EA045170BD41F480114FF0000EA6
:10098000013C90E645EA060E8DE60CEA135594EA22
:100990000C0F08BF95EA0C0F3FF43BAF94EA0C0F25
:1009A0000AD150EA01347FF434AF95EA0C0F7FF49A
:1009B00025AF104619462CE795EA0C0F06D152EAEE
:1009C00003353FF4FDAE1046194622E750EA4106D2
:1009D00018BF52EA43067FF4C5AE50EA41047FF4E3
:1009E0000DAF52EA43057FF4EBAE12E74FF0FF3C48
:1009F00006E000BF4FF0010C02E000BF4FF0010C19
:100A00004DF804CD4FEA410C7FEA6C5C4FEA430C91
:100A100018BF7FEA6C5C1BD001B050EA410C0CBFE0
:100A200052EA430C91EA030F02BF90EA020F002042
:100A3000704710F1000F91EA030F58BF994208BFA9
:100A400090422CBFD8176FEAE37040F00100704766
:100A50004FEA410C7FEA6C5C02D150EA013C07D1BD
:100A60004FEA430C7FEA6C5CD6D152EA033CD3D008
:100A70005DF8040B704700BF8446104662468C4602
:100A80001946634600E000BF01B5FFF7B7FF002835
:100A900048BF10F1000F01BD4DF808EDFFF7F4FF5E
:100AA0000CBF012000205DF808FB00BF4DF808EDE9
:100AB000FFF7EAFF34BF012000205DF808FB00BF0C
:100AC0004DF808EDFFF7E0FF94BF012000205DF82E
:100AD00008FB00BF4DF808EDFFF7CEFF94BF0120E3
:100AE00000205DF808FB00BF4DF808EDFFF7C4FFDC
:100AF00034BF012000205DF808FB00BF4FEA410C25
:100B00007FEA6C5C02D150EA013C0AD14FEA430C07
:100B10007FEA6C5C02D152EA033C02D14FF0000044
:100B200070474FF0010070474FEA410212F5001282
:100B300015D211D56FF47873B3EB625212D94FEA24
:100B4000C12343F0004343EA505311F0004F23FA0E
:100B500002F018BF404270474FF00000704750EA63
:100B6000013005D111F0004008BF6FF00040704720
:100B70004FF00000704700BF53B94AB9002908BFC1
:100B800000281CBF4FF0FF314FF0FF3000F070B96C
:100B9000ADF1080C6DE904CE00F006F8DDF804E0D4
:100BA000DDE9022304B070472DE9F047089E0D46A9
:100BB00004460F46002B4AD18A42944665D9B2FAC0
:100BC00082F343B102FA03FCC3F120029F4020FAF2
:100BD00002F217439C404FEA1C4E1FFA8CF5B7FBFC
:100BE000FEF1220C0EFB117742EA074201FB05F0F1
:100BF00090420AD91CEB020201F1FF3780F01C8100
:100C0000904240F2198102396244121AA4B2B2FB36
:100C1000FEF00EFB102244EA024400FB05F5A5425B
:100C20000AD91CEB040400F1FF3280F00781A542D1
:100C300040F204816444023840EA0140641B002110
:100C40001EB1DC400023C6E90043BDE8F0878B42BB
:100C500008D9002E00F0ED800021C6E90005084605
:100C6000BDE8F087B3FA83F1002949D1AB4202D342
:100C7000824200F2F880841A65EB030201201746D5
:100C8000002EE2D0C6E90047DFE702B9FFDEB2FA84
:100C900082F3002B40F090808A1A4FEA1C471FFA1B
:100CA0008CFE0121B2FBF7F507FB1520220C42EA6E
:100CB00000420EFB05F0904208D91CEB020205F140
:100CC000FF3802D2904200F2CB804546121AA4B2FD
:100CD000B2FBF7F007FB102244EA02440EFB00FED1
:100CE000A64508D91CEB040400F1FF3202D2A64548
:100CF00000F2BB801046A4EB0E0440EA05409FE7DB
:100D0000C1F120078B4022FA07FC4CEA030C05FADC
:100D100001F420FA07F3FD404FEA1C492343B5FBD9
:100D2000F9F81FFA8CFE09FB18551C0C44EA05441F
:100D300008FB0EF5A54202FA01F200FA01F00BD908
:100D40001CEB040408F1FF3A80F08880A54240F2D1
:100D50008580A8F102086444641B9DB2B4FBF9F3DA
:100D600009FB134445EA044403FB0EFEA64508D9DB
:100D70001CEB040403F1FF356CD2A6456AD9023B93
:100D8000644443EA0843A3FB0295A4EB0E04AC427F
:100D9000C846AE4656D353D056B1B0EB080264EB0A
:100DA0000E0404FA07F7CA40CC401743C6E90074A2
:100DB00018460021BDE8F087C3F1200102FA03FCC8
:100DC00020FA01F225FA01F19D402A434FEA1C471F
:100DD0001FFA8CFEB1FBF7F007FB1015110C41EA6E
:100DE000054100FB0EF58D4204FA03F408D91CEB13
:100DF000010100F1FF382FD28D422DD90238614414
:100E0000491B92B2B1FBF7F507FB151142EA01420B
:100E100005FB0EF1914208D91CEB020205F1FF38E7
:100E200016D2914214D9023D6244521A45EA004159
:100E300038E73146304608E73946E6E61046FBE635
:100E40004845A9D2B9EB020865EB0C0E013BA3E7BC
:100E50004546EAE72B4694E74046D1E7D0467BE794
:100E6000023D624432E708460AE76444023842E73A
:100E7000704700BF80B483B000AF7860064BD3F8F2
:100E8000902005497B681343C1F8903000BF0C37B0
:100E9000BD465DF8047B70470008005880B485B0FB
:100EA00000AF78604FF0B043DA6C4FF0B0417B6830
:100EB0001343CB644FF0B043DA6C7B681340FB60A4
:100EC000FB6800BF1437BD465DF8047B704780B4F3
:100ED00085B000AF78604FF0B043D3F84C214FF0AD
:100EE000B0417B681343C1F84C314FF0B043D3F8A5
:100EF0004C217B681340FB60FB6800BF1437BD4684
:100F00005DF8047B704780B500AF04F047FD04F046
:100F10004BFD4FF48030FFF7ADFF0BF0ADFE00F05E
:100F200021F800F0C1F800BF80BD0000B0B588B066
:100F300000AF0B4B3C1D1D460FCD0FC495E80700BD
:100F400003C422800234130C23700DF0E9FB3B1D17
:100F500018460CF03AFA00BF2037BD46B0BD00BFBE
:100F60002018010880B588B000AF3B1D00221A6030
:100F70005A609A60DA601A610023BB8300237B8386
:100F800000233B830023FB7736E0FB7F434ADB00F3
:100F900013449B79002B2CD0FB7F404A52F833300E
:100FA0003F4A93421BD03E4A934221D8B3F1904F1F
:100FB00003D03C4A934209D01AE0FB7F374ADB005A
:100FC00013449A88BB8B1343BB8312E0FB7F334AE5
:100FD000DB0013449A887B8B13437B8309E0FB7F00
:100FE0002E4ADB0013449A883B8B13433B8300E07B
:100FF00000BFFB7F0133FB77FB7F252BC5D9002387
:10100000FB600123BB6003233B61BB8B002B14D02F
:10101000BB8B7B600120FFF741FF0120FFF757FFEB
:101020003B1D19464FF0904005F0F2F9BB8B0022B2
:1010300019464FF0904005F05BFB7B8B002B12D0E4
:101040007B8B7B600220FFF729FF0220FFF73FFF29
:101050003B1D1946134805F0DBF97B8B002219462E
:10106000104805F045FB3B8B002B13D03B8B7B607E
:101070000420FFF713FF0420FFF729FF3B1D19464B
:10108000074805F0C5F93B8B00221946044805F0D6
:101090002FFB00BF00BF2037BD4680BD242E0108B6
:1010A000000800480004004880B400AF00BFBD46FF
:1010B0005DF8047B704780B500AF01F03BFD00BFD9
:1010C00080BD80B584B000AFF8600B467A607B814C
:1010D0007A897B68F968002001F07CFB00BF10373B
:1010E000BD4680BD80B483B000AF7860074BD3F8B5
:1010F000803023F0070205497B681343C1F8803034
:1011000000BF0C37BD465DF8047B704700040058F3
:1011100080B483B000AF7860064BD3F890200549C7
:101120007B681343C1F8903000BF0C37BD465DF8B3
:10113000047B70470008005880B483B000AF78602B
:101140004FF0B0430A4AC3F89C204FF0B043D3F8A5
:101150009C3023F47C527B681B024FF0B041134358
:10116000C1F89C3000BF0C37BD465DF8047B70476A
:10117000FECAFECA80B483B000AF78604FF0B043BF
:101180009B6823F400424FF0B0417B6813438B60AF
:1011900000BF0C37BD465DF8047B704780B400AFDC
:1011A0004FF0B043D3F890304FF0B04243F4803367
:1011B000C2F8903000BFBD465DF8047B704780B434
:1011C00000AF4FF0B043D3F890304FF0B04223F46B
:1011D0008033C2F8903000BFBD465DF8047B704795
:1011E00080B400AF4FF0B043D3F8943003F0806385
:1011F000B3F1806F01D1012300E000231846BD4602
:101200005DF8047B704780B400AF4FF0B043D3F873
:10121000943003F08053B3F1805F01D1012300E0EB
:1012200000231846BD465DF8047B704780B485B046
:1012300000AF78604FF0B0431A6D4FF0B0417B685B
:1012400013430B654FF0B0431A6D7B681340FB608E
:10125000FB6800BF1437BD465DF8047B7047000093
:1012600080B400AF044B1B68C3F30B031846BD46A4
:101270005DF8047B704700BF002004E080B400AF3D
:10128000044B1B681B0C9BB21846BD465DF8047BE3
:10129000704700BF002004E080B483B000AF7860E6
:1012A00039607B685A683B681B041A437B685A6044
:1012B00000BF0C37BD465DF8047B704780B483B037
:1012C00000AF786039607B685A683B681A437B6876
:1012D0005A6000BF0C37BD465DF8047B704780B490
:1012E00083B000AF786039607B685A693B681B0443
:1012F0001A437B685A6100BF0C37BD465DF8047B1A
:10130000704780B483B000AF786039607B685A69F9
:101310003B681A437B685A6100BF0C37BD465DF8D5
:10132000047B704780B483B000AF786039607B681D
:101330003A689A6000BF0C37BD465DF8047B704781
:1013400080B483B000AF786039607B683A689A6196
:1013500000BF0C37BD465DF8047B704780B400AF1A
:10136000054B1B69044A23F00403136100BFBD460B
:101370005DF8047B704700BF00ED00E080B483B0EF
:1013800000AF78607B68FF225A6200BF0C37BD4611
:101390005DF8047B704780B483B000AF78607B68F1
:1013A000CA225A627B6853225A6200BF0C37BD467C
:1013B0005DF8047B704780B483B000AF786039601B
:1013C0007B689B6823F007023B681A437B689A603E
:1013D00000BF0C37BD465DF8047B704780B500AF99
:1013E000044B4FF400421A6100F030F800F070F83E
:1013F00000BF80BD0040005880B500AF00F07CF811
:1014000000F094F80949002000F03EFFFFF77BFD53
:10141000012101200DF022FA00F0EAF900F0F8F9BC
:1014200000F086FA00F090F800BF80BD680600204A
:1014300080B400AF00BFBD465DF8047B704780B547
:1014400000AF5020FFF764FE00BF80BD80B500AF45
:1014500000F004F800F01AF800BF80BD80B500AFBE
:10146000FFF7BEFE0346002B0DD0FFF7CCFE034670
:10147000002B08D106F048F806F046F8FFF78EFE7C
:10148000FFF79DFE00BF00BF80BD000080B500AF2C
:101490004FF48010FFF7CAFE3F210C48FFF742FFD0
:1014A0003F210A48FFF74CFF3F210848FFF7F4FEB1
:1014B0003F210648FFF713FF3F210448FFF7FEFED8
:1014C0003F210248FFF71DFF00BF80BD000C005800
:1014D00080B582B000AF00200BF008FE78607B681A
:1014E000002B05D07B689B791846FFF725FE00BFCF
:1014F00000BF0837BD4680BD80B500AFFFF798FF3D
:10150000FFF79DFF00F002F800BF80BD80B500AF7F
:101510000548FFF740FF00210348FFF74CFF024852
:10152000FFF72CFF00BF80BD0028004080B500AF52
:101530004FF40040FFF71EFE0DF07EF90420FFF788
:10154000D1FD00BF80BD000080B588B000AF0CF0B9
:1015500031FF114A002140200DF0ACFA0F4B3B60E7
:101560000F4B7B603B4619460E480CF009F80E4BBA
:10157000BB600E4BFB600E4B3B6140F23C537B610A
:1015800007F1080318460DF057F80CF00DFF00BFE7
:101590002037BD4680BD00BFB9D500083407032001
:1015A000B5150008CD1500084C090320400803209C
:1015B000F801032080B483B000AF0346FB7100BF85
:1015C0000C37BD465DF8047B7047000080B588B0DD
:1015D00000AF78607B685B680B33FB61FB691B883D
:1015E0009BB2A3F51243072B60D801A252F823F057
:1015F000111600085316000861160008AD16000801
:101600007D1600088D16000895160008A51600081E
:1016100007F10C0318460BF005FF3B7B19467B7B5B
:101620001A46BB7B24480EF0AFF83B7C1946234892
:101630000EF0AAF8BB7D1946FB7D1A463B7E20487A
:101640000EF0A2F81F480EF09FF8786800F070F8CE
:101650002DE01D480EF098F8786800F043F826E079
:101660001A480EF0FFF8FB6902331968FB69023370
:101670005B681A4616480EF087F818E0FB690233DB
:101680001B68194613480EF07FF810E012480EF060
:101690007BF80CE0FB6902331B6819460F480EF01B
:1016A00073F804E00E480EF06FF800E000BF00BFD2
:1016B0002037BD4680BD00BF3C18010860180108F6
:1016C0007C18010894180108B4180108D8180108FA
:1016D00028190108501901088C190108B0190108CE
:1016E000EC19010880B584B000AF78607B685B6856
:1016F0000B33FB60FB680233BB60BB681B78194689
:1017000008480EF041F8BB681B78002B03D106484F
:101710000EF0A8F803E005480EF0A4F800BF10375B
:10172000BD4680BD101A0108401A01087C1A010844
:1017300080B58AB000AF786007F1080300221A6014
:101740005A609A60DA6000237B6200233B627B6808
:101750005B680B33FB61FB690233BB61BB691B78C0
:10176000002B28D11D480EF07DF8FFF7DFFB0F237B
:101770003B727F23BB72FFF781FD7862796A18485C
:101780000EF002F87B6A9BB2BB82FFF769FD3862FC
:10179000396A14480DF0F8FF3B6A9BB2FB8207F1EF
:1017A000080318460BF028FE01F076FF0021012007
:1017B0000DF054F80EE0BB691B78012B06D10A48E6
:1017C0000DF0E2FF7B6800221A7003E007480DF07D
:1017D000DBFF00BF2837BD4680BD00BFB41A01083B
:1017E000D01A0108F41A0108141B0108481B01084B
:1017F00080B500AF002003F0FFF9012003F0FCF9F1
:10180000022003F0F9F9012003F030FA00BF80BD97
:1018100080B500AF0121002003F05CFA0121012016
:1018200003F058FA0121022003F054FA00BF80BDF2
:1018300080B584B000AF786004F08CF8B8607B6845
:10184000FB60FB68B3F1FF3F0AD004F09BF803464E
:101850001A46FB681344FB6002E0FFF77FFD30BFD0
:1018600004F078F80246BB68D31AFA689A42F4D8B2
:1018700000BF00BF1037BD4680BD80B500AF4FF040
:10188000FF300DF01BF800BF80BD80B400AF00BF7B
:10189000BD465DF8047B704780B582B000AF7860CC
:1018A00039604FF0FF300DF009F800BF0837BD4632
:1018B00080BD80B582B000AF7860002140200DF07F
:1018C0001BF900BF0837BD4680BD80B582B000AFB0
:1018D000786002200DF07CF900BF0837BD4680BD5E
:1018E00080B582B000AF786002200DF091F900BFA2
:1018F0000837BD4680BD80B582B000AF0346FB808F
:10190000FB88102B06D0102B0DDC012B05D0022BF1
:1019100006D008E002F0CAF906E002F0CDF903E0D3
:1019200002F0D2F900E000BF00BF0837BD4680BD1D
:1019300080B500AF034B01220349002000F010FFE7
:1019400000BF80BD4D1900087402002080B500AFB3
:10195000154B1B88FF2B1ED8144B1B780D2B0FD15A
:10196000134914480DF010FF00F028F80E4B002228
:101970001A804FF4807200210D480EF053F80AE0EF
:10198000094B1B885A1C91B2074A11801A46074B13
:101990001978074B9954084B01220449002000F0A4
:1019A000DFFE00BF80BD00BF7C030020740200206A
:1019B0007C0200207C1B01084D19000880B500AF97
:1019C0001C491D48FEF7DCFB0346002B09D11B48D0
:1019D0000DF048FF1A4B1B4A1A60194804F0F6FC38
:1019E00026E019491448FEF7CBFB0346002B0AD129
:1019F00016480DF037FF124B4FF0B0521A601048E6
:101A000004F0E4FC14E012490B48FEF7B9FB03466E
:101A1000002B09D10F480DF025FF094B0E4A1A6023
:101A2000074804F0D3FC03E003490C480DF0ACFE7A
:101A300000BF80BD8C1B01087C020020901B0108A8
:101A40006C02002004000016981B01089C1B010872
:101A5000A41B0108A81B010801000016B01B010807
:101A600080B483B000AF7860064BD3F8802005497E
:101A70007B681343C1F8803000BF0C37BD465DF86A
:101A8000047B70470008005880B483B000AF7860D2
:101A9000054B1A6804497B6813430B6000BF0C3781
:101AA000BD465DF8047B70470008005880B483B0E1
:101AB00000AF0D4B9B6A9BB27B600B4B9B6A9BB24A
:101AC0003B6005E03B687B60074B9B6A9BB23B60D9
:101AD0007A683B689A42F5D13B6818460C37BD4698
:101AE0005DF8047B704700BF0028004080B485B0DB
:101AF00000AF03460A46FB711346BB71BA791D4914
:101B000013465B001344DB000B4415331B78FB7357
:101B1000FB7B062B09D0FA7B164913465B00134466
:101B2000DB000B441433FA791A70FA791149134621
:101B30005B001344DB000B441533FA7B1A70FA790F
:101B40000C4913465B001344DB000B441433BA7991
:101B50001A70BA79074913465B001344DB000B4443
:101B60001533FA791A7000BF1437BD465DF8047B4F
:101B7000704700BF8003002080B485B000AF0346EB
:101B80000A46FB711346BB71294B1B78DBB2BA794D
:101B90009A4232D0BA79274913465B001344DB00DE
:101BA0000B4414331B78FB73FA7B224913465B000A
:101BB0001344DB000B441533FA791A70FA791D4986
:101BC00013465B001344DB000B441533BA791A70DB
:101BD000FA79184913465B001344DB000B441433B5
:101BE000FA7B1A70BA79134913465B001344DB0081
:101BF0000B441433FA791A7014E0FA790D4913463C
:101C00005B001344DB000B441533BA791A70BA79C0
:101C1000084913465B001344DB000B441433FA7984
:101C20001A7000BF1437BD465DF8047B704700BFD3
:101C3000100400208003002080B584B000AF03466C
:101C4000FB714E4B1B78DBB2062B18D14B4B1B782C
:101C5000DAB24B4B1A70494AFB791370FA79494949
:101C600013465B001344DB000B44153306221A7045
:101C7000454B4FF0FF321A600023FB8178E000F003
:101C800009F90346FB81FA793E4913465B00134488
:101C9000DB000B4408331968FB89FA791944394889
:101CA00013465B001344DB00034408331960FA79E0
:101CB000344913465B001344DB000B4408331B68B4
:101CC000BB602E4B1B78DBB219462E4A0B465B00DD
:101CD0000B44DB00134408331B68BA689A4237D3BD
:101CE000264B1B787B737A7B264913465B00134493
:101CF000DB000B4415331B783B7313E07A7B2149DF
:101D000013465B001344DB000B4415331B787B73D5
:101D10007A7B1C4913465B001344DB000B441533EC
:101D20001B783B733B7B062B0BD03A7B1549134644
:101D30005B001344DB000B4408331B68BA689A420B
:101D4000DCD27A7BFB7911461846FFF7CFFE0FE015
:101D50000A4B1B78DAB2FB7911461846FFF70CFFE5
:101D6000064B1B78DAB2064B1A70044AFB791370E3
:101D7000FB8918461037BD4680BD00BF1004002007
:101D800011040020800300201404002080B485B0DA
:101D900000AF03460A46FB711346BB71394B1B78F3
:101DA000DBB2FA799A4211D1364B1B78DAB2364B54
:101DB0001A70FA79354913465B001344DB000B4473
:101DC00015331B78DAB22F4B1A703EE0FA792F499F
:101DD00013465B001344DB000B4414331B78FB7386
:101DE000FA792A4913465B001344DB000B44153390
:101DF0001B78BB73F979FA7B24480B465B000B44D4
:101E0000DB00034415331B78D8B2204913465B002E
:101E10001344DB000B44153302461A70BB7B062BC0
:101E200013D0F979BA7B19480B465B000B44DB00F1
:101E3000034414331B78D8B2144913465B0013448F
:101E4000DB000B44143302461A70FA790F4913462B
:101E50005B001344DB000B440C3301221A70094B66
:101E60001B78DBB2062B07D1BB79002B04D1084BC2
:101E70004FF0FF321A6000BF00BF1437BD465DF857
:101E8000047B704710040020110400208003002010
:101E90001404002080B582B000AF1A4B1B68B3F168
:101EA000FF3F26D0FFF702FE7860164B1B687A686A
:101EB0009A4205D8134B1A687B68D31A7B600AE0F4
:101EC000114B1B881A467B68D31A3B600D4B1B686D
:101ED0003A6813447B600D4B1B781A467B6802FB03
:101EE00003F37B600A4B1B781A467B68D3407B6008
:101EF00001E000237B607B689BB218460837BD4633
:101F000080BD00BF140400201C0400201A0400201F
:101F10001904002080B582B000AF0346FB80FB8827
:101F2000002B08D1FFF7C2FD0346214A13600320AE
:101F300003F0BDFE39E0FB88012B03D81D4B1B7855
:101F4000012B02D0FB88013BFB8000BF1A4B1B68B2
:101F5000DB6803F00403002BF8D0174B1B68DB6829
:101F6000DAB2154B1B6862F49062DA60134B4FF4DF
:101F70000022DA60032003F0A8FE114B5B691B0C02
:101F80001B04FA880E4913434B61FFF78FFD03468C
:101F9000074A1360084B1B689A68074B1B6842F49A
:101FA00080629A60AFF3008000BF0837BD4680BDF5
:101FB00014040020190400206806002000080058BE
:101FC0000028004080B584B000AF454B9B6803F407
:101FD0008063B3F5806F07D100BF424B1B68DB689D
:101FE00003F00403002BF8D13E4B1B689A683D4B6D
:101FF0001B6822F480629A603B4B1B78FB73FA7B70
:102000003A4913465B001344DB000B4408331B685A
:10201000BB60FFF73FFF0346FB80FB88BA689A422C
:1020200005D20023BB81324B01221A704DE0FB88A0
:10203000304A128892B213441A46BB68934206D9BA
:102040002C4B1B88BB812A4B00221A703DE0BB68D9
:102050009AB2FB88D31ABB81254B01221A7034E057
:10206000FA7B224913465B001344DB000B44083320
:102070001A68FB889A420AD2FA7B1C4913465B0015
:102080001344DB000B44083300221A6013E0FA7B90
:10209000164913465B001344DB000B4408331968F0
:1020A000FB88FA7BC91A114813465B001344DB0016
:1020B000034408331960FA7B0C4913465B00134450
:1020C000DB000B4415331B78FB73FB7B062BC7D15E
:1020D000BB891846FFF71EFF00BF1037BD4680BD05
:1020E0000028004068060020100400208003002023
:1020F000180400201E04002080B58AB000AFEFF362
:1021000010837B617B697B6272B600BF594B1B6891
:10211000CA225A62574B1B6853225A62554B1B689E
:102120009A68544B1B6822F480629A60524B1B7869
:1021300087F8233097F82320504913465B00134457
:10214000DB000B440C331B78DBB2022B6ED197F80B
:1021500023204A4913465B001344DB000B441B68F1
:10216000FB6197F82320454913465B001344DB00CD
:102170000B4410331B68BB61414B1B78DBB2002B57
:102180004CD097F823203D4913465B001344DB00F5
:102190000B440D331B78DBB2012B24D197F823308D
:1021A00001211846FFF7F2FD7B6A3B613B6983F32F
:1021B000108800BF97F82320304913465B00134472
:1021C000DB000B4404331A6897F823301146184695
:1021D00000F032FA274B1B68CA225A62254B1B6853
:1021E00053225A6212E07B6AFB60FB6883F310881B
:1021F00000BF97F82330184600F09AF91D4B1B6872
:10220000CA225A621B4B1B6853225A6297F823302A
:10221000FA691946B86900F095FA22E0FFF7D2FE94
:102220007B6ABB60BB6883F310881AE000BF114B68
:102230001B68DB6803F00403002BF8D00D4B1B6810
:10224000DB68DAB20B4B1B6862F49062DA600D4B0C
:102250004FF40022DA607B6A7B607B6883F310882E
:1022600000BF044B1B68FF225A6200BF2837BD46DF
:1022700080BD00BF680600201004002080030020FD
:10228000180400200008005880B588B000AF03464D
:102290003960FB715E4B1B68CA225A625C4B1B683B
:1022A00053225A625B4B9B685A4A43F02003936067
:1022B000584B9B68DBB203F00703DBB2C3F10403A6
:1022C000DAB2554B1A70534B1B6903F4FE034FF4FB
:1022D000FE023A613A6992FAA2F2FA60FA687A6109
:1022E0007A69002A01D1202203E07A69B2FA82F2E7
:1022F000D2B2D340DBB20133DAB2484B1A70454B4D
:102300001B699BB2C3F30E039BB201339AB2444BD9
:102310001A80434B1B88013B404A127802FB03F3AF
:10232000A3F5A0733C4A1278D340BB61BB694FF65A
:10233000FE72934204D93B4B4FF6FF721A8003E0C2
:10234000BB699AB2374B1A804FF40020FFF79CFB11
:102350004FF40020FFF784FBFB79002B3DD1324B7B
:1023600001221A70314B4FF0FF321A600023FB77C5
:102370000CE0FA7F2E4913465B001344DB000B444C
:102380000C3300221A70FB7F0133FB77FB7F052B98
:10239000EFD9284B06221A701D4B1B689A681C4BFC
:1023A0001B6822F480629A60194B1B68DB68DAB202
:1023B000174B1B6862F49062DA601F4B4FF40022E7
:1023C000DA60032003F081FC114B1B689A68104B04
:1023D0001B6842F480429A6009E00D4B1B68DB6881
:1023E00003F48063002B02D0032003F060FC084B51
:1023F0001B68FF225A6200220321032003F015FC10
:10240000032003F02CFC00BF2037BD4680BD00BF79
:102410006806002000280040190400201A0400204B
:102420001C0400201E0400201804002014040020B6
:1024300080030020100400200008005880B48BB0F6
:1024400000AFF860B9603B601346FB71002387F86A
:102450002630EFF31083FB61FB693B6272B600BF6D
:1024600004E097F82630013387F8263097F82630B5
:10247000052B0CD897F826202C4913465B001344F3
:10248000DB000B440C331B78DBB2002BE9D197F84F
:102490002630062B38D097F82620244913465B00B7
:1024A0001344DB000B440C3301221A703B6ABB61FE
:1024B000BB6983F3108800BF97F826201B49134699
:1024C0005B001344DB000B441033FA681A6097F882
:1024D0002620164913465B001344DB000B440D33E2
:1024E000FA791A7097F82620104913465B001344B6
:1024F000DB000B443A681A60BB6897F826201A7014
:10250000002387F8273008E03B6A7B617B6983F30F
:10251000108800BF012387F8273097F82730184626
:102520002C37BD465DF8047B704700BF8003002058
:1025300080B586B000AF0346FB71EFF31083FB60FC
:10254000FB687B6172B600BF032003F096FB344B3F
:102550001B68CA225A62324B1B6853225A62FA79AC
:10256000304913465B001344DB000B440C331B78EB
:10257000DBB2022B42D1FB7900211846FFF706FCA3
:10258000294B1B78FB74FB7C062B2FD1274B9B68B8
:1025900003F48063B3F5806F07D100BF204B1B6845
:1025A000DB6803F00403002BF8D11D4B1B689A680D
:1025B0001B4B1B6822F480629A6000BF184B1B689B
:1025C000DB6803F00403002BF8D0154B1B68DB68B5
:1025D000DAB2134B1B6862F49062DA60144B4FF46A
:1025E0000022DA60032003F070FB07E0114B1B7838
:1025F000DBB2FA7C9A4201D0FFF7E4FC084B1B687F
:10260000FF225A62032003F02AFB7B69BB60BB6890
:1026100083F3108800BF00BF1837BD4680BD00BFE0
:1026200068060020800300201004002000280040DD
:10263000000800581104002080B586B000AF0346A2
:102640003960FB71FA793B4913465B001344DB00A8
:102650000B440C331B78DBB2022B03D1FB791846F9
:10266000FFF766FFEFF31083FB60FB687B6172B6D8
:1026700000BF032003F001FB2F4B1B68CA225A62E4
:102680002D4B1B6853225A62FA792A4913465B0084
:102690001344DB000B440C3302221A70FA792549EB
:1026A00013465B001344DB000B4408333A681A609E
:1026B000FA79204913465B001344DB000B440433D2
:1026C0003A681A60FB791846FFF7B6FA03467B8230
:1026D0001A4B1B787B741A4B1B78DBB27A7C9A42BC
:1026E00002D0FFF76FFC13E0FA79124913465B0042
:1026F0001344DB000B44083319687B8AFA79C91A42
:102700000C4813465B001344DB0003440833196094
:10271000094B1B68FF225A62032003F0A0FA7B6971
:10272000BB60BB6883F3108800BF00BF1837BD468D
:1027300080BD00BF80030020680600201004002038
:102740001104002080B584B000AFF8600B467A60B9
:10275000FB727B68984700BF1037BD4680BD000004
:1027600080B584B000AFB9607B600346FB7313464D
:10277000BB81FB7B002B02D0022B0DD019E00F4A4E
:102780007B6813600E4B0F4A1A60BB891A46B96802
:102790000B4806F01DFF0CE00B4A7B6813600B4BE7
:1027A0000B4A1A60BB891A46B968084806F010FF40
:1027B00000BF00BF1037BD4680BD00BF2004002011
:1027C0000005002000380140280400206C0400208F
:1027D0000080004080B586B000AFB9607B600346E2
:1027E000FB731346BB810023FB750023BB75FB7B8A
:1027F000002B02D0022B0FD01DE01F4A7B68136014
:102800001E4B1F4A1A60BB891A46B9681B4806F05E
:102810002BFF0346FB750EE01A4A7B6813601A4BC8
:102820001A4A1A60BB891A46B968174806F01CFF95
:102830000346FB7500BFFB7D032B17D801A252F89E
:1028400023F000BF552800085B2800086128000815
:10285000672800080023BB7509E00123BB7506E06B
:102860000223BB7503E00323BB7500E000BFBB7D03
:1028700018461837BD4680BD2404002000050020FE
:10288000003801402C0400206C040020008000402F
:1028900080B582B000AF78607B681B680F4A9342B6
:1028A0000AD00F4A93420FD10E4B1B68002B0DD05C
:1028B0000C4B1B68984709E00B4B1B68002B07D09B
:1028C000094B1B68984703E000BF02E000BF00E02F
:1028D00000BF00BF0837BD4680BD00BF008000407C
:1028E00000380140200400202804002080B582B078
:1028F00000AF78607B681B680F4A93420AD00F4A8A
:1029000093420FD10E4B1B68002B0DD00C4B1B6854
:10291000984709E00B4B1B68002B07D0094B1B683D
:10292000984703E000BF02E000BF00E000BF00BF27
:102930000837BD4680BD00BF008000400038014020
:10294000240400202C04002080B483B000AF786001
:102950004FF0B043D3F8903023F018024FF0B0415D
:102960007B681343C1F8903000BF0C37BD465DF85B
:10297000047B704780B485B000AF78604FF0B043FF
:102980009A6C4FF0B0417B6813438B644FF0B043B7
:102990009A6C7B681340FB60FB6800BF1437BD4630
:1029A0005DF8047B704780B485B000AF78604FF06D
:1029B000B043DA6C4FF0B0417B681343CB644FF007
:1029C000B043DA6C7B681340FB60FB6800BF1437D0
:1029D000BD465DF8047B704780B500AF02F04CFF48
:1029E000FEF7FCFC00F014F800F070F800F08EF830
:1029F00000F05DF900F03EF900F008F900F0F0F8A1
:102A000000F0E6F8FEF7F8FCFEF737FFFCE7000001
:102A100080B59AB000AF07F1200348220021184684
:102A20000DF000F83B1D00221A605A609A60DA60CF
:102A30001A615A619A6104F067FD0020FFF784FF74
:102A4000214B1B6823F4C0631F4A43F400731360D7
:102A50001D4B1B6803F4C0633B603B6847233B622C
:102A60004FF480337B620123BB624FF48073FB62BF
:102A70000123BB6440233B630023FB6407F1200375
:102A8000184605F0D5F80346002B01D000F01CF9DC
:102A90006F237B600223BB600023FB6000233B614C
:102AA00000237B610023BB610023FB613B1D0121EF
:102AB000184605F031FC0346002B01D000F004F964
:102AC00000BF6837BD4680BD0004005880B594B093
:102AD00000AF3B465022002118460CF0A3FF4FF4F4
:102AE00040533B604FF480437B640223BB6410235C
:102AF000FB643B46184606F04CF80346002B01D019
:102B000000F0E2F800BF5037BD4680BD80B500AF91
:102B1000064B074A1A60054804F070FC0346002B78
:102B200001D000F0D1F800BF80BD00BF300400200C
:102B3000000C005880B500AF234B244A1A60224B8A
:102B40004FF4E1325A60204B00229A601E4B002263
:102B5000DA601D4B00221A611B4B0C225A611A4B82
:102B600000229A61184B4FF40042DA61164B0022A2
:102B70001A62154B00225A62134B00229A621248C5
:102B800006F0D6FC0346002B01D000F09DF8002192
:102B90000D4808F028FD0346002B01D000F094F802
:102BA0000021094808F05DFD0346002B01D000F02C
:102BB0008BF8054808F0DEFC0346002B01D000F03E
:102BC00083F800BF80BD00BF000500200038014031
:102BD00080B400AF00BFBD465DF8047B70470000C5
:102BE00080B500AF074B084A1A60064B00225A60B6
:102BF000044806F055FA0346002B01D000F064F8B3
:102C000000BF80BD540600200010005880B500AF02
:102C1000164B174A1A60154B00225A60134B0F22AD
:102C20009A60124B47F6FF72DA60104B00221A616D
:102C30000E4B00229A610D4B0022DA610B4B0022F1
:102C40005A610A4806F062FA0346002B01D000F0F0
:102C50003BF800220021054806F058FB0346002BF4
:102C600001D000F031F800BF80BD00BF6806002031
:102C70000028004080B500AF0420FFF77BFE012054
:102C8000FFF778FE0220FFF775FE00220F210E20CD
:102C900002F0CBFF0E2002F0E2FF00220F213A20CB
:102CA00002F0C3FF3A2002F0DAFF00BF80BD80B51A
:102CB00000AF0420FFF777FE0120FFF774FE02202B
:102CC000FFF771FE00BF80BD80B400AF00BFBD46FE
:102CD0005DF8047B704780B400AF4FF0B043D3F889
:102CE00090304FF0B04243F40043C2F8903000BF40
:102CF000BD465DF8047B704780B485B000AF786056
:102D00004FF0B043DA6C4FF0B0417B681343CB64B3
:102D10004FF0B043DA6C7B681340FB60FB6800BF88
:102D20001437BD465DF8047B704780B485B000AFB2
:102D300078604FF0B0431A6D4FF0B0417B68134399
:102D40000B654FF0B0431A6D7B681340FB60FB6866
:102D500000BF1437BD465DF8047B704780B485B072
:102D600000AF78604FF0B0439A6D4FF0B0417B6890
:102D700013438B654FF0B0439A6D7B681340FB6043
:102D8000FB6800BF1437BD465DF8047B704780B414
:102D900085B000AF78604FF0B043DA6D4FF0B041CE
:102DA0007B681343CB654FF0B043DA6D7B6813400B
:102DB000FB60FB6800BF1437BD465DF8047B7047BD
:102DC00080B485B000AF78604FF0B0431A6E4FF01A
:102DD000B0417B6813430B664FF0B0431A6E7B68BB
:102DE0001340FB60FB6800BF1437BD465DF8047BF1
:102DF000704780B500AF4FF40020FFF796FF002228
:102E000000212E2002F011FF2E2002F028FF00BF2B
:102E100080BD000080B582B000AF78607B681B6821
:102E20000D4A934213D14FF48010FFF77EFF00222A
:102E300000212C2002F0F9FE2C2002F010FF0022CD
:102E400000212D2002F0F1FE2D2002F008FF00BF2E
:102E50000837BD4680BD00BF000C005880B5A0B04B
:102E600000AF786007F16C0300221A605A609A6024
:102E7000DA601A6107F10C035022002118460CF0A9
:102E8000D1FD7B681B68684A93426ED10223FB60C8
:102E90000023BB6207F10C03184605F07AFE0346D7
:102EA000002B01D0FFF710FF0120FFF770FF01207A
:102EB000FFF722FF0C23FB6602233B6700237B679F
:102EC0000323BB670823FB6707F16C0319464FF028
:102ED000904003F09DFA554B554A1A60534B11220E
:102EE0005A60524B10229A60504B0022DA604F4BCE
:102EF00080221A614D4B00225A614C4B00229A618C
:102F00004A4B0022DA61494B00221A62474802F01C
:102F1000EBFE0346002B01D0FFF7D6FE4FF088539F
:102F2000FB6500233B66002387F86430002387F8A5
:102F300065300123BB6607F15C0319463B4803F08B
:102F400005FA0346002B01D0FFF7BEFE7B68374A27
:102F5000DA67364A7B68936200220021252002F05E
:102F600064FE252002F07BFE5AE07B681B68314A34
:102F7000934255D10123FB6000237B6207F10C03D0
:102F8000184605F006FE0346002B01D0FFF79CFE15
:102F90004FF48040FFF714FF0220FFF7ADFEC0237F
:102FA000FB6602233B6701237B670323BB67072381
:102FB000FB6707F16C0319461F4803F029FA1F4B02
:102FC0001F4A1A601D4B0F225A601C4B10229A6038
:102FD0001A4B0022DA60194B80221A61174B00222B
:102FE0005A61164B00229A61144B0022DA61134B8E
:102FF00000221A62114802F077FE0346002B01D02E
:10300000FFF762FE7B680D4ADA670C4A7B689362C1
:1030100000220021242002F008FE242002F01FFEDE
:1030200000BF8037BD4680BD008000409405002071
:10303000440002400038014000040048F40500202C
:103040004404024080B596B000AF786007F10803F1
:103050005022002118460CF0E5FC7B681B680D4AE5
:10306000934213D14FF40073BB604FF080533B6425
:1030700007F10803184605F08CFD0346002B01D02C
:10308000FFF722FE4FF48020FFF74FFE00BF5837B6
:10309000BD4680BD0010005880B596B000AF786086
:1030A00007F108035022002118460CF0BBFC7B6896
:1030B0001B68144A934220D14FF40063BB604FF465
:1030C0008073BB6407F10803184605F062FD0346F0
:1030D000002B01D0FFF7F8FDFFF7FDFD4FF48060F6
:1030E000FFF73CFE00220021032002F09EFD03209A
:1030F00002F0B5FD786806F0C5F900BF5837BD4647
:1031000080BD00BF0028004080B400AF00BFBD46B6
:103110005DF8047B704780B400AFFEE780B400AF79
:10312000FEE780B400AFFEE780B400AFFEE780B4F6
:1031300000AF00BFBD465DF8047B704780B400AFB0
:1031400000BFBD465DF8047B704780B400AF00BF90
:10315000BD465DF8047B704780B500AF02F0E6FB2A
:1031600000BF80BD80B500AFFEF7C6FF00BF80BDC9
:1031700080B500AF024802F098FF00BF80BD00BFDD
:103180009405002080B500AF024806F0EDFA00BFBC
:1031900080BD00BF0005002080B500AF024806F0EA
:1031A000E3FA00BF80BD00BF6C04002080B500AF13
:1031B00001F094FB00BF80BD80B500AF01F0C4FBFF
:1031C00000BF80BD80B500AF03F0C2FA00BF80BD74
:1031D00080B500AF024802F068FF00BF80BD00BFAD
:1031E000F405002080B500AF102003F099FA00BF6D
:1031F00080BD80B500AF012003F092FA00BF80BD12
:1032000080B500AF022003F08BFA00BF80BD80B410
:1032100085B000AF78604FF0B043DA6C4FF0B0414A
:103220007B681343CB644FF0B043DA6C7B68134088
:10323000FB60FB6800BF1437BD465DF8047B704738
:1032400080B485B000AF78604FF0B0439A6D4FF016
:10325000B0417B6813438B654FF0B0439A6D7B6838
:103260001340FB60FB6800BF1437BD465DF8047B6C
:103270007047000080B483B000AF7860054B5A6897
:1032800004497B6813434B6000BF0C37BD465DF8B3
:10329000047B70470000014080B582B000AF00237E
:1032A0007B60194B194A1A60194B1B685A1C184944
:1032B0000A60002B22D1144803F036FD0346002B90
:1032C0001CD1114800F0CEF87B68002B16D10E48B7
:1032D00000F084F80346002B03D06FF007037B60F7
:1032E0000CE00021084803F0F1FF0346002B03D057
:1032F0006FF007037B6001E000237B607B6818466A
:103300000837BD4680BD00BF8C0600200054004039
:10331000E006002080B58AB004AFBA601A460346C2
:10332000FB810B46BB811346FB8000237B61BA897E
:10333000F9894FF480530293FB880193BB68009393
:1033400001230C4803F0C2FA0346002B0CD00948B5
:1033500003F0F8FC0346042B03D16FF065037B6197
:1033600002E06FF003037B617B6918461837BD46A6
:1033700080BD00BF8C06002080B58AB004AFBA6063
:103380001A460346FB810B46BB811346FB80002394
:103390007B61BA89F9894FF480530293FB880193CA
:1033A000BB68009301230C4803F0A4FB0346002BE9
:1033B0000CD0094803F0C6FC0346042B03D16FF080
:1033C00065037B6102E06FF003037B617B69184654
:1033D0001837BD4680BD00BF8C06002080B584B084
:1033E00000AF78600023FB737B681C4A1A607B681F
:1033F0001B4A5A607B6800229A607B680122DA606F
:103400007B6800221A617B6800225A617B68002277
:103410009A617B680022DA617B6800221A62786810
:1034200003F0BAF90346002B01D00123FB730021FE
:10343000786803F04BFF0346002B01D00123FB7398
:103440000021786803F08DFF0346002B01D0012393
:10345000FB73FB7B18461037BD4680BD005400400F
:103460001304100080B59CB000AF786007F10C0326
:103470005022002118460CF0D5FA0423FB604FF4CB
:103480004033FB6207F10C03184605F082FB022073
:10349000FFF7BDFE4FF48073FB6512233B660023EC
:1034A0007B660323BB660423FB6607F15C031946B6
:1034B000114802F0ADFF4FF40073FB6512233B6629
:1034C00000237B660323BB660423FB6607F15C03D2
:1034D0001946094802F09CFF4FF48020FFF7CAFE0E
:1034E0004FF40020FFF7C6FE4FF40010FFF7A8FED0
:1034F00000BF7037BD4680BD0004004880B400AFF7
:1035000001231846BD465DF8047B704780B582B044
:1035100000AF786039600CF0D7FA034616221A60C3
:103520004FF0FF3318460837BD4680BD80B582B0E6
:1035300000AF78604FF0FF317868FFF7E7FFFEE7F4
:1035400080B586B000AFF860B9607A6000237B6117
:103550000AE0AFF300800146BB685A1CBA60CAB2E9
:103560001A707B6901337B617A697B689A42F0DB70
:103570007B6818461837BD4680BD80B483B000AF65
:1035800078604FF0FF3318460C37BD465DF8047B7A
:10359000704780B483B000AF786039603B684FF407
:1035A00000525A60002318460C37BD465DF8047B74
:1035B000704780B483B000AF7860012318460C37A1
:1035C000BD465DF8047B704780B485B000AFF860FD
:1035D000B9607A60002318461437BD465DF8047B55
:1035E0007047000080B586B000AF7860144A154B74
:1035F000D31A7B617B693B61134B1B68002B02D1A3
:10360000114B124A1A60104B1A687B6813443A69CE
:103610009A4207D20CF058FA03460C221A604FF077
:10362000FF3309E0084B1B68FB60074B1A687B6897
:103630001344054A1360FB6818461837BD4680BD21
:103640000000032000100000E4060020501A0020B3
:1036500080B400AF034B1B681846BD465DF8047B81
:10366000704700BF8075FF1F80B400AF034B1B681D
:10367000DBB21846BD465DF8047B70478475FF1FBA
:1036800080B400AF034B1B681B0A1846BD465DF8AB
:10369000047B70478475FF1FB0B590B000AF9223D4
:1036A00087F83F303F4B3C1D1D460FCD0FC40FCD5B
:1036B0000FC40FCD0FC495E8070003C4228000F0AB
:1036C0000BFB012102200BF0C9F8374A002104202E
:1036D0000BF0F0F93B1D184609F060FE034687F831
:1036E0003E3097F83E30002B08D097F83E30194610
:1036F0002E480CF049F8FFF7E7FA02E02C480CF0EE
:1037000043F800F0FFFA0AF0A9FD2A4B002283F8E3
:103710008020284B4FF6FF72DA82274A00210120D1
:103720000BF0C8F9254A002102200BF0C3F906204E
:1037300009F057F8034687F83F3097F83F30002BE1
:1037400006D097F83F3019461D480CF01DF802E0EE
:103750001C480CF019F81C4B00221A701B4B01225C
:103760001A7000F025FF1A4B00221A490020FEF7BC
:1037700065FE194B002219490020FEF75FFE0D4B34
:1037800000225A760B4B00221A76154B80221A80A3
:10379000144BA0221A80012000F064FC00BF4037C7
:1037A000BD46B0BDAC1C0108ADCD0008D01B010862
:1037B000081C0108F0060020454200088D4300085F
:1037C000301C0108741C01087C0700207D070020C4
:1037D000A542000871070020B542000872070020CA
:1037E0007407002076070020B0B590B004AF786071
:1037F000922387F82F307B680133BB62BB6A1B784A
:10380000FF2B00F02081FF2B00F32282052B02D03A
:103810003E2B2ED01CE2BB6A0233FB60FB68B3F880
:1038200001309AB2B34BDB8A9A4214D1B14B0022D9
:10383000DA82B04B002283F88020AF480CF012F8F7
:10384000FB68B3F801309BB21946FB68DB781A4677
:10385000AA480BF099FF012000F004FCA84B0122BC
:103860001A70A44BDA8AA64B5A80A54800F08CFE49
:10387000F1E1BB6A0233FB61FB691B780C2B33D08F
:103880000C2B00F3DE80012B6CD0032B40F0D98091
:10389000FB6901337B619B480BF0E4FF7B69B3F864
:1038A00003309BB21846FCF725FE4FF00002964B02
:1038B000FCF78AFE02460B46104619467B69B3F8B0
:1038C00005309BB21C467B69B3F807309BB21A46A1
:1038D00013469B0013445B000193009402460B4681
:1038E0008A480BF051FFADE0FB690133BB618848AA
:1038F0000BF04AFFBB691B78002B03D185480BF006
:10390000B1FF02E084480BF0ADFF7A4BDB8A07F190
:103910000A0207F10B01184608F0DBFF034687F89F
:103920002F3097F82F30002B03D07C480BF02CFF62
:1039300088E07B480BF096FFFB7A022B0AD1BB7A1A
:10394000022B07D1FB7A1946BB7A1A4675480BF051
:103950001BFF77E0FB7A1946BB7A1A4671480BF0D9
:1039600013FF6FE0FB6901333B61624B93F88130D9
:103970001846FEF7DDFD3B69B3F801309BB21946EE
:1039800069480BF001FF3B699B7A18463B695B7AFB
:103990001C463B691B7A1D463B69DB791A463B692D
:1039A0009B7919463B695B790293019100922B4602
:1039B000224601465D480BF0E7FE3B69B3F80B3049
:1039C0009BB21846FCF796FD4FF000024E4BFCF7F9
:1039D000FBFD02460B46104619463B69B3F80D3015
:1039E0009BB21C463B69B3F80F309BB21A46134694
:1039F0009B0013445B000193009402460B4643482E
:103A00000BF0C2FE3B4B93F88030042B04D1394BB2
:103A1000062283F8802003E0364B052283F88020BD
:103A20003B69B3F801309AB2324BDA82344B002250
:103A30001A70304BDA8A324B5A80314800F0A4FDBC
:103A400000E000BF07E1BB6A02337B627B6A1B8830
:103A50009BB2B3F5006F00F0E780B3F5006F00F3A1
:103A6000F980042B00F0E880042BC0F2F38040F2D0
:103A70000A42934200F3EE80B3F5806FC0F2EA8011
:103A8000A3F580630A2B00F2E58001A252F823F02F
:103A9000BD3A0008F33B0008C53A0008493B00085E
:103AA000513B0008593B0008553C0008313C0008D8
:103AB0008D3B00089D3B0008953B00081C480BF01F
:103AC000D1FEC4E01B480BF0CDFE0A4BDB8A1A493D
:103AD000184608F089F8034687F82F3097F82F30FA
:103AE000002B2DD097F82F30194614480BF04CFEC0
:103AF000ADE000BFF0060020E81C0108141D01081D
:103B000078070020501D01080000F43F841D0108C3
:103B1000F01D0108201E01082C1E0108381E010896
:103B2000581E0108781E01089C1E0108E41E0108A9
:103B3000341F0108641F010840E201008C1F0108C6
:103B400047480BF08FFE82E046480BF08BFE7EE08C
:103B500045480BF087FE7AE044480BF083FE444B67
:103B6000DB8A184608F0EAF9034687F82F3097F801
:103B70002F30002B06D097F82F3019463D480BF018
:103B800003FE64E03C480BF06DFE60E03B480BF048
:103B900069FE5CE03A480BF065FE58E039480BF0EE
:103BA00061FE7B6A0233D3F80230194636480BF0C7
:103BB000EBFD7B6A0233D3F80230194633480BF031
:103BC000E3FD2B4BDB8A0121184608F00BFA034674
:103BD00087F82F3097F82F30002B06D097F82F302A
:103BE00019462B480BF0D0FD31E02A480BF03AFE85
:103BF0002DE07B6A02333B6227480BF033FE3B6AC1
:103C00009B78002B03D125480BF02CFE08E03B6A83
:103C10009B7819463B6ADB781A4621480BF0B4FDC5
:103C20000A200BF0C3FD12E01E4B01221A700EE0B9
:103C30001D480BF0A9FD0AE0012001F017F80C4B1C
:103C400093F882300A211846FEF7F6FC00BF01E027
:103C500000BF00E000BF012318463037BD46B0BDAD
:103C6000C01F0108E81F0108142001084C200108AA
:103C7000F006002070200108A0200108C8200108DB
:103C8000F4200108242101085821010874210108A9
:103C90008C210108DC21010824220108502201089E
:103CA000682201087D070020A422010880B500AF2A
:103CB00000F0ACFC00BF80BD80B500AF0021022049
:103CC0000AF01AFF00BF80BD80B400AF00BFBD4640
:103CD0005DF8047B7047000080B582B000AF064BF2
:103CE0003B60064B7B603B461946054809F042F8AD
:103CF00000BF0837BD4680BD2800032035440008BA
:103D0000FD430008F0B58DB006AF00233B80922341
:103D1000FB75A5480BF0A6FD08F0B7FD0346FB7543
:103D2000FB7D002B05D0FB7D1946A0480BF02CFD38
:103D300002E09F480BF096FD00F040FA38613A69C6
:103D40000621002008F061FC0346FB75FB7D002B7B
:103D500005D0FB7D194697480BF016FD21E09648EB
:103D60000BF080FD3B6905331B7818463B69043333
:103D70001B781C463B6903331B781D463B690233A5
:103D80001B781A463B6901331B7819463B691B783F
:103D90000293019100922B462246014687480BF080
:103DA000F3FC3B6905331A78854B1A723B6904337F
:103DB0001A78834B5A723B6903331A78804B9A7294
:103DC0003B6902331A787E4BDA723B6901331A7809
:103DD0007B4B1A733B691A78794B5A73794A1021D5
:103DE000182008F012FC0346FB75FB7D002B05D064
:103DF000FB7D194674480BF0C7FC02E073480BF0DA
:103E000031FD734A1021082008F0FFFB0346FB75C3
:103E1000FB7D002B05D0FB7D19466E480BF0B4FCF2
:103E200002E06D480BF01EFD1821012008F072FC25
:103E30000346FB75FB7D002B05D0FB7D19466748CB
:103E40000BF0A2FC02E066480BF00CFD08F031F923
:103E50000346FB75FB7D002B05D0FB7D19466148B1
:103E60000BF092FC02E060480BF0FCFC0023FB73BB
:103E7000FB7B43F00103FB73FB7B002B2BD05B4BE5
:103E8000BB60BA1DF87BBB1C01933B1D009313461E
:103E90000722002107F00FFF0346FB75FB7D002B77
:103EA00005D0FB7D194652480BF06EFC02E05148EC
:103EB0000BF0D8FCFC88BD88B868FCF7C1F9034654
:103EC000DAB2BB680093134600222946204608F068
:103ED000F3FA0346FB75F88879883B460093022382
:103EE000002208F0E9FA0346FB75022202210020B5
:103EF00008F06DFD0346FB75FB7D002B05D0FB7DB7
:103F000019463D480BF040FC02E03C480BF0AAFC8F
:103F10003B4B01221A703A4B1B78184607F04CFDB8
:103F20000346FB75FB7D002B05D0FB7D194635480C
:103F30000BF02AFC02E034480BF094FC304B0122D9
:103F40005A702F4B08221A712D4B10225A712C4B8C
:103F50000022DA702A4B2D4A9A60294B01229A706E
:103F6000274B9C78264B5D78254B1B79244A527948
:103F70002349C9782248806800260496039002915C
:103F800001920093002301222946204607F068FD94
:103F90000346FB75FB7D002B3CD0FB7D19461C487E
:103FA0000BF0F2FB39E000BFCC220108F822010837
:103FB0002823010848230108A4230108F02301084D
:103FC000100000205C2F01082C2401088424010823
:103FD0006C2F0108CC240108242501086C25010858
:103FE000AC250108DC25010810260108342601084B
:103FF0003C2601086C2601088C260108C826010809
:10400000F0060020F42601083427010807B2010059
:10401000642701080E480BF025FC0E4B9B78002B03
:104020000FD007F067FF0346FB75FB7D002B05D023
:10403000FB7D194608480BF0A7FB02E007480BF090
:1040400011FC07480BF0A0FB00BF1C37BD46F0BDBC
:10405000B0270108F0060020EC2701082C280108F1
:104060005C28010880B58CB008AF0346FB71922331
:10407000FB72FB79012B06D1414B1B88FB81414B25
:104080001B88BB8105E04FF4C863FB814FF47A6362
:10409000BB813D4B93F881301846FEF749FAFB7916
:1040A000022B19D1384B93F88030012B04D0364BBA
:1040B00093F88030022B0FD107F060FB0346FB72B0
:1040C000FB7A002B05D0FB7A194630480BF05CFBDD
:1040D00002E02F480BF0C6FB2B4AFB7982F88030B8
:1040E000294B1B7EBA89F989002006900020059093
:1040F000284804900393284B02930823019300233C
:1041000000930023002007F05DFB0346FB72FB7A5F
:10411000002B05D0FB7A194620480BF035FB02E056
:104120001F480BF09FFB1F490E2007F071FE03464E
:10413000FB72FB7A002B0ED0FB79012B05D1FB7AA9
:10414000194619480BF020FB17E0FB7A194617486F
:104150000BF01AFB11E0FB79012B0AD114480BF08C
:1041600013FB094B93F8813012491846FEF764FAA5
:1041700003E011480BF008FB00BF1037BD4680BDBF
:104180007407002076070020F00600208828010828
:10419000D4280108090700207C2F01081C290108E8
:1041A00054290108100000207C290108B0290108C9
:1041B000E829010846E00100102A010880B586B010
:1041C00000AFFFF745FA38613B69B3F1FF3F23D0F9
:1041D000FFF756FAB860FFF747FA78603B69DAB242
:1041E000164B1A703B691B0ADAB2144B5A707B6883
:1041F000DAB2124B9A70BB68DAB2104BDA70BB6855
:104200001B0ADAB20D4B1A71BB681B0CDAB20B4BEE
:104210005A710A4B7B610BE0002008F067FFF860E1
:10422000FB68002B02D0FB687B6101E0044B7B61E3
:104230007B6918461837BD4680BD00BFE8060020E0
:10424000542F010880B582B000AF012000F028FD96
:10425000104B93F88030052B17D09223FB7107F099
:104260008DFA0346FB710B4B002283F88020FB790B
:10427000002B03D008480BF087FA06E007480BF044
:1042800083FA07480BF080FA00BF00BF0837BD462D
:1042900080BD00BFF0060020402A0108642A010802
:1042A0006C2A010880B500AF002101200AF024FC2F
:1042B00000BF80BD80B500AF012000F0F1FC00BF61
:1042C00080BD000090B589B002AF0346FB80294B4A
:1042D0001B78012B49D1274B00221A70264B1B78E3
:1042E0000133002B03F00103B8BF5B42DAB2224B6B
:1042F0001A70214B1B78214A9B00134493ED007ADE
:10430000F7EE046AC7EE267AFDEEE77A17EE903AEA
:10431000FB82194B1B78194A9B00134493ED007ADA
:10432000F7EE046AC7EE267AFDEEE77A17EE903ACA
:10433000BB8200237B824FF4FA733B82104BD88AF6
:104340007C8ABA8AF98A3B8A0093234608F0BCFB30
:104350000346FB73FB7B002B03D00A480BF014FAD7
:1043600003E009480BF010FA00BF00BF1C37BD4640
:1043700090BD00BF7D0700207C07002008000020C2
:10438000F0060020882A0108B02A010880B500AF95
:10439000084B93F88030012B0AD0064B93F88030FD
:1043A000002B05D0034BDB8A1846FFF78BFF00BFBD
:1043B00000BF80BDF006002080B582B000AF7860FD
:1043C000002104200AF098FB00BF0837BD4680BDDD
:1043D00080B582B000AF786001200AF0F9FB00BF21
:1043E0000837BD4680BD80B582B000AF786001203F
:1043F0000AF00EFC00BF0837BD4680BD80B584B012
:1044000000AF78607B68FB60FB685B680833184628
:1044100009F076FF0346FB72FB7A002B03D0FB68A2
:1044200001221A7003E0FB6800221A7000BF1037E7
:10443000BD4680BD80B584B000AF0346FB71FB79FB
:10444000002B02D0012B06D00BE03F23FB60F86865
:104450000AF07EFB05E03F23FB60F8680AF098FB5A
:1044600000BF00BF1037BD4680BD000080B582B0E0
:1044700000AF78607B681B78032B1AD0032B6BDCB2
:10448000002B02D0012B0AD066E0374B01221A70B4
:1044900036480BF0E7F936480BF076F95FE0324B1F
:1044A00000221A7033480BF0DDF931480BF06CF93B
:1044B00055E07B685B681B78002B23D17B685B68C9
:1044C00001331B78012B0BD1002000F0CFFB2A48D1
:1044D0000BF0C8F926480BF057F9234B01229A70CC
:1044E0007B685B6801331B78002B0BD1002000F048
:1044F000D7FB22480BF0B6F91D480BF045F91A4BD3
:1045000000229A707B685B681B78012B26D17B6840
:104510005B6801331B78012B0BD1002000F0A6FB58
:1045200017480BF09FF912480BF02EF90E4B0122A1
:104530009A707B685B6801331B78002B0ED10020DA
:1045400000F0AEFB0F480BF08DF909480BF01CF999
:10455000054B00229A7001E000BF00E000BF00BFE1
:104560000837BD4680BD00BF80070020E02A010853
:10457000142B0108182B01084C2B0108742B01087F
:104580009C2B0108C42B010880B582B000AF786075
:104590007B681B78002B05D0012B00D003E000F0D6
:1045A0001BF800E000BF00BF0837BD4680BD00001B
:1045B00080B500AF064A002108200AF07BFA054BBF
:1045C00000221A7000F008F800F0E0FF00BF80BD84
:1045D0001D4600088007002080B500AF002000F0D5
:1045E0005FFB08480BF03EF9074B01225A70064B5F
:1045F00000229A70044B0122DA70034B00221A71D8
:1046000000BF80BDEC2B01088007002080B500AF03
:10461000002108200AF070FA00BF80BDB0B590B04C
:1046200000AF244B1B79002B03D1224B01221A71BE
:1046300002E0204B00221A711F4B07F110041D46A7
:104640000FCD0FC495E80F0084E80F0007F11003A9
:10465000184601F033F83B4607F1100211461846A0
:1046600000F07AFE07F130033C4620686168A268DA
:1046700007C3A2891A8007F13003184600F0CCFE68
:104680000C4B1B78002B0ED00C480BF07DF80C481F
:104690000BF07AF807F13003082219464FF6426012
:1046A00008F056FE03E007480BF06EF800BF4037F5
:1046B000BD46B0BD80070020882C0108FC2B0108F6
:1046C000142B01083C2C010880B400AF054BDB68BB
:1046D000044A43F40043D36000BFBD465DF8047B49
:1046E000704700BF0004005880B483B000AF78600A
:1046F000064BD3F8D42005497B681343C1F8D43066
:1047000000BF0C37BD465DF8047B704700080058B9
:1047100080B483B000AF7860054B1A6A04497B68A7
:1047200013430B6200BF0C37BD465DF8047B704736
:104730000008005880B485B000AF78604FF0B043F7
:104740001A6D4FF0B0417B6813430B654FF0B043D7
:104750001A6D7B681340FB60FB6800BF1437BD46D1
:104760005DF8047B704780B485B000AF78604FF08F
:10477000B043D3F850214FF0B0417B681343C1F8E8
:1047800050314FF0B043D3F850217B681340FB60A9
:10479000FB6800BF1437BD465DF8047B704780B4EA
:1047A00083B000AF78607B681B6843F480327B681D
:1047B0001A6000BF0C37BD465DF8047B704780B4BB
:1047C00083B000AF78607B681B6843F001027B68B0
:1047D0001A6000BF0C37BD465DF8047B704780B49B
:1047E00083B000AF786039607B685A683B681B040F
:1047F000DB431A407B685A6000BF0C37BD465DF84A
:10480000047B704780B483B000AF786039607B6808
:104810005A683B681B041A437B685A6000BF0C3718
:10482000BD465DF8047B704780B483B000AF78600C
:1048300039607B685A683B68DB431A407B685A6082
:1048400000BF0C37BD465DF8047B704780B483B071
:1048500000AF786039607B683A689A6000BF0C37B7
:10486000BD465DF8047B704780B483B000AF7860CC
:1048700039603B681A047B689A6000BF0C37BD46FC
:104880005DF8047B704780B483B000AF7860396016
:104890007B68DA683B6813403A689A4201D1012389
:1048A00000E0002318460C37BD465DF8047B7047D6
:1048B00080B483B000AF786039607B68DA693B68A8
:1048C00013403A689A4201D1012300E000231846C0
:1048D0000C37BD465DF8047B7047000080B500AF23
:1048E00002211848FFF7E4FF0346002B08D0154BC0
:1048F0005B6803F00203002B02D100F0D5F81EE044
:1049000001211048FFF7D4FF0346002B08D00D4BC0
:104910005B6803F00103002B02D100F089F80EE080
:1049200008210848FFF7C4FF0346002B08D0054BB9
:104930005B6803F00803002B02D100F001F900BF0F
:1049400000BF80BD000C005880B500AF02211848A0
:10495000FFF799FF0346002B08D1154B5B6803F462
:104960000033002B02D100F093F81EE0082110481C
:10497000FFF789FF0346002B08D10D4B5B6803F45A
:104980000023002B02D100F0BDF80EE020210848E2
:10499000FFF779FF0346002B08D1054B5B6803F452
:1049A0000013002B02D100F04FF800BF00BF80BD04
:1049B000000C005880B500AF4FF48010FFF7D3FE15
:1049C0004FF40070FFF7A4FE4FF40070FFF78CFE69
:1049D00040BF20BFFFF778FE00BF80BD80B500AFAD
:1049E0004FF48010FFF7A6FE0648FFF7E8FE0548E3
:1049F000FFF7D5FE2C2001F032F92D2001F02FF920
:104A000000BF80BD000C005880B500AF01210248F6
:104A1000FFF70AFF00BF80BD000C005880B500AF53
:104A200001210248FFF720FF00BF80BD000C0058A5
:104A300080B500AF09F048FD01210248FFF706FFED
:104A400000BF80BD000C005880B500AF2021034896
:104A5000FFF7D8FE09F068FD00BF80BD000C0058CC
:104A600080B500AF02210248FFF7DEFE00BF80BD27
:104A7000000C005880B500AF02210448FFF7F4FE97
:104A800002210248FFF7ABFE00BF80BD000C0058BA
:104A900080B500AF02210348FFF7B4FE09F094FD92
:104AA00000BF80BD000C005880B500AF09F0A2FD2A
:104AB00002210248FFF7CAFE00BF80BD000C00586B
:104AC00080B582B000AF786008210C48FFF7DBFEAC
:104AD0000346002B07D00A4A7B6813600821074869
:104AE000FFF77DFE06E07B68984708210348FFF743
:104AF000BBFE00BF0837BD4680BD00BF000C00589C
:104B00008807002080B500AF08210648FFF77AFE2D
:104B1000054B1B68984708210248FFF7A5FE00BF18
:104B200080BD00BF000C00588807002080B500AF92
:104B300008210248FFF778FE00BF80BD000C005836
:104B400080B500AF09F0FEFD08210248FFF77EFEA8
:104B500000BF80BD000C0058D458C4500433C418A2
:104B60008C42F9D37047036004308842FBD370470E
:104B70000C48854600F00AFE0B480C490C4A0023FD
:104B8000FFF7EDFF0B480C490023FFF7EEFF0B4842
:104B90000B490023FFF7E9FF0AF09CFFFDF71CFF1C
:104BA000FEE700000000032008000020140200209F
:104BB000F4330108500200204C1A0020E4010320C5
:104BC000670A0320FEE780B485B000AF78604FF03D
:104BD000B043DA6C4FF0B0417B681343CB644FF0C5
:104BE000B043DA6C7B681340FB60FB6800BF14378E
:104BF000BD465DF8047B704780B588B000AF0346C2
:104C0000FB7107F10C0300221A605A609A60DA60A7
:104C10001A610220FFF7D7FFFB79124A32F81330EE
:104C2000FB6001233B6100237B610223BB61FB79B5
:104C30000D4A52F8233007F10C021146184601F0D4
:104C4000E7FBFB79084A52F82300FB79054A32F862
:104C500013300022194601F04BFD00BF2037BD463E
:104C600080BD00BF842F01082000002080B582B0E5
:104C700000AF0346FB71FB79074A52F82300FB792A
:104C8000064A32F813300122194601F031FD00BF07
:104C90000837BD4680BD00BF20000020842F0108DA
:104CA00080B582B000AF0346FB71FB79074A52F82A
:104CB0002300FB79064A32F813300022194601F02E
:104CC00017FD00BF0837BD4680BD00BF2000002093
:104CD000842F010880B588B000AF03460A46FB71F7
:104CE0001346BB7107F10C0300221A605A609A60E8
:104CF000DA601A61FB79002B03D10420FFF763FF10
:104D00000CE0FB79012B03D10820FFF75CFF05E0E5
:104D1000FB79022B02D10820FFF755FFBB79002B4E
:104D200017D1FB79204A32F81330FB6000233B6136
:104D300001237B610223BB61FB791C4A52F82330BB
:104D400007F10C021146184601F062FB0120FCF746
:104D50006FFDBB79012B23D1FB79134A32F8133055
:104D6000FB6001237B614FF404133B61FB790F4A25
:104D700052F8233007F10C021146184601F048FBA7
:104D8000FB790B4AD35C5BB200220F21184600F07E
:104D90004CFFFB79064AD35C5BB2184600F05FFF1C
:104DA00000BF2037BD4680BD8C2F01082C0000209D
:104DB000942F010880B59CB000AF7860164A07F1C7
:104DC00008031146602218460AF0ABFE0023BB66BA
:104DD00017E0BB6E9B0070333B4453F8683C99B2BC
:104DE000BB6E7A681A4401237220FEF7C5FA0346A7
:104DF00087F86F3097F86F30002B06D1BB6E013308
:104E0000BB66BB6E182BE4DD00E000BF97F86F3087
:104E100018467037BD4680BDA82C010880B582B009
:104E200000AF786039603B68B3F5807F16DC3B6883
:104E3000002B13DD3B68DAB27B680133013AD2B252
:104E40001A707B685A1C012381217220FEF762FAD6
:104E50000346054A1360044B1B6801E04FF0FF3323
:104E600018460837BD4680BDBC07002080B582B01B
:104E700000AF78600B46FB70FB78002B09D07B6895
:104E800008331A787B68083342F00402D2B21A70F1
:104E900008E07B6808331A787B68083322F07F02C9
:104EA000D2B21A707B6803F1080201238D217220AF
:104EB000FEF730FA0346034A136000BF184608376E
:104EC000BD4680BDBC07002080B582B000AF7860D1
:104ED0000B46FB701346BB70FB78002B09D07B6838
:104EE00009331A787B68093342F00802D2B21A708B
:104EF00008E07B6809331A787B68093322F00802DE
:104F0000D2B21A70BB78402B3AD0402B42DC102B27
:104F100023D0102B3EDC012B02D0042B0AD039E029
:104F20007B6809331A787B68093322F00302D2B216
:104F30001A7041E07B6809331A787B68093322F0E4
:104F40000202D2B21A707B6809331A787B6809337F
:104F500042F00102D2B21A702EE07B6809331A784F
:104F60007B68093322F00102D2B21A707B680933E0
:104F70001A787B68093342F00202D2B21A701BE041
:104F80007B6809331A787B68093342F00302D2B296
:104F90001A7011E07B6809331A787B68093322F0B4
:104FA0000202D2B21A707B6809331A787B6809331F
:104FB00042F00102D2B21A707B6803F109020123A8
:104FC00090217220FEF7A6F90346044A1360034BB2
:104FD0001B6818460837BD4680BD00BFBC070020CF
:104FE00080B582B000AF78600B46FB70FB78002B79
:104FF00009D07B6815331A787B68153342F01002AC
:10500000D2B21A7008E07B6815331A787B681533C2
:1050100002F00402D2B21A707B6803F11502012378
:105020009F217220FEF776F90346034A136000BF02
:1050300018460837BD4680BDBC07002080B582B049
:1050400000AF78600B46FB701346BB70FB78002BFB
:1050500009D07B6816331A787B68163362F07F02BA
:10506000D2B21A7008E07B6816331A787B68163360
:1050700002F07F02D2B21A70BB78002B09D07B6895
:1050800016331A787B68163342F01002D2B21A70C7
:1050900008E07B6816331A787B68163322F010021A
:1050A000D2B21A707B6803F116020123AB21722081
:1050B000FEF730F90346044A1360034B1B68184699
:1050C0000837BD4680BD00BFBC07002080B582B058
:1050D00000AF78600B46FB701346BB70FB78002B6B
:1050E00009D07B6817331A787B68173362F07F0228
:1050F000D2B21A7008E07B6817331A787B681733CE
:1051000002F07F02D2B21A70BB787F2B09D17B6884
:1051100017331A787B68173342F07F02D2B21A70C5
:1051200008E07B6817331A787B68173322F07F0218
:10513000D2B21A707B6803F117020123D6217220C4
:10514000FEF7E8F80346044A1360034B1B68184651
:105150000837BD4680BD00BFBC07002080B582B0C7
:1051600000AF78600B46FB701346BB70FB78002BDA
:1051700009D07B6818331A787B68183342F0100224
:10518000D2B21A7008E07B6818331A787B6818333B
:1051900022F01002D2B21A70BB78002B09D07B68C3
:1051A00018331A787B68183362F07F02D2B21A7013
:1051B00008E07B6818331A787B68183302F07F02A6
:1051C000D2B21A707B6803F118020123DD2172202C
:1051D000FEF7A0F80346044A1360034B1B68184609
:1051E0000837BD4680BD00BFBC07002080B582B037
:1051F00000AF78600B46FB701346BB70FB78002B4A
:1052000007D07B681B7843F00803DAB27B681A701A
:1052100006E07B681B7823F00803DAB27B681A701B
:10522000BB78002B07D07B681B7843F00303DAB20E
:105230007B681A7006E07B681B7823F00303DAB200
:105240007B681A7001237A6880217220FEF762F869
:105250000346044A1360034B1B6818460837BD46D3
:1052600080BD00BFBC07002080B582B000AF786071
:105270007B6800221A7001237A6880217220FEF771
:1052800049F80346034A1360024B1B681846083767
:10529000BD4680BDBC07002080B582B000AF7860FD
:1052A0007868FFF7E1FF12217868FFF7B7FD00216A
:1052B0007868FFF7DBFD102200217868FFF704FE15
:1052C00001217868FFF78CFE002200217868FFF743
:1052D000B5FE7F2200217868FFF7F8FE002200214A
:1052E0007868FFF73BFF00BF0837BD4680BD000070
:1052F00080B582B000AF786002237A689421722072
:10530000FEF73AF80346134A13607B689A1C02239F
:1053100096217220FEF730F803460E4A13607B6830
:105320001A1D022398217220FEF726F80346094A27
:1053300013607B689A1D02239A217220FEF71CF8E5
:105340000346044A1360034B1B6818460837BD46E2
:1053500080BD00BFBC07002090B587B000AF78606B
:1053600039603B6818331846FFF7C2FF0346002B2D
:105370000AD07B681C4607F1080307CB20606160F8
:10538000A2601B88A38143E00023FB823B685B7E15
:10539000FB82FB8A1B021AB23B681B7E1BB21343C3
:1053A0001BB29BB2BB813B68DB7EFB82FB8A1B028C
:1053B0001AB23B689B7E1BB213431BB29BB27B812C
:1053C0003B685B7FFB82FB8A1B021AB23B681B7F38
:1053D0001BB213431BB29BB2FB813B68DB7FFB829A
:1053E000FB8A1B021AB23B689B7F1BB213431BB2A2
:1053F0009BB23B810023BB8200237B827B681C46DF
:1054000007F1080307CB20606160A2601B88A381BD
:1054100078681C37BD4690BDB0B586B004AF7860E3
:105420007B681B8818467B685B881C467B689B886A
:105430001D467B68DB881A467B685B8919467B685A
:105440009B890293019100922B4622460146034814
:105450000AF09AF900BF0837BD46B0BD082D010813
:1054600080B582B000AF78607B681846FFF714FF04
:105470007B68002200211846FFF770FE03461A4A97
:1054800013607B68002200211846FFF7D7FD034612
:10549000154A13607B680121184600F0EFF8786820
:1054A00000F024F87B68184600F054F97B689A1CD9
:1054B000012383217220FDF72DFF7B68012200214B
:1054C0001846FFF793FE0346074A13607B681846A9
:1054D000FFF770FC0346044A1360034B1B68184631
:1054E0000837BD4680BD00BFBC07002090B589B01D
:1054F00000AF7861234C3B4679691846FFF72CFFD3
:1055000023463C4620686168A26807C3A2891A80C6
:105510001C4B9B88FB61FB69002B02DC0123FB61B8
:1055200007E0FB694FF6F472934202DD4FF6F47325
:10553000FB617A69FB699BB2013B9BB2194610463D
:1055400000F030F87A69FB699BB201339BB21946CF
:10555000104600F05DF8FB69591EFB6901331A46DD
:1055600009480AF011F97B69184600F0F3F87B69E5
:10557000002201211846FFF7F1FD00BF2437BD4688
:1055800090BD00BFAC070020402D010880B500AFE2
:10559000FDF782FE0248FFF763FF00BF80BD00BF3A
:1055A0008C07002080B584B000AF78600B467B800C
:1055B0007B884FF6F572934224D87B88FB81FB8968
:1055C0007B737B6803337A7B1A70FB891B0A9BB25F
:1055D0003B737B6804333A7B1A707B68DA1C0123C7
:1055E00084217220FDF796FE0346084A13607B680B
:1055F0001A1D012385217220FDF78CFE0346034A04
:10560000136000E000BF1037BD4680BDBC0700201E
:1056100080B584B000AF78600B467B807B884FF606
:10562000F572934224D87B88FB81FB897B737B686E
:1056300005337A7B1A70FB891B0A9BB23B737B682C
:1056400006333A7B1A707B685A1D0123862172202B
:10565000FDF760FE0346084A13607B689A1D01232C
:1056600087217220FDF756FE0346034A136000E0CF
:1056700000BF1037BD4680BDBC07002080B582B09A
:1056800000AF78600B46FB70FB780F2B01D90F231E
:10569000FB707B680733FA781A707B68DA1D012388
:1056A0008C217220FDF736FE0346034A136000BFCB
:1056B0000837BD4680BD00BFBC07002080B59CB048
:1056C00000AF7860204A07F10803114664221846AB
:1056D0000AF027FA0023FB6622E0FB6E9B00703382
:1056E0003B4453F8683C99B27A68FB6E1A44012334
:1056F0007220FDF741FEFB6E9B0070333B4453F874
:10570000681C7A68FB6E13441B78FA6E0F480AF027
:105710003BF80F4B1B68002B06D1FB6E0133FB6679
:10572000FB6E182BD9DD00E000BF7B6803F10C0293
:10573000102393217220FDF7EDFD0346044A136008
:1057400000BF7037BD4680BD6C2D01085C2D01087F
:10575000BC07002080B582B000AF78607B680C3356
:10576000FF221A707B6803F10C020123932172203F
:10577000FDF7D0FD0346044A1360034B1B6818462F
:105780000837BD4680BD00BFBC07002080B400AF15
:10579000264B00229A60254BD3F88830234A43F4E5
:1057A0007003C2F888304FF0B0431B684FF0B0422E
:1057B00043F0010313604FF0B0434FF4E0229A60CE
:1057C0004FF0B0431A684FF0B041194B13400B60D3
:1057D0004FF0B043D3F894304FF0B04223F00503BC
:1057E000C2F894304FF0B043D3F898304FF0B04245
:1057F00023F00103C2F898304FF0B0430D4ADA604D
:105800004FF0B0430B4A1A614FF0B0431B684FF0A2
:10581000B04223F4802313604FF0B04300229A611A
:1058200000BFBD465DF8047B704700BF00ED00E09F
:10583000FBFEF6FA0010042280B400AF054B5B6853
:10584000044A43F00103536000BFBD465DF8047B8A
:10585000704700BF002004E080B400AF054B5B68D8
:10586000044A43F00203536000BFBD465DF8047B69
:10587000704700BF002004E080B582B000AF002375
:10588000FB710C4B1B680B4A43F4807313600320BD
:1058900000F0C0F9002000F00FF80346002B02D002
:1058A0000123FB7101E0FDF7A4FAFB7918460837E4
:1058B000BD4680BD0040005880B584B000AF786020
:1058C0000023FB73174B1B78002B24D002F0D0FE73
:1058D0000246144B1B7819464FF47A73B3FBF1F36D
:1058E000B2FBF3F3184600F0D6F90346002B0FD1B4
:1058F0007B680F2B09D8002279684FF0FF3000F049
:1059000094F9094A7B68136007E00123FB7304E004
:105910000123FB7301E00123FB73FB7B1846103767
:10592000BD4680BD400000203C00002080B400AF98
:10593000064B1B781A46064B1B681344044A136037
:1059400000BFBD465DF8047B704700BF40000020EB
:10595000C007002080B400AF034B1B681846BD464B
:105960005DF8047B704700BFC007002080B400AF23
:10597000034B1B681846BD465DF8047B704700BFAB
:105980003C00002080B400AF034B1B781846BD4696
:105990005DF8047B704700BF4000002080B500AF79
:1059A000FFF74AFF00BF80BD80B500AFFFF754FF8F
:1059B00000BF80BD80B485B000AF78607B6803F025
:1059C0000703FB600C4BDB68BB60BA684FF6FF0354
:1059D0001340BB60FB681A02BB68134343F0BF630C
:1059E00043F40033BB60044ABB68D36000BF143784
:1059F000BD465DF8047B704700ED00E080B400AF69
:105A0000044BDB681B0A03F007031846BD465DF82C
:105A1000047B704700ED00E080B483B000AF034624
:105A2000FB7197F90730002B0BDBFB7903F01F02AA
:105A3000074997F907305B09012000FA02F241F8A3
:105A4000232000BF0C37BD465DF8047B704700BFC4
:105A500000E100E080B483B000AF0346FB7197F92A
:105A60000730002B12DBFB7903F01F020A4997F97C
:105A700007305B09012000FA02F2203341F82320AD
:105A8000BFF34F8F00BFBFF36F8F00BF00BF0C3756
:105A9000BD465DF8047B704700E100E080B483B050
:105AA00000AF0346FB7197F90730002B0CDBFB7945
:105AB00003F01F02074997F907305B09012000FA3C
:105AC00002F2403341F8232000BF0C37BD465DF899
:105AD000047B704700E100E080B483B000AF034670
