:020000040800F2
:1000000000000320A9600008714300087F43000836
:10001000854300088B43000891430008000000005E
:1000200000000000000000000000000097430008EE
:10003000A543000800000000B3430008C1430008C6
:10004000FD600008FD600008FD600008CD43000869
:10005000FD600008FD6000081F4400082D440008F2
:10006000FD600008FD60000811440008FD60000804
:10007000FD600008FD600008FD600008FD600008EC
:10008000FD600008FD600008FD600008FD600008DC
:10009000D9430008FD600008FD600008FD6000080D
:1000A000FD600008FD600008FD600008FD600008BC
:1000B000FD600008FD600008FD600008FD600008AC
:1000C000FD600008FD600008FD600008FD6000089C
:1000D000FD600008FD600008FD600008FD6000088C
:1000E000FD600008FD600008FD600008FD6000087C
:1000F000ED430008F943000805440008FD600008CE
:10010000FD600008FD600008FD600008FD6000085B
:10011000FD600008FD600008FD600008FD6000084B
:10012000FD600008FD600008FD600008FD6000083B
:0C013000FD600008FD600008FD60000894
:1001400010B5054C237833B9044B13B10448AFF311
:1001500000800123237010BD8003002000000000F8
:10016000A49A010808B5034B1BB103490348AFF338
:10017000008008BD0000000084030020A49A01084C
:1001800001F0FF01102A2BDB10F0070F08D010F848
:10019000013B013A8B422DD010F0070F42B3F6D14C
:1001A000F0B441EA012141EA014122F007047FF065
:1001B00000070023F0E80256083C85EA010586EABC
:1001C000010685FA47F5A3FA87F586FA47F6A5FAF8
:1001D00087F68EB9EED1F0BC01F0FF0102F0070204
:1001E00032B110F8013B013A83EA010313B1F8D1AF
:1001F0000020704701387047002D06BF3546033890
:10020000073815F0010F07D1013015F4807F02BFC8
:10021000013015F4C03F0130F0BC0138704700BF19
:10022000034613F8012B002AFBD1181A0138704736
:1002300081F0004102E000BF83F0004330B54FEA97
:1002400041044FEA430594EA050F08BF90EA020F04
:100250001FBF54EA000C55EA020C7FEA645C7FEA97
:10026000655C00F0E2804FEA5454D4EB5555B8BFBA
:100270006D420CDD2C4480EA020281EA030382EA2B
:10028000000083EA010180EA020281EA0303362DBD
:1002900088BF30BD11F0004F4FEA01314FF4801C90
:1002A0004CEA113102D0404261EB410113F0004FA2
:1002B0004FEA03334CEA133302D0524263EB430359
:1002C00094EA050F00F0A780A4F10104D5F1200EF7
:1002D0000DDB02FA0EFC22FA05F2801841F1000152
:1002E00003FA0EF2801843FA05F359410EE0A5F126
:1002F00020050EF1200E012A03FA0EFC28BF4CF057
:10030000020C43FA05F3C01851EBE37101F000450C
:1003100007D54FF0000EDCF1000C7EEB00006EEB19
:100320000101B1F5801F1BD3B1F5001F0CD34908A3
:100330005FEA30004FEA3C0C04F101044FEA4452FA
:1003400012F5800F80F09A80BCF1004F08BF5FEA81
:10035000500C50F1000041EB045141EA050130BD61
:100360005FEA4C0C404141EB0101013C28BFB1F573
:10037000801FE9D291F0000F04BF01460020B1FABE
:1003800081F308BF2033A3F10B03B3F120020CDA91
:100390000C3208DD02F1140CC2F10C0201FA0CF06F
:1003A00021FA02F10CE002F11402D8BFC2F1200CD4
:1003B00001FA02F120FA0CFCDCBF41EA0C0190408A
:1003C000E41AA2BF01EB0451294330BD6FEA0404D3
:1003D0001F3C1CDA0C340EDC04F11404C4F12002BE
:1003E00020FA04F001FA02F340EA030021FA04F3D0
:1003F00045EA030130BDC4F10C04C4F1200220FA27
:1004000002F001FA04F340EA0300294630BD21FA64
:1004100004F0294630BD94F0000F83F4801306BF2A
:1004200081F480110134013D4EE77FEA645C18BF1E
:100430007FEA655C29D094EA050F08BF90EA020FB5
:1004400005D054EA000C04BF1946104630BD91EAAD
:10045000030F1EBF0021002030BD5FEA545C05D1B0
:100460004000494128BF41F0004130BD14F58004EF
:100470003CBF01F5801130BD01F0004545F0FE4163
:1004800041F470014FF0000030BD7FEA645C1ABF98
:10049000194610467FEA655C1CBF0B46024650EACF
:1004A000013406BF52EA033591EA030F41F40021FB
:1004B00030BD00BF90F0000F04BF0021704730B581
:1004C0004FF4806404F132044FF000054FF0000156
:1004D00050E700BF90F0000F04BF0021704730B517
:1004E0004FF4806404F1320410F0004548BF4042EC
:1004F0004FF000013EE700BF42004FEAE2014FEA41
:1005000031014FEA02701FBF12F07F4393F07F4F1B
:1005100081F06051704732F07F4208BF704793F01E
:100520007F4F04BF41F40021704730B54FF4607431
:1005300001F0004521F000411CE700BF50EA010234
:1005400008BF704730B54FF000050AE050EA0102DD
:1005500008BF704730B511F0004502D5404261EB4D
:1005600041014FF4806404F132045FEA915C3FF48E
:10057000D8AE4FF003025FEADC0C18BF03325FEA2B
:10058000DC0C18BF033202EBDC02C2F1200300FADC
:1005900003FC20FA02F001FA03FE40EA0E0021FA01
:1005A00002F11444BDE600BF70B54FF0FF0C4CF4EF
:1005B000E06C1CEA11541DBF1CEA135594EA0C0FA1
:1005C00095EA0C0F00F0DEF82C4481EA030621EADC
:1005D0004C5123EA4C5350EA013518BF52EA033517
:1005E00041F4801143F4801338D0A0FB02CE4FF0C9
:1005F0000005E1FB02E506F00042E0FB03E54FF0F9
:100600000006E1FB03569CF0000F18BF4EF0010EF0
:10061000A4F1FF04B6F5007F64F5407404D25FEAEC
:100620004E0E6D4146EB060642EAC62141EA55519F
:100630004FEAC52040EA5E504FEACE2EB4F1FD0CE1
:1006400088BFBCF5E06F1ED8BEF1004F08BF5FEA5F
:10065000500E50F1000041EB045170BD06F0004611
:1006600046EA010140EA020081EA0301B4EB5C04BE
:10067000C2BFD4EB0C0541EA045170BD41F48011B6
:100680004FF0000E013C00F3AB8014F1360FDEBFDB
:10069000002001F0004170BDC4F10004203C35DAB7
:1006A0000C341BDC04F11404C4F1200500FA05F33A
:1006B00020FA04F001FA05F240EA020001F00042DB
:1006C00021F0004110EBD37021FA04F642EB060151
:1006D0005EEA430E08BF20EAD37070BDC4F10C047B
:1006E000C4F1200500FA04F320FA05F001FA04F23F
:1006F00040EA020001F0004110EBD37041F100012B
:100700005EEA430E08BF20EAD37070BDC4F1200535
:1007100000FA05F24EEA020E20FA04F301FA05F29D
:1007200043EA020321FA04F001F0004121FA04F245
:1007300020EA020000EBD3705EEA430E08BF20EA15
:10074000D37070BD94F0000F0FD101F0004640004F
:1007500041EB010111F4801F08BF013CF7D041EAD1
:10076000060195F0000F18BF704703F000465200D5
:1007700043EB030313F4801F08BF013DF7D043EAA6
:100780000603704794EA0C0F0CEA135518BF95EA5C
:100790000C0F0CD050EA410618BF52EA4306D1D1E3
:1007A00081EA030101F000414FF0000070BD50EA02
:1007B000410606BF1046194652EA430619D094EA8C
:1007C0000C0F02D150EA013613D195EA0C0F05D176
:1007D00052EA03361CBF104619460AD181EA0301CA
:1007E00001F0004141F0FE4141F470014FF0000082
:1007F00070BD41F0FE4141F4780170BD70B54FF01D
:10080000FF0C4CF4E06C1CEA11541DBF1CEA13559C
:1008100094EA0C0F95EA0C0F00F0A7F8A4EB05047E
:1008200081EA030E52EA03354FEA013100F0888075
:100830004FEA03334FF0805545EA131343EA12633E
:100840004FEA022245EA111545EA10654FEA0026F3
:100850000EF000419D4208BF964244F1FD0404F5AC
:10086000407402D25B084FEA3202B61A65EB030508
:100870005B084FEA32024FF480104FF4002CB6EBC5
:10088000020E75EB030E22BFB61A754640EA0C0045
:100890005B084FEA3202B6EB020E75EB030E22BF85
:1008A000B61A754640EA5C005B084FEA3202B6EBC6
:1008B000020E75EB030E22BFB61A754640EA9C0085
:1008C0005B084FEA3202B6EB020E75EB030E22BF55
:1008D000B61A754640EADC0055EA060E18D04FEA13
:1008E000051545EA16754FEA06164FEAC30343EAB3
:1008F00052734FEAC2025FEA1C1CC0D111F4801F80
:100900000BD141EA00014FF000004FF0004CB6E778
:1009100011F4801F04BF01430020B4F1FD0C88BF17
:10092000BCF5E06F3FF6AFAEB5EB030C04BFB6EB22
:10093000020C5FEA500C50F1000041EB045170BD15
:100940000EF0004E4EEA113114EB5C04C2BFD4EB42
:100950000C0541EA045170BD41F480114FF0000EC6
:10096000013C90E645EA060E8DE60CEA135594EA42
:100970000C0F08BF95EA0C0F3FF43BAF94EA0C0F45
:100980000AD150EA01347FF434AF95EA0C0F7FF4BA
:1009900025AF104619462CE795EA0C0F06D152EA0E
:1009A00003353FF4FDAE1046194622E750EA4106F2
:1009B00018BF52EA43067FF4C5AE50EA41047FF403
:1009C0000DAF52EA43057FF4EBAE12E74FF0FF3C68
:1009D00006E000BF4FF0010C02E000BF4FF0010C39
:1009E0004DF804CD4FEA410C7FEA6C5C4FEA430CB2
:1009F00018BF7FEA6C5C1BD001B050EA410C0CBF01
:100A000052EA430C91EA030F02BF90EA020F002062
:100A1000704710F1000F91EA030F58BF994208BFC9
:100A200090422CBFD8176FEAE37040F00100704786
:100A30004FEA410C7FEA6C5C02D150EA013C07D1DD
:100A40004FEA430C7FEA6C5CD6D152EA033CD3D028
:100A50005DF8040B704700BF8446104662468C4622
:100A60001946634600E000BF01B5FFF7B7FF002855
:100A700048BF10F1000F01BD4DF808EDFFF7F4FF7E
:100A80000CBF012000205DF808FB00BF4DF808ED09
:100A9000FFF7EAFF34BF012000205DF808FB00BF2C
:100AA0004DF808EDFFF7E0FF94BF012000205DF84E
:100AB00008FB00BF4DF808EDFFF7CEFF94BF012003
:100AC00000205DF808FB00BF4DF808EDFFF7C4FFFC
:100AD00034BF012000205DF808FB00BF4FEA410C45
:100AE0007FEA6C5C02D150EA013C0AD14FEA430C28
:100AF0007FEA6C5C02D152EA033C02D14FF0000065
:100B000070474FF0010070474FEA410212F50012A2
:100B100015D211D56FF47873B3EB625212D94FEA44
:100B2000C12343F0004343EA505311F0004F23FA2E
:100B300002F018BF404270474FF00000704750EA83
:100B4000013005D111F0004008BF6FF00040704740
:100B50004FF00000704700BF4FEA4102B2F1E0439E
:100B600024BFB3F5001CDCF1FE5C0DD901F0004C94
:100B70004FEAC0024CEA5070B2F1004F40EB8300E4
:100B800008BF20F00100704711F0804F21D113F110
:100B90003872BCBF01F00040704741F480114FEA49
:100BA0005252C2F11802C2F1200C10FA0CF320FAD2
:100BB00002F018BF40F001004FEAC1234FEAD323EF
:100BC00003FA0CFC40EA0C0023FA02F34FEA430359
:100BD000CCE77FEA625307D150EA01331EBF4FF0E2
:100BE000FE4040F44000704701F0004040F0FE40FD
:100BF00040F40000704700BF80B586B002AFF860D7
:100C0000B9607A603B60BB68002BC0F2BB80BB68F8
:100C1000072B00F3B7807B68002BC0F2B3807B68A2
:100C2000072B00F3AF805A49BB68DA007B68134496
:100C300051F82330002B40F0A780BB685B01FA68B5
:100C400013447A6853F82230B3F5FA7F40F39C805E
:100C50004F49BB68DA007B681344012241F8232026
:100C6000BB691B685A1CBB691A603B6893ED007A2C
:100C7000BB6807EE903AF8EEE77A77EE277A3B68A2
:100C8000C3ED007A3B6893ED017A7B6807EE903AFA
:100C9000F8EEE77A77EE277A3B68C3ED017ABB6816
:100CA0005B01FA6813447A6853F8223003F1310289
:100CB000BB6803F10063013B5B01F9680B44796891
:100CC00053F821309A4208DBBB68591EBB69009378
:100CD0003B687A68F868FFF78FFFBB685B01FA68CA
:100CE00013447A6853F8223003F13102BB680133B0
:100CF0005B01F9680B44796853F821309A4208DBAC
:100D0000BB68591CBB6900933B687A68F868FFF7B9
:100D100073FFBB685B01FA6813447A6853F82230AA
:100D200003F13102BB685B01F9680B447968013952
:100D300053F821309A4208DB7B685A1EBB69009346
:100D40003B68B968F868FFF757FFBB685B01FA6852
:100D500013447A6853F8223003F13102BB685B0117
:100D6000F9680B447968013153F821309A420CDB61
:100D70007B685A1CBB6900933B68B968F868FFF749
:100D80003BFF02E000BF00E000BF1037BD4680BD62
:100D90009C03002080B590B002AF786039600023DA
:100DA0007B6313E000233B630AE054497B6BDA006A
:100DB0003B6B1344002241F823203B6B01333B6320
:100DC0003B6B072BF1DD7B6B01337B637B6B072B6D
:100DD000E8DD0023FB62012387F82B3083E04FF02E
:100DE000FF337B620023BB6143E000237B613AE079
:100DF000BB695B017A6813447A6953F822307A6AD6
:100E00009A421FDABB695B017A6813447A6953F826
:100E10002230B3F5FA7F15DD3849BB69DA007B690A
:100E2000134451F82330002B0CD1BB695B017A6865
:100E300013447A6953F822307B62BB693B627B6959
:100E4000FB610DE0BA697B699A4209D1BB69072B46
:100E500006D17B6AB3F1FF3F02D1002387F82B3024
:100E60007B6901337B617B69072BC1DDBB69013382
:100E7000BB61BB69072BB8DD4FF00003FB604FF08F
:100E800000033B610023BB6007F10C0207F108037C
:100E900000931346FA69396A7868FFF7ADFEBB68BC
:100EA000022B20DDD7ED036ABB6807EE903AB8EE5F
:100EB000E77AFB6ADB003A681344C6EE877AC3ED33
:100EC000007AD7ED046ABB6807EE903AB8EEE77A8D
:100ED000FB6ADB003A681344C6EE877AC3ED017AF9
:100EE000FB6A0133FB6297F82B30002B7FF477AF5E
:100EF000FB6A18463837BD4680BD00BF9C03002002
:100F000080B48DB000AFF860B0EE407AF0EE607A59
:100F100087ED017AC7ED027AD7ED017AFDEEE77A27
:100F200017EE903AFB61D7ED027AFDEEE77A17EE05
:100F3000903ABB614FF00003FB624FF00003BB62CD
:100F400000237B6276E000233B626DE0FA697B6AF6
:100F50001344002B65DBFA697B6A1344072B60DCC2
:100F6000BA693B6A1344002B5BDBBA693B6A1344E2
:100F7000072B56DCFA697B6A13445B01FA68134459
:100F8000B9693A6A0A4453F82230B3F5FA7F48DB6C
:100F90007B6A002B11D1BA693B6A134407EE903A81
:100FA000B8EEE77AD7ED027A77EE677AF0EEE77A75
:100FB000B7EE007A77EE677A10E0FA697B6A13443D
:100FC00007EE903AB8EEE77AD7ED017A77EE677AD6
:100FD000F0EEE77AB7EE007A77EE677AC7ED057A3A
:100FE000FA697B6A13445B01FA681344B9693A6A87
:100FF0000A4453F8223007EE903AB8EEE77AD7ED7C
:10100000057A67EE277A97ED0B7A77EE277AC7EDA8
:101010000B7A97ED0A7AD7ED057A77EE277AC7ED46
:101020000A7A3B6A01333B623B6A012B8EDD7B6AA5
:1010300001337B627B6A012B85DD97ED0B7AD7ED5F
:101040000A7AC7EE276AF0EE667AB0EE670A34379E
:10105000BD465DF8047B704790B5ADF5317D00AFBE
:1010600007F53073A3F52D73186007F53073A3F5FA
:101070002E73196007F53073A3F52F7383ED000A03
:1010800007F53073A3F53073C3ED000A07F11002C2
:1010900007F53073A3F52E7311461868FFF77AFE33
:1010A000024607F53073A3F50273C3F8F82107F57C
:1010B0003073A3F5027307F53072A2F52F72126830
:1010C000C3F8FC2107F53073A3F5027307F53072FE
:1010D000A2F530721268C3F800220023C7F8BC32B0
:1010E00064E007F53073A3F50271D7F8BC2213460C
:1010F0005B001344DB00194407F53073A3F52C7231
:10110000D7F8BC320C46DB00134493E8030084E8B4
:10111000030007F53073A3F52C73D7F8BC22D10078
:10112000194491ED007AD20013440433D3ED007AD0
:1011300007F53073A3F52E73B0EE470AF0EE670A99
:101140001868FFF7DDFEF0EE407A07F53073A3F57F
:101150000271D7F8BC2213465B001344DB000B443A
:101160000833C3ED007A07F53073A3F50271D7F8A1
:10117000BC2213465B001344DB000B4410334FF0DA
:1011800000021A6007F53073A3F50271D7F8BC228C
:1011900013465B001344DB000B4414334FF0000292
:1011A0001A60D7F8BC320133C7F8BC3207F5307388
:1011B000A3F50273D3F8F831D7F8BC229A4290DB3A
:1011C00007F53073A3F52D731A6807F53073A3F58F
:1011D0000273104619464FF401731A4616F04FFC7D
:1011E00007F53073A3F52D73186807F53177BD4601
:1011F00090BD80B487B000AF786039607A683B6892
:101200009A4201D100234AE03B68043B7B6102E043
:101210007B69043B7B617A697B689A4206D97B696A
:10122000043B1A687B691B689A42F1DA7A697B6829
:101230009A4201D1002332E03B68043B3B6102E06B
:101240003B69043B3B613B691A687B69043B1B6853
:101250009A42F5DD7B6953F8043CFB607B69043BF3
:101260003A6912681A603B69FA681A603B68043B85
:101270003B610FE07B691B68FB603B691A687B6917
:101280001A603B69FA681A607B6904337B613B69C9
:10129000043B3B617A693B699A42EBD301231846D0
:1012A0001C37BD465DF8047B704700002DE9F04F08
:1012B00097B000AFF860FB6803F5A043D3F8A830FF
:1012C000002B00F08381FB6803F5A043D3F8A42032
:1012D0001346DB0113449B00FA681344FB63FB686D
:1012E00003F5A043D3F8A43003F12702BA4B83FBE4
:1012F00002131911D317C91A0B469B000B44DB00CC
:10130000D31ABB63BA6B1346DB0113449B00FA6824
:1013100013447B63FB6803F5A043D3F8A830012B8B
:1013200025D100237B651BE0FB6803F5A043D3F8C0
:10133000AC300133FA6802F5A042C2F8AC30FB6869
:1013400003F5A043D3F8AC10F86B7A6D13465B003D
:101350001344DB0003440C3319607B6D01337B6560
:10136000FB6BD3F8F8317A6D9A42DDDB2FE16B46E7
:10137000BB60FB6BD3F8F8313B637B6BD3F8F83180
:10138000FB624FF0FF433B65396B4B1EBB620A4665
:1013900000233A607B604FF000024FF00003786852
:1013A0004301386843EAD063386842010A460023A3
:1013B00092469B464FF000024FF000034FEA4B135A
:1013C00043EADA634FEA4A120B469B000733DB0815
:1013D000DB00ADEB030D6B4603339B089B007B6288
:1013E0003E6B731E3B6232460023904699464FF097
:1013F00000024FF000034FEA491343EAD8634FEA73
:1014000048123246002314461D464FF000024FF0AA
:1014100000036B0143EAD463620133469B00073348
:10142000DB08DB00ADEB030D6B4603339B089B0031
:10143000FB610023FB6407E0FB69FA6CF96C43F87D
:101440002210FB6C0133FB64FA6C3B6B9A42F3DBBA
:101450004FF00003BB6400237B6453E0FB697A6CAC
:1014600053F82230FA6A9A4249DDF96B7A6C1346D6
:101470005B001344DB000B4493ED007AFB697A6C4C
:1014800053F82220796B13465B001344DB000B44B6
:10149000D3ED007A77EE677AC7ED067AF96B7A6C4E
:1014A00013465B001344DB000B44043393ED007AD6
:1014B000FB697A6C53F82220796B13465B00134466
:1014C000DB000B440433D3ED007A77EE677AC7ED87
:1014D000057AD7ED067A27EEA77AD7ED057A67EE7B
:1014E000A77A77EE277AB0EE670A18F03DF9B0EEEA
:1014F000407AD7ED127A77EE877AC7ED127A7B6C55
:1015000001337B647A6C3B6B9A42A7DB97ED127ACE
:10151000D7ED147AB4EEE77AF1EE10FA08D5BB6C89
:101520003B6533469B001A46F969786A16F0A7FABC
:101530003B6B9B00FA6913441946F869FFF759FEA3
:101540000346002B84D100233B6438E07B6A3A6C6D
:1015500053F82230FA6A9A4215DD7B6A3A6C53F8E6
:101560002220796B13465B001344DB000B440C33E1
:101570001968F86B3A6C13465B001344DB000344B4
:101580000C33196018E0FB6803F5A043D3F8AC30C6
:101590000133FA6802F5A042C2F8AC30FB6803F5EB
:1015A000A043D3F8AC10F86B3A6C13465B001344BD
:1015B000DB0003440C3319603B6C01333B643A6C31
:1015C0003B6B9A42C2DBD7F808D000E000BF5C3723
:1015D000BD46BDE8F08F00BF67666666000000008C
:1015E000B0B590B000AF78607B6803F5A043D3F846
:1015F000A830012B40F367817B6803F5A043D3F843
:10160000A4201346DB0113449B007A6813447B62D9
:101610007B6803F5A043D3F8A43003F12702B04B55
:1016200083FB02131911D317C91A0B469B000B44F5
:10163000DB00D31A3B623A6A1346DB0113449B007A
:101640007A681344FB610023FB6334E1796AFA6B27
:1016500013465B001344DB000B440C331B68BB6177
:101660004FF00003BB634FF000037B634FF07E53EA
:101670003B630023FB6283E0F969FA6A13465B006F
:101680001344DB000B440C331B68BA699A4274D1D3
:10169000796AFA6B13465B001344DB000B4493ED4D
:1016A000007AF969FA6A13465B001344DB000B44C5
:1016B000D3ED007A77EE677AC7ED057A796AFA6B2F
:1016C00013465B001344DB000B44043393ED007AB4
:1016D000F969FA6A13465B001344DB000B440433D8
:1016E000D3ED007A77EE677AC7ED047AD7ED057A05
:1016F00027EEA77AD7ED047A67EEA77A77EE277AF6
:10170000B0EE670A18F030F887ED030AD7ED050A46
:1017100097ED040A18F026F887ED020A97ED0E7A85
:10172000D7ED037A77EE277AC7ED0E7A786BFEF75E
:10173000E3FE04460D46D7ED027A9FED6A7A67EE26
:10174000877AB0EE007AC7EE876A16EE900AFEF747
:10175000D3FE5FA3D3E90023FFF750F802460B4600
:1017600020462946FEF76AFD02460B4610461946FA
:10177000FFF7F2F903467B6309E0FB6A0133FB6282
:10178000FB69D3F8F831FA6A9A42FFF675AF002385
:10179000BB6267E0F969BA6A13465B001344DB0079
:1017A0000B440C331B68BA699A4258D1B86BFEF7E8
:1017B000A3FE04460D46F969BA6A13465B0013445A
:1017C000DB000B4414331B681846FEF795FE42A35A
:1017D000D3E90023FEF7E8FE02460B4620462946E1
:1017E000FEF72CFD02460B4610461946FFF7B4F9EA
:1017F0000346BB63786BFEF77FFE04460D46F9692E
:10180000BA6A13465B001344DB000B4410331B68B9
:101810001846FEF771FE30A3D3E90023FEF7C4FE9D
:1018200002460B4620462946FEF708FD02460B46B7
:1018300010461946FFF790F903467B63386BFEF7B5
:101840005BFE25A3D3E90023FEF7F8FC02460B4616
:1018500010461946FFF780F903463B6308E0BB6A70
:101860000133BB62FB69D3F8F831BA6A9A4291DB63
:10187000D7ED0E6A97ED0C7AC6EE877A796AFA6B25
:1018800013465B001344DB000B441433C3ED007AB2
:10189000D7ED0D6A97ED0C7AC6EE877A796AFA6B06
:1018A00013465B001344DB000B441033C3ED007A96
:1018B000FB6B0133FB637B6AD3F8F831FA6B9A4216
:1018C000FFF6C4AE00E000BF4037BD46B0BD00BF6C
:1018D000182D4454FB2109409A9999999999D93F17
:1018E000676666660000B44380B483B000AF78607A
:1018F0007B6803F5A0431A460023C2F8A0307B683A
:1019000003F5A0431A464FF0FF33C2F8A4307B68BA
:1019100003F5A0431A460023C2F8A8307B6803F5FC
:10192000A0431A460023C2F8AC3000BF0C37BD46B6
:101930005DF8047B704780B483B000AF78607B684B
:1019400003F5A043D3F8A830282B0CBF01230023B4
:10195000DBB218460C37BD465DF8047B704780B497
:1019600083B000AF78607B6803F5A043D3F8A8305C
:10197000002B0CBF01230023DBB218460C37BD46F9
:101980005DF8047B7047000080B582B000AF7860DE
:101990007868FFF7E4FF034683F00103DBB2002B16
:1019A00020D07B6803F5A043D3F8A030591C0F4B1F
:1019B00083FB01231A11CB17D21A13469B00134441
:1019C000DB00CA1A7B6803F5A043C3F8A0207B683C
:1019D00003F5A043D3F8A830013B7A6802F5A04292
:1019E000C2F8A83000BF0837BD4680BD676666668E
:1019F00084B080B582B000AF786007F1140080E851
:101A00000E007868FFF797FF0346002B02D0786836
:101A1000FFF7BAFF7B6803F5A043D3F8A430591C45
:101A20001D4B83FB01231A11CB17D21A13469B00BF
:101A30001344DB00CA1A7B6803F5A043C3F8A42053
:101A40007B6803F5A043D3F8A42079681346DB0133
:101A500013449B000B44184607F114034FF4017222
:101A6000194616F00CF87B6803F5A043D3F8A830AC
:101A700001337A6802F5A042C2F8A8307868FFF70F
:101A800015FC7868FFF7ACFD00BF0837BD46BDE820
:101A9000804004B0704700BF6766666680B584B05A
:101AA00000AF7860134815F01DFE0023FB6016E0C0
:101AB0000023BB600DE0FB685B017A681344BA68E1
:101AC00053F8223019460C4815F00CFEBB68013360
:101AD000BB60BB68072BEEDDFB680133FB60FB6876
:101AE000072BE5DD0A2015F00FFE00BF1037BD46BD
:101AF00080BD00BFE49A0108F09A010884B02DE986
:101B0000F04F93B008AF07F1500484E80F00D7F806
:101B10004862D7F84C321846FEF7EEFC04460D46F4
:101B2000D7F850321846FEF7E7FC02460B46CDE9DF
:101B3000002322462B4631463E4815F0D3FD0023B4
:101B40007B626AE07A6A13465B001344DB00483329
:101B500007F108029A1807F10C0392E8030083E8E2
:101B600003007A6A13465B001344DB00483307F135
:101B70000802134408331B683B627A6A13465B0011
:101B80001344DB00483307F1080213440C331B688D
:101B9000FB617A6A13465B001344DB00483307F1AC
:101BA0000802134414331B68BB617A6A13465B0056
:101BB0001344DB00483307F10802134410331B6859
:101BC0007B61FB681846FEF797FCC7E900013B699B
:101BD0001846FEF791FC04460D46386AFEF78CFC69
:101BE00080468946B869FEF787FC82468B4678694D
:101BF000FEF782FC02460B46CDE90623CDE904AB95
:101C0000CDE90289CDE90045D7E90023F9690A4801
:101C100015F068FD7B6A01337B62D7F848327A6A37
:101C20009A428FDB00BF00BF2C37BD46BDE8F04FA6
:101C300004B07047C49B0108E09B010880B487B0E2
:101C400000AFF860B9607A6000237B6121E0002377
:101C50003B6118E07B695B01BA6813443A6953F849
:101C600022107B695B017A6813443A6953F8222099
:101C70007B695B01F8680344891A3A6943F82210CA
:101C80003B6901333B613B69072BE3DD7B69013332
:101C90007B617B69072BDADD00BF00BF1C37BD46C7
:101CA0005DF8047B7047000080B483B000AF7860BB
:101CB000064BD3F8902005497B681343C1F8903058
:101CC00000BF0C37BD465DF8047B70470008005824
:101CD00080B485B000AF78604FF0B043DA6C4FF05D
:101CE000B0417B681343CB644FF0B043DA6C7B6840
:101CF0001340FB60FB6800BF1437BD465DF8047BF2
:101D0000704780B485B000AF78604FF0B043D3F82F
:101D10004C214FF0B0417B681343C1F84C314FF078
:101D2000B043D3F84C217B681340FB60FB6800BFD5
:101D30001437BD465DF8047B704780B500AF08F0EE
:101D40002DFE08F031FE4FF48030FFF7ADFF00F0BC
:101D500021F800F0C1F800BF80BD0000B0B588B028
:101D600000AF0B4B3C1D1D460FCD0FC495E807007F
:101D700003C422800234130C237012F0E9FC3B1DD3
:101D8000184611F03AFF00BF2037BD46B0BD00BF76
:101D9000089C010880B588B000AF3B1D00221A6086
:101DA0005A609A60DA601A610023BB8300237B8348
:101DB00000233B830023FB7736E0FB7F434ADB00B5
:101DC00013449B79002B2CD0FB7F404A52F83330D0
:101DD0003F4A93421BD03E4A934221D8B3F1904FE1
:101DE00003D03C4A934209D01AE0FB7F374ADB001C
:101DF00013449A88BB8B1343BB8312E0FB7F334AA7
:101E0000DB0013449A887B8B13437B8309E0FB7FC1
:101E10002E4ADB0013449A883B8B13433B8300E03C
:101E200000BFFB7F0133FB77FB7F252BC5D9002348
:101E3000FB600123BB6003233B61BB8B002B14D0F1
:101E4000BB8B7B600120FFF743FF0120FFF759FFA9
:101E50003B1D19464FF0904008F046FFBB8B002217
:101E600019464FF0904009F0A5F97B8B002B12D05A
:101E70007B8B7B600220FFF72BFF0220FFF741FFE7
:101E80003B1D1946134808F02FFF7B8B0022194693
:101E9000104809F08FF93B8B002B13D03B8B7B60F4
:101EA0000420FFF715FF0420FFF72BFF3B1D194609
:101EB000074808F019FF3B8B00221946044809F037
:101EC00079F900BF00BF2037BD4680BD789F01086B
:101ED000000800480004004880B400AF00BFBD46C1
:101EE0005DF8047B7047000080B483B000AF786079
:101EF000074BD3F8803023F0070205497B68134372
:101F0000C1F8803000BF0C37BD465DF8047B7047D8
:101F10000004005880B483B000AF7860064BD3F85B
:101F2000902005497B681343C1F8903000BF0C37FF
:101F3000BD465DF8047B70470008005880B483B04C
:101F400000AF78604FF0B0430A4AC3F89C204FF0CE
:101F5000B043D3F89C3023F47C527B681B024FF0D3
:101F6000B0411343C1F89C3000BF0C37BD465DF84B
:101F7000047B7047FECAFECA80B483B000AF7860AD
:101F80004FF0B0439B6823F400424FF0B0417B68B0
:101F900013438B6000BF0C37BD465DF8047B704770
:101FA00080B400AF4FF0B043D3F890304FF0B04260
:101FB00043F48033C2F8903000BFBD465DF8047B27
:101FC000704780B400AF4FF0B043D3F890304FF07B
:101FD000B04223F48033C2F8903000BFBD465DF8B4
:101FE000047B704780B400AF4FF0B043D3F8943017
:101FF00003F08063B3F1806F01D1012300E000237F
:102000001846BD465DF8047B704780B400AF4FF0C2
:10201000B043D3F8943003F08053B3F1805F01D123
:10202000012300E000231846BD465DF8047B70479D
:1020300080B485B000AF78604FF0B0431A6D4FF0B8
:10204000B0417B6813430B654FF0B0431A6D7B685A
:102050001340FB60FB6800BF1437BD465DF8047B8E
:102060007047000080B400AF044B1B68C3F30B0340
:102070001846BD465DF8047B704700BF002004E0B1
:1020800080B400AF044B1B681B0C9BB21846BD46C6
:102090005DF8047B704700BF002004E080B483B08B
:1020A00000AF786039607B685A683B681B041A434C
:1020B0007B685A6000BF0C37BD465DF8047B7047F3
:1020C00080B483B000AF786039607B685A683B6841
:1020D0001A437B685A6000BF0C37BD465DF8047B2D
:1020E000704780B483B000AF786039607B685A690C
:1020F0003B681B041A437B685A6100BF0C37BD461E
:102100005DF8047B704780B483B000AF78603960BD
:102110007B685A693B681A437B685A6100BF0C3779
:10212000BD465DF8047B704780B483B000AF786033
:1021300039607B683A689A6000BF0C37BD465DF82D
:10214000047B704780B483B000AF786039607B68EF
:102150003A689A6100BF0C37BD465DF8047B704752
:1021600080B400AF054B1B69044A23F004031361DC
:1021700000BFBD465DF8047B704700BF00ED00E086
:1021800080B483B000AF78607B68FF225A6200BFE2
:102190000C37BD465DF8047B704780B483B000AF58
:1021A00078607B68CA225A627B6853225A6200BFF9
:1021B0000C37BD465DF8047B704780B483B000AF38
:1021C000786039607B689B6823F007023B681A439C
:1021D0007B689A6000BF0C37BD465DF8047B704792
:1021E00080B500AF044B4FF400421A6100F02EF8A6
:1021F00000F06EF800BF80BD0040005880B500AF11
:1022000000F07AF800F092F80849002001F068F92F
:10221000FFF793FD0121012014F098FA00F05FF917
:1022200000F014FA00F090F800BF80BDF40F002019
:1022300080B400AF00BFBD465DF8047B704780B539
:1022400000AF5020FFF766FE00BF80BD80B500AF35
:1022500000F004F800F01AF800BF80BD80B500AFB0
:10226000FFF7C0FE0346002B0DD0FFF7CEFE03465E
:10227000002B08D10BF01CFC0BF01AFCFFF790FEB2
:10228000FFF79FFE00BF00BF80BD000080B500AF1C
:102290004FF48010FFF7CCFE3F210C48FFF744FFBE
:1022A0003F210A48FFF74EFF3F210848FFF7F6FE9F
:1022B0003F210648FFF715FF3F210448FFF700FFC5
:1022C0003F210248FFF71FFF00BF80BD000C0058F0
:1022D00080B582B000AF002011F026FB78607B68EB
:1022E000002B05D07B689B791846FFF727FE00BFBF
:1022F00000BF0837BD4680BD80B500AFFFF798FF2F
:10230000FFF79DFF00F002F800BF80BD80B500AF71
:102310000548FFF742FF00210348FFF74EFF024840
:10232000FFF72EFF00BF80BD0028004080B500AF42
:102330004FF40040FFF720FE14F0F6F90420FFF7F9
:10234000D3FD00BF80BD000080B588B000AF12F0A3
:1023500049F8114A00214FF4007014F059FB0F4B5B
:102360003B600F4B7B603B4619460E4811F020FD49
:102370000D4BBB600D4BFB600D4B3B6140F23C5382
:102380007B6107F10803184612F06EF912F024F889
:1023900000BF2037BD4680BDE93D0108340703205A
:1023A000B5230008CD2300084C0903204008032072
:1023B000F801032080B483B000AF0346FB7100BF77
:1023C0000C37BD465DF8047B7047000080B588B0CF
:1023D00000AF78607B685B680B33FB61FB691B882F
:1023E0009BB2A3F51243072B1FD801A252F823F08A
:1023F00011240008232400082B2400082B240008A3
:102400002B2400082B2400082B2400082B24000870
:1024100007F10C03184611F01DFC786800F01BF85A
:1024200004E0786800F006F800E000BF00BF203745
:10243000BD4680BD80B485B000AF78607B685B68C6
:102440000B33FB60FB680233BB6000BF1437BD4633
:102450005DF8047B704780B58AB000AF786007F103
:10246000080300221A605A609A60DA6000237B62D7
:1024700000233B627B685B680B33FB61FB690233C3
:10248000BB61BB691B78002B1DD1FFF767FC0F23D5
:102490003B727F23BB72FFF7F3FD78627B6A9BB2CE
:1024A000BB82FFF7DFFD38623B6A9BB2FB8207F11C
:1024B0000803184611F0B8FB02F0DAFA00210120F7
:1024C00014F044F907E0BB691B78012B03D17B684A
:1024D00000221A7000BF00BF2837BD4680BD80B5FE
:1024E00000AF002004F078FB012004F075FB02200F
:1024F00004F072FB002004F0ABFB012004F0A8FB09
:1025000000BF80BD80B584B000AF786008F002FAEB
:10251000B8607B68FB60FB68B3F1FF3F0AD008F04E
:1025200011FA03461A46FB681344FB6002E0FFF70A
:1025300017FE30BF08F0EEF90246BB68D31AFA68FE
:102540009A42F4D800BF00BF1037BD4680BD80B5A9
:1025500000AF4FF0FF3014F05FF900BF80BD80B5D1
:1025600000AF14F023F900BF80BD80B582B000AF8A
:10257000786039604FF0FF3014F04EF900BF083733
:10258000BD4680BD80B582B000AF786000214FF4B9
:10259000007014F05FFA00BF0837BD4680BD80B5FB
:1025A00082B000AF7860022014F0C0FA00BF083794
:1025B000BD4680BD80B582B000AF7860022014F0C7
:1025C000D5FA00BF0837BD4680BD000080B582B097
:1025D00000AF0346FB80FB88013B0F2B30D801A2E4
:1025E00052F823F02B260008312600084126000867
:1025F0003726000841260008412600084126000829
:10260000412600084126000841260008412600080E
:1026100041260008412600084126000841260008FE
:102620002526000802F0A6FB0BE002F0ABFB08E059
:1026300002F0B0FB05E00021402014F00BFA00E0AE
:1026400000BF00BF0837BD4680BD00BF80B400AFEB
:1026500000BFBD465DF8047B7047000080B582B0C6
:1026600000AF00F035F83B1D1946002000F092F94C
:102670000D49002000F0B8F90C4B03221A600B4BF7
:1026800005225A60094B1E229A60084B0022DA602C
:10269000064B00221A610549002000F0CFF900BF67
:1026A0000837BD4680BD00BF9C040020AC0400205C
:1026B00080B500AF0121002000F014FA00BF80BDFA
:1026C00080B500AF002000F039FA00BF80BD0000E7
:1026D00080B500AF002000F037F90346044A1360CC
:1026E000034B1B68002B00D0FEE700BF80BD00BF7E
:1026F000C004002080B485B000AF7860396000234A
:10270000FB731EE00023BB7315E0FB7BDA00BB7B91
:102710001A44796813469B0013449B000B4408330A
:102720001968FB7B5B013A681344BA7B43F82210BB
:10273000BB7B0133BB73BB7B072BE6D9FB7B013330
:10274000FB73FB7B072BDDD900BF1437BD465DF85B
:10275000047B704780B584B000AF7860714B1B6814
:10276000042B03D06F4B1B68032B01D1082300E01F
:102770000423FB726C4814F0B5FF0023BB73B0E078
:102780000023FB7308E0694814F0ACFF97F90F30A1
:10279000DBB20133DBB2FB7397F90F20FB7A9A426D
:1027A000F1DB614814F09EFF00233B738FE0FB7A5E
:1027B000013BDBB27B737CE097F90E2097F90D307B
:1027C0001A44796813469B0013449B000B4404335E
:1027D0001B68002B45D097F90E2097F90D301A444D
:1027E00097F90C00796813469B00134403449B003F
:1027F0000B449B68B3F5FA7F19DA97F90E2097F925
:102800000D301A4497F90C00796813469B00134465
:1028100003449B000B449B68194697F90E2097F9D7
:102820000D3013441A46424814F05CFF23E097F938
:102830000E2097F90D301A4497F90C007968134669
:102840009B00134403449B000B449B68194697F973
:102850000E2097F90D3013441A46364814F042FF03
:1028600009E097F90E2097F90D3013441A463249C2
:10287000324814F037FF97F90E2097F90D301A44BB
:1028800097F90C00796813469B00134403449B009E
:102890000B44996897F90E2097F90D30134489B2CB
:1028A000274A22F8131097F90D30DBB2013BDBB257
:1028B0007B7397F90D30002BBFF67EAF214814F0E3
:1028C00011FF97F90C30DBB20133DBB23B7397F9A0
:1028D0000C30002B3FF46BAFBA7BFB7A1344DBB2B6
:1028E000BB7397F90E207B681B689A42FFF448AFD0
:1028F0000023FB7308E00D4814F0F4FE97F90F3045
:10290000DBB20133DBB2FB7397F90F20FB7A9A42FB
:10291000F1DB054814F0E6FE094B18461037BD46BA
:1029200080BD00BFAC040020249C0108289C010845
:10293000349C0108509C01086C9C0108709C0108A3
:10294000C4040020789C010880B584B000AF786092
:102950007B68002B03D06FF00103FB6015E000F0F3
:1029600095F97B68002B0CD1786800F00FF90346CD
:10297000002B03D04FF0FF33FB6006E00023FB6029
:1029800003E06FF00603FB6000BFFB6818461037DA
:10299000BD4680BD80B584B000AF786039607B688B
:1029A000002B03D06FF00103FB6014E00C4A7B683E
:1029B00052F823309B680B497A6851F82220396815
:1029C000104698470346002B03DA6FF00403FB60C0
:1029D00001E00023FB60FB6818461037BD4680BD50
:1029E000480500204405002080B584B000AF786021
:1029F00039607B68002B03D06FF00103FB6014E0AB
:102A00000C4A7B6852F82330DB680B497A6851F82E
:102A100022203968104698470346002B03DA6FF0EE
:102A20000403FB6001E00023FB60FB6818461037DD
:102A3000BD4680BD480500204405002080B584B017
:102A400000AF786039607B68002B03D06FF0010322
:102A5000FB6014E00C4A7B6852F823301B690B4979
:102A60007A6851F822203968104698470346002BAF
:102A700003DA6FF00403FB6001E00023FB60FB68F6
:102A800018461037BD4680BD48050020440500208B
:102A900080B584B000AF786039607B68002B03D0CC
:102AA0006FF00103FB6014E00C4A7B6852F823309E
:102AB000DB690B497A6851F822203968104698473B
:102AC0000346002B03DA6FF00403FB6001E00023F0
:102AD000FB60FB6818461037BD4680BD48050020E6
:102AE0004405002080B584B000AF78600B46FB70D1
:102AF0007B68002B03D06FF00103FB6014E00D4AEC
:102B00007B6852F823301B6A0B497A6851F82220FF
:102B1000F978104698470346002B03DA6FF0040358
:102B2000FB6001E00023FB60FB6818461037BD46E0
:102B300080BD00BF480500204405002080B584B05A
:102B400000AF78607B68002B03D06FF00103FB605F
:102B500013E00C4A7B6852F823305B6A0A497A68B2
:102B600051F82220104698470346002B03DA6FF0F5
:102B70000403FB6001E00023FB60FB68184610378C
:102B8000BD4680BD480500204405002080B58AB0C0
:102B900000AF78605223BB82324BFB60324B3B610B
:102BA000324BBB61324BFB61324B3B6207F10C0392
:102BB0001946314807F09DF80346002B03D06FF00B
:102BC00004037B6249E02D4A7B682D4942F82310BB
:102BD0002C4A7B68284942F8231007F1080319465C
:102BE000254807F036F90346002B03D06FF00403A5
:102BF0007B6232E0BB684FF20C02934203D06FF06D
:102C000006037B6229E01D4A7B6852F823301B686B
:102C10001C497A6851F82220104698470346002B39
:102C200003D06FF004037B6217E0144A7B6852F80C
:102C30002330DB6813497A6851F822007A68120160
:102C400011490A44114698470346002B03D06FF000
:102C500004037B6201E000237B627B6A184628370D
:102C6000BD4680BDE9440008654500087D46000872
:102C7000E1460008454700085C05002048050020A3
:102C8000A4000020440500204C05002080B500AFC2
:102C9000002220214FF0904008F08CFA0220FFF72C
:102CA00031FC012220214FF0904008F083FA0220ED
:102CB000FFF728FC00BF80BD80B483B000AF786010
:102CC000064BD3F8802005497B681343C1F8803058
:102CD00000BF0C37BD465DF8047B70470008005804
:102CE00080B483B000AF7860054B1A6804497B68F4
:102CF00013430B6000BF0C37BD465DF8047B704783
:102D00000008005880B483B000AF0D4B9B6A9BB2A3
:102D10007B600B4B9B6A9BB23B6005E03B687B6032
:102D2000074B9B6A9BB23B607A683B689A42F5D13D
:102D30003B6818460C37BD465DF8047B704700BF02
:102D40000028004080B485B000AF03460A46FB71FE
:102D50001346BB71BA791D4913465B001344DB006F
:102D60000B4415331B78FB73FB7B062B09D0FA7BD6
:102D7000164913465B001344DB000B441433FA7905
:102D80001A70FA79114913465B001344DB000B44B7
:102D90001533FA7B1A70FA790C4913465B00134419
:102DA000DB000B441433BA791A70BA790749134619
:102DB0005B001344DB000B441533FA791A7000BF33
:102DC0001437BD465DF8047B704700BFB00E00208D
:102DD00080B485B000AF03460A46FB711346BB7151
:102DE000294B1B78DBB2BA799A4232D0BA7927499B
:102DF00013465B001344DB000B4414331B78FB7356
:102E0000FA7B224913465B001344DB000B44153365
:102E1000FA791A70FA791D4913465B001344DB00F6
:102E20000B441533BA791A70FA79184913465B00C6
:102E30001344DB000B441433FA7B1A70BA7913493C
:102E400013465B001344DB000B441433FA791A7009
:102E500014E0FA790D4913465B001344DB000B4480
:102E60001533BA791A70BA79084913465B001344CE
:102E7000DB000B441433FA791A7000BF1437BD46D7
:102E80005DF8047B704700BF400F0020B00E0020AB
:102E900080B584B000AF0346FB714E4B1B78DBB2AC
:102EA000062B18D14B4B1B78DAB24B4B1A70494AA0
:102EB000FB791370FA79494913465B001344DB0030
:102EC0000B44153306221A70454B4FF0FF321A603F
:102ED0000023FB8178E000F009F90346FB81FA79D1
:102EE0003E4913465B001344DB000B44083319686A
:102EF000FB89FA791944394813465B001344DB0017
:102F0000034408331960FA79344913465B001344CB
:102F1000DB000B4408331B68BB602E4B1B78DBB215
:102F200019462E4A0B465B000B44DB001344083362
:102F30001B68BA689A4237D3264B1B787B737A7B1F
:102F4000264913465B001344DB000B4415331B7802
:102F50003B7313E07A7B214913465B001344DB008B
:102F60000B4415331B787B737A7B1C4913465B003B
:102F70001344DB000B4415331B783B733B7B062B60
:102F80000BD03A7B154913465B001344DB000B441E
:102F900008331B68BA689A42DCD27A7BFB79114607
:102FA0001846FFF7CFFE0FE00A4B1B78DAB2FB7929
:102FB00011461846FFF70CFF064B1B78DAB2064B9A
:102FC0001A70044AFB791370FB8918461037BD4606
:102FD00080BD00BF400F0020410F0020B00E002038
:102FE000440F002080B485B000AF03460A46FB7151
:102FF0001346BB71394B1B78DBB2FA799A4211D177
:10300000364B1B78DAB2364B1A70FA7935491346CB
:103010005B001344DB000B4415331B78DAB22F4BF3
:103020001A703EE0FA792F4913465B001344DB0027
:103030000B4414331B78FB73FA792A4913465B005F
:103040001344DB000B4415331B78BB73F979FA7B0F
:1030500024480B465B000B44DB00034415331B780C
:10306000D8B2204913465B001344DB000B441533F0
:1030700002461A70BB7B062B13D0F979BA7B19482C
:103080000B465B000B44DB00034414331B78D8B2BF
:10309000144913465B001344DB000B44143302460F
:1030A0001A70FA790F4913465B001344DB000B4496
:1030B0000C3301221A70094B1B78DBB2062B07D1A7
:1030C000BB79002B04D1084B4FF0FF321A6000BFD0
:1030D00000BF1437BD465DF8047B7047400F0020E9
:1030E000410F0020B00E0020440F002080B582B0B8
:1030F00000AF1A4B1B68B3F1FF3F26D0FFF702FE6B
:103100007860164B1B687A689A4205D8134B1A6888
:103110007B68D31A7B600AE0114B1B881A467B68D8
:10312000D31A3B600D4B1B683A6813447B600D4B10
:103130001B781A467B6802FB03F37B600A4B1B7803
:103140001A467B68D3407B6001E000237B607B688C
:103150009BB218460837BD4680BD00BF440F002013
:103160004C0F00204A0F0020490F002080B582B08C
:1031700000AF0346FB80FB88002B08D1FFF7C2FDA0
:103180000346214A1360032007F091FD39E0FB88D4
:10319000012B03D81D4B1B78012B02D0FB88013B70
:1031A000FB8000BF1A4B1B68DB6803F00403002B95
:1031B000F8D0174B1B68DB68DAB2154B1B6862F45A
:1031C0009062DA60134B4FF40022DA60032007F0BC
:1031D0007CFD114B5B691B0C1B04FA880E491343E1
:1031E0004B61FFF78FFD0346074A1360084B1B68CE
:1031F0009A68074B1B6842F480629A60AFF30080C4
:1032000000BF0837BD4680BD440F0020490F002095
:10321000F40F0020000800580028004080B584B05A
:1032200000AF454B9B6803F48063B3F5806F07D113
:1032300000BF424B1B68DB6803F00403002BF8D18E
:103240003E4B1B689A683D4B1B6822F480629A6073
:103250003B4B1B78FB73FA7B3A4913465B001344E4
:10326000DB000B4408331B68BB60FFF73FFF0346DE
:10327000FB80FB88BA689A4205D20023BB81324B9F
:1032800001221A704DE0FB88304A128892B2134432
:103290001A46BB68934206D92C4B1B88BB812A4B2C
:1032A00000221A703DE0BB689AB2FB88D31ABB813A
:1032B000254B01221A7034E0FA7B224913465B0049
:1032C0001344DB000B4408331A68FB889A420AD285
:1032D000FA7B1C4913465B001344DB000B440833A4
:1032E00000221A6013E0FA7B164913465B00134470
:1032F000DB000B4408331968FB88FA7BC91A1148B4
:1033000013465B001344DB00034408331960FA7B67
:103310000C4913465B001344DB000B4415331B7848
:10332000FB73FB7B062BC7D1BB891846FFF71EFF3B
:1033300000BF1037BD4680BD00280040F40F0020BC
:10334000400F0020B00E0020480F00204E0F00203C
:1033500080B58AB000AFEFF310837B617B697B623D
:1033600072B600BF594B1B68CA225A62574B1B6882
:1033700053225A62554B1B689A68544B1B6822F4BF
:1033800080629A60524B1B7887F8233097F823208D
:10339000504913465B001344DB000B440C331B788D
:1033A000DBB2022B6ED197F823204A4913465B000B
:1033B0001344DB000B441B68FB6197F8232045494D
:1033C00013465B001344DB000B4410331B68BB61E6
:1033D000414B1B78DBB2002B4CD097F823203D49A2
:1033E00013465B001344DB000B440D331B78DBB248
:1033F000012B24D197F8233001211846FFF7F2FD65
:103400007B6A3B613B6983F3108800BF97F82320F8
:10341000304913465B001344DB000B4404331A6845
:1034200097F823301146184600F032FA274B1B68F4
:10343000CA225A62254B1B6853225A6212E07B6AE9
:10344000FB60FB6883F3108800BF97F823301846B1
:1034500000F09AF91D4B1B68CA225A621B4B1B686D
:1034600053225A6297F82330FA691946B86900F076
:1034700095FA22E0FFF7D2FE7B6ABB60BB6883F35C
:1034800010881AE000BF114B1B68DB6803F00403CF
:10349000002BF8D00D4B1B68DB68DAB20B4B1B68B6
:1034A00062F49062DA600D4B4FF40022DA607B6ABE
:1034B0007B607B6883F3108800BF044B1B68FF228E
:1034C0005A6200BF2837BD4680BD00BFF40F002000
:1034D000400F0020B00E0020480F002000080058C8
:1034E00080B588B000AF03463960FB715E4B1B6846
:1034F000CA225A625C4B1B6853225A625B4B9B6820
:103500005A4A43F020039360584B9B68DBB203F0A8
:103510000703DBB2C3F10403DAB2554B1A70534B05
:103520001B6903F4FE034FF4FE023A613A6992FA12
:10353000A2F2FA60FA687A617A69002A01D120223F
:1035400003E07A69B2FA82F2D2B2D340DBB201333D
:10355000DAB2484B1A70454B1B699BB2C3F30E039A
:103560009BB201339AB2444B1A80434B1B88013BF8
:10357000404A127802FB03F3A3F5A0733C4A127889
:10358000D340BB61BB694FF6FE72934204D93B4BFB
:103590004FF6FF721A8003E0BB699AB2374B1A806C
:1035A0004FF40020FFF79CFB4FF40020FFF784FB53
:1035B000FB79002B3DD1324B01221A70314B4FF079
:1035C000FF321A600023FB770CE0FA7F2E49134686
:1035D0005B001344DB000B440C3300221A70FB7FAA
:1035E0000133FB77FB7F052BEFD9284B06221A709E
:1035F0001D4B1B689A681C4B1B6822F480629A6002
:10360000194B1B68DB68DAB2174B1B6862F49062D7
:10361000DA601F4B4FF40022DA60032007F055FBFD
:10362000114B1B689A68104B1B6842F480429A60E9
:1036300009E00D4B1B68DB6803F48063002B02D0AC
:10364000032007F034FB084B1B68FF225A6200225C
:103650000321032007F0E9FA032007F000FB00BF75
:103660002037BD4680BD00BFF40F00200028004079
:10367000490F00204A0F00204C0F00204E0F002061
:10368000480F0020440F0020B00E0020400F002003
:103690000008005880B48BB000AFF860B9603B60A0
:1036A0001346FB71002387F82630EFF31083FB618C
:1036B000FB693B6272B600BF04E097F82630013325
:1036C00087F8263097F82630052B0CD897F8262057
:1036D0002C4913465B001344DB000B440C331B786E
:1036E000DBB2002BE9D197F82630062B38D097F8BB
:1036F0002620244913465B001344DB000B440C33A3
:1037000001221A703B6ABB61BB6983F3108800BF5A
:1037100097F826201B4913465B001344DB000B443B
:103720001033FA681A6097F82620164913465B0092
:103730001344DB000B440D33FA791A7097F82620F6
:10374000104913465B001344DB000B443A681A60CF
:10375000BB6897F826201A70002387F8273008E006
:103760003B6A7B617B6983F3108800BF012387F884
:10377000273097F8273018462C37BD465DF8047B74
:10378000704700BFB00E002080B586B000AF034682
:10379000FB71EFF31083FB60FB687B6172B600BFC7
:1037A000032007F06AFA344B1B68CA225A62324B74
:1037B0001B6853225A62FA79304913465B0013445E
:1037C000DB000B440C331B78DBB2022B42D1FB79BC
:1037D00000211846FFF706FC294B1B78FB74FB7C85
:1037E000062B2FD1274B9B6803F48063B3F5806FC2
:1037F00007D100BF204B1B68DB6803F00403002BDC
:10380000F8D11D4B1B689A681B4B1B6822F4806221
:103810009A6000BF184B1B68DB6803F00403002BA1
:10382000F8D0154B1B68DB68DAB2134B1B6862F4E7
:103830009062DA60144B4FF40022DA60032007F044
:1038400044FA07E0114B1B78DBB2FA7C9A4201D0B4
:10385000FFF7E4FC084B1B68FF225A62032007F0C5
:10386000FEF97B69BB60BB6883F3108800BF00BFB3
:103870001837BD4680BD00BFF40F0020B00E0020F9
:10388000400F00200028004000080058410F002091
:1038900080B586B000AF03463960FB71FA793B49C9
:1038A00013465B001344DB000B440C331B78DBB284
:1038B000022B03D1FB791846FFF766FFEFF3108365
:1038C000FB60FB687B6172B600BF032007F0D5F98F
:1038D0002F4B1B68CA225A622D4B1B6853225A6217
:1038E000FA792A4913465B001344DB000B440C337E
:1038F00002221A70FA79254913465B001344DB0053
:103900000B4408333A681A60FA79204913465B0081
:103910001344DB000B4404333A681A60FB79184601
:10392000FFF7B6FA03467B821A4B1B787B741A4B5F
:103930001B78DBB27A7C9A4202D0FFF76FFC13E06F
:10394000FA79124913465B001344DB000B44083339
:1039500019687B8AFA79C91A0C4813465B0013442C
:10396000DB00034408331960094B1B68FF225A62CD
:10397000032007F074F97B69BB60BB6883F3108890
:1039800000BF00BF1837BD4680BD00BFB00E00208D
:10399000F40F0020400F0020410F002080B584B0BC
:1039A00000AFF8600B467A60FB727B68984700BFF7
:1039B0001037BD4680BD80B483B000AF78604FF053
:1039C000B043D3F8903023F018024FF0B0417B6839
:1039D0001343C1F8903000BF0C37BD465DF8047B3F
:1039E000704780B485B000AF78604FF0B043DA6CB8
:1039F0004FF0B0417B681343CB644FF0B043DA6CB7
:103A00007B681340FB60FB6800BF1437BD465DF860
:103A1000047B704780B483B000AF786039607B6806
:103A20003A68203253F82230054A934201D00123EC
:103A300000E0002318460C37BD465DF8047B704754
:103A40000004008080B500AF06F0F6FEFEF7C8FB6C
:103A500000F01CF800F078F800F0D6F800F03AF921
:103A600000F004F900F0ECF800F08EF802F048FBEA
:103A700000F0DEF805210448FFF7CCFFFEF7BEFB9F
:103A8000FEF765FDFCE700BF0014005880B59AB052
:103A900000AF07F1200348220021184613F070FF01
:103AA0003B1D00221A605A609A60DA601A615A61FE
:103AB0009A6109F0FDFF0020FFF77DFF214B1B6895
:103AC00023F4C0631F4A43F4007313601D4B1B684B
:103AD00003F4C0633B603B6847233B624FF4803391
:103AE0007B620123BB624FF48073FB620123BB64E2
:103AF00040233B630023FB6407F1200318460AF0D0
:103B000063FB0346002B01D000F0F1F86F237B60CC
:103B10000223BB600023FB6000233B6100237B6129
:103B20000023BB610023FB613B1D012118460AF005
:103B3000BFFE0346002B01D000F0D9F800BF683764
:103B4000BD4680BD0004005880B594B000AF3B4630
:103B500050220021184613F013FF4FF440533B60EE
:103B60004FF480437B640223BB641023FB643B4619
:103B700018460BF0AEFA0346002B01D000F0B7F860
:103B800000BF5037BD4680BD80B500AF1B4B1C4AFF
:103B90001A601A4B1B4A5A60184B00229A60174B46
:103BA0000122DA60154B00221A61144B00225A617F
:103BB000124B00229A61114B0022DA610F4B002256
:103BC0001A620E4807F064FB0346002B01D000F098
:103BD0008EF80021094808F019F90346002B01D09E
:103BE00000F085F80021054808F05BF90346002B3A
:103BF00001D000F07CF800BF80BD00BF500F002056
:103C000000540040BB7C700080B500AF064B074AF3
:103C10001A60054808F092F90346002B01D000F025
:103C200066F800BF80BD00BFA40F0020000C005844
:103C300080B400AF00BFBD465DF8047B7047000054
:103C400080B500AF074B084A1A60064B00225A6045
:103C500004480BF0C5FC0346002B01D000F047F8E8
:103C600000BF80BDE00F00200010005880B500AFFD
:103C7000164B174A1A60154B00225A60134B0F223D
:103C80009A60124B47F6FF72DA60104B00221A61FD
:103C90000E4B00229A610D4B0022DA610B4B002281
:103CA0005A610A480BF0D2FC0346002B01D000F009
:103CB0001EF80022002105480BF0C8FD0346002B2A
:103CC00001D000F014F800BF80BD00BFF40F002049
:103CD0000028004080B500AF0420FFF782FE0120DD
:103CE000FFF77FFE0220FFF77CFE00BF80BD80B49F
:103CF00000AF00BFBD465DF8047B704780B483B061
:103D000000AF7860064B1B6823F0070204497B680C
:103D100013430B6000BF0C37BD465DF8047B704752
:103D20000004005880B400AF034B1F229A6100BF0B
:103D3000BD465DF8047B70470004005880B400AFB6
:103D4000074BD3F8883003F48063B3F5806F01D15B
:103D5000012300E000231846BD465DF8047B704750
:103D60000004005880B400AF074BD3F8883003F448
:103D70000043B3F5004F01D1012300E000231846B2
:103D8000BD465DF8047B70470004005880B400AF66
:103D90004FF0B0431B684FF0B04243F480331360E0
:103DA00000BFBD465DF8047B704780B400AF4FF0A4
:103DB000B0431B6803F40033B3F5003F01D1012386
:103DC00000E000231846BD465DF8047B704780B4D0
:103DD00000AF4FF0B0431B684FF0B04243F4807324
:103DE000136000BFBD465DF8047B704780B400AF30
:103DF0004FF0B0431B6803F48063B3F5806F01D1CB
:103E0000012300E000231846BD465DF8047B70479F
:103E100080B483B000AF78604FF0B0439B6823F06C
:103E200003024FF0B0417B6813438B6000BF0C3737
:103E3000BD465DF8047B704780B400AF4FF0B043DF
:103E40009B6803F00C031846BD465DF8047B704781
:103E500080B483B000AF78604FF0B0435B6A23F06A
:103E600003024FF0B0417B6813434B6200BF0C3735
:103E7000BD465DF8047B704780B400AF054B1B69FD
:103E8000044A23F00403136100BFBD465DF8047BC0
:103E9000704700BF00ED00E080B400AF054B1B6928
:103EA000044A43F00403136100BFBD465DF8047B80
:103EB000704700BF00ED00E080B483B000AF7860D1
:103EC00039607B683A68203253F82230054A9342C1
:103ED00001D0012300E0002318460C37BD465DF8F1
:103EE000047B70470004008080B485B000AFF860A8
:103EF000B9607A607B6843F48061FB68BA6843F814
:103F0000221000BF1437BD465DF8047B704780B5B2
:103F100000AF06F023FD00F035F8FFF703FF0320A4
:103F2000FFF7ECFEFFF7B8FF30BF00BF80BD80B5E4
:103F300000AF06F023FD00BF80BD80B500AF06F0E6
:103F40000DFD00F01FF80220FFF7D8FEFFF7A4FFD9
:103F500030BF00BF80BD80B500AF00F04FF806F065
:103F60000DFD00BF80BD80B500AF06F0F7FCFFF788
:103F700083FF30BF00BF80BD80B500AF06F0FEFC00
:103F800000BF80BD80B500AF00BF03211948FFF717
:103F900093FF0346002BF8D104211648FFF78CFF4E
:103FA0000346002B17D1FFF7DDFE0346002B04D19B
:103FB000FFF7C4FE0346002B15D0002204210D4854
:103FC000FFF792FF00F052F80B4B1B680A4A23F0F0
:103FD0000703136007E000F049F8074B1B68064A27
:103FE00023F007031360002203210248FFF77CFF40
:103FF00000BF80BD001400580040005880B500AFDD
:10400000002204211748FFF76FFF00BF0321154866
:10401000FFF752FF0346002BF8D1FFF70DFF0346D1
:10402000042B18D1FFF7B2FE0F4B1B6823F00703D8
:104030000D4A43F00103136000BFFFF7B6FE0346CD
:10404000002BFAD00220FFF7E3FE00BFFFF7F4FEDB
:104050000346082BFAD1002203210248FFF744FF50
:1040600000BF80BD001400580040005880B500AF6C
:10407000FFF7ADFE00BFFFF7B9FE0346002BFAD0F5
:104080000120FFF7C5FE0020FFF7E2FE00BFFFF7AB
:10409000D3FE0346042BFAD100BF80BD80B400AF2D
:1040A0004FF0B043D3F890304FF0B04243F40043A8
:1040B000C2F8903000BFBD465DF8047B704780B405
:1040C00085B000AF78604FF0B043DA6C4FF0B0418C
:1040D0007B681343CB644FF0B043DA6C7B681340CA
:1040E000FB60FB6800BF1437BD465DF8047B70477A
:1040F00080B485B000AF78604FF0B0431A6D4FF0D8
:10410000B0417B6813430B654FF0B0431A6D7B6879
:104110001340FB60FB6800BF1437BD465DF8047BAD
:10412000704780B485B000AF78604FF0B0439A6DAF
:104130004FF0B0417B6813438B654FF0B0439A6DED
:104140007B681340FB60FB6800BF1437BD465DF819
:10415000047B704780B483B000AF78604FF0B04309
:104160009A6D7B68DB434FF0B04113408B6500BF15
:104170000C37BD465DF8047B704780B500AF4FF447
:104180000020FFF7B5FF002200212E2006F04DFD94
:104190002E2006F064FD00BF80BD000080B59CB0FD
:1041A00000AF786007F15C0300221A605A609A60E1
:1041B000DA601A6107F10C0350220021184613F04F
:1041C000DFFB7B681B68164A934225D10423FB6002
:1041D0004FF44033FB6207F10C0318460AF079FFF5
:1041E0000346002B01D0FFF782FD0220FFF767FF97
:1041F000C023FB6512233B6600237B660023BB665E
:104200000423FB6607F15C031946064806F06CFDC3
:104210004FF40010FFF785FF00BF7037BD4680BD2B
:10422000005400400004004880B582B000AF7860C0
:104230007B681B68094A93420BD14FF40010FFF7CB
:1042400089FF4021064806F0BFFE8021044806F0A1
:10425000BBFE00BF0837BD4680BD00BF0054004014
:104260000004004880B582B000AF78607B681B68AE
:104270000D4A934213D14FF48010FFF739FF00220B
:1042800000212C2006F0D1FC2C2006F0E8FC0022B6
:1042900000212D2006F0C9FC2D2006F0E0FC00BF17
:1042A0000837BD4680BD00BF000C005880B596B0F1
:1042B00000AF786007F1080350220021184613F080
:1042C0005FFB7B681B680D4A934213D14FF4007368
:1042D000BB604FF080533B6407F1080318460AF0B7
:1042E000F8FE0346002B01D0FFF701FD4FF48020BC
:1042F000FFF7FEFE00BF5837BD4680BD00100058D6
:1043000080B596B000AF786007F108035022002115
:10431000184613F035FB7B681B68144A934220D182
:104320004FF40063BB604FF48073BB6407F1080374
:1043300018460AF0CEFE0346002B01D0FFF7D7FC4B
:10434000FFF7ACFE4FF48060FFF7EBFE0022002188
:10435000032006F06AFC032006F081FC78680BF06D
:1043600031FB00BF5837BD4680BD00BF002800406C
:1043700080B400AF00BFBD465DF8047B704780B4D9
:1043800000AFFEE780B400AFFEE780B400AFFEE709
:1043900080B400AFFEE780B400AF00BFBD465DF85B
:1043A000047B704780B400AF00BFBD465DF8047B5E
:1043B000704780B400AF00BFBD465DF8047B704716
:1043C00080B500AF06F092FA00BF80BD80B500AFA7
:1043D000FEF7BEFF00BF80BD80B500AF024807F00A
:1043E00023FF00BF80BD00BF8C30002080B500AF30
:1043F00001F010FD00BF80BD80B500AF01F040FDB1
:1044000000BF80BD80B500AF06F01EFF00BF80BDBD
:1044100080B500AF102006F0FFFE00BF80BD80B564
:1044200000AF012006F0F8FE00BF80BD80B500AFF0
:10443000022006F0F1FE00BF80BD80B485B000AF61
:1044400078604FF0B043DA6C4FF0B0417B681343B3
:10445000CB644FF0B043DA6C7B681340FB60FB68C1
:1044600000BF1437BD465DF8047B704780B485B04B
:1044700000AF78604FF0B0439A6D4FF0B0417B6869
:1044800013438B654FF0B0439A6D7B681340FB601C
:10449000FB6800BF1437BD465DF8047B704780B4ED
:1044A00083B000AF78604FF0B0439A6D7B68DB4318
:1044B0004FF0B04113408B6500BF0C37BD465DF82F
:1044C000047B704780B483B000AF7860054B5A68B6
:1044D00004497B6813434B6000BF0C37BD465DF851
:1044E000047B70470000014080B582B000AF00231C
:1044F0007B60194B194A1A60194B1B685A1C1849E2
:104500000A60002B22D1144807F0AEF90346002BB5
:104510001CD1114800F062F97B68002B16D10E48BF
:1045200000F018F90346002B03D06FF007037B60FF
:104530000CE00021084807F069FC0346002B03D07B
:104540006FF007037B6001E000237B607B68184607
:104550000837BD4680BD00BF500F0020005400400A
:104560001810002080B582B000AF00237B600F4B95
:104570001B68002B14D00D4B1B68013B0B4A1360CA
:104580000A4B1B68002B0BD1094800F071F9084851
:1045900006F00DFF0346002B02D06FF007037B608F
:1045A0007B6818460837BD4680BD00BF1810002044
:1045B000500F002080B58AB004AFBA601A46034697
:1045C000FB810B46BB811346FB8000237B61BA89CC
:1045D000F9894FF480530293FB880193BB680093E1
:1045E00001230C4806F012FF0346002B0CD00948AB
:1045F00007F048F90346042B03D16FF065037B6194
:1046000002E06FF003037B617B6918461837BD46F3
:1046100080BD00BF500F002080B58AB004AFBA60E3
:104620001A460346FB810B46BB811346FB800023E1
:104630007B61BA89F9894FF480530293FB88019317
:10464000BB68009301230C4806F0F4FF0346002BDF
:104650000CD0094807F016F90346042B03D16FF07C
:1046600065037B6102E06FF003037B617B691846A1
:104670001837BD4680BD00BF500F002080B58AB0FE
:1046800004AFBA601A460346FB810B46BB81134652
:10469000FB8000237B61BA89F9894FF48053029330
:1046A000FB880193BB68009302230C4806F0AEFE22
:1046B0000346002B0CD0094807F0E4F80346042B0E
:1046C00003D16FF065037B6102E06FF003037B6150
:1046D0007B6918461837BD4680BD00BF500F0020CB
:1046E00080B58AB004AFBA601A460346FB810B4618
:1046F000BB811346FB8000237B61BA89F9894FF4A3
:1047000080530293FB880193BB68009302230C48FB
:1047100006F090FF0346002B0CD0094807F0B2F8D2
:104720000346042B03D06FF065037B6102E06FF05A
:1047300003037B617B6918461837BD4680BD00BF07
:10474000500F002080B500AF06F0E4F8034618468D
:1047500080BD000080B584B000AF78600023FB739B
:104760007B681C4A1A607B681B4A5A607B6800227F
:104770009A607B680122DA607B6800221A617B689C
:1047800000225A617B6800229A617B680022DA610C
:104790007B6800221A62786806F07AFD0346002BD7
:1047A00001D00123FB730021786807F02FFB03463B
:1047B000002B01D00123FB730021786807F071FB07
:1047C0000346002B01D00123FB73FB7B18461037F7
:1047D000BD4680BD005400401304100080B59CB05D
:1047E00000AF786007F10C0350220021184613F047
:1047F000C7F80423FB604FF44033FB6207F10C035E
:1048000018460AF066FC0220FFF717FE4023FB65FE
:1048100012233B6600237B660323BB660423FB66EF
:1048200007F15C031946114806F05EFA8023FB6528
:1048300012233B6600237B660323BB660423FB66CF
:1048400007F15C031946094806F04EFA4FF4803030
:10485000FFF738FE4FF40030FFF734FE4FF400103E
:10486000FFF704FE00BF7037BD4680BD000400485E
:1048700080B582B000AF78604FF40010FFF70FFEF4
:104880004021054806F0A0FB8021034806F09CFB70
:1048900000BF0837BD4680BD0004004880B400AFAB
:1048A00001231846BD465DF8047B704780B582B091
:1048B00000AF7860396013F0B5F8034616221A602D
:1048C0004FF0FF3318460837BD4680BD80B582B033
:1048D00000AF78604FF0FF317868FFF7E7FFFEE741
:1048E00080B586B000AFF860B9607A6000237B6164
:1048F0000AE0AFF300800146BB685A1CBA60CAB236
:104900001A707B6901337B617A697B689A42F0DBBC
:104910007B6818461837BD4680BD80B586B000AFAD
:10492000F860B9607A6000237B6109E0BB685A1CBB
:10493000BA601B781846AFF300807B6901337B6156
:104940007A697B689A42F1DB7B6818461837BD4666
:1049500080BD80B483B000AF78604FF0FF3318465D
:104960000C37BD465DF8047B704780B483B000AF60
:10497000786039603B684FF400525A600023184653
:104980000C37BD465DF8047B704780B483B000AF40
:104990007860012318460C37BD465DF8047B7047EC
:1049A00080B485B000AFF860B9607A600023184623
:1049B0001437BD465DF8047B7047000080B586B0B3
:1049C00000AF7860144A154BD31A7B617B693B6159
:1049D000134B1B68002B02D1114B124A1A60104B6B
:1049E0001A687B6813443A699A4207D213F01AF89E
:1049F00003460C221A604FF0FF3309E0084B1B6896
:104A0000FB60074B1A687B681344054A1360FB6818
:104A100018461837BD4680BD000003200010000076
:104A20001C100020003F002080B400AF034B1B6827
:104A30001846BD465DF8047B704700BF8075FF1FB8
:104A400080B400AF034B1B68DBB21846BD465DF86F
:104A5000047B70478475FF1F80B400AF034B1B6855
:104A60001B0A1846BD465DF8047B70478475FF1F1E
:104A7000B0B590B000AF922387F83F30334B3C1D68
:104A80001D460FCD0FC40FCD0FC40FCD0FC495E839
:104A9000070003C4228000F085F90121022011F0F3
:104AA00055FE2B4A0021042011F0B2FF3B1D184691
:104AB0000FF08CF8034687F83E3097F83E30002B15
:104AC00001D0FFF714F900F083F90FF0DFFB214B61
:104AD000002283F880201F4B4FF6FF72DA821E4AB5
:104AE0000021012011F094FF1C4A0021022011F046
:104AF0008FFF06200EF049FB034687F83F30184B26
:104B000000221A70174B01221A7000F049FC164B54
:104B1000002216490020FEF7BDFD154B0022154965
:104B20000020FEF7B7FD0B4B00225A76094B0022FE
:104B30001A76114B80221A80104BA0221A80012075
:104B400000F018FA00BF4037BD46B0BD7C9C01089C
:104B5000E935010828100020DD500008DD5100086B
:104B6000B4100020B510002011510008A910002039
:104B700021510008AA100020AC100020AE10002027
:104B800080B58CB000AF7860922387F82F307B68B7
:104B90000133BB62BB6A1B78FF2B76D0FF2B00F37F
:104BA000D880052B02D03E2B20D0D2E0BB6A023346
:104BB0003B613B69B3F801309AB26A4BDB8A9A4297
:104BC00006D1684B0022DA82664B002283F88020EF
:104BD000012000F0CFF9644B01221A70614BDA8A90
:104BE000614B5A80604800F0C7FBB5E0BB6A0233F6
:104BF000FB61FB691B780C2B05D00C2B41DC012BD6
:104C000017D0032B3DE0FB690133BB61554BDB8AB9
:104C100007F10E0207F10F0118460EF02EFB0346B6
:104C200087F82F3097F82F30002B2CD1FB7B022BED
:104C300029E0FB6901337B614A4B93F881301846C8
:104C4000FEF7A2FD474B93F88030042B04D1454B6F
:104C5000062283F8802003E0424B052283F880205F
:104C60007B69B3F801309AB23E4BDA823E4B0022A8
:104C70001A703C4BDA8A3C4B5A803B4800F07CFB74
:104C800002E000BF68E000BF66E0BB6A02337B62FF
:104C90007B6A1B889BB2B3F5006F4CD0B3F5006FF5
:104CA00059DC042B4BD0042B55DB40F20A429342D3
:104CB00051DCB3F5806F4EDBA3F580630A2B4AD835
:104CC00001A252F823F000BF4F4D00082F4D0008FD
:104CD000F54C00084F4D00084F4D0008094D0008E5
:104CE000574D00084F4D00084F4D00081B4D000860
:104CF0004F4D00081B4BDB8A1C4918460DF048FC41
:104D0000034687F82F3023E0164BDB8A18460DF058
:104D1000E9FD034687F82F301AE0124BDB8A0121A8
:104D200018460DF033FE034687F82F3010E07B6AFB
:104D300002333B620CE00E4B01221A7008E0094B73
:104D400093F882300A211846FEF7A2FD00E000BF6A
:104D500001E000BF00E000BF012318463037BD4628
:104D600080BD00BF28100020B010002040E20100EC
:104D7000B510002080B500AF0021082011F06AFEB8
:104D800000BF80BD80B500AF0021102011F062FE91
:104D900000BF80BD80B400AF00BFBD465DF8047B9E
:104DA0007047000080B582B000AF064B3B60064BF9
:104DB0007B603B46194605480EF0FAFB00BF0837FA
:104DC000BD4680BD28000320855200084D520008D2
:104DD000F0B58DB006AF00233B809223FB750EF03B
:104DE00028FA0346FB7500F035F938613A69062167
:104DF00000200EF0DEF80346FB753B6905331A7898
:104E0000564B1A723B6904331A78544B5A723B69F9
:104E100003331A78514B9A723B6902331A784F4B1D
:104E2000DA723B6901331A784C4B1A733B691A7872
:104E30004A4B5A734A4A102118200EF0BAF803461A
:104E4000FB75484A102108200EF0B3F80346FB75A5
:104E5000182101200EF032F90346FB750DF0FDFD1F
:104E60000346FB750023FB73FB7B43F00103FB73DD
:104E7000FB7B002B1FD03C4BBB60BA1DF87BBB1CDF
:104E800001933B1D00931346072200210DF0E7FB21
:104E90000346FB75FC88BD88B868FBF7C1F903467B
:104EA000DAB2BB68009313460022294620460DF073
:104EB000D7FF0346FB75F88879883B4600930223A9
:104EC00000220DF0CDFF0346FB75022202210020D7
:104ED0000EF051FA0346FB75244B01221A70234B46
:104EE0001B7818460DF03CFA0346FB751F4B012258
:104EF0005A701E4B08221A711C4B10225A711B4B00
:104F00000022DA70194B1A4A9A60184B01229A70E3
:104F1000164B9C78154B5D78144B1B79134A5279CC
:104F20001249C978114880680026049603900291BE
:104F30000192009300230122294620460DF064FAD5
:104F40000346FB75094B9B78002B03D00DF0A6FCA4
:104F50000346FB7500BF1C37BD46F0BD10000020A6
:104F6000C8A00108D8A00108B89C0108281000209A
:104F700007B2010080B58CB008AF0346FB719223E5
:104F8000FB72FB79012B06D12B4B1B88FB812B4B32
:104F90001B88BB8105E04FF4C863FB814FF47A6343
:104FA000BB81274B93F881301846FEF7EDFBFB7968
:104FB000022B0DD1224B93F88030012B04D0204BD3
:104FC00093F88030022B03D10DF0ACF80346FB724E
:104FD0001B4AFB7982F88030194B1B7EBA89F9890C
:104FE0000020069000200590164804900393164B6D
:104FF00002930823019300230093002300200DF067
:10500000B5F80346FB7211490E200DF0D5FB03469F
:10501000FB72FB7A002B0AD1FB79012B07D1084BDD
:1050200093F881300A491846FEF732FC00BF00BFF2
:105030001037BD4680BD00BFAC100020AE10002070
:105040002810002041100020E8A0010810000020D6
:1050500046E0010080B586B000AFFFF7E5FC38619F
:105060003B69B3F1FF3F23D0FFF7F6FCB860FFF7D1
:10507000E7FC78603B69DAB2164B1A703B691B0A91
:10508000DAB2144B5A707B68DAB2124B9A70BB6872
:10509000DAB2104BDA70BB681B0ADAB20D4B1A7128
:1050A000BB681B0CDAB20B4B5A710A4B7B610BE0ED
:1050B00000200EF039FCF860FB68002B02D0FB6882
:1050C0007B6101E0044B7B617B6918461837BD4664
:1050D00080BD00BF20100020C0A0010880B582B0B4
:1050E00000AF0A4B93F88030052B0AD09223FB7156
:1050F0000DF018F80346FB71044B002283F8802062
:1051000000BF00BF0837BD4680BD00BF281000208B
:1051100080B500AF0021012011F09CFC00BF80BDD4
:1051200080B400AF00BFBD465DF8047B704700004F
:1051300090B589B002AF0346FB80244B1B78012B4E
:105140003FD1224B00221A70214B1B780133002BD8
:1051500003F00103B8BF5B42DAB21D4B1A701C4B5F
:105160001B781C4A9B00134493ED007AF7EE046A07
:10517000C7EE267AFDEEE77A17EE903AFB82144BE3
:105180001B78144A9B00134493ED007AF7EE046AEF
:10519000C7EE267AFDEEE77A17EE903ABB8200233F
:1051A0007B824FF4FA733B820B4BD88A7C8ABA8A93
:1051B000F98A3B8A009323460EF05AF90346FB73A3
:1051C00000BF00BF1C37BD4690BD00BFB51000201A
:1051D000B4100020080000202810002080B500AF87
:1051E000084B93F88030012B0AD0064B93F880309F
:1051F000002B05D0034BDB8A1846FFF799FF00BF51
:1052000000BF80BD2810002080B582B000AF78605C
:105210000021042011F01EFC00BF0837BD4680BDF0
:1052200080B582B000AF7860012011F07FFC00BF34
:105230000837BD4680BD80B582B000AF78600120E0
:1052400011F094FC00BF0837BD4680BD80B584B026
:1052500000AF78607B68FB60FB685B6808331846CA
:105260000FF066F80346FB72FB7A002B03D0FB6855
:1052700001221A7003E0FB6800221A7000BF103789
:10528000BD4680BD80B584B000AF0346FB71FB799D
:10529000002B02D0012B07D00DE040F2FF13FB6082
:1052A000F86811F003FC06E040F2FF13FB60F868B9
:1052B00011F01CFC00BF00BF1037BD4680BD0000D0
:1052C00080B582B000AF78607B681B78032B0ED06E
:1052D000032B47DC002B02D0012B04D042E0254BEE
:1052E00001221A7041E0234B00221A703DE07B68D6
:1052F0005B681B78002B17D17B685B6801331B78D8
:10530000012B05D1002001F0A3FC1A4B01229A7059
:105310007B685B6801331B78002B05D1002001F00E
:10532000B1FC144B00229A707B685B681B78012BE0
:105330001AD17B685B6801331B78012B05D10020F3
:1053400001F086FC0B4B01229A707B685B6801338D
:105350001B78002B08D1002001F094FC054B0022A3
:105360009A7001E000BF00E000BF00BF0837BD46F3
:1053700080BD00BFB810002080B582B000AF78605B
:105380007B681B78002B05D0012B00D003E000F0D8
:1053900055F800E000BF00BF0837BD4680BD0000E3
:1053A00080B500AF1B4A0021082011F031FB1A4ADA
:1053B0000021102011F02CFB184A0021802011F050
:1053C00027FB174A0021402011F022FB154A00213B
:1053D0004FF4807011F01CFB134B01221349002085
:1053E000FEF758F9114B1B7840F299111846FEF759
:1053F0004FFA0F4B01220F490020FEF74BF90E4BDD
:1054000000221A7000F01AF8FDF728F902F07CF873
:1054100000BF80BD1157000831570008255A000809
:10542000E9590008395A0008035A0008C010002042
:10543000135A0008C1100020B810002080B400AF3B
:10544000084B01225A70074B00229A70054B01222B
:10545000DA70044B00221A7100BFBD465DF8047B70
:10546000704700BFB8100020B0B58CB000AF1A4B29
:1054700007F110041D460FCD0FC495E80F0084E816
:105480000F0007F11003184602F0D6F8134C3B4604
:1054900007F110021146184601F014FF23463C465E
:1054A00020686168A26807C3A2891A800B4801F0CE
:1054B00071FF082209490A4812F0E1FA094B1B78EA
:1054C000002B05D0882206494FF642600EF058FBAB
:1054D00000BF3037BD46B0BDC09C0108E4100020BD
:1054E000201B0020B8100020B0B5ADF5A86D00AFAE
:1054F0000C21304800F0C2FE2F4B07F5A3641D4677
:105500000FCD0FC495E80F0084E80F0007F5A363E3
:10551000184602F091F8294C3B4607F5A362114664
:10552000184601F0CFFE07F5A863A3F5A86223464D
:10553000144620686168A26807C3A2891A801F48C0
:1055400001F028FF08221D491D4812F098FAFDF7C6
:10555000AFF807F1140319460020FDF799FAC7F8D0
:105560003C0507E007F1140319460020FDF790FA07
:10557000C7F83C05D7F83C35002BF3D107F11403ED
:105580001846FDF7E7F8C7F838050E4B8022D7F824
:105590003815184612F073FA882209494FF642600E
:1055A0000EF0EEFAFDF78CF800BF07F5A867BD46D0
:1055B000B0BD00BFE09C0108C09C0108E4100020C1
:1055C000201B0020281B002080B500AF0D4B1B784E
:1055D000002B0AD00C4B1B781846FEF7D5F8FDF7C8
:1055E0006FF8084B00221A700AE0FDF761F8064BCD
:1055F0001B7866211846FEF74BF9024B01221A7000
:1056000000BF80BD1C1B0020C110002090B585B0DC
:1056100000AFFDF74DF810490020FDF739FA0F4CA7
:105620003B460F49184601F04DFE23463C46206894
:105630006168A26807C3A2891A800A4812F0C0F8FC
:10564000FDF73EF8084B01221A70054801F00CFFE7
:1056500000BF1437BD4690BD14110020C4100020B7
:10566000F4100020F09C01081D1B002080B584B0C0
:1056700000AF78600023FB600123BB6005F04AF9AE
:10568000F86000BF002001F031FB0346002BF9D089
:1056900005F040F9B860BA68FB68D31AB3F57A7FB1
:1056A00002D9FFF721FF06E0BA68FB68D31A142B72
:1056B00001D9FFF7D9FE00BF1037BD4680BD80B5C8
:1056C00084B000AF78600023FB600123BB6005F06D
:1056D00021F9F86000BF012001F008FB0346002B10
:1056E000F9D005F017F9B860BA68FB68D31AB3F5BA
:1056F0007A7F02D9FFF78AFF06E0BA68FB68D31AFF
:10570000142B01D9FFF760FF00BF1037BD4680BDE5
:1057100080B500AF002001F0E9FA0346002B0CBF72
:1057200001230023DBB21846FFF7A0FF00BF80BDB6
:1057300080B500AF012001F0D9FA0346002B0CBF61
:1057400001230023DBB21846FFF7B9FF00BF80BD7D
:10575000B0B5ADF5AF4D94B07EAF984812F030F8CB
:10576000012001F075FA964B1B78002B03D1954868
:1057700011F0B8FF1DE100220021934801F0A4FCC4
:10578000914801F0A5FFFCF793FF07F5A94303F14A
:10579000500319468D48FCF7ADFF07F51673383BEB
:1057A0001846FCF7A1F8282307F5AB4202F157028F
:1057B0001370D2E007F5AB4303F157031B78013BAD
:1057C00007F5AB4202F15702137007F5AB4303F143
:1057D00057031B7819467E4811F084FF7D4811F06D
:1057E000EFFF7D490020FDF753F907F5AB4303F1C7
:1057F0005003186008E078490020FDF749F907F5E3
:10580000AB4303F15003186007F5AB4303F15003BA
:105810001B68002BEFD1714C07F15803583B6A49C4
:10582000184601F04FFD07F5BB63A3F5BB622346A5
:10583000144620686168A26807C3A2891A80684D6F
:1058400007F51673403B059307F516733C3B04932D
:10585000624B6C460FCB07C4238095E80F0001F024
:1058600053FF07F5A74303F1500319465A48FCF7C5
:1058700041FF07F5A74202F1500207F5A94101F1E6
:10588000500107F5A54303F150031846FCF7D6F97C
:1058900007F5A54303F150031846FCF7FFF807F599
:1058A000BB63A3F56F73D3ED007A07F5BB63A3F574
:1058B000707393ED007A07F5BB63A3F2C45307F549
:1058C000A54202F15002F0EE470AB0EE670A114617
:1058D0001846FBF7C1FB07F5BB63A3F2C453D3F82B
:1058E000F831002B05DD282307F5AB4202F1570202
:1058F000137007F5BB63A3F2C45507F51674383C63
:10590000684605F10C034FF4FC72194612F0B7F823
:1059100095E80E002046FCF76BF807F5BB63A3F58E
:105920006E7303F5A043D3F8A42007F5BB63A3F57A
:105930006E711346DB0113449B00CC18684604F1DA
:1059400010034FF4FA72194612F099F894E80F0018
:10595000FCF7D4F8234811F033FF07F5AB4303F10C
:1059600057031B78002B7FF425AF174801F07CFD0F
:10597000154801F0ADFEFCF7A3FE012001F082F90D
:10598000174C07F15803583B0F49184601F09AFC91
:1059900007F5BB63A3F5BB62234614462068616824
:1059A000A26807C3A2891A8000220121064801F0DB
:1059B0008BFB07F5AB475837BD46B0BD089D0108C6
:1059C0001D1B0020249D0108F4100020141100204C
:1059D0003C9D0108509D010818160020D41000209D
:1059E000C41000205C9D010880B500AF032001F0C9
:1059F0007DF90346002B02D1FFF7AAFE00BF00BFCE
:105A000080BD80B500AF0021802011F023F800BFD9
:105A100080BD80B500AF00214FF4807011F01AF8FE
:105A200000BF80BD80B500AF002001F045F9FFF751
:105A30005BFD00BF80BD0000B0B5ADF5B86D00AF37
:105A40006D4B1B78142B02D16B4B00221A706A4BE2
:105A50001B780133DAB2684B1A70684B07F20454B2
:105A60001D460FCD0FC495E80F0084E80F0007F224
:105A7000245307F204521146184601F023FCB7F8EC
:105A80002435DBB287F83435B7F824351B0A9BB2CE
:105A9000DBB287F83535B7F82635DBB287F836350F
:105AA000B7F826351B0A9BB2DBB287F83735B7F853
:105AB0002835DBB287F83835B7F828351B0A9BB292
:105AC000DBB287F839353B4619460020FCF7E0FF8A
:105AD000002387F8BF357FE0002387F8BD3571E0EC
